:020000040800F2
:1000000080050020C9000008A1130008791100082C
:1000100000000000000000000000000000000000E0
:10002000000000000000000000000000DD130008D8
:100030000000000000000000A3130008DF13000808
:10004000DB00000800000000DB000008DB00000807
:10005000DB000008DB000008DB000008DB00000814
:1000600000000000DB000008DB000008DB000008E7
:10007000DB000008DB000008DB00000800000000D7
:10008000DB000008DB00000800000000DB000008C7
:10009000DB000008DB000008DB000008DB000008D4
:1000A000DB000008DB000008DB000008DB000008C4
:1000B000DB0000080348854600F08EF80048004742
:1000C000F11A0008800500200448804704480047D2
:1000D000FEE7FEE7FEE7FEE7FEE7FEE7591400084D
:1000E000B500000830B50B4601460020202201244F
:1000F00009E00D46D5409D4205D31D469540491B5C
:100100002546954040191546521E002DF1DC30BDA4
:10011000F0B51FB40646002082B005464024019188
:1001200000901BE0019922460F46304600F020F86F
:10013000049A059B801A994110D31046194622460D
:1001400000F039F8361A8F4101972246012000212C
:10015000009F00F030F838184D4100902046641E92
:100160000028DFDC019B00982946324607B0F0BD2D
:1001700010B5202A04DB0846203AD040002110BDEB
:100180000B46D340D0402024A21A91400843194680
:1001900010BDD2B201E00270401C491EFBD2704774
:1001A0000022F6E710B513460A4604461946FFF743
:1001B000F0FF204610BD10B5202A04DB0146203A8E
:1001C0009140002010BD914020239C1A0346E3403B
:1001D0001943904010BD0000064C0125064E05E075
:1001E000E36807CC2B430C3C98471034B442F7D358
:1001F000FFF764FF4C1B00086C1B0008FCB50023D4
:100200000124A1E027462A469F403A4073D04D681A
:10021000012D05D0022D03D0112D01D0122D16D1A4
:1002200085680326AC465D00AE46AE406546B543E4
:10023000AC46CE687546AE4065462E43866046683D
:100240000D79BE43ED06ED0F9D4035434560C66810
:100250005F000325BD40AE46AE4335468E68BE40C6
:100260002E43C6604E68022E01D0122E14D1DE0835
:10027000B60036180196366A5D07B446EE0E0F25B5
:10028000B54000966646AE43B4460D69009EB54043
:1002900066462E43019D2E6206687546AE430D7973
:1002A000AD07AD0FBD40354305604D68ED004AD543
:1002B000284DAE692643AE61AD699E08ED07ED0F8E
:1002C0000095254DB6007519AC46AD689E07360FF2
:1002D0000F27B740BD430927FF06B84201D10027C9
:1002E00010E01E4FB84201D101270BE01C4FB8426D
:1002F00002D1022706E026E01A4FB84201D10327B7
:1003000000E00527B7402F436546AF60164E3568BD
:100310004F689543FF0300D51543356075684F68F6
:100320009543BF0300D515437560B5684F68954385
:10033000FF0200D51543B560F5684F689543BF02CD
:1003400000D51543F5605B1C0A681546DA4000D0FD
:1003500058E7FCBD001002400000014000040048C6
:1003600000080048000C004800040140002A01D0A9
:100370008161704781627047014880687047000062
:100380000000002070B5024640325378202B1CD16B
:100390001378012B19D0012313702424547004689E
:1003A00025689D432560046825681E03B5432560C4
:1003B000046825680D4325600068016819430160E1
:1003C000202050700020107070BD022070BD70B5EC
:1003D000024640325378202B1BD11378012B18D0C2
:1003E000012414702423537003681D68A5431D6005
:1003F00005682B680F263602B343090219432960AA
:1004000000680168214301602020507000201070B6
:1004100070BD022070BD000070B5040006D02546F6
:10042000403568780026002802D005E0012070BD24
:100430002E70204600F04AF8242068702068016879
:100440004908490001600F21606809068843216856
:10045000086121688A680120C00382438A60E168DC
:100460000129A16808D021229202114322689160DB
:10047000E168022902D005E00143F7E70121226883
:10048000C902516021684A680F4B1A434A602168CB
:10049000CA688243CA60616920690843A169090288
:1004A00008432168C860216AE06908432168086040
:1004B0002068016801221143016066642020687091
:1004C0002663AE70002070BD0080000210B586B0BB
:1004D000044614216846FFF763FE124920688842EB
:1004E0001DD1114C61690120800401436161616982
:1004F00001400591C02000901220012101900320AD
:1005000002910491039069460848FFF777FEE1697C
:10051000012040050143E161E1690140059106B018
:1005200010BD0000005400400010024000040048CC
:1005300002488168027889188160704700000020B5
:1005400010B506480168102211430160002000F038
:1005500007F800F027F8002010BD0000002002403E
:1005600070B504460D4D7D202978C000FFF7BAFD17
:1005700001460B480068FFF7B5FD00F0C3FB0028FB
:1005800009D1042C07D200222146401E00F01EF89B
:1005900000206C6070BD012070BD000000000020D4
:1005A0000C00002008B508488169012211438161CF
:1005B000816911400091C26901040A43C261C069A6
:1005C0000840009008BD00000010024010B501F086
:1005D0005DFA10BD02480168821511430160704741
:1005E00000700040F8B505460068354CC00352D590
:1005F000E0690026C00007D4E16920040143E161FD
:10060000E1690140012600912E480168C90510D416
:100610000168821511430160FFF7AEFE074604E052
:10062000FFF7AAFEC01B642824D826480068C0052E
:10063000F6D5206A03273F02384020D06968394048
:1006400081421CD0206A226AB843012109040A436E
:100650002262226A8A4322622062C0070FD0FFF71B
:100660008BFE009008E0FFF787FE0099411A1648BC
:10067000814201D90320F8BD206A8007F3D5206AA2
:100680006968B84308432062002E04D0E169012064
:1006900000078143E1612878C00705D0206BA96875
:1006A00080088000084320632878800605D5206BE9
:1006B00010218843E968084320630020F8BD00004A
:1006C000001002400070004088130000F8B50F468B
:1006D000060059D03A4D2868C007C00FB84209D269
:1006E000286840084000384328602868C007C00FC9
:1006F000B84249D13068334C81070CD5400704D546
:10070000606807210902084360606068F02188433F
:10071000B168084360603078C00726D0706801284F
:100720000ED0216802280ED0890700292CDA6168D2
:100730008908890001436160FFF71EFE00900DE00B
:1007400021688903F1E78901EFE7FFF715FE0099BA
:10075000411A1D48814201D90320F8BD60680C216F
:100760000840716889008842EFD12868C007C00F2F
:10077000B8420BD9286840084000384328602868F0
:10078000C007C00FB84201D00120F8BD3078400743
:1007900006D56068072109028843F1680843606054
:1007A00000F028F86168094A0906090F515CC84041
:1007B000074908600020FFF7D3FE0020F8BD0000C5
:1007C000002002400010024088130000341B000883
:1007D0000C0000200448054900684968044A49059E
:1007E000490F515CC84070470C00002000100240C7
:1007F000441B000810B514A30FCB88B06C460FC47F
:1008000015A30FCB0FC4184A51680C200B460340A8
:100810001648042B16D0082B14D18B021B0F6C46E4
:10082000E45CD26A04AB1207120F9A5CC90305D5C7
:1008300000231946FFF76CFC214601E020460C49D5
:1008400001F00CF908B010BD020304050607080901
:100850000A0B0C0D0E0F1010010203040506070809
:10086000090A0B0C0D0E0F100010024000127A0046
:1008700000093D00FEB5040070D02078DC4DC007B3
:100880004AD068680007800F012807D06868000711
:10089000800F022809D16868C00306D52868800344
:1008A0003AD560680028E7D036E06168012914D0A5
:1008B00001208004002901D0052914D02A680121D3
:1008C00009048A432A6029688143296060680028F6
:1008D00016D0FFF751FD06460EE0286801210904F5
:1008E00008432860F2E7296801432960F5E7FFF72C
:1008F00043FD801B64286ED828688003F7D50BE081
:10090000FFF73AFD064604E0FFF736FD801B64283A
:10091000F1D828688003F7D42078012680070028C2
:100920003CDA68680007800F07D068680007800F0E
:10093000022809D16868C00306D42868800716D544
:10094000E06801280AD112E0E0680028286816D083
:1009500030432860FFF710FD074605E043E1FFF74D
:100960000BFDC01B0228C6D828688007F7D5286869
:10097000F82188432169C900084328600EE0400837
:1009800040002860FFF7F8FC074604E0FFF7F4FC9E
:10099000C01B0228AFD828688007F7D4207800074A
:1009A00022D5E0690028686A0ED030436862FFF7FC
:1009B000E3FC074604E0FFF7DFFCC01B02289AD8DF
:1009C000686A8007F7D50FE0400840006862FFF7CB
:1009D000D3FC074605E09DE0FFF7CEFCC01B0228D4
:1009E00089D8686A8007F7D4207804274007002850
:1009F00060DA00200190E869C00008D4E969B8060F
:100A00000143E961E96901400120009101907948C1
:100A10000168C90511D40168821511430160FFF70F
:100A2000ABFC009005E0FFF7A7FC0099401A642892
:100A300070D870480068C005F5D5A06801280AD0B4
:100A4000002801D0052810D0286A400840002862FC
:100A5000286AB84301E0286A30432862A068002869
:100A600012D0FFF789FC00900AE0286A3843286218
:100A7000F1E7FFF781FC0099411A5F48814249D8AC
:100A8000286A8007F5D50DE0FFF776FC009006E0B8
:100A9000FFF772FC0099411A574881423AD8286AF8
:100AA0008007F5D40198002804D0E96901200007E7
:100AB0008143E9612078C00635D5606901280CD0F2
:100AC000401D686B23D038436863686B4008400062
:100AD0006863FFF751FC064622E0686B38436863A1
:100AE000686B30436863FFF747FC064604E0FFF796
:100AF00043FC801B02285BD8686B8007F7D5686BC6
:100B0000F8218843A169C900084368630BE0B84332
:100B10006863F4E74CE0FFF72FFC801B022847D8FE
:100B2000686B8007F7D4206A00285ED069680907DF
:100B3000890F022942D0012636060228286805D0EE
:100B4000B0432860FFF718FC044633E0B043286048
:100B5000FFF712FC074604E0FFF70EFCC01B02285B
:100B600026D828688001F7D4E86AE16A0009000104
:100B70000843E862616AA06A084369683D2212047A
:100B8000914308436860286830432860FFF7F4FB0E
:100B9000044604E0FFF7F0FB001B022808D8286891
:100BA0008001F7D521E0FFF7E7FB001B022801D900
:100BB0000320FEBD28688001F5D416E00128F8D096
:100BC0006868E96A01221204636A02409A420AD103
:100BD0000907E26A090F914205D10F2189040840F3
:100BE000A16A884201D00120FEBD0020FEBD0000A8
:100BF00000100240007000408813000070B504002F
:100C000003D0607F002802D006E0012070BD0020E4
:100C10002077204600F04CF8022060772168CA2037
:100C20004862216853204862204600F0BBFBFF2544
:100C30000426002824D1206881681C4A1140816064
:100C40002168886862686369104322691A43104307
:100C500088602168E06808612068016922891204BF
:100C6000114301612068C16880229143C1602068FE
:100C70008068800608D4204600F02AF8002803D0B7
:100C8000206845626677C0E72068016C0122920403
:100C9000914301642068016CA269114301642068DA
:100CA000456201206077002070BD0000BFFF8FFF0C
:100CB00000680549884205D10448016A0122D2032F
:100CC00011430162704700000028004000100240FC
:100CD00070B504460068C168A0229143C160FFF767
:100CE0004BFB7D260546F60006E0FFF745FB401B63
:100CF000B04201D9032070BD2068C0688006F4D5D9
:100D0000002070BD094910B5401E884201D901205C
:100D100010BD074C60610321081F00F0B7FE0020E2
:100D2000A06107202061002010BD0000FFFFFF0030
:100D300000E000E030B5034620331A7F012A26D0B8
:100D400001221A770325CA682D02AA438D68002460
:100D50002A430125AD02AA434D6800682A430125B4
:100D6000ED02AA430D682A4301252D03AA430D690C
:100D70002A4301256D03AA434D69C9692A43012508
:100D8000AD03AA430A4342641C77002030BD022011
:100D900030BD0000F0B502462032137F012B1ED07B
:100DA000012515770223537706687468B3687027A6
:100DB000BC430F682743776000680A4CA04205D007
:100DC000094CA04202D0094CA04204D180244968B9
:100DD000A34319438160557700201077F0BD0220AE
:100DE000F0BD0000002C0140000400400040014024
:100DF00070B5040005D025462035687F002802D054
:100E000006E0012070BD00202877204600F00AF897
:100E100002206877211D206800F020FB0120687700
:100E2000002070BD08B50B4A01680B48914205D1FE
:100E30008269C1140A438261806907E0074A9142CE
:100E400006D1C26902210A43C261C069084000900C
:100E500008BD0000002C01400010024000040040CA
:100E6000F8B5054604462035287F012817D001260D
:100E70002E7702206877226890687727FF23B8438F
:100E80001B02984390600A68502A31D00EDC202A59
:100E90004BD006DC002A48D0102A3AD145E0022087
:100EA000F8BD302A41D0402A33D136E0602A27D01D
:100EB000702A12D001200003121A2AD0824228D1AF
:100EC000CB684A688968206800F00CFB206881685C
:100ED00001229203114381601BE0CB684A68896854
:100EE000206800F0FFFA216888683843886010E0C5
:100EF000CA684968206800F005FC5021206806E0B7
:100F0000CA684968206800F00EFC6021206800F083
:100F1000F4FA6E7700202877F8BDCA68496820681F
:100F200000F0F0FB40212068F1E711462068EEE771
:100F300010B586B0044614216846FFF731F92368DE
:100F4000154C002215480221A3420FD144690B041D
:100F50001C43446140691840059088026B4607C3F2
:100F60000491092003926946C00610E00C4CA3428C
:100F70000FD144691B131C4344614069184005901C
:100F800001206B4607C30490694603920548FFF7AA
:100F900035F906B010BD0000002C014000100240E1
:100FA0000004004000040048F8B506460446203618
:100FB000307F0D4601280DD0012030770220707758
:100FC0000427002A08D0042A16D0082A2AD00C2A7E
:100FD0004DD137E00220F8BD206800F097FA206874
:100FE000816908221143816120688169B943816167
:100FF000206881692A6912E0206800F0CBFA206835
:1010000082690121C9020A43826120688169012243
:10101000920291438161206881692A691202114319
:10102000816124E0206800F0F5FA2068C269082197
:101030000A43C2612068C169B943C1612068C169BE
:101040002A6912E0206800F027FB2068C1690122AC
:10105000D2021143C1612068C269012189028A4319
:10106000C2612068C1692A6912021143C16101206D
:10107000707700203077F8BD70B5040005D02546A4
:101080002035687F002802D006E0012070BD0020D6
:101090002877204600F00AF802206877211D206892
:1010A00000F0DCF901206877002070BD704710B5B2
:1010B000040003D0606F002802D007E0012010BDBB
:1010C000002170200155204600F026F8242060679A
:1010D00020680168490849000160204600F0CCFB07
:1010E0000128ECD0606A002802D0204600F02EFBD8
:1010F000206841680122D2029143416020688168E2
:101100000822914381602068016801221143016037
:10111000204600F081FB10BD10B586B004461421B6
:101120006846FFF73DF81249206888421DD11148F2
:10113000C269012149040A43C261C2690A40059299
:1011400042690A4342614069084005900C200090C2
:1011500002200190002002900320039001200490BF
:1011600009206946C006FFF749F806B010BD000027
:101170000044004000100240FEE7000070B586B059
:1011800014216846FFF70CF81C4842690121C90484
:101190000A43426142690A400592426989100A4342
:1011A000426142690A400592426949000A4342612C
:1011B0004069092608408C11F60605900022214658
:1011C0003046FFF7D3F801200025019002956946CB
:1011D000039500943046FFF711F8E000084C6A468A
:1011E00031C269463046FFF709F838206A4631C2F5
:1011F00069460448FFF702F806B070BD00100240CF
:10120000000011100004004810B50D480B490160A2
:101210000C494160002181600161416181610122CD
:10122000C161C2600162FFF7F7F800210448FFF7CF
:10123000A9F800210248FFF7CAF810BD0054004089
:10124000100000200E09002010B596B000240F9465
:1012500010941194129413941C2108A81494FEF76E
:101260009FFF20216846FEF79BFF1F481D49016034
:10127000072184604160046144611C498461C1604C
:10128000FFF7B6FD012000030F900FA91648FFF7E6
:10129000E7FD1548FFF7F0FE139413A912481494C4
:1012A000FFF778FD60200890FF202D300E94099004
:1012B0000A940C940D940C2208A90B48FFF774FEB5
:1012C0000120009440030294059001940394049437
:1012D000694607940448FFF72DFD0348FFF728FEF1
:1012E00016B010BD002C01407C000020E703000078
:1012F00010B58EB000240794089409940A940B94B6
:101300001C2168460C94FEF74BFF174815490160F5
:10131000072184604160046114498461C160FFF762
:1013200067FD01200003079007A90F48FFF798FD0C
:101330000D48FFF7A1FE0B940BA90B480C94FFF787
:1013400029FD60200090FF202D300190029408229A
:10135000694604940448FFF727FE0348FFF7E8FDB9
:101360000EB010BD00040040BC000020E7030000E8
:1013700010B50A48084901604B21C90141600021AC
:101380008160C16001618161C1610C2201624261C1
:101390004162FFF78CFE10BD00440040FC000020BD
:1013A0007047704770B504460068C168490613D499
:1013B0000021C943C160FEF7DFFF7D260546F60028
:1013C00006E0FEF7D9FF401BB04201D9032070BDF3
:1013D0002068C0684006F4D5002070BD704710B585
:1013E000FFF7A6F810BD000010B594B03021684694
:1013F000FEF7D6FE00240C940D940E940F941094D6
:10140000119412941394FFF7E5F81148016A182219
:1014100011430162062000900120039002901020E9
:10142000049008946846FFF725FA07200C900D9465
:101430000E9400210F940CA8FFF748F9054810906E
:1014400000121190139410A8FFF7CCF814B010BD3F
:10145000001002402000010070470000F0B5026853
:101460001A4B1B4C984201D0A04203D17025AA43CD
:101470004D682A43174D184E184F98420AD0A04283
:1014800008D0174CA04205D0A84203D0B04201D0EA
:10149000B84205D11446032212029443CA6822437B
:1014A0008024A2434C69224302608A68C2620A68AF
:1014B0008262984205D0A84203D0B04201D0B8421F
:1014C00001D10969016301214161F0BD002C014096
:1014D0000004004000400140004401400048014039
:1014E0000020004030B58468FF252D021B02134305
:1014F000AC430B432343836030BD826870239A431F
:101500000A4307210A43826070470000F0B5026A6F
:10151000520852000262056A436882697024A2433D
:1015200092080C6892001443022295438A68164E72
:101530002A43144DA84207D0B04205D0134FB842F9
:1015400002D0134FB84206D10827BA43CF681743D9
:10155000042297433A46A84207D0B04205D00B4D2B
:10156000A84202D00A4DA84206D103252D02AB4362
:101570004D691D438B692B43436084614968416316
:101580000262F0BD002C01400040014000440140D7
:101590000048014070B5026A10239A430262056A4E
:1015A0004268836973242402A3430C6824021C4309
:1015B00020239D438B681B012B43124DA84208D169
:1015C0001D46CB688026B5431B012B434025AB430A
:1015D00008E00D4DA84205D00C4DA84202D00C4D9C
:1015E000A84208D10325AD02AA434D69AD001543B9
:1015F0008A6992002A434260846149688163036278
:1016000070BD0000002C014000400140004401403A
:101610000048014070B5026AFF2301339A43026219
:10162000056A4368C2697024A24392080C6892005C
:1016300014430122520295438A6812022A43124D32
:10164000A84208D11546CA68C614B54312022A43F7
:101650000515AA4308E00D4DA84205D00C4DA8423F
:1016600002D00C4DA84208D103252D03AB434D6990
:101670002D011D438B691B012B434360C4614968E5
:10168000C163026270BD0000002C014000400140B7
:10169000004401400048014030B5026A01231B03A9
:1016A0009A430262046A4268C36973252D02AB4300
:1016B0000D682D021D4301235B039C438B681B03B4
:1016C00023430C4CA04208D00B4CA04205D00B4C3D
:1016D000A04202D00A4CA04205D10124A403A24397
:1016E0004C69A40122434260C561496801640362F8
:1016F00030BD0000002C014000400140004401408A
:101700000048014030B5036A046A6408640004625A
:101710008469F025AC43120122430A24A3430B43FE
:101720008261036230BD30B5036A1024A3430362B3
:101730008469036A0F252D031203AC432243A024BE
:10174000A343090119438261016230BD10B5818C48
:10175000C90707D001684A6801235B049A43836A7A
:101760001A434A60818C890707D501684A680123BA
:101770001B049A43C36A1A434A60818C490707D500
:1017800001684A6801239B049A43036B1A434A6029
:10179000818C090707D501684A680123DB039A4356
:1017A000436B1A434A60818CC90607D50268916869
:1017B00001231B039943836B19439160818C890634
:1017C00007D501688A6801235B039A43C36B1A43F8
:1017D0008A60818C490612D503685A68012109057F
:1017E000046C8A4322435A60026C8A4207D1026821
:1017F000516803235B059943436C19435160818C05
:10180000090607D501684A680123DB04806C9A4306
:1018100002434A6010BD0000F8B500260446C667C2
:10182000FEF7AAFD054620680068124F000709D59B
:1018300001212B46002249052046009700F0C0F800
:1018400000280DD12068006840070BD501212B46E8
:10185000002289052046009700F0B2F8002801D048
:101860000320F8BD20206067A06760342674002044
:10187000F8BD0000FFFFFF0170B5044680682169D4
:10188000E269084361690025114322680843116831
:10189000444B194001431160216848680322120338
:1018A0009043E26810434860A169206A22680843B7
:1018B00091680B231B029943014391603A492068C8
:1018C000884210D13948006B8007800F11D0012861
:1018D00005D0022805D003280AD1022009E00420FF
:1018E00007E0082005E03249884201D1002000E0ED
:1018F00010200122E169D2032E4E914228D1002806
:1019000006D0022807D0042817D0082844D11AE0AE
:10191000FEF760FF13E06168274A48088018FEF769
:10192000E1FB80B201461039B14235D82149491C4A
:1019300001400007400F084321E0FEF75BFF6168AC
:1019400040004A08EAE76168012248081204E5E716
:10195000002806D0022807D0042813D008281BD15D
:1019600016E0FEF737FF0FE06168144A480811E0FF
:10197000FEF7B8FB80B201461039B1420CD821689D
:10198000C8600AE0FEF736FF61684A081018EFE702
:10199000616848088018EBE7012500202066606632
:1019A000284670BDF369FFFF003801400010024077
:1019B00000440040EFFF00000024F40000127A0011
:1019C000FFB581B005460F46044660350A9E38E0F3
:1019D000701C36D0FEF7D0FC0499401AB04221D8D2
:1019E000002E1FD02068016849072AD5C069C0436E
:1019F000000526D401202168C00208622068016821
:101A0000FF22A132914301602068816849084900A2
:101A1000816020206067A067E067002028740320B1
:101A200005B0F0BD20680168FF22A132914301603A
:101A30002068816849084900816020206067A067AC
:101A4000EBE72068C1693846884305D00021039838
:101A50008142BDD00020E3E70121F8E7F8B5040C8E
:101A60008BB2264682B25E430D0C1046370C5843AB
:101A7000360480190021794116466E43370C36042E
:101A80008019794126466E438919F8BD8307FF22E4
:101A9000DB0E9A408907090E9940002808DB83086D
:101AA00009489B001B18186890430843186070474A
:101AB0000007000F0838830804489B001B18D869EA
:101AC00090430843D861704700E400E000ED00E077
:101AD00002E008C8121F08C1002AFAD170477047F7
:101AE000002001E001C1121F002AFBD17047000055
:101AF000FEF726FDFFF778FCFFF740FBFFF784FBBE
:101B00000B480A4901607F22826000214160016127
:101B1000FF224161C2608161FFF770F8FFF794FB1B
:101B2000FFF726FCFFF7E4FBFEE70000002800407B
:101B30005C0000200000000000000000010203041F
:101B40000607080900000000010203046C1B0008DE
:101B50000000002010000000D01A00087C1B0008C4
:101B60001000002070050000E01A000801000000CD
:0C1B7000040000000000000000127A00D9
:04000005080000B53A
:00000001FF
