:020000040800F2
:10000000A01A0020C900000869370008272E000840
:1000100000000000000000000000000000000000E0
:10002000000000000000000000000000CD370008C4
:1000300000000000000000006B370008CF37000808
:10004000DB00000800000000BD370008DB000008EE
:10005000DB000008DB000008F90B0008030C0008B7
:10006000000000008D0B0008DB0000089D0B00085D
:100070005D0A0008DB000008DB000008000000004B
:10008000DB0000086138000800000000DB00000809
:10009000DB000008DB000008DB000008DB000008D4
:1000A000DB000008DB000008DB000008DB000008C4
:1000B000DB0000080348854600F06CFC0048004760
:1000C00091520008A01A00200448804704480047C5
:1000D000FEE7FEE7FEE7FEE7FEE7FEE75D38000825
:1000E000B500000830B50B4601460020202201244F
:1000F00009E00D46D5409D4205D31D469540491B5C
:100100002546954040191546521E002DF1DC30BDA4
:10011000F0B51FB40646002082B005464024019188
:1001200000901BE0019922460F46304600F020F86F
:10013000049A059B801A994110D31046194622460D
:1001400000F03BFB361A8F41019722460120002127
:10015000009F00F032FB38184D4100902046641E8D
:100160000028DFDC019B00982946324607B0F0BD2D
:1001700010B5202A04DB0846203AD040002110BDEB
:100180000B46D340D0402024A21A91400843194680
:1001900010BD03460B439B0703D009E008C9121F9B
:1001A00008C0042AFAD203E00B780370401C491CF3
:1001B000521EF9D27047D2B201E00270401C491EB3
:1001C000FBD270470022F6E710B513460A460446F4
:1001D0001946FFF7F0FF204610BDF8B502464A4029
:1001E000D40F42004B0052085B089A4202D20246EA
:1001F000084611464A0023D0C30D4A00DDB2120E54
:10020000AD1A202D35DA49020126490AF6058A1968
:10021000002C00D0524220214F1B1146B9402A41E8
:100220001018C20D9A4221D0002C17D0012D08DCE5
:10023000DA05801AD20F8019D207DBB200F0E8FA93
:10024000F8BDDA05801A012340001B06C01880188B
:100250005A428018CA0F1043490007E04908C207F4
:100260001143DA05801A80194008801800F0C8FA96
:10027000F8BD61000122511A001BF7E70122D207E5
:100280005140AAE70122D2075040A6E7024670B5C6
:100290004A40D30FDB0740002DD04A002AD0010E80
:1002A000140E000212020919400A520A8418E501CC
:1002B00004465443000A120A2E045043A41942195A
:1002C000200CC543AA18120C0125AD03521C52196B
:1002D00012047F39240400D0521C104301D4400082
:1002E000491EC2B20C06C0092018401C4008802AD2
:1002F00002D003E0002070BD40084000002900DA71
:100300000020184370BD70B502464A40D50F40002A
:100310004A00ED0740085208002814D0002A12D0E5
:10032000C40DD30D41020120C0055202490A520AF0
:10033000E41A091812187D34914201D3641C00E0BC
:100340004900002C01DA002070BD0023914201D346
:10035000891A0343400849000028F7D100290AD030
:10036000914202D10121C90705E0914201D2012148
:1003700001E00121C943E005C018401900F040FA2E
:1003800070BD420005D04200120E52428A4201DB8B
:1003900000207047C905081870470000F0B50746EF
:1003A0000846584087B0C00F049048000E465900D8
:1003B00040084908BC1A884105D2384631461E46D5
:1003C00017460B4602465800400810434CD0300DEB
:1003D000039040055900400D490D0590401A0290C8
:1003E000402872DA18030121000B09050843019027
:1003F00004980092002805D00199524200208841BB
:1004000000920190029840210A1A0199009800F088
:10041000D4F905460C466B4607CB00F0DEF9C0194F
:100420007141039A0E0D0023D71756401A467A40A1
:10043000164344D0049A002A2DD0029A012A039A26
:1004400015DC1205C01A914101263605001C7141C8
:10045000D20F059ED2070093019202962A462346A8
:1004600000F01CFA07B0F0BD38463146FAE7160531
:10047000224A0F46B218C01AB74101210905001CD3
:100480004F4100187F41114618187941E20F10437F
:100490006D19644113E0E2076D0815436408C20753
:1004A0001443039A01261205C01A91413605001C17
:1004B0007141CE07400830434908C01851412A46CF
:1004C000234600F0DEF9CDE7FFE704980122400063
:1004D000C117121A00238B4104983146C417381AE9
:1004E000A141EEE730B40124E407634030BC55E796
:1004F00030B40124E407614030BC4FE70000E0FF66
:10050000F0B51FB488B00B990998002448400999A8
:10051000C00F490049080991C0070B990090490094
:1005200049080B9109990898A64608431CD00B99D5
:100530000A98084318D0099801244000420D480049
:10054000410D099824050003000B204309900B98E6
:100550000003000B20430B9050181C494018002248
:1005600001901446104605E0002001460DB0F0BD94
:10057000032801DA034600E003239C46C11A0AAEB1
:100580000AE05F0008ADED5B4F00F75B7D4300279D
:10059000AA187C41491C5B1E6145F2DD410004AB99
:1005A0005A522104120C0A43240C401C0828DFDB99
:1005B000019802900099704601910090059B049A61
:1005C0000799069800F06AF9D0E700000DFCFFFFDC
:1005D000F0B50C465C4085B0E40FE40703944C0092
:1005E00000266408590094464908024602962243B0
:1005F00021D062460A431ED06200570D4A000E0306
:100600002303550D012402462C492405781B1B0B9E
:10061000360B401823432643614600901C46501A6F
:10062000B44103D30098401C009002E09218009857
:100630005B41002803DA0020014605B0F0BD002030
:10064000012109050746864611E064461D46141B34
:10065000B54106D36546521BB341744607430C436C
:10066000A646CD0740084908284392185B41054635
:100670000D43EAD11046184313D060461946504046
:100680007140084306D06046101AB34106D20122D9
:10069000002306E000220123DB0702E00122D2430F
:1006A0005310009874460105381C6141029C039D5B
:1006B0000019694100F0E5F8BFE70000FD03000004
:1006C000C217C10F504010B54018CA079623002129
:1006D00000F09EF810BD10B500229623114600F0E0
:1006E00097F810BD0EB5C217C10F5040CA07401889
:1006F0000021054B0293019200910A460B4600F03F
:10070000CDF803B000BD0000330400000EB505496C
:100710000291002100910A460B46019100F0BEF8BB
:1007200003B000BD33040000C20F410040020123AA
:10073000400ADB05D207090EC0187F2901DA002024
:100740007047962903DC9623591AC84001E0963970
:100750008840002AF4D040427047C20FD2074000C0
:1007600040080BD0C10D0723DB01C9184002090561
:10077000400A1143C2084007114370470020014658
:100780007047CB0FDB07490010B5490802460A4302
:1007900007D00A0D07240903E401090B121B002AE4
:1007A00001DC002010BDC900440F0C43C100E0185B
:1007B000D205801800F024F810BD10B5202A04DB03
:1007C0000146203A9140002010BD914020239C1A00
:1007D0000346E3401943904010BD10B5202A06DBC4
:1007E000CB170846203A1041C1170B4306E00B46D1
:1007F0001341D0402024A21A91400843194610BD4D
:10080000002904DA401C490001D14008400070472B
:1008100070B40024050C05D11024000402D1002975
:1008200021D01124050E01D100020834050F01D199
:100830000001241D850F01D18000A41C002801DBCC
:100840004000641C002908D020252E1B0D46F540D1
:10085000A14000D001212943084301061B1B000AC7
:10086000DB1D02D5002070BC7047DB05181880180E
:100870000029F8DA401C4900F5D170BC400840005E
:10088000704710B5002B08DA0024401C6141921813
:100890005B411A4301D14008400010BDF0B51FB4C0
:1008A00082B005460C0003D0084603F01FFC02E0AE
:1008B00003F01CFC20300246009021462846FFF73A
:1008C0007CFF049B059A04460F46184311430843D6
:1008D00014D0184610431BD0009840210A1A18461D
:1008E0000599FFF745FC05460E46009A05990498C0
:1008F000FFF763FF084305D0012004E02046394696
:1009000007B0F0BD0020C11705430E432C43374309
:1009100000990E986305401A7905E40A00220C43F9
:10092000FD0A0A3002D500200146E9E70105101949
:1009300069410C9C0D9D00196941FFF7A2FFDFE79B
:1009400070B54B005B0803430BD04B005C0D0026D9
:1009500033466542B341D417AD1AA34102DB0020F0
:10096000014670BD12053018514170BD10B5002907
:1009700004DB0124E40740428C412146002B04DBC8
:100980001C460123DB075242A341994200D1904209
:1009900010BD0000064C0125064E05E0E36807CCBB
:1009A0002B430C3C98471034B442F7D3FFF786FB37
:1009B000405F0008605F0008FEB500231A461B1A5E
:1009C0008A4103DB0020014603B0F0BD4A000D035D
:1009D00001212D0B0905520D0D43D10702D100183D
:1009E0006D41521E5110FF31FF3101310027044685
:1009F0003E46384600970191024601210020090534
:100A0000FFF7B6FBC3197141F818324684468E468B
:100A10004A4161462846611A904104D36046241A2F
:100A2000954176461F46241900986D41401C009060
:100A30003428E1DDF91930467041091BA84103D281
:100A40000022D243134601E000221346019801051B
:100A5000381C7141FFF715FFB6E7000010B50248DA
:100A600000F092F910BD00003C11002010B50146C5
:100A7000406A826B50231A420AD1816B01225202D2
:100A8000114381630168CA681205920F05D020E006
:100A9000006B026B0846904710BD827E002A18D179
:100AA0000A68120715D58A6853070122002B09DB53
:100AB0004B680C24A3434B60816B13029943114391
:100AC000816306E0816B202319438163C16B11436D
:100AD000C16300F037F910BD10B5406A816B402248
:100AE00011438163C16B04221143C16300F04BF9D0
:100AF00010BD10B5406A00F045F910BDF8B50446C8
:100B000000200090206881688907890F012905D19C
:100B10000168C90731D1C16809042ED48168184A17
:100B200010261140012500291AD1816829438160CE
:100B3000154814490068FFF7D5FA00E0401E009000
:100B40000028FBD100F0AEFC074611E000F0AAFC43
:100B5000C01B02280CD920680068C043C00707D01A
:100B6000A06B3043A063E06B2843E0630120F8BD35
:100B700020680068C043C007E8D10020F8BD00002D
:100B80001700008040420F002400002010B50248EA
:100B900000F0BEFA10BD00007C11002010B5024824
:100BA00000F0B6FA10BD00000C14002010B5044689
:100BB0000068054940181421FFF794FA800020646A
:100BC0000248E06310BD0000F8FFFDBF00000240D6
:100BD00030B5056C0124AC40C56B6C600468636083
:100BE0004368102B036803D099600068C26030BD71
:100BF0009A600068C16030BD10B5082000F06EFB3F
:100C000010BD10B5102000F069FB202000F066FB3D
:100C1000402000F063FBFF20013000F05FFB01206B
:100C2000400200F05BFB0120C00300F057FB10BD49
:100C300070470000F8B50025044620340095227D59
:100C4000012A39D00122227503689E68760767D48D
:100C5000384F4E68BE424DD09E6A0F78BA40164358
:100C60009E620123C26A1B079A421FD0012A1DD02F
:100C7000022A1BD0032A19D0042A17D0052A15D01E
:100C8000062A13D0072A11D002688B6856697607A6
:100C9000760FB3420AD05369DB08DB00536100686A
:100CA00042690B7A5B075B0F1A4342610A68102A9C
:100CB00004D0112A02D038E00220F8BD1E48836813
:100CC000102A07D001229205134383600868102878
:100CD00003D02AE00122D205F6E719481749006837
:100CE000FFF700FA0A21484300E0401E0090002868
:100CF000FBD11AE0986A0E78B24090439862096876
:100D0000102901D0112910D10B488268102904D074
:100D1000012189058A43826007E00121C905F9E7BD
:100D2000816B202211438163012500202075284614
:100D3000F8BD0000011000000027014040420F00F4
:100D40002400002070B500200B4C0C4A7D23014686
:100D5000DB00E0608D005559491C28189942F9DBE9
:100D6000E060FFF7D3FC0022054BFFF731FCFFF7F3
:100D700008FDA06070BD000000000020A000002061
:100D8000000059407047704770B50446006801681C
:100D9000490702D54168490705D40168090730D5DC
:100DA000416809072DD5A16BC90604D4A16B0122A6
:100DB00052021143A163C1680C250905890F00295E
:100DC0001AD1A17E002917D10168090714D58168BD
:100DD0004A070121002A08DB4268AA434260A06B4F
:100DE0000A0290430843A06306E0A06B2022104350
:100DF000A063E06B0843E0632046FFF7A3FF206891
:100E000005602068016809060DD5406800060AD50E
:100E1000A06B012109040843A063204600F0D8F824
:100E200021688020086020680168C90613D54168E0
:100E3000C90610D5A16A1025012902D0C168C907C9
:100E400007D0E16B02221143E16305602046FFF702
:100E50009AFF2068056070BDF8B50026044600289A
:100E600005D0A06B25462035002802D007E00120E0
:100E7000F8BD0020E0632875204600F0ABF8A06BB9
:100E80001022C006002870DB2068816849076CD4F6
:100E9000A16B1301994302231943A1638168890758
:100EA000890F012905D10168C9070FD1C16809045B
:100EB0000CD4C16818239943A3681943C160206802
:100EC0000169636889008908194301612068C16864
:100ED0003D4B1940C160207E617E8003C9030843F9
:100EE000A17E4B031843A36A012B02D001231B03ED
:100EF00000E000231843E36818432369022B09D05C
:100F0000002318432B79E57E5B0018430123012D54
:100F100002D00AE00423F4E7002927D0A16B2025A2
:100F20002943A163E16B1943E163E1690D46FF3D8C
:100F3000C23D02D0256A294308432168CD68054394
:100F4000CD600125E16A2D07A94213D0012911D0F6
:100F500002290FD003290DD004290BD0052909D06F
:100F6000062907D0072905D010E028E0012109044F
:100F70000843DAE721684D69ED08ED004D6121680D
:100F80004D69A78D7F077F0F3D434D612168C9687B
:100F90000E4D2940814207D10020E063A06B8008FC
:100FA0008000401CA06308E0A06B0221884310432E
:100FB000A063E06B1843E06301263046F8BDA06BE8
:100FC0001043A063F8E700001902FEFFE7FF3F832C
:100FD00070470000F0B587B0054614216846FFF75A
:100FE000F1F81F492868884237D11E4988694E1593
:100FF000304388618869304005904A693002024375
:101000004A614969002701400591022000900320B0
:101010000190092069460297C00600F06BF912485A
:10102000124C81C427608020A66060600001E060EF
:101030002020676120610D48083C00F0B7F80028C7
:1010400001D0FFF7F5FD2C63002211460C206562EC
:1010500000F018FD0C2000F009FD07B0F0BD000005
:101060000024014000100240080002407C110020D2
:10107000F7B5044600680025806840073DD4264641
:101080002036307D01280AD001273775607E01287F
:1010900007D02046FFF732FD050002D02EE00220E7
:1010A000FEBDA06B16490840FF2101310843A06333
:1010B0000020E0633075216B12488862216B124872
:1010C000C862216B1148086321681C2008602068F1
:1010D00041681022114341602068C1683943C160F2
:1010E0002168206B4031029B019A00F089F820684A
:1010F000816804221143816000E002252846FEBD7C
:10110000FEF1FFFF6D0A0008F30A0008D90A000883
:10111000F0B4C16B0D6801680C680422066C1346BC
:10112000B3402B420DD063070BD50B689B0602D44E
:101130000B6893430B60016C8A40C16B4A60C16AC3
:1011400019E00227B74002462F4001232032002F2A
:1011500015D0A70713D50C68A40604D40C680A257B
:10116000AC430C605370036C02219940C36B59600F
:1011700000211170816A002916D0F0BC08470827A9
:10118000B7402F4210D024070ED50C680E25AC4373
:101190000C60046C1946A140C46B6160836353709A
:1011A00000211170016BE6E7F0BC704770B50400D8
:1011B00021D0022120462030054641702268116866
:1011C0000E48A3680140606826691843E36833430A
:1011D000184363691843A3691843E3691843084334
:1011E00010602046FFF7E2FC0021A1630120687037
:1011F0002970084670BD012070BD00000FC0FFFFC0
:10120000F8B504468C46203001780025012909D024
:101210000126067041780027012905D007700225B4
:101220002846F8BD0220F8BD02214170A76320685E
:10123000016849084900016061462046FFF7C8FC83
:10124000E06A00282068016802D00E22114306E0FF
:101250000A22114301602068016804229143016061
:101260002068016831430160DAE7000070B5044688
:1012700000F018F90546601C02D0044800782418D4
:1012800000F010F9401BA042FAD370BD44000020CA
:1012900010B5C11FFF39FA3914D104F0B3F80A4967
:1012A00008700146094804F073F8084808A142682C
:1012B000084802F007FFC2B27D23DB00054906485B
:1012C00001F048FD10BD000000000020401000208B
:1012D00025640A00540000208813002010B504493A
:1012E0004A69024202D04861FFF7D2FF10BD0000F8
:1012F00000040140F8B5002303240125BAE02E467E
:101300009E40B44632407CD00E79B607B60F012E0F
:1013100001D0022E17D186682746B6465E00B74038
:1013200000967646BE43B646CF68009EB7407646E6
:101330003743876046686746BE430F79FF06FF0F55
:101340009F40374347600E79F643B6070ED0C66814
:101350002746B4465E00B646B7406646BE43B4462E
:101360008F687646B74066463743C7600E79B60742
:10137000B60F022E14D1DE08B60036180096366A73
:101380005F07B446FE0E0F27B646B7406646BE431B
:10139000B4460F697646B74066463743009E3762CB
:1013A00006682746B4465E00B646B7406646BE436A
:1013B0000F79B446BF07BF0F7646B740664637433E
:1013C00007604E68B603B60F53D02D4FBE692E434B
:1013D000BE61BE699F08F607F60F2A4EBF00BE1910
:1013E0000096B6680F27B4469E07360FB646B7403C
:1013F0006646BE430927FF06B446B84202D100271D
:1014000010E036E0204FB84201D101270AE01F4F1B
:10141000B84201D1022705E01D4FB84201D1032790
:1014200000E005277646B74066463743009EB76022
:10143000184E36684F689643FF0300D51643154F84
:101440003E607E684F689643BF0300D51643114F38
:101450007E60BE684F689643FF0200D516430D4F6D
:10146000BE60FE684F689643BF0200D51643094A26
:10147000D6605B1C0A681646DE4000D03FE7F8BD28
:10148000001002400000014000040048000800482D
:10149000000C004800040140002A01D0816170471F
:1014A0008162704701488068704700004400002056
:1014B00070B5024640325378202B1CD11378012B93
:1014C00019D00123137024245470046825689D43A7
:1014D0002560046825681E03B543256004682568F7
:1014E0000D43256000680168194301602020507099
:1014F0000020107070BD022070BD70B502464032F1
:101500005378202B1BD11378012B18D00124147091
:101510002423537003681D68A5431D6005682B686C
:101520000F263602B3430902194329600068016897
:1015300021430160202050700020107070BD0220F7
:1015400070BD000070B5040006D0254640356878AF
:101550000026002802D005E0012070BD2E70204634
:1015600000F004FA242068702068016849084900E6
:1015700001600F21606809068843216808612168BD
:101580008A680120C00382438A60E1680129A1685A
:1015900008D021229202114322689160E168022959
:1015A00002D005E00143F7E701212268C90251603A
:1015B00021684A680F4B1A434A602168CA6882430F
:1015C000CA60616920690843A1690902084321686A
:1015D000C860216AE06908432168086020680168E2
:1015E0000122114301606664202068702663AE709A
:1015F000002070BD00800002FFB50546044640355E
:10160000687881B0202878D12878012875D0012009
:101610002870FFF747FF0746012200901923D103E6
:10162000204601F0B5FC00283CD122206870102033
:10163000A8700026666403986062049860856663FB
:10164000618D2F48FF2903D9FF22228500903BE0BE
:10165000618D218500903DE02046029901F084FCD7
:1016600016E001F0BDFC00281CD12068406A616AC8
:101670000870606A401C6062208D401E81B2218526
:10168000608D401E6085608D002801D000290CD03F
:10169000608D0A9900283A462046E2D101F0E0FC2C
:1016A00000281CD0012005B0F0BD00970022802149
:1016B00020460A9B01F06CFC0028F3D1608DFF28C6
:1016C00005D9FF222285009601231B06C4E7608D01
:1016D00020850096208D0123C2B25B06BCE72168FD
:1016E0002020C86121684A68064B1A404A60687029
:1016F000AE702E700020D6E7FFE70220D3E700008F
:101700000024008000E800FEFFB505460446403591
:10171000687881B0202878D12878012875D00120F8
:101720002870FFF7BFFE0746012200901923D1035E
:10173000204601F02DFC00283CD1212068701020AB
:10174000A8700026666403986062049860856663EA
:10175000618D2F48FF2903D9FF22228500903BE0AD
:10176000618D218500903DE02046029901F0FCFB4F
:1017700016E001F09BFC00281CD1606A216800780B
:101780008862606A401C6062608D401E6085208DAA
:10179000401E80B22085618D002901D000280CD028
:1017A000608D0A9900283A462046E2D101F058FCA3
:1017B00000281CD0012005B0F0BD00970022802138
:1017C00020460A9B01F0E4FB0028F3D1608DFF283E
:1017D00005D9FF222285009601231B06C4E7608DF0
:1017E00020850096208D0123C2B25B06BCE72168EC
:1017F0002020C86121684A68064B1A404A60687018
:10180000AE702E700020D6E7FFE70220D3E700007D
:101810000020008000E800FEFFB505460446403584
:10182000687883B0202875D10C98002814D00D98C2
:10183000002811D0287801286CD001202870FFF7EB
:1018400031FE0746012200901923D103204601F002
:101850009FFB002874D103E00120400260646FE028
:10186000222068704020A870002666640C98606290
:101870000D98608566630E980090019704A90EC9C3
:10188000204601F041FB002801D02E7058E0618D08
:101890003448FF2905D9FF22228501231B06009029
:1018A00006E0618D21850090208D0123C2B25B0688
:1018B0002046049901F058FB00970022042120469D
:1018C0000E9B01F065FB00283AD12068406A616AEE
:1018D0000870606A401C6062208D401E81B22185C4
:1018E000608D401E6085608D00281FD000291DD1AD
:1018F00000970022802120460E9B01F049FB002822
:101900001ED1608DFF2806D9FF22228501231B06E8
:10191000009607E024E0608D20850096208D01234D
:10192000C2B25B062046049901F01EFB608D0028C0
:10193000C2D13A4620460E9901F092FB002802D00F
:10194000012007B0F0BD20682021C16120684268F5
:10195000054B1A4042606970AE702E700020F0E7AF
:101960000220EEE70024008000E800FE10B586B0FB
:10197000044614216846FEF725FC12492068884277
:101980001DD1114C616901208004014361616169CD
:1019900001400591C02000901220012101900320F8
:1019A00002910491039069460848FFF7A3FCE1699E
:1019B000012040050143E161E1690140059106B064
:1019C00010BD000000540040001002400004004818
:1019D00002488168027889188160704744000020BD
:1019E00010B506480168102211430160002000F084
:1019F00007F800F027F8002010BD0000002002408A
:101A000070B504460D4D7D202978C000FEF76AFBB5
:101A100001460B480068FEF765FB00F059FD002801
:101A200009D1042C07D200222146401E00F02AF8DA
:101A300000206C6070BD012070BD000044000020DB
:101A40002400002008B50848816901221143816102
:101A5000816911400091C26901040A43C261C069F1
:101A60000840009008BD000000100240002805DB7F
:101A7000C106C90E01208840014908607047000076
:101A800000E100E010B502F077FB10BD02480168EC
:101A9000821511430160704700700040F8B505469B
:101AA0000068354CC00352D5E0690026C00007D459
:101AB000E16920040143E161E169014001260091EF
:101AC0002E480168C90510D40168821511430160D0
:101AD000FFF7E8FC074604E0FFF7E4FCC01B6428BE
:101AE00024D826480068C005F6D5206A03273F029F
:101AF000384020D06968394081421CD0206A226A6F
:101B0000B843012109040A432262226A8A432262FD
:101B10002062C0070FD0FFF7C5FC009008E0FFF778
:101B2000C1FC0099411A1648814201D90320F8BD31
:101B3000206A8007F3D5206A6968B84308432062A9
:101B4000002E04D0E169012000078143E16128787B
:101B5000C00705D0206BA968800880000843206377
:101B60002878800605D5206B10218843E968084352
:101B700020630020F8BD000000100240007000400B
:101B800088130000F8B50F46060059D03A4D286872
:101B9000C007C00FB84209D2286840084000384347
:101BA00028602868C007C00FB84249D13068334C5C
:101BB00081070CD5400704D5606807210902084356
:101BC00060606068F0218843B168084360603078E5
:101BD000C00726D0706801280ED0216802280ED0D8
:101BE000890700292CDA616889088900014361604E
:101BF000FFF758FC00900DE021688903F1E78901A7
:101C0000EFE7FFF74FFC0099411A1D48814201D9C7
:101C10000320F8BD60680C21084071688900884283
:101C2000EFD12868C007C00FB8420BD92868400818
:101C30004000384328602868C007C00FB84201D070
:101C40000120F8BD3078400706D5606807210902F9
:101C50008843F1680843606000F028F86168094A29
:101C60000906090F515CC840074908600020FFF7CA
:101C7000C7FE0020F8BD0000002002400010024016
:101C800088130000985E00082400002004480549DD
:101C900000684968044A4905490F515CC8407047CB
:101CA0002400002000100240A85E000810B514A314
:101CB0000FCB88B06C460FC415A30FCB0FC4184AC6
:101CC00051680C200B4603401648042B16D0082BF5
:101CD00014D18B021B0F6C46E45CD26A04AB120772
:101CE000120F9A5CC90305D500231946FEF710FAB6
:101CF000214601E020460C4902F00FFA08B010BD61
:101D000002030405060708090A0B0C0D0E0F10103C
:101D10000102030405060708090A0B0C0D0E0F103B
:101D20000010024000127A0000093D00FEB50400D8
:101D300070D02078DC4DC0074AD068680007800F5B
:101D4000012807D068680007800F022809D1686859
:101D5000C00306D5286880033AD560680028E7D01C
:101D600036E06168012914D001208004002901D0E7
:101D7000052914D02A68012109048A432A602968A8
:101D8000814329606068002816D0FFF78BFB064668
:101D90000EE028680121090408432860F2E7296859
:101DA00001432960F5E7FFF77DFB801B64286ED8AF
:101DB00028688003F7D50BE0FFF774FB064604E0C4
:101DC000FFF770FB801B6428F1D828688003F7D4E4
:101DD00020780126800700283CDA68680007800F19
:101DE00007D068680007800F022809D16868C0031F
:101DF00006D42868800716D5E06801280AD112E0C9
:101E0000E0680028286816D030432860FFF74AFBB6
:101E1000074605E043E1FFF745FBC01B0228C6D893
:101E200028688007F7D52868F82188432169C90008
:101E3000084328600EE0400840002860FFF732FBAE
:101E4000074604E0FFF72EFBC01B0228AFD8286826
:101E50008007F7D42078000722D5E0690028686A57
:101E60000ED030436862FFF71DFB074604E0FFF722
:101E700019FBC01B02289AD8686A8007F7D50FE0C3
:101E8000400840006862FFF70DFB074605E09DE053
:101E9000FFF708FBC01B022889D8686A8007F7D4BF
:101EA000207804274007002860DA00200190E869C4
:101EB000C00008D4E969B8060143E961E969014055
:101EC00001200091019079480168C90511D4016889
:101ED000821511430160FFF7E5FA009005E0FFF776
:101EE000E1FA0099401A642870D870480068C0056B
:101EF000F5D5A06801280AD0002801D0052810D007
:101F0000286A400840002862286AB84301E0286A2D
:101F100030432862A068002812D0FFF7C3FA00906F
:101F20000AE0286A38432862F1E7FFF7BBFA009914
:101F3000411A5F48814249D8286A8007F5D50DE0EB
:101F4000FFF7B0FA009006E0FFF7ACFA0099411AEB
:101F5000574881423AD8286A8007F5D4019800286A
:101F600004D0E969012000078143E9612078C006B7
:101F700035D5606901280CD0401D686B23D03843EB
:101F80006863686B400840006863FFF78BFA064699
:101F900022E0686B38436863686B30436863FFF71F
:101FA00081FA064604E0FFF77DFA801B02285BD821
:101FB000686B8007F7D5686BF8218843A169C90071
:101FC000084368630BE0B8436863F4E74CE0FFF74D
:101FD00069FA801B022847D8686B8007F7D4206A0B
:101FE00000285ED069680907890F022942D00126BE
:101FF00036060228286805D0B0432860FFF752FA59
:10200000044633E0B0432860FFF74CFA074604E08B
:10201000FFF748FAC01B022826D828688001F7D4A9
:10202000E86AE16A000900010843E862616AA06A9F
:10203000084369683D221204914308436860286898
:1020400030432860FFF72EFA044604E0FFF72AFA2F
:10205000001B022808D828688001F7D521E0FFF787
:1020600021FA001B022801D90320FEBD2868800147
:10207000F5D416E00128F8D06868E96A0122120454
:10208000636A02409A420AD10907E26A090F914243
:1020900005D10F2189040840A16A884201D001209E
:1020A000FEBD0020FEBD0000001002400070004098
:1020B0008813000002484168491C416070470000D5
:1020C0000000002010B5044600688168C9040CD5E2
:1020D000C068C00509D52046FFF7ECFF2168C86835
:1020E00080221040FF388238C86001200249400435
:1020F00048610120607710BD0004014070B5040004
:1021000003D0607F002802D006E0012070BD0020CF
:102110002077204600F04CF8022060772168CA2022
:102120004862216853204862204601F02AFBFF25BF
:102130000426002824D1206881681C4A114081604F
:102140002168886862686369104322691A431043F2
:1021500088602168E06808612068016922891204AA
:10216000114301612068C16880229143C1602068E9
:102170008068800608D4204600F090F9002803D03B
:10218000206845626677C0E72068016C01229204EE
:10219000914301642068016CA269114301642068C5
:1021A000456201206077002070BD0000BFFF8FFFF7
:1021B00010B50068084988420DD10848016A01221B
:1021C000D20311430162002211460220FFF75AFC9C
:1021D0000220FFF74BFC10BD002800400010024019
:1021E000F8B50446007F0B46012839D0012020773E
:1021F0000220607720681F46203700268068002A6A
:1022000030D0400600D4DE7019789D7809040D4363
:102210005978DA780902120411430D433978D869E4
:1022200009060D43054358699969054358680843F1
:1022300000902168CA2048622168532048622068C3
:102240008168FF220132914381602068C168802249
:102250001140FF398239C160FFF724F9074629E0B0
:102260000220F8BD400600D4DE70187801F07EFA36
:102270000504587801F07AFA00020543987801F0D5
:1022800075FA0543D87800040543387801F06EFAF2
:1022900000060543D869C5E7FFF704F9C11B7D2097
:1022A000C000814206D92168FF2048620320607780
:1022B0002677F8BD2068C068C007EDD02068C561EA
:1022C00021680098486420688168FF220132114328
:1022D00081602068816812011143816008480268AA
:1022E000012149040A43026082680A43826021682E
:1022F000FF2048620120607726770020F8BD0000AB
:1023000000040140F8B50446007F0B4601280FD0B9
:102310000120207702206077002A0BD0D8789D78A2
:10232000000405435878097800024903084317E080
:102330000220F8BD5878C10603D5EF2108400A30C5
:102340005870D87801F012FA0504587801F00EFAA6
:1023500000020543987801F009FA05431878400314
:1023600005432168CA2048622168532048622046FC
:1023700001F007FA0026FF27002811D10F48054079
:10238000206845602068C16880229143C160206850
:10239000806880060BD4204600F080F8002806D024
:1023A000206847620420607726770120F8BD206806
:1023B00047620120607726770020F8BD3FFFFF00CD
:1023C000F8B50446007F0D46012821D00120207772
:1023D00002206077206800278068002A1AD0400613
:1023E00000D4EF702878AE78000406436878E97866
:1023F00000020904084306432168CA204862216894
:1024000053204862204601F0BCF9002834D114E082
:102410000220F8BD400600D4EF70287801F0A6F93C
:102420000604687801F0A2F900020643A87801F0DA
:102430009DF90643E8780004DDE717480640206868
:1024400006602068816801229204914381602969B5
:10245000E868084321688A68104388602068C1687A
:1024600080229143C1602068806880060CD4204699
:1024700000F014F8002807D02168FF2048620420EB
:10248000607727770120F8BD2168FF20486201208E
:10249000607727770020F8BD7F7F7F0070B5044606
:1024A0000068C168A0229143C160FEF7FBFF7D2652
:1024B0000546F60006E0FEF7F5FF401BB04201D9E5
:1024C000032070BD2068C0688006F4D5002070BD70
:1024D000094910B5401E884201D9012010BD074CA2
:1024E00060610321081F01F047FE0020A061072062
:1024F0002061002010BD0000FFFFFF0000E000E0B1
:102500007047704730B5034620331A7F012A26D022
:1025100001221A770325CA682D02AA438D68002478
:102520002A430125AD02AA434D6800682A430125CC
:10253000ED02AA430D682A4301252D03AA430D6924
:102540002A4301256D03AA434D69C9692A43012520
:10255000AD03AA430A4342641C77002030BD022029
:1025600030BD0000F0B502462032137F012B1ED093
:10257000012515770223537706687468B3687027BE
:10258000BC430F682743776000680A4CA04205D01F
:10259000094CA04202D0094CA04204D180244968D1
:1025A000A34319438160557700201077F0BD0220C6
:1025B000F0BD0000002C014000040040004001403C
:1025C00070B5040005D025462035687F002802D06C
:1025D00006E0012070BD00202877204600F014F8A6
:1025E00002206877211D206801F042F90120403463
:1025F000A071A877E87720706070A070E0702071FB
:1026000060716877002070BD08B5144A01681448ED
:10261000914205D18269C1140A438261806907E051
:10262000104A914207D1C26902210A43C261C069BE
:102630000840009008BD0C4A9142FBD1C2691021AC
:102640000A43C261C069002208400090114611206F
:10265000FFF718FA1120FFF709FA08BD002C014016
:1026600000100240000400400010004001462031EC
:102670004A7F012A01D00120704702224A77006870
:10268000094A0121904205D0084A904202D0084AE6
:10269000904204D182685207520F062A02D0026883
:1026A0000A43026000207047002C014000040040F3
:1026B00000400140014620314A7F012A01D001201B
:1026C000704702224A770268D36801210B43D36026
:1026D0000068094A904205D0084A904202D0084A50
:1026E000904204D182685207520F062A02D0026833
:1026F0000A43026000207047002C014000040040A3
:1027000000400140F8B5054604462035287F0026E4
:10271000012817D001202877022068772268906866
:102720007727FF23B8431B0298439060086850281E
:1027300038D00EDC20284FD006DC00284CD01028E2
:102740001ED149E00220F8BD302845D0402817D1DD
:102750003AE060282ED0702819D001221203801A86
:102760000FD090420CD1CB684A688968206801F08C
:10277000C3F820688168012292031143816000E060
:10278000012601206877002028773046F8BDCB6805
:102790004A688968206801F0AFF821688868384382
:1027A0008860EEE7CA684968206801F0B5F95021F1
:1027B000206806E0CA684968206801F0BEF9602117
:1027C000206801F0A4F8DCE7CA684968206801F0D5
:1027D000A3F940212068F4E7226801461046F0E79B
:1027E000704770B50446006801690025C943890730
:1027F000002915DBC168C943890711D4E91E0161AD
:1028000001202077206880698007204602D0FFF7EA
:10281000E7FF04E000F0D2F8204600F05DF92577EC
:1028200020680169C943490717D4C168C9434907EA
:1028300013D40421C94301610220207720688069F4
:102840008005800F204602D0FFF7CAFF04E000F0A9
:10285000B5F8204600F040F9257720680169C943A2
:10286000090716D4C168C943090712D40821C9430E
:102870000161042020772068C0698007204602D0CB
:10288000FFF7AEFF04E000F099F8204600F024F9CD
:10289000257720680169C943C90617D4C168C943AF
:1028A000C90613D41021C94301610820207720688C
:1028B000C0698005800F204602D0FFF791FF04E039
:1028C00000F07CF8204600F007F9257720680169C0
:1028D000C943C90708D1C168C943C90704D1891EC2
:1028E0000161204600F0FAF820680169C943090631
:1028F00009D4C168C943090605D48021C9430161CF
:102900002046FFF7FDFD20680169C943490609D447
:10291000C168C943490605D44021C9430161204625
:1029200000F046F920680169C943890609D4C168E5
:10293000C943890605D42021C94301612046FFF718
:10294000E0FD70BD10B586B0044614216846FDF761
:1029500039FC2368154C002215480221A3420FD1EF
:1029600044690B041C434461406918400590880287
:102970006B4607C30491092003926946C00610E024
:102980000C4CA3420FD144691B131C4344614069A2
:102990001840059001206B4607C3049069460392D6
:1029A0000548FEF7A7FC06B010BD0000002C014052
:1029B0000010024000040040000400487047F8B5D1
:1029C000064604462036307F00270D4601280ED0EB
:1029D00001203077002A0CD0042A1BD0082A2FD0DF
:1029E0000C2A3ED00127002030773846F8BD02205F
:1029F000F8BD206800F094FF206881690822114327
:102A000081612068826904218A438261206881692A
:102A10002A6912E0206800F0C7FF2068826901215E
:102A2000C9020A43826120688169012292029143AE
:102A30008161206881692A69120211438161D2E7AC
:102A4000206800F0F1FF2068C16908221143C161CC
:102A50002068C26904218A43C2612068C1692A6969
:102A600012E0206801F022F82068C1690122D20238
:102A70001143C1612068C269012189028A43C26190
:102A80002068C1692A6912021143C161ABE770B5C0
:102A9000040005D025462035687F002802D006E0D6
:102AA000012070BD00202877204600F014F8022095
:102AB0006877211D206800F0DBFE01204034A07102
:102AC000A877E87720706070A070E0702071607166
:102AD0006877002070BD704770470000F8B52F4937
:102AE000884259D12E4800F079FB2D48801D00F016
:102AF000B7FB2B4A2B4C11882170080A6070508854
:102B0000A070030AE3709288254E2271130A637144
:102B1000B61D3388A3711B0AE371738823721B0AE5
:102B20006372B388A3721B0A1F4DE372E980288188
:102B30006A81284602F03FFB2F46308824373881CF
:102B4000B0887881384601F099FD30882E46783675
:102B5000308128887081304601F06CFF288820730E
:102B6000000A60736888A073000AE073A888207464
:102B7000000A60743888A074000AE07430882075F8
:102B8000000A6075B888A075000AE0750A2318224B
:102B90002146064800F0DEF8F8BD0000BC12002017
:102BA00016000020540000206810002004130020AC
:102BB00070477047704710B5040003D0A06F00281D
:102BC00002D007E0012010BD0021742001552046ED
:102BD00000F026F82420A067206801684908490011
:102BE0000160204601F012F90128ECD0606A00284B
:102BF00002D0204600F0B4FF206841680122D202D2
:102C00009143416020688168082291438160206877
:102C10000168012211430160204601F007F810BD50
:102C2000F0B587B0064614216846FDF7CBFA2A4F67
:102C30000121346800252948490402230322BC42AB
:102C400019D18669CC10264386618669264005968F
:102C500044690C43446140696C4608400590500249
:102C6000039229C40120049009206946C006FEF79A
:102C700041FB07B0F0BD1A4FBC42FAD1C4690C4306
:102C8000C461C4690C40059444690C4344614069C3
:102C90006C46084005900C20039229C40120049042
:102CA00009206946C006FEF725FB0E480E4C21C4DC
:102CB0002560A5608020E56060602020656120615E
:102CC0000948083CFEF772FA002801D0FDF7B0FF72
:102CD00034676662CDE70000003801400010024012
:102CE00000440040580002400C14002070B5C36F2F
:102CF000202B2BD100290BD0002A09D00124836876
:102D00002403A34206D10369002B03D1CB0701D0D2
:102D1000012070BD034660331C7D012C16D00124B8
:102D20001C7500230366046863681B020BD5EFF370
:102D30001083012585F3108825680126B6063543E2
:102D4000256083F3108801F0FBF870BD022070BD90
:102D500070477047FFB50446806F83B017460D4635
:102D600020285ED1002D0AD0002F08D0A168C00114
:102D7000814207D12069002804D1E80702D0012050
:102D800007B0F0BD204660300090007D012848D09B
:102D90000098012101750020802108512120A067A1
:102DA000FEF780FB2646403601903782778201206D
:102DB000A1680003814202D12069002805D02F4676
:102DC000002500990020087511E00027F9E700228E
:102DD0008021204601F00CF9002815D1002F15D0D4
:102DE0002168387808857F1C708A401E7082708A3E
:102DF000019B002806980090E9D10022402120463E
:102E000001F0F6F8002808D00320B9E728882168E7
:102E1000C005C00D0885AD1CE6E72020A067002096
:102E2000AEE70220ACE7FEE701688A69D243920769
:102E300001D400228A6200688169C943C90703D0AE
:102E4000816901221143816170470000F7B5044692
:102E500000680F468169C943C90636D441688901B3
:102E600004D44168012292031143416000262546A3
:102E7000403520688069C043800612D5781CF8D0A0
:102E8000FEF710FB0299401AB84201D8002FF0D18A
:102E9000616C2020014361646870AE702E70012067
:102EA000FEBD21681020C86120682027C761204628
:102EB000FFF7BAFF20684168054A11404160606C25
:102EC0000421084360646F70E7E70020FEBD000046
:102ED00000E800FE7CB50E46694608710A201546DA
:102EE000D0240090012301AA21460648FEF70CFCDD
:102EF000642000902B46324621460248FEF77CFBB8
:102F00007CBD000050140020F8B504461646154854
:102F10001D46DAB20090079F0023204600F024F8F7
:102F20003A462046069900F0C1F8002818D12846F4
:102F3000F5B2012809D02168300A88623A46204655
:102F4000069900F0B3F800280AD12068856200973E
:102F5000002240212046069B00F01AF8002800D0ED
:102F60000120F8BD00200080F0B50668059C75685A
:102F7000064F600D384385438805800D11040843D2
:102F80001843204305437560F0BD0000FF63FF0355
:102F9000F8B51D4617460E46044609E0681C07D0E2
:102FA000FEF780FA0699401AA8420BD8002D09D0E6
:102FB00020688169304688430FD00020B842EDD0A8
:102FC0000020F8BD616C20200143616440346070D2
:102FD0000020A07020700120F8BD0120EEE7000065
:102FE000F7B50027202605460446403528E0204650
:102FF000029A0199FFF72AFF002801D00120FEBDA7
:1030000020688069C043800611D420688169C94363
:10301000490702D4218D002917D1C6612068416873
:103020000E4A1140416067646E70AF7013E0FEF7A6
:1030300039FA0299411A0198814208D8002806D02D
:1030400020688069C0434007D1D40020FEBD606C79
:10305000304360646E702F70D0E7000000E800FE1F
:1030600070B516460D4604460FE032462946204606
:10307000FFF7ECFE002801D0012070BDFEF712FA28
:10308000801BA84208D8002D06D020688069C04364
:103090008006EAD4002070BD616C20200143616489
:1030A000403460700020A0702070E5E770B51646CF
:1030B0000D46044611E0324629462046FFF7C6FE7B
:1030C000002801D0012070BD681C06D0FEF7EAF987
:1030D000801BA84208D8002D06D020688069C04314
:1030E0008007E8D4002070BD616C2020014361643A
:1030F000403460700020A0702070E3E71CB56A4681
:103100001071517164200090D021022301AA02485D
:10311000FEF7FAFA1CBD00005014002010B504465A
:1031200080216B20FFF7EAFF6420FEF79FF82078EC
:1031300021794007C907400F490E01436B20FFF773
:10314000DDFF6420FEF792F8E0784107490F1A206E
:10315000FFF7D4FF60788007C10E1B20FFF7CEFF7A
:10316000A0788007C10E1C20FFF7C8FF042000F0E4
:103170008BF8A27811491248002A06D0012A06D0FD
:10318000022A06D0032A06D10FE0C16003E00D4AEF
:1031900000E00D4AC2606278002A08D0012A08D0F7
:1031A000022A08D0032A08D106E0084AF2E70849B3
:1031B00002E0084900E00849016110BD00007A3DC5
:1031C000280000200000FA3D00007A3E0000FA3E90
:1031D0000000FA3B00007A3C0000FA3C10B586B0D3
:1031E000044600A901223A200131FFF773FE684628
:1031F0004078002830D0062201A93B20FFF76AFE64
:103200006946087949790002401820806946887922
:10321000C9790002401860806946087A497A00023C
:103220004018A080062203A94320FFF753FE6946F9
:10323000087B497B00024118084801806946897B68
:103240000A026946C97B511841806946097C0A0215
:103250006946497C5118818006B010BD3C000020B1
:1032600003490A8802804A884280898881807047A1
:103270003C00002010B501464C220248FCF789FFB3
:1032800010BD00005014002010B501461920FFF7B2
:1032900035FF10BD3EB50021174800910191029104
:1032A000416081600124134A04610260C16004220C
:1032B0004261017641768176C176C1611102016277
:1032C000014620310C718462FDF7C6FD002801D053
:1032D000FDF7AEFC01200003019000040290009471
:1032E00069460548FDF7A6FC002801D0FDF7A0FCC3
:1032F0003EBD0000002401403C11002008B50C48F0
:10330000416901221143416140691040002200904F
:1033100011460920FEF7B6FB0920FEF7A7FB0022A5
:1033200011460B20FEF7AEFB0B20FEF79FFB08BDFE
:103330000010024030B587B014216846FCF742FF08
:10334000344842690121C9040A43426142690A4082
:103350000592426989100A43426142690A40059216
:10336000426949000A43426142690A400592426942
:1033700009010A4342614069274D08404C120590FB
:10338000002221462846FEF787F8009401200024F9
:1033900001900294694628460394FDF7ABFF402054
:1033A00011252D0400906946019502941B48FDF7F4
:1033B000A1FF0120C00300900920694601950294F5
:1033C000C006FDF797FFFF2001953930144D00909E
:1033D000694602942846FDF78DFF012040020090C7
:1033E000212000040190694602942846FDF782FFDF
:1033F000002211460620FEF745FB0620FEF736FBAD
:10340000002211460720FEF73DFB0720FEF72EFBAA
:1034100007B030BD0010024000080048001400480A
:103420000004004810B51348114901601249416079
:10343000002181600161416181610122C161C2603D
:103440000162FEF77FF8002801D0FDF7F1FB0021B3
:103450000848FEF72DF8002801D0FDF7E9FB002110
:103460000448FEF74AF8002801D0FDF7E1FB10BD43
:1034700000540040C01100200E09002010B590B08B
:1034800014216846FCF79EFE0024282106A8059416
:10349000FCF798FE2649274812C07F21016084600E
:1034A000C460FF21046141600838FEF727FE002850
:1034B00001D0FDF7BDFB684604704470847003942E
:1034C000002269461B480494FEF77AFF002801D0C9
:1034D000FDF7AEFB01206946087548751720887511
:1034E0006220C875002205A91248FEF70BFF0028CC
:1034F00001D0FDF79DFB68460476447684760E483D
:103500000B90C00107940D9009940A940C94052126
:1035100008A80176FF2001300F90002206A9054877
:10352000FEF75EFE002801D0FDF782FB10B010BD53
:10353000002800400C1200200000808010B596B0DA
:1035400000240F9410941194129413941C2108A831
:103550001494FCF737FE20216846FCF733FE2C4814
:103560002A4901602F218460416004614461294936
:103570008461C160FFF724F8002801D0FDF758FBF3
:10358000012000030F900FA92148FFF7BBF8002886
:1035900001D0FDF74DFB1E48FFF779FA002801D056
:1035A000FDF746FB202013A911C119480839FEF781
:1035B000D9FF002801D0FDF73BFB60200890FF20D9
:1035C0002D300E9409900A940C940D940C2208A9A5
:1035D0000F48FFF7F4F9002801D0FDF729FB01207F
:1035E0000094400302940590019403940494694666
:1035F00007940748FEF786FF002801D0FDF718FB67
:103600000348FFF79FF916B010BD0000002C0140E1
:103610002C120020E703000010B58EB000240794A0
:10362000089409940A940B941C2168460C94FCF7A6
:10363000C9FD21481F4901602F2184604160046158
:103640001E498461C160FEF7BBFF002801D0FDF771
:10365000EFFA01200003079007A91748FFF752F877
:10366000002801D0FDF7E4FA1348FFF710FA00280C
:1036700001D0FDF7DDFA0B940BA90F480C94FEF76F
:1036800071FF002801D0FDF7D3FA60200090FF20E1
:10369000F530019002940822694604940648FFF729
:1036A0008EF9002801D0FDF7C3FA0348FFF74AF965
:1036B0000EB010BD0004004074120020E7030000AB
:1036C00010B50948074901602F2141600021074AD0
:1036D0008160C2608161FEF773FF002801D0FDF7B1
:1036E000A7FA10BD00100040BC120020E703000044
:1036F00010B50C480A490160E121490241600021EE
:103700008160C16001618161C1610C22016242611D
:103710004162FFF750FA002801D0FDF789FA10BD89
:10372000003801400413002010B50E480C49016018
:103730004B21C901416000218160C160016181614B
:103740000C22C161426101620821416209034163A7
:10375000FFF731FA002801D0FDF76AFA10BD00002A
:10376000004400408813002070477047002102E0A9
:103770000A38C0B2491C0A28FAD20907090E0843C0
:10378000704770B504460068C168490613D400212B
:10379000C943C160FDF786FE7D260546F60006E0BA
:1037A000FDF780FE401BB04201D9032070BD2068A8
:1037B000C0684006F4D5002070BD000010B5024876
:1037C000FEF780FC10BD00000C120020704710B501
:1037D000FEF7FEF810BD000030B595B03021684608
:1037E000FCF7F0FC00240C940D940E940F941094AC
:1037F000119412941394FEF749F91648016A18229D
:103800001143016216200090012003900290059060
:103810001020049006900520C00402250A90089507
:1038200009940B946846FEF781FA07200C900E94D9
:1038300001210D950F940CA8FEF7A4F906481090ED
:10384000001211901294139410A8FEF727F915B0E6
:1038500030BD000000100240210001007047000050
:1038600010B50248FEF7BDFF10BD0000BC120020DD
:10387000F0B502681A4B1B4C984201D0A04203D10C
:103880007025AA434D682A43174D184E184F984289
:103890000AD0A04208D0174CA04205D0A84203D0BD
:1038A000B04201D0B84205D114460322120294431B
:1038B000CA6822438024A2434C69224302608A687A
:1038C000C2620A688262984205D0A84203D0B04220
:1038D00001D0B84201D10969016301214161F0BD04
:1038E000002C014000040040004001400044014021
:1038F000004801400020004030B58468FF252D02BB
:103900001B021343AC430B432343836030BD8268E7
:1039100070239A430A4307210A43826070470000DC
:10392000F0B5026A520852000262056A4368826971
:103930007024A24392080C6892001443022295431B
:103940008A68164E2A43144DA84207D0B04205D0CB
:10395000134FB84202D0134FB84206D10827BA43DA
:10396000CF681743042297433A46A84207D0B04293
:1039700005D00B4DA84202D00A4DA84206D103251E
:103980002D02AB434D691D438B692B43436084611A
:10399000496841630262F0BD002C014000400140D3
:1039A000004401400048014070B5026A10239A4368
:1039B0000262056A4268836973242402A3430C6887
:1039C00024021C4320239D438B681B012B43124D73
:1039D000A84208D11D46CB688026B5431B012B4366
:1039E0004025AB4308E00D4DA84205D00C4DA84240
:1039F00002D00C4DA84208D10325AD02AA434D695F
:103A0000AD0015438A6992002A4342608461496887
:103A10008163036270BD0000002C01400040014042
:103A2000004401400048014070B5026AFF230133A1
:103A30009A430262056A4368C2697024A2439208ED
:103A40000C68920014430122520295438A681202C4
:103A50002A43124DA84208D11546CA68C614B54378
:103A600012022A430515AA4308E00D4DA84205D0CD
:103A70000C4DA84202D00C4DA84208D103252D03BD
:103A8000AB434D692D011D438B691B012B434360E3
:103A9000C4614968C163026270BD0000002C01402E
:103AA00000400140004401400048014030B5026A36
:103AB00001231B039A430262046A4268C3697325A7
:103AC0002D02AB430D682D021D4301235B039C4374
:103AD0008B681B0323430C4CA04208D00B4CA04224
:103AE00005D00B4CA04202D00A4CA04205D10124C3
:103AF000A403A2434C69A40122434260C561496802
:103B00000164036230BD0000002C01400040014010
:103B1000004401400048014030B5036A046A64086B
:103B2000640004628469F025AC43120122430A2434
:103B3000A3430B438261036230BD30B5036A102496
:103B4000A34303628469036A0F252D031203AC4368
:103B50002243A024A343090119438261016230BDBD
:103B600010B5818CC90707D001684A6801235B043E
:103B70009A43836A1A434A60818C890707D5016892
:103B80004A6801231B049A43C36A1A434A60818C22
:103B9000490707D501684A6801239B049A43036BD0
:103BA0001A434A60818C090707D501684A680123D6
:103BB000DB039A43436B1A434A60818CC90607D5DD
:103BC0000268916801231B039943836B1943916039
:103BD000818C890607D501688A6801235B039A43B3
:103BE000C36B1A438A60818C490612D503685A68F0
:103BF00001210905046C8A4322435A60026C8A42FF
:103C000007D10268516803235B059943436C19434C
:103C10005160818C090607D501684A680123DB04DD
:103C2000806C9A4302434A6010BD0000F8B5044618
:103C3000002680300660FDF735FC054620680068E8
:103C4000124F000709D501212B46002249052046C5
:103C5000009700F0CDF900280DD1206800684007DA
:103C60000BD501212B46002289052046009700F044
:103C7000BFF9002801D00320F8BD2020A067E0672D
:103C80002666603426750020F8BD0000FFFFFF01A6
:103C900070B5446AA06FE56F21688968002609063F
:103CA000002906DA212804D152200653204600F0CC
:103CB0009CF820688068400606D5222D04D15A2041
:103CC0000653204600F062F820468030016810223A
:103CD000114301602046FEF76DFF70BD10B501462F
:103CE0008969406A202938D000225A210A52EFF30C
:103CF0001081012282F3108802681368FF240134C6
:103D0000A343136081F31088EFF31081012282F343
:103D10001088026893685B085B00936081F31088E9
:103D2000EFF31081012282F3108802689368402427
:103D3000A343936081F310882021C167016E01299C
:103D40000BD1EFF31081012282F31088026813680F
:103D50001024A343136081F31088016E012902D05F
:103D6000FEF7F6FF10BD5821095AFEF722FF10BDDD
:103D700010B5406A016E012902D0FEF7EAFF10BDBE
:103D80005821095A4908FEF714FF10BD10B5EFF38A
:103D90001081012282F3108802681368FF24213405
:103DA000A343136081F31088EFF31081012282F3A3
:103DB0001088026893685B085B00936081F3108849
:103DC000016E01290BD1EFF31081012282F31088DB
:103DD000026813681024A343136081F31088202124
:103DE000C16700210166416610BD10B5EFF3108177
:103DF000012282F3108802681368C024A343136071
:103E000081F310882021816710BD000070B5044641
:103E100080682169E26908436169002511432268CD
:103E200008431168404B19400143116021684868FC
:103E3000032212039043E26810434860A169206A9C
:103E4000084321688A680B231B029A4302438A6055
:103E500036492068884210D13548006B8007800FB2
:103E60000ED0012805D0022805D003280AD102214E
:103E700009E0042107E0082105E02E49884201D12C
:103E8000002100E010210120E369C0032A4A2B4EE3
:103E9000834223D1002906D0022907D0042907D064
:103EA000082937D108E0FDF7F1FE03E0104603E0F2
:103EB000FDF7FCFE002831D0616840004A088018F8
:103EC000FCF710F980B201461039B14222D81B49E3
:103ED000491C01400007400F08431DE0002906D09F
:103EE000022907D0042907D0082913D108E0FDF7DB
:103EF000CDFE03E0104603E0FDF7D8FE00280DD00C
:103F000061684A081018FCF7EDF880B201461039D4
:103F1000B14201D9012501E02168C8600020606636
:103F2000A066284670BD0000F369FFFF003801401D
:103F3000001002400044004000127A00EFFF000031
:103F4000F8B5044641654030002627460283803795
:103F50003E602220E0672546206F603500281BD098
:103F600020498162216F2048C862216F1F48086381
:103F7000206F13464663606D216884466246243193
:103F8000206FFDF73DF9002806D0102038602E750F
:103F90002020E0670120F8BD2E75EFF3108001218D
:103FA00081F3108821680A68FF2301331A430A60ED
:103FB00080F31088EFF31080012181F310882268CC
:103FC00093680B43936080F31088EFF3108081F3C4
:103FD000108821688A6840231A438A6080F3108819
:103FE0000020F8BDDD3C0008713D0008913C000850
:103FF000FFB581B005461746044660350A9E55E078
:10400000701C53D0FDF74EFA0499401AB04230D8D4
:10401000002E2ED020680168490747D5C069C043EB
:10402000000543D401202168C0020862EFF310802C
:10403000012181F3108821680B68FF22A13293438C
:104040000B6080F31088EFF31080012181F310885A
:1040500021688A68520852008A6080F31088202004
:10406000A067E0678034206000202875032005B039
:10407000F0BDEFF31080012181F3108821680B68F7
:10408000FF22A13293430B6080F31088EFF310807E
:10409000012181F3108821688A68520852008A60E1
:1040A00080F310882020A067E067DDE72068C16901
:1040B0000298884304D00020B842A1D00020D6E75F
:1040C0000120F9E70FB410B504A9074B02AA039821
:1040D00000F00AF9044602A9002000F0ADFA2046DB
:1040E00010BC08BC04B01847394600082021020C57
:1040F00001D010211046020A01D0104608390209E9
:1041000001D01046091F820801D01046891E4208BE
:1041100001D0881E7047081A7047F8B5040C8BB29E
:10412000264682B25E430D0C1046370C58433604C7
:1041300080190021794116466E43370C36048019E8
:10414000794126466E438919F8BD00004900CA022C
:104150000243100000D004204A0D01D00122104378
:10416000044A490D914201D102210843012800D19E
:1041700005207047FF0700008307FF22DB0E9A40EF
:104180008907090E9940002808DB830809489B002D
:104190001B18186890430843186070470007000F09
:1041A0000838830804489B001B18D86990430843CB
:1041B000D861704700E400E000ED00E0F8B5044687
:1041C0004F1EC8000838211815461E460868496861
:1041D0003A4606239A4310D02A463346FCF790F914
:1041E0003A46D200083AA3181A687F1E5B68FCF7AB
:1041F000D5F806223B469343EED1022F23D0042F5D
:1042000011D0062F2FD12A463346FCF779F9E36AFD
:10421000A26AFCF7C3F82A463346FCF771F9636AD1
:10422000226AFCF7BBF82A463346FCF769F9E369D2
:10423000A269FCF7B3F82A463346FCF761F96369D3
:104240002269FCF7ABF82A463346FCF759F9E368D4
:10425000A268FCF7A3F82A463346FCF751F96368D5
:104260002268FCF79BF8F8BD002210B513461046F3
:104270000149FCF7ADF910BD0000F03F10B5FCF7A7
:104280008DF810BD002210B5134610461146FCF7FC
:104290009FF910BD10B50721024A00200907FCF75D
:1042A0004FFB10BD01030000034A10B500201107A9
:1042B000FCF746FB10BD000001FDFFFF02E008C84F
:1042C000121F08C1002AFAD170477047002001E090
:1042D00001C1121F002AFBD170470000014908608C
:1042E0007047000050000020FFB58FB00546002643
:1042F00006E025280AD0129A119990476D1C761C69
:1043000028780028F5D1304613B0F0BD002402947F
:104310000121B54A009400E004436D1C2B78084647
:10432000203B98401042F7D128782A280ED002224C
:10433000287801463039092916D802990A235943A9
:104340003039401814436D1C0290F1E7109802C8F0
:1043500002911090002904DA0120400304434842EE
:104360000290022004436D1C28782E2817D10420C7
:10437000044368786D1C2A280CD110986D1C02C863
:10438000009110900BE000990A22514330394018F7
:104390006D1C00902878014630390929F3D9287816
:1043A0006C2810D006DC4C281AD068280ED06A2859
:1043B00017D104E0742813D07A2812D110E001201C
:1043C000400504430CE00121090501E00321090532
:1043D0000C436978814203D10120000524186D1C2B
:1043E0006D1C2878692874D006DC00288BD06328DF
:1043F00027D0642806D16CE06E2808D073282CD012
:10440000752878D0129A11999047761C5FE0600267
:10441000400F022809D003280DD004281098016805
:104420000DD00E60001D109051E01098F217016839
:104430000E604A60F6E7109801680E80F2E70E7091
:10444000F0E710986A4601781173001D1090002063
:10445000507303A80190012005E0109802C8019153
:1044600010900020C04361070CD5002700E07F1C9E
:1044700000998F420FDA8742F9DB0199C95D002963
:10448000F5D108E0002700E07F1C8742FCDB0199A2
:10449000C95D0029F8D102982146C01B0290129BE9
:1044A000119A00F0B3F88019C61907E00198019934
:1044B0000078491C0191129A119990477F1EF5D2FC
:1044C0002146129B119A029800F090F886196D1CF3
:1044D00016E70A200190109901C910916102490F55
:1044E000032900D100B2042900D140B2002803DA28
:1044F00040422D2103E00DE0210504D52B216A4621
:104500001173012103E0E10711D02021F7E70CAF7F
:104510000C9114E00A200190109901C910916102D8
:10452000490F032900D180B2042900D1C0B2002173
:10453000EDE70199FBF7D6FD30317F1E3970002879
:10454000F7D104A8C01B20300190600704D50120DA
:1045500000048443009801E0012000900199884202
:1045600001DD401A00E00020411800900C98091865
:104570000298401A0290E00306D42146129B119A39
:10458000029800F043F8861900200D9008E003A976
:10459000085C129A119990470D98401C761C0D905A
:1045A0000C998842F3DBE0030CD52146129B119A4B
:1045B000029800F02BF8861904E0129A3020119925
:1045C0009047761C0099481E00900029F5DC05E014
:1045D0003878129A7F1C11999047761C0199481ED1
:1045E00001900029F4DC6BE709280100F8B50446C6
:1045F00000251E461746880404D405E039462020CD
:10460000B0476D1C641EF9D52846F8BDFFB50446B9
:10461000002581B01E46C80301D5302700E02027C1
:10462000880404D505E038460399B0476D1C641E24
:10463000F9D5284605B0F0BD0A68531C0B60107010
:1046400070470023038043808380C38003814381BC
:104650008381C381038243824361C36183610362B7
:104660004362C362836203634363C363836303641C
:10467000C36403654264816470470000F0B504467A
:10468000D64891B0C068401CFCF725F8D449FBF728
:104690003AFE01460190FBF7F9FD256C2946FBF730
:1046A000F5FD074601210198FBF76BFEA66B31462D
:1046B000FBF7ECFD616BFBF790FD3946FBF78DFDD9
:1046C00060610746039029460198FBF7DFFD3146FC
:1046D000FBF783FDE061A06106462846A16CFBF76D
:1046E0007CFD2062606C049001463846FBF775FD46
:1046F000054629463846FBF706FEE0640590009023
:1047000029463046FBF7FFFD206506460790082046
:10471000205EFBF7D5FF0F900099FBF7B7FD0890DF
:104720000220205EFBF7CCFF05460199FBF7AEFDAA
:10473000074601990098FBF7A9FD29460C90FBF765
:10474000A5FD0A900020205EFBF7BAFF0E900099AD
:10475000FBF79CFD01460E98FBF790FD0A99FBF7CD
:104760008DFD3946FBF739FD0899FBF736FDFBF760
:10477000DBFF07B2278031460F98FBF787FD0B90D0
:104780000A9530460199FBF781FD29460D90FBF70C
:104790007DFD05463846FBF793FF01460120C00723
:1047A00046403046FBF772FD2946FBF767FD0A9944
:1047B000FBF713FD0B99FBF710FDFBF7B5FF6080CE
:1047C000A781E0810A20205EFBF77AFF0B90009919
:1047D000FBF75CFD06900620205EFBF771FF0A9058
:1047E0000199FBF753FD05460A990C98FBF74EFD1E
:1047F00007460420205EFBF763FF0C900099FBF74F
:1048000045FD01460C98FBF739FD3946FBF736FDAF
:104810002946FBF7E2FC0699FBF7DFFCFBF784FF78
:1048200005B2A58007990B98FBF730FD02900A9816
:10483000019001460D98FBF729FD07462846FBF736
:104840003FFF01463046FBF721FD3946FBF716FDD9
:104850000199FBF7C2FC0299FBF7BFFCFBF764FF71
:10486000E080258260820398FBF777FF069108902D
:1048700001210598FBF785FD0399FBF707FDFBF781
:104880006CFF074603910498FBF767FF05460E4649
:104890000598FBF762FF012300229B0700F0DAFD79
:1048A0002A463346FBF72CFE064601916069FBF76A
:1048B00054FF05460591E06CFBF74FFF01230022F2
:1048C0009B0700F0C7FD2A46059BFBF719FE324601
:1048D000019BFBF763FD3A46039BFBF703FE069B38
:1048E000089AFBF75BFDFBF74CFF60626769206D80
:1048F00039460190FBF7CAFC0490A0690090E56C72
:1049000001462846FBF7C2FC059028460199FBF7B3
:10491000BDFC0690656C2946FBF7B8FC0646394697
:104920000698FBF7B3FC3146FBF757FC0599FBF7FC
:10493000A5FC0499FBF7A2FC0099FBF74EFCE06292
:10494000A062206AFBF709FF0F460490012101983D
:10495000FBF717FD0099FBF799FCFBF7FEFE0646F7
:1049600028460591FBF7F9FE08900D460198FBF7E4
:10497000F4FE012300229B0700F06CFD2B46089AF1
:10498000FBF7BEFD079100906069FBF7E6FE054668
:104990000391206DFBF7E1FE012300229B0700F04D
:1049A00059FD2A46039BFBF7ABFD079B009AFBF7DB
:1049B000F5FC3246059BFBF795FD3B46049AFBF759
:1049C000EDFCFBF7DEFE2063616A6163E16AE1638F
:1049D000A16AA163206411B0F0BD0000BC120020E8
:1049E0000024744970B50025058045800581458106
:1049F0008580C580C560456105618561C561456289
:104A0000056204468562E56265632563A5630E461B
:104A1000E363194618462264FBF738FC0449FBF7A8
:104A200035FCE56465652565A664A565606470BDB3
:104A30000000FA43F0B50446FE4897B0C068401C39
:104A4000FBF749FEFC49FBF75EFC01460190FBF7D2
:104A50001DFCA66B3146FBF719FC054601210198A8
:104A6000FBF78FFC276B3946FBF710FCE16AFBF77D
:104A7000B4FB2946FBF7B1FBE06004903146019896
:104A8000FBF704FC3946FBF7A8FB60612061054693
:104A90003046A16CFBF7A1FB0746A061606C029059
:104AA000266C01463046FBF7F1FBFBF756FE0691FC
:104AB000089002990498FBF7E9FBFBF74EFE04917E
:104AC0000290E06B05900146FBF7E0FB3946FBF7EF
:104AD000DDFB3146FBF7DAFBFBF73FFE06460F46F0
:104AE00029460598FBF7D2FBFBF737FE012300228E
:104AF0009B0700F0AFFC0A90E06B0D460146039067
:104B0000FBF7C4FBE1680091FBF7C0FBA169FBF771
:104B1000BDFBFBF722FE2B460A9AFBF7E3FC32466D
:104B20003B46FBF73BFC049B029AFBF737FC069BDA
:104B3000089AFBF733FCFBF724FE0290FBF70DFE0F
:104B400006900F46616C0098FBF7A0FBFBF705FE93
:104B500005460E4621690398FBF798FBFBF7FDFD20
:104B6000012300229B0700F075FC09910A90E06B7D
:104B700000900146FBF78AFBE1680891FBF786FB92
:104B8000A1690791FBF782FBFBF7E7FD099B0A9AF6
:104B9000FBF7A8FC2A463346FBF700FC3B46069A87
:104BA000FBF716FDFBF7EDFDE064039020690B9029
:104BB000014606900098FBF769FB216C0C91FBF70E
:104BC00065FB0299FBF79FFB6065616C0D9167695E
:104BD000064638460A97FBF759FB0299FBF793FB09
:104BE000206505460E900C990798FBF74FFB0C903B
:104BF00039460698FBF74AFB074607990898FBF7E2
:104C000045FB3946FBF73AFB0C99FBF7E6FA0099AE
:104C1000FBF73CFB0299FBF776FB0746A0650A20F1
:104C2000205EFBF74DFD29461390FBF72FFB059007
:104C30000820205EFBF744FD12900399FBF726FB4A
:104C400006900220205EFBF73BFD1190079028465E
:104C50000099FBF71BFB10900799FBF717FB054624
:104C600001991198FBF712FB049011980F9001998C
:104C70000398FBF70BFB0F99FBF708FB0F90002045
:104C8000205EFBF71DFD14900399FBF7FFFA014628
:104C90001498FBF7F3FA0F99FBF7F0FA0499FBF776
:104CA0009CFA2946FBF7EAFA0699FBF796FA05996A
:104CB000FBF793FAFBF738FD05B2258039461398C8
:104CC000FBF7E4FA059031461298FBF7DFFA0790FC
:104CD000119806900C9038460099FBF7D7FA0C997A
:104CE000FBF7D4FA00903046119F0199FBF7CEFAFA
:104CF0003946FBF7CBFA07462846FBF7E1FC0146AD
:104D00000120C0077040FBF7C1FA3946FBF7B6FA3D
:104D10000099FBF7B3FA0699FBF75FFA0799FBF7DF
:104D20005CFA0599FBF759FAFBF7FEFC00B26080CC
:104D3000A580E0800898FBF710FD01910C900A997E
:104D40001098FBF7A3FAFBF708FD09910A900B995D
:104D50001098FBF79BFAFBF700FD07460B910D98A7
:104D6000FBF7FBFC05460E460E98FBF7F6FC01230D
:104D700000229B0700F06EFB2A463346FBF7C0FB80
:104D800003910490A069FBF7E8FC05910290E06BA9
:104D9000FBF7E3FC012300229B0700F05BFB0546C9
:104DA0000E46206DFBF7D9FC012300229B0700F083
:104DB00051FB2A463346FBF7A3FB059B029AFBF700
:104DC0009FFB0D910890E06C01210790FBF7D9FA49
:104DD000E168FBF75BFAFBF7C0FC12900F91216DC5
:104DE0000798FBF753FAE16BFBF750FA0546616948
:104DF000FBF74CFAFBF7B1FC1090119128462169A2
:104E0000FBF744FAFBF7A9FC05910E90206CFBF729
:104E1000A4FC05460E460798FBF79FFC01230022E1
:104E20009B0700F017FB2A463346FBF769FB054654
:104E30000E4603E0BC12002000247449E068FBF732
:104E40008CFC06911690E06CFBF787FC0123002296
:104E50009B0700F0FFFA069B169AFBF751FB2A46C8
:104E60003346FBF79BFA059B0E9AFBF797FA119BCB
:104E7000109AFBF793FA0F9B129AFBF733FB0D9BEB
:104E8000089AFBF78BFA039B049AFBF787FA3A46DA
:104E90000B9BFBF727FB099B0A9AFBF723FB019B64
:104EA0000C9AFBF77BFAFBF76CFCE061256928465E
:104EB000FBF753FC0F910E90E06B0090A76D01463D
:104EC0003846FBF7E3F92946FBF7E0F9FBF745FC29
:104ED00005460E46E168606DFBF7D8F9FBF73DFC2F
:104EE00007910690206D01900099FBF7CFF9A16919
:104EF0000391FBF7CBF9FBF730FC09910C90394695
:104F00000198FBF7C3F9616CFBF7C0F9FBF725FCCF
:104F1000129011910398FBF720FC029003910098E6
:104F2000FBF71BFC012300229B0700F093FA109172
:104F30000890A76D0B97206D39460190FBF7A6F9F5
:104F4000FBF70BFC109B089AFBF7DAFA039B029A1B
:104F5000FBF7D6FA10911490606D04900146019809
:104F6000FBF794F9E16B05910291FBF78FF9616909
:104F7000FBF78CF9139020690390E06C0190039982
:104F8000FBF784F9089039460198FBF77FF90299FD
:104F9000FBF77CF90399FBF779F9009004990198E4
:104FA000FBF774F90490216CFBF770F9074604983D
:104FB000E168FBF76BF93946FBF70FF90099FBF74E
:104FC0000CF90899FBF75AF91399FBF706F9FBF767
:104FD000C4FB109B149AFBF7E1F9119B129AFBF7A3
:104FE000DDF9099B0C9AFBF77DFA079B069AFBF704
:104FF00079FA2A463346FBF775FA0F9B0E9AFBF7B0
:10500000CDF9FBF7BEFB60622062A5692846FBF77D
:10501000A4FB0391049001210B98FBF7B2F90599C9
:10502000FBF734F92946FBF731F9FBF796FB074606
:105030000D91606CFBF791FB05460E460B98FBF754
:105040008CFB012300229B0700F004FA2A4633461A
:10505000FBF756FA0B910C90A069FBF77EFB0091D1
:105060000290E06BFBF779FB012300229B0700F025
:10507000F1F905460E46A06DFBF76FFB01230022F8
:105080009B0700F0E7F92A463346FBF739FA009B05
:10509000029AFBF735FA0A90606902900E46606D3D
:1050A00000900299FBF7F2F8FBF757FB0791089085
:1050B000256900982946FBF7E9F8FBF74EFB0591B7
:1050C0000690A16D0098FBF7E1F8E16BFBF7DEF8C5
:1050D00010900299FBF7DAF8FBF73FFB0F91029073
:1050E00029461098FBF7D2F8FBF737FB1191129085
:1050F000206CFBF732FB10900D460098FBF72DFB60
:10510000012300229B0700F0A5F92B46109AFBF71C
:10511000F7F913910090E068FBF71FFB14900D4620
:10512000606DFBF71AFB012300229B0700F092F948
:105130002B46149AFBF7E4F9139B009AFBF72EF920
:10514000119B129AFBF72AF90F9B029AFBF726F99B
:10515000059B069AFBF7C6F9079B089AFBF7C2F96D
:1051600033460A9AFBF71AF90B9B0C9AFBF716F9D0
:105170003A460D9BFBF7B6F9039B049AFBF70EF931
:10518000FBF7FFFAA062E169E162616A6163216A8B
:105190002163A06317B0F0BD0023038043808380A8
:1051A000C380038143818381C3810382436183611F
:1051B000C26101627047F0B50446062085B0205EEA
:1051C000FBF77EFA0646216AA069FBF706F8039012
:1051D000E1690091FBF701F8014602900398FBF7A3
:1051E00092F805463146FBF751F806460C20205E42
:1051F000FBF766FA074602990098FBF784F83946F0
:105200000190FBF743F83146FAF7E7FFFBF78CFA1A
:10521000074620800820205EFBF752FA0146284608
:10522000FBF734F806460E20205EFBF749FA0146EC
:105230000198FBF72BF83146FAF7CFFFFBF774FA2A
:10524000064660800A20205EFBF73AFA01462846AF
:10525000FBF71CF805461020205EFBF731FA0146EB
:105260000198FBF713F82946FAF7B7FFFBF75CFA4A
:10527000A080A781E6812082029D00990398FBF718
:1052800005F82946FBF73FF86061A06105B0F0BD65
:1052900086B0FCF7A5FBFEF79FFAFEF74BF8FEF78A
:1052A0002DF8FEF7BFF8FEF7E9F8FEF747F9FEF72D
:1052B000B3F9FEF71DFAFDF7EDFFFEF735FAFEF73D
:1052C000FFF92648FDF7D6FF25480121817000240B
:1052D00004700221C170032141700471FDF71EFFAB
:1052E00062216846C1750A21417517218175052122
:1052F0000175047044708470002205A91948FDF7F7
:1053000001F8002269461748FDF75AF805221649A8
:105310001648FDF7EBFC1449642234311448FBF7BE
:10532000A7FE1448FDF7A2F9144C134A214614486D
:10533000FFF732FF7F251248ED052A461149243038
:10534000FFF77FF90E48104B2A4621467830FFF7C9
:1053500049FB0E48FDF7AEF9FEE70000C011002042
:10536000100000200C1200206C0000208813002088
:105370003C1100202C120020000061449A99993EB3
:1053800068100020CDCCCC3D0AD7233DBC120020B4
:10539000F0B58BB00C460646052900D905242046F9
:1053A00006225043192103AD0291019001230722E7
:1053B0000095AF211248FCF72FFA00221BE010469F
:1053C00006214843295C4019437809041B0219430C
:1053D000837819438903890BD300F150C178077989
:1053E00009043F024079394301438803800B99192E
:1053F000521CD2B24860A242E1D30BB0F0BD000013
:10540000C011002030B585B00021684601730174D9
:10541000012403A80A25009023460422AF21029507
:1054200001940B48FCF7F8F904A800900123062228
:10543000AF21029501940648FCF7EEF96846017B1E
:10544000007C081A00D52030C0B205B030BD000085
:10545000C0110020F0B51FB496B084460C46024639
:10546000199D189803904900680063004908400896
:105470000193002A01D0012600E000269E19FE4B70
:10548000F6185B109E422BD36E00039F0296002FEE
:1054900000D00127F719F84EF84BBE199E421FD3D2
:1054A000039E0346F64F334309D03B469C4201D14D
:1054B000002A04D0019B002A05D0012604E0002028
:1054C00039461BB0F0BD00269E19EE4B9E4207D810
:1054D000039F029E002F00D00127F6199E4207D994
:1054E0002B4660462146189AFEF7C8FE1BB0F0BD59
:1054F0000023002C29DAE44EB04226DAE34EB04213
:1055000001DB022321E0DE4EB0421EDBE04E070D40
:10551000BE19142E09DD3427BF1B039EFE400196E1
:10552000BE40039FBE420BD00FE0039F002F0CD163
:105530001427BF1B0646FE400196BE40864204D19A
:10554000019BDE07F60F02239B1B0E46164318D164
:10555000002D16DA002C03D0022B01D0012B06D02F
:105560000220FEF7BBFEFEF77FFE1BB0F0BD02205F
:10557000FEF7B4FEFEF778FE0122D20751401BB0C1
:10558000F0BD039E002E61D1BF4EB04220D1C14874
:10559000844201D1002A08D0B948814209DB002D9C
:1055A00010DB189829461BB0F0BD0020B4491BB091
:1055B000F0BD002D06DA01222946D2071898514085
:1055C0001BB0F0BDB4497944086849681BB0F0BD10
:1055D000AB4FB84225D1002D1FDA002904D0B142CB
:1055E00012D1002A09D018E0002A72D1A649E20F90
:1055F0000020D20711431BB0F0BD0020E20F01468E
:10560000D20711431BB0F0BDB14206DA2346002099
:105610003946FAF7DDFF1BB0F0BD104621461BB03E
:10562000F0BDB14212DA0126B607B54203D12346D6
:1056300010461946FEE3994EB54207D1261E05DBFA
:105640001046314600F004FC1BB0F0BD67007F0837
:105650001646002A40D100290AD08B4A914229D10E
:10566000002C0EDD002D1CDB002011461BB0F0BD10
:10567000022B16D0002C14D0012B12D1002C14DBDD
:105680000FE0002C28DA002D09DB012B03D00020CD
:105690007D491BB0F0BD002081491BB0F0BD012B3E
:1056A00003D0002001461BB0F0BD00200121C90736
:1056B0001BB0F0BD724A91420ED1002C01DA002BD2
:1056C00017D0022B06D00020C043FBF70BF81BB00D
:1056D000F0BD90E20120F8E7E217521C94461A430D
:1056E00007D000220892664C62465B1E1A4307D020
:1056F00009E00120FEF7F2FDFEF7C4FD1BB0F0BD8E
:105700000022644C0892674A90427DDD664B674AEE
:1057100098421FDD914202DC002D05DB4DE0584828
:10572000814217DB002D48DD0220FEF7D7FDFEF792
:10573000B1FD05460E460022534B21460898FAF764
:10574000DFFE084671004908C00FC0070143284624
:105750001BB0F0BD914215DA002D2EDA0220FEF7C3
:10576000BDFDFEF797FD05460E460022464B21463D
:105770000898FAF7C5FE72005208C80FC007024326
:10578000114617E03E4B994223DD002D15DD022026
:10579000FEF7A4FDFEF77EFD05460E4600223A4BBD
:1057A00021460898FAF7ACFE084671004908C00F78
:1057B000C007014328461BB0F0BD0220FEF78EFD56
:1057C000FEF772FD49004908E20FD20711431BB0F2
:1057D000F0BD002230463946FAF784FE0122054624
:1057E0000E46D243FBF7ACF8314A324BFAF780FE53
:1057F0002A463346FAF784FE0022284BFAF778FE51
:1058000007462A46334600E064E0039110461946F5
:10581000FAF776FE3A46039BFAF772FE0746032232
:1058200009915207244B28463146FAF769FE079141
:105830000C90224A204B38460999FAF761FE074638
:1058400001911F4A1F4B28463146FAF759FE3A4646
:10585000019BFAF747FE07460B4602460991079956
:105860000C98FAF79BFD00250E462846079B0C9ADC
:10587000FAF738FE3A4627E0FFFF1F00FFFF0F0050
:105880000000F03F0000E0FF0000F07F0000404318
:1058900001FCFFFF0000F0BF6E0900000000E03FC8
:1058A0000000F0FF0000E0410000F043FFFFEF3F89
:1058B000555555555555D53F4715F73FFE822B6534
:1058C00044DF5DF80BAE543E099BFAF711FE024629
:1058D0000B4652E1012500202D05A94207DA3522A9
:1058E00030463946FBF72CF806463420C0430A15EB
:1058F0001218FE48101803900803FD49000B0143DD
:105900000F46FC49884201DC002003E0FA49884246
:1059100002DA0120119005E0002011900398401C4C
:105920007F1B039011980597C200F4480F927844AA
:10593000801843680268394630460D930292FAF7A0
:10594000D1FD07910C9030460D9B029A0599FAF70C
:1059500025FD02460B460020E549FAF739FE09917C
:105960000490079B0C9AFAF7CBFD12900020109040
:10597000E3480D46784400680E90012178104907ED
:10598000084311990D9B890440180121C904471847
:105990003946029A0E98FAF7A5FD3246059BFAF7AA
:1059A000A7FD02460B4629461098FAF7A9FD0646C0
:1059B00002913B4629460E9A1098FAF7A1FD079BE3
:1059C0000C9AFAF795FD3246029BFAF78BFD099B7C
:1059D000049AFAF795FD0591129A0A902B46104603
:1059E0001946FAF78DFD06460246C6480F460B4695
:1059F00006217844FEF7E2FB32463B4600910490D4
:105A000010461946FAF77CFD009B049AFAF778FDD8
:105A100006460F462B461946129A1098FAF7BEFC16
:105A2000059B0A9AFAF76CFD32463B46FAF7B6FC3C
:105A3000109A079104902B4610461946FAF760FD1C
:105A4000B14E0022334609910290FAF7A7FC079B5A
:105A5000049AFAF7A3FC0020074602463346009159
:105A6000FAF740FD099B029AFAF73CFD079B049A5E
:105A7000FAF73EFD06460D913A462946009B1098DE
:105A8000FAF73EFD07910C902B463046129A0D997D
:105A9000FAF736FD05460E463A46009B05990A98E8
:105AA000FAF72EFD33462A46FAF778FC02460B46F3
:105AB0000746099107990C98FAF770FC00250E46E5
:105AC0002846079B0C9AFAF70DFD3A46099BFAF710
:105AD0000FFD07460722099152078C4B3146284695
