:020000040800F2
:10000000501A0020C900000859370008172E0008B0
:1000100000000000000000000000000000000000E0
:10002000000000000000000000000000BD370008D4
:1000300000000000000000005B370008BF37000828
:10004000DB00000800000000AD370008DB000008FE
:10005000DB000008DB000008F90B0008030C0008B7
:10006000000000008D0B0008DB0000089D0B00085D
:100070005D0A0008DB000008DB000008000000004B
:10008000DB0000085138000800000000DB00000819
:10009000DB000008DB000008DB000008DB000008D4
:1000A000DB000008DB000008DB000008DB000008C4
:1000B000DB0000080348854600F06CFC0048004760
:1000C0006D4B0008501A0020044880470448004740
:1000D000FEE7FEE7FEE7FEE7FEE7FEE74D38000835
:1000E000B500000830B50B4601460020202201244F
:1000F00009E00D46D5409D4205D31D469540491B5C
:100100002546954040191546521E002DF1DC30BDA4
:10011000F0B51FB40646002082B005464024019188
:1001200000901BE0019922460F46304600F020F86F
:10013000049A059B801A994110D31046194622460D
:1001400000F03BFB361A8F41019722460120002127
:10015000009F00F032FB38184D4100902046641E8D
:100160000028DFDC019B00982946324607B0F0BD2D
:1001700010B5202A04DB0846203AD040002110BDEB
:100180000B46D340D0402024A21A91400843194680
:1001900010BD03460B439B0703D009E008C9121F9B
:1001A00008C0042AFAD203E00B780370401C491CF3
:1001B000521EF9D27047D2B201E00270401C491EB3
:1001C000FBD270470022F6E710B513460A460446F4
:1001D0001946FFF7F0FF204610BDF8B502464A4029
:1001E000D40F42004B0052085B089A4202D20246EA
:1001F000084611464A0023D0C30D4A00DDB2120E54
:10020000AD1A202D35DA49020126490AF6058A1968
:10021000002C00D0524220214F1B1146B9402A41E8
:100220001018C20D9A4221D0002C17D0012D08DCE5
:10023000DA05801AD20F8019D207DBB200F0E8FA93
:10024000F8BDDA05801A012340001B06C01880188B
:100250005A428018CA0F1043490007E04908C207F4
:100260001143DA05801A80194008801800F0C8FA96
:10027000F8BD61000122511A001BF7E70122D207E5
:100280005140AAE70122D2075040A6E7024670B5C6
:100290004A40D30FDB0740002DD04A002AD0010E80
:1002A000140E000212020919400A520A8418E501CC
:1002B00004465443000A120A2E045043A41942195A
:1002C000200CC543AA18120C0125AD03521C52196B
:1002D00012047F39240400D0521C104301D4400082
:1002E000491EC2B20C06C0092018401C4008802AD2
:1002F00002D003E0002070BD40084000002900DA71
:100300000020184370BD70B502464A40D50F40002A
:100310004A00ED0740085208002814D0002A12D0E5
:10032000C40DD30D41020120C0055202490A520AF0
:10033000E41A091812187D34914201D3641C00E0BC
:100340004900002C01DA002070BD0023914201D346
:10035000891A0343400849000028F7D100290AD030
:10036000914202D10121C90705E0914201D2012148
:1003700001E00121C943E005C018401900F040FA2E
:1003800070BD420005D04200120E52428A4201DB8B
:1003900000207047C905081870470000F0B50746EF
:1003A0000846584087B0C00F049048000E465900D8
:1003B00040084908BC1A884105D2384631461E46D5
:1003C00017460B4602465800400810434CD0300DEB
:1003D000039040055900400D490D0590401A0290C8
:1003E000402872DA18030121000B09050843019027
:1003F00004980092002805D00199524200208841BB
:1004000000920190029840210A1A0199009800F088
:10041000D4F905460C466B4607CB00F0DEF9C0194F
:100420007141039A0E0D0023D71756401A467A40A1
:10043000164344D0049A002A2DD0029A012A039A26
:1004400015DC1205C01A914101263605001C7141C8
:10045000D20F059ED2070093019202962A462346A8
:1004600000F01CFA07B0F0BD38463146FAE7160531
:10047000224A0F46B218C01AB74101210905001CD3
:100480004F4100187F41114618187941E20F10437F
:100490006D19644113E0E2076D0815436408C20753
:1004A0001443039A01261205C01A91413605001C17
:1004B0007141CE07400830434908C01851412A46CF
:1004C000234600F0DEF9CDE7FFE704980122400063
:1004D000C117121A00238B4104983146C417381AE9
:1004E000A141EEE730B40124E407634030BC55E796
:1004F00030B40124E407614030BC4FE70000E0FF66
:10050000F0B51FB488B00B990998002448400999A8
:10051000C00F490049080991C0070B990090490094
:1005200049080B9109990898A64608431CD00B99D5
:100530000A98084318D0099801244000420D480049
:10054000410D099824050003000B204309900B98E6
:100550000003000B20430B9050181C494018002248
:1005600001901446104605E0002001460DB0F0BD94
:10057000032801DA034600E003239C46C11A0AAEB1
:100580000AE05F0008ADED5B4F00F75B7D4300279D
:10059000AA187C41491C5B1E6145F2DD410004AB99
:1005A0005A522104120C0A43240C401C0828DFDB99
:1005B000019802900099704601910090059B049A61
:1005C0000799069800F06AF9D0E700000DFCFFFFDC
:1005D000F0B50C465C4085B0E40FE40703944C0092
:1005E00000266408590094464908024602962243B0
:1005F00021D062460A431ED06200570D4A000E0306
:100600002303550D012402462C492405781B1B0B9E
:10061000360B401823432643614600901C46501A6F
:10062000B44103D30098401C009002E09218009857
:100630005B41002803DA0020014605B0F0BD002030
:10064000012109050746864611E064461D46141B34
:10065000B54106D36546521BB341744607430C436C
:10066000A646CD0740084908284392185B41054635
:100670000D43EAD11046184313D060461946504046
:100680007140084306D06046101AB34106D20122D9
:10069000002306E000220123DB0702E00122D2430F
:1006A0005310009874460105381C6141029C039D5B
:1006B0000019694100F0E5F8BFE70000FD03000004
:1006C000C217C10F504010B54018CA079623002129
:1006D00000F09EF810BD10B500229623114600F0E0
:1006E00097F810BD0EB5C217C10F5040CA07401889
:1006F0000021054B0293019200910A460B4600F03F
:10070000CDF803B000BD0000330400000EB505496C
:100710000291002100910A460B46019100F0BEF8BB
:1007200003B000BD33040000C20F410040020123AA
:10073000400ADB05D207090EC0187F2901DA002024
:100740007047962903DC9623591AC84001E0963970
:100750008840002AF4D040427047C20FD2074000C0
:1007600040080BD0C10D0723DB01C9184002090561
:10077000400A1143C2084007114370470020014658
:100780007047CB0FDB07490010B5490802460A4302
:1007900007D00A0D07240903E401090B121B002AE4
:1007A00001DC002010BDC900440F0C43C100E0185B
:1007B000D205801800F024F810BD10B5202A04DB03
:1007C0000146203A9140002010BD914020239C1A00
:1007D0000346E3401943904010BD10B5202A06DBC4
:1007E000CB170846203A1041C1170B4306E00B46D1
:1007F0001341D0402024A21A91400843194610BD4D
:10080000002904DA401C490001D14008400070472B
:1008100070B40024050C05D11024000402D1002975
:1008200021D01124050E01D100020834050F01D199
:100830000001241D850F01D18000A41C002801DBCC
:100840004000641C002908D020252E1B0D46F540D1
:10085000A14000D001212943084301061B1B000AC7
:10086000DB1D02D5002070BC7047DB05181880180E
:100870000029F8DA401C4900F5D170BC400840005E
:10088000704710B5002B08DA0024401C6141921813
:100890005B411A4301D14008400010BDF0B51FB4C0
:1008A00082B005460C0003D0084603F017FC02E0B6
:1008B00003F014FC20300246009021462846FFF742
:1008C0007CFF049B059A04460F46184311430843D6
:1008D00014D0184610431BD0009840210A1A18461D
:1008E0000599FFF745FC05460E46009A05990498C0
:1008F000FFF763FF084305D0012004E02046394696
:1009000007B0F0BD0020C11705430E432C43374309
:1009100000990E986305401A7905E40A00220C43F9
:10092000FD0A0A3002D500200146E9E70105101949
:1009300069410C9C0D9D00196941FFF7A2FFDFE79B
:1009400070B54B005B0803430BD04B005C0D0026D9
:1009500033466542B341D417AD1AA34102DB0020F0
:10096000014670BD12053018514170BD10B5002907
:1009700004DB0124E40740428C412146002B04DBC8
:100980001C460123DB075242A341994200D1904209
:1009900010BD0000064C0125064E05E0E36807CCBB
:1009A0002B430C3C98471034B442F7D3FFF786FB37
:1009B0000858000828580008FEB500231A461B1ADC
:1009C0008A4103DB0020014603B0F0BD4A000D035D
:1009D00001212D0B0905520D0D43D10702D100183D
:1009E0006D41521E5110FF31FF3101310027044685
:1009F0003E46384600970191024601210020090534
:100A0000FFF7B6FBC3197141F818324684468E468B
:100A10004A4161462846611A904104D36046241A2F
:100A2000954176461F46241900986D41401C009060
:100A30003428E1DDF91930467041091BA84103D281
:100A40000022D243134601E000221346019801051B
:100A5000381C7141FFF715FFB6E7000010B50248DA
:100A600000F092F910BD0000EC10002010B5014616
:100A7000406A826B50231A420AD1816B01225202D2
:100A8000114381630168CA681205920F05D020E006
:100A9000006B026B0846904710BD827E002A18D179
:100AA0000A68120715D58A6853070122002B09DB53
:100AB0004B680C24A3434B60816B13029943114391
:100AC000816306E0816B202319438163C16B11436D
:100AD000C16300F037F910BD10B5406A816B402248
:100AE00011438163C16B04221143C16300F04BF9D0
:100AF00010BD10B5406A00F045F910BDF8B50446C8
:100B000000200090206881688907890F012905D19C
:100B10000168C90731D1C16809042ED48168184A17
:100B200010261140012500291AD1816829438160CE
:100B3000154814490068FFF7D5FA00E0401E009000
:100B40000028FBD100F0AEFC074611E000F0AAFC43
:100B5000C01B02280CD920680068C043C00707D01A
:100B6000A06B3043A063E06B2843E0630120F8BD35
:100B700020680068C043C007E8D10020F8BD00002D
:100B80001700008040420F002400002010B50248EA
:100B900000F0BEFA10BD00002C11002010B5024874
:100BA00000F0B6FA10BD0000BC13002010B50446DA
:100BB0000068054940181421FFF794FA800020646A
:100BC0000248E06310BD0000F8FFFDBF00000240D6
:100BD00030B5056C0124AC40C56B6C600468636083
:100BE0004368102B036803D099600068C26030BD71
:100BF0009A600068C16030BD10B5082000F06EFB3F
:100C000010BD10B5102000F069FB202000F066FB3D
:100C1000402000F063FBFF20013000F05FFB01206B
:100C2000400200F05BFB0120C00300F057FB10BD49
:100C300070470000F8B50025044620340095227D59
:100C4000012A39D00122227503689E68760767D48D
:100C5000384F4E68BE424DD09E6A0F78BA40164358
:100C60009E620123C26A1B079A421FD0012A1DD02F
:100C7000022A1BD0032A19D0042A17D0052A15D01E
:100C8000062A13D0072A11D002688B6856697607A6
:100C9000760FB3420AD05369DB08DB00536100686A
:100CA00042690B7A5B075B0F1A4342610A68102A9C
:100CB00004D0112A02D038E00220F8BD1E48836813
:100CC000102A07D001229205134383600868102878
:100CD00003D02AE00122D205F6E719481749006837
:100CE000FFF700FA0A21484300E0401E0090002868
:100CF000FBD11AE0986A0E78B24090439862096876
:100D0000102901D0112910D10B488268102904D074
:100D1000012189058A43826007E00121C905F9E7BD
:100D2000816B202211438163012500202075284614
:100D3000F8BD0000011000000027014040420F00F4
:100D40002400002070B500200B4C0C4A7D23014686
:100D5000DB00E0608D005559491C28189942F9DBE9
:100D6000E060FFF7D3FC0022054BFFF731FCFFF7F3
:100D700008FDA06070BD000000000020A000002061
:100D8000000059407047704770B50446006801681C
:100D9000490702D54168490705D40168090730D5DC
:100DA000416809072DD5A16BC90604D4A16B0122A6
:100DB00052021143A163C1680C250905890F00295E
:100DC0001AD1A17E002917D10168090714D58168BD
:100DD0004A070121002A08DB4268AA434260A06B4F
:100DE0000A0290430843A06306E0A06B2022104350
:100DF000A063E06B0843E0632046FFF7A3FF206891
:100E000005602068016809060DD5406800060AD50E
:100E1000A06B012109040843A063204600F0D8F824
:100E200021688020086020680168C90613D54168E0
:100E3000C90610D5A16A1025012902D0C168C907C9
:100E400007D0E16B02221143E16305602046FFF702
:100E50009AFF2068056070BDF8B50026044600289A
:100E600005D0A06B25462035002802D007E00120E0
:100E7000F8BD0020E0632875204600F0ABF8A06BB9
:100E80001022C006002870DB2068816849076CD4F6
:100E9000A16B1301994302231943A1638168890758
:100EA000890F012905D10168C9070FD1C16809045B
:100EB0000CD4C16818239943A3681943C160206802
:100EC0000169636889008908194301612068C16864
:100ED0003D4B1940C160207E617E8003C9030843F9
:100EE000A17E4B031843A36A012B02D001231B03ED
:100EF00000E000231843E36818432369022B09D05C
:100F0000002318432B79E57E5B0018430123012D54
:100F100002D00AE00423F4E7002927D0A16B2025A2
:100F20002943A163E16B1943E163E1690D46FF3D8C
:100F3000C23D02D0256A294308432168CD68054394
:100F4000CD600125E16A2D07A94213D0012911D0F6
:100F500002290FD003290DD004290BD0052909D06F
:100F6000062907D0072905D010E028E0012109044F
:100F70000843DAE721684D69ED08ED004D6121680D
:100F80004D69A78D7F077F0F3D434D612168C9687B
:100F90000E4D2940814207D10020E063A06B8008FC
:100FA0008000401CA06308E0A06B0221884310432E
:100FB000A063E06B1843E06301263046F8BDA06BE8
:100FC0001043A063F8E700001902FEFFE7FF3F832C
:100FD00070470000F0B587B0054614216846FFF75A
:100FE000F1F81F492868884237D11E4988694E1593
:100FF000304388618869304005904A693002024375
:101000004A614969002701400591022000900320B0
:101010000190092069460297C00600F06BF912485A
:10102000124C81C427608020A66060600001E060EF
:101030002020676120610D48083C00F0B7F80028C7
:1010400001D0FFF7F5FD2C63002211460C206562EC
:1010500000F018FD0C2000F009FD07B0F0BD000005
:101060000024014000100240080002402C11002022
:10107000F7B5044600680025806840073DD4264641
:101080002036307D01280AD001273775607E01287F
:1010900007D02046FFF732FD050002D02EE00220E7
:1010A000FEBDA06B16490840FF2101310843A06333
:1010B0000020E0633075216B12488862216B124872
:1010C000C862216B1148086321681C2008602068F1
:1010D00041681022114341602068C1683943C160F2
:1010E0002168206B4031029B019A00F089F820684A
:1010F000816804221143816000E002252846FEBD7C
:10110000FEF1FFFF6D0A0008F30A0008D90A000883
:10111000F0B4C16B0D6801680C680422066C1346BC
:10112000B3402B420DD063070BD50B689B0602D44E
:101130000B6893430B60016C8A40C16B4A60C16AC3
:1011400019E00227B74002462F4001232032002F2A
:1011500015D0A70713D50C68A40604D40C680A257B
:10116000AC430C605370036C02219940C36B59600F
:1011700000211170816A002916D0F0BC08470827A9
:10118000B7402F4210D024070ED50C680E25AC4373
:101190000C60046C1946A140C46B6160836353709A
:1011A00000211170016BE6E7F0BC704770B50400D8
:1011B00021D0022120462030054641702268116866
:1011C0000E48A3680140606826691843E36833430A
:1011D000184363691843A3691843E3691843084334
:1011E00010602046FFF7E2FC0021A1630120687037
:1011F0002970084670BD012070BD00000FC0FFFFC0
:10120000F8B504468C46203001780025012909D024
:101210000126067041780027012905D007700225B4
:101220002846F8BD0220F8BD02214170A76320685E
:10123000016849084900016061462046FFF7C8FC83
:10124000E06A00282068016802D00E22114306E0FF
:101250000A22114301602068016804229143016061
:101260002068016831430160DAE7000070B5044688
:1012700000F018F90546601C02D0044800782418D4
:1012800000F010F9401BA042FAD370BD44000020CA
:1012900010B5C11FFF39FA3914D103F015FD0A4901
:1012A00008700146094803F0D5FC084808A14268C7
:1012B000084802F0FFFEC2B27D23DB000549064864
:1012C00001F040FD10BD0000000000204010002093
:1012D00025640A00540000203813002010B504498A
:1012E0004A69024202D04861FFF7D2FF10BD0000F8
:1012F00000040140F8B5002303240125BAE02E467E
:101300009E40B44632407CD00E79B607B60F012E0F
:1013100001D0022E17D186682746B6465E00B74038
:1013200000967646BE43B646CF68009EB7407646E6
:101330003743876046686746BE430F79FF06FF0F55
:101340009F40374347600E79F643B6070ED0C66814
:101350002746B4465E00B646B7406646BE43B4462E
:101360008F687646B74066463743C7600E79B60742
:10137000B60F022E14D1DE08B60036180096366A73
:101380005F07B446FE0E0F27B646B7406646BE431B
:10139000B4460F697646B74066463743009E3762CB
:1013A00006682746B4465E00B646B7406646BE436A
:1013B0000F79B446BF07BF0F7646B740664637433E
:1013C00007604E68B603B60F53D02D4FBE692E434B
:1013D000BE61BE699F08F607F60F2A4EBF00BE1910
:1013E0000096B6680F27B4469E07360FB646B7403C
:1013F0006646BE430927FF06B446B84202D100271D
:1014000010E036E0204FB84201D101270AE01F4F1B
:10141000B84201D1022705E01D4FB84201D1032790
:1014200000E005277646B74066463743009EB76022
:10143000184E36684F689643FF0300D51643154F84
:101440003E607E684F689643BF0300D51643114F38
:101450007E60BE684F689643FF0200D516430D4F6D
:10146000BE60FE684F689643BF0200D51643094A26
:10147000D6605B1C0A681646DE4000D03FE7F8BD28
:10148000001002400000014000040048000800482D
:10149000000C004800040140002A01D0816170471F
:1014A0008162704701488068704700004400002056
:1014B00070B5024640325378202B1CD11378012B93
:1014C00019D00123137024245470046825689D43A7
:1014D0002560046825681E03B543256004682568F7
:1014E0000D43256000680168194301602020507099
:1014F0000020107070BD022070BD70B502464032F1
:101500005378202B1BD11378012B18D00124147091
:101510002423537003681D68A5431D6005682B686C
:101520000F263602B3430902194329600068016897
:1015300021430160202050700020107070BD0220F7
:1015400070BD000070B5040006D0254640356878AF
:101550000026002802D005E0012070BD2E70204634
:1015600000F004FA242068702068016849084900E6
:1015700001600F21606809068843216808612168BD
:101580008A680120C00382438A60E1680129A1685A
:1015900008D021229202114322689160E168022959
:1015A00002D005E00143F7E701212268C90251603A
:1015B00021684A680F4B1A434A602168CA6882430F
:1015C000CA60616920690843A1690902084321686A
:1015D000C860216AE06908432168086020680168E2
:1015E0000122114301606664202068702663AE709A
:1015F000002070BD00800002FFB50546044640355E
:10160000687881B0202878D12878012875D0012009
:101610002870FFF747FF0746012200901923D103E6
:10162000204601F0ADFC00283CD12220687010203B
:10163000A8700026666403986062049860856663FB
:10164000618D2F48FF2903D9FF22228500903BE0BE
:10165000618D218500903DE02046029901F07CFCDF
:1016600016E001F0B5FC00281CD12068406A616AD0
:101670000870606A401C6062208D401E81B2218526
:10168000608D401E6085608D002801D000290CD03F
:10169000608D0A9900283A462046E2D101F0D8FC34
:1016A00000281CD0012005B0F0BD00970022802149
:1016B00020460A9B01F064FC0028F3D1608DFF28CE
:1016C00005D9FF222285009601231B06C4E7608D01
:1016D00020850096208D0123C2B25B06BCE72168FD
:1016E0002020C86121684A68064B1A404A60687029
:1016F000AE702E700020D6E7FFE70220D3E700008F
:101700000024008000E800FEFFB505460446403591
:10171000687881B0202878D12878012875D00120F8
:101720002870FFF7BFFE0746012200901923D1035E
:10173000204601F025FC00283CD1212068701020B3
:10174000A8700026666403986062049860856663EA
:10175000618D2F48FF2903D9FF22228500903BE0AD
:10176000618D218500903DE02046029901F0F4FB57
:1017700016E001F093FC00281CD1606A2168007813
:101780008862606A401C6062608D401E6085208DAA
:10179000401E80B22085618D002901D000280CD028
:1017A000608D0A9900283A462046E2D101F050FCAB
:1017B00000281CD0012005B0F0BD00970022802138
:1017C00020460A9B01F0DCFB0028F3D1608DFF2846
:1017D00005D9FF222285009601231B06C4E7608DF0
:1017E00020850096208D0123C2B25B06BCE72168EC
:1017F0002020C86121684A68064B1A404A60687018
:10180000AE702E700020D6E7FFE70220D3E700007D
:101810000020008000E800FEFFB505460446403584
:10182000687883B0202875D10C98002814D00D98C2
:10183000002811D0287801286CD001202870FFF7EB
:1018400031FE0746012200901923D103204601F002
:1018500097FB002874D103E00120400260646FE030
:10186000222068704020A870002666640C98606290
:101870000D98608566630E980090019704A90EC9C3
:10188000204601F039FB002801D02E7058E0618D10
:101890003448FF2905D9FF22228501231B06009029
:1018A00006E0618D21850090208D0123C2B25B0688
:1018B0002046049901F050FB0097002204212046A5
:1018C0000E9B01F05DFB00283AD12068406A616AF6
:1018D0000870606A401C6062208D401E81B22185C4
:1018E000608D401E6085608D00281FD000291DD1AD
:1018F00000970022802120460E9B01F041FB00282A
:101900001ED1608DFF2806D9FF22228501231B06E8
:10191000009607E024E0608D20850096208D01234D
:10192000C2B25B062046049901F016FB608D0028C8
:10193000C2D13A4620460E9901F08AFB002802D017
:10194000012007B0F0BD20682021C16120684268F5
:10195000054B1A4042606970AE702E700020F0E7AF
:101960000220EEE70024008000E800FE10B586B0FB
:10197000044614216846FEF725FC12492068884277
:101980001DD1114C616901208004014361616169CD
:1019900001400591C02000901220012101900320F8
:1019A00002910491039069460848FFF7A3FCE1699E
:1019B000012040050143E161E1690140059106B064
:1019C00010BD000000540040001002400004004818
:1019D00002488168027889188160704744000020BD
:1019E00010B506480168102211430160002000F084
:1019F00007F800F027F8002010BD0000002002408A
:101A000070B504460D4D7D202978C000FEF76AFBB5
:101A100001460B480068FEF765FB00F059FD002801
:101A200009D1042C07D200222146401E00F02AF8DA
:101A300000206C6070BD012070BD000044000020DB
:101A40002400002008B50848816901221143816102
:101A5000816911400091C26901040A43C261C069F1
:101A60000840009008BD000000100240002805DB7F
:101A7000C106C90E01208840014908607047000076
:101A800000E100E010B502F06FFB10BD02480168F4
:101A9000821511430160704700700040F8B505469B
:101AA0000068354CC00352D5E0690026C00007D459
:101AB000E16920040143E161E169014001260091EF
:101AC0002E480168C90510D40168821511430160D0
:101AD000FFF7E8FC074604E0FFF7E4FCC01B6428BE
:101AE00024D826480068C005F6D5206A03273F029F
:101AF000384020D06968394081421CD0206A226A6F
:101B0000B843012109040A432262226A8A432262FD
:101B10002062C0070FD0FFF7C5FC009008E0FFF778
:101B2000C1FC0099411A1648814201D90320F8BD31
:101B3000206A8007F3D5206A6968B84308432062A9
:101B4000002E04D0E169012000078143E16128787B
:101B5000C00705D0206BA968800880000843206377
:101B60002878800605D5206B10218843E968084352
:101B700020630020F8BD000000100240007000400B
:101B800088130000F8B50F46060059D03A4D286872
:101B9000C007C00FB84209D2286840084000384347
:101BA00028602868C007C00FB84249D13068334C5C
:101BB00081070CD5400704D5606807210902084356
:101BC00060606068F0218843B168084360603078E5
:101BD000C00726D0706801280ED0216802280ED0D8
:101BE000890700292CDA616889088900014361604E
:101BF000FFF758FC00900DE021688903F1E78901A7
:101C0000EFE7FFF74FFC0099411A1D48814201D9C7
:101C10000320F8BD60680C21084071688900884283
:101C2000EFD12868C007C00FB8420BD92868400818
:101C30004000384328602868C007C00FB84201D070
:101C40000120F8BD3078400706D5606807210902F9
:101C50008843F1680843606000F028F86168094A29
:101C60000906090F515CC840074908600020FFF7CA
:101C7000C7FE0020F8BD0000002002400010024016
:101C8000881300005C570008240000200448054920
:101C900000684968044A4905490F515CC8407047CB
:101CA00024000020001002406C57000810B514A357
:101CB0000FCB88B06C460FC415A30FCB0FC4184AC6
:101CC00051680C200B4603401648042B16D0082BF5
:101CD00014D18B021B0F6C46E45CD26A04AB120772
:101CE000120F9A5CC90305D500231946FEF710FAB6
:101CF000214601E020460C4902F007FA08B010BD69
:101D000002030405060708090A0B0C0D0E0F10103C
:101D10000102030405060708090A0B0C0D0E0F103B
:101D20000010024000127A0000093D00FEB50400D8
:101D300070D02078DC4DC0074AD068680007800F5B
:101D4000012807D068680007800F022809D1686859
:101D5000C00306D5286880033AD560680028E7D01C
:101D600036E06168012914D001208004002901D0E7
:101D7000052914D02A68012109048A432A602968A8
:101D8000814329606068002816D0FFF78BFB064668
:101D90000EE028680121090408432860F2E7296859
:101DA00001432960F5E7FFF77DFB801B64286ED8AF
:101DB00028688003F7D50BE0FFF774FB064604E0C4
:101DC000FFF770FB801B6428F1D828688003F7D4E4
:101DD00020780126800700283CDA68680007800F19
:101DE00007D068680007800F022809D16868C0031F
:101DF00006D42868800716D5E06801280AD112E0C9
:101E0000E0680028286816D030432860FFF74AFBB6
:101E1000074605E043E1FFF745FBC01B0228C6D893
:101E200028688007F7D52868F82188432169C90008
:101E3000084328600EE0400840002860FFF732FBAE
:101E4000074604E0FFF72EFBC01B0228AFD8286826
:101E50008007F7D42078000722D5E0690028686A57
:101E60000ED030436862FFF71DFB074604E0FFF722
:101E700019FBC01B02289AD8686A8007F7D50FE0C3
:101E8000400840006862FFF70DFB074605E09DE053
:101E9000FFF708FBC01B022889D8686A8007F7D4BF
:101EA000207804274007002860DA00200190E869C4
:101EB000C00008D4E969B8060143E961E969014055
:101EC00001200091019079480168C90511D4016889
:101ED000821511430160FFF7E5FA009005E0FFF776
:101EE000E1FA0099401A642870D870480068C0056B
:101EF000F5D5A06801280AD0002801D0052810D007
:101F0000286A400840002862286AB84301E0286A2D
:101F100030432862A068002812D0FFF7C3FA00906F
:101F20000AE0286A38432862F1E7FFF7BBFA009914
:101F3000411A5F48814249D8286A8007F5D50DE0EB
:101F4000FFF7B0FA009006E0FFF7ACFA0099411AEB
:101F5000574881423AD8286A8007F5D4019800286A
:101F600004D0E969012000078143E9612078C006B7
:101F700035D5606901280CD0401D686B23D03843EB
:101F80006863686B400840006863FFF78BFA064699
:101F900022E0686B38436863686B30436863FFF71F
:101FA00081FA064604E0FFF77DFA801B02285BD821
:101FB000686B8007F7D5686BF8218843A169C90071
:101FC000084368630BE0B8436863F4E74CE0FFF74D
:101FD00069FA801B022847D8686B8007F7D4206A0B
:101FE00000285ED069680907890F022942D00126BE
:101FF00036060228286805D0B0432860FFF752FA59
:10200000044633E0B0432860FFF74CFA074604E08B
:10201000FFF748FAC01B022826D828688001F7D4A9
:10202000E86AE16A000900010843E862616AA06A9F
:10203000084369683D221204914308436860286898
:1020400030432860FFF72EFA044604E0FFF72AFA2F
:10205000001B022808D828688001F7D521E0FFF787
:1020600021FA001B022801D90320FEBD2868800147
:10207000F5D416E00128F8D06868E96A0122120454
:10208000636A02409A420AD10907E26A090F914243
:1020900005D10F2189040840A16A884201D001209E
:1020A000FEBD0020FEBD0000001002400070004098
:1020B0008813000002484168491C416070470000D5
:1020C0000000002010B5044600688168C9040CD5E2
:1020D000C068C00509D52046FFF7ECFF2168C86835
:1020E00080221040FF388238C86001200249400435
:1020F00048610120607710BD0004014070B5040004
:1021000003D0607F002802D006E0012070BD0020CF
:102110002077204600F04CF8022060772168CA2022
:102120004862216853204862204601F022FBFF25C7
:102130000426002824D1206881681C4A114081604F
:102140002168886862686369104322691A431043F2
:1021500088602168E06808612068016922891204AA
:10216000114301612068C16880229143C1602068E9
:102170008068800608D4204600F090F9002803D03B
:10218000206845626677C0E72068016C01229204EE
:10219000914301642068016CA269114301642068C5
:1021A000456201206077002070BD0000BFFF8FFFF7
:1021B00010B50068084988420DD10848016A01221B
:1021C000D20311430162002211460220FFF75AFC9C
:1021D0000220FFF74BFC10BD002800400010024019
:1021E000F8B50446007F0B46012839D0012020773E
:1021F0000220607720681F46203700268068002A6A
:1022000030D0400600D4DE7019789D7809040D4363
:102210005978DA780902120411430D433978D869E4
:1022200009060D43054358699969054358680843F1
:1022300000902168CA2048622168532048622068C3
:102240008168FF220132914381602068C168802249
:102250001140FF398239C160FFF724F9074629E0B0
:102260000220F8BD400600D4DE70187801F076FA3E
:102270000504587801F072FA00020543987801F0DD
:102280006DFA0543D87800040543387801F066FA02
:1022900000060543D869C5E7FFF704F9C11B7D2097
:1022A000C000814206D92168FF2048620320607780
:1022B0002677F8BD2068C068C007EDD02068C561EA
:1022C00021680098486420688168FF220132114328
:1022D00081602068816812011143816008480268AA
:1022E000012149040A43026082680A43826021682E
:1022F000FF2048620120607726770020F8BD0000AB
:1023000000040140F8B50446007F0B4601280FD0B9
:102310000120207702206077002A0BD0D8789D78A2
:10232000000405435878097800024903084317E080
:102330000220F8BD5878C10603D5EF2108400A30C5
:102340005870D87801F00AFA0504587801F006FAB6
:1023500000020543987801F001FA0543187840031C
:1023600005432168CA2048622168532048622046FC
:1023700001F0FFF90026FF27002811D10F48054082
:10238000206845602068C16880229143C160206850
:10239000806880060BD4204600F080F8002806D024
:1023A000206847620420607726770120F8BD206806
:1023B00047620120607726770020F8BD3FFFFF00CD
:1023C000F8B50446007F0D46012821D00120207772
:1023D00002206077206800278068002A1AD0400613
:1023E00000D4EF702878AE78000406436878E97866
:1023F00000020904084306432168CA204862216894
:1024000053204862204601F0B4F9002834D114E08A
:102410000220F8BD400600D4EF70287801F09EF944
:102420000604687801F09AF900020643A87801F0E2
:1024300095F90643E8780004DDE717480640206870
:1024400006602068816801229204914381602969B5
:10245000E868084321688A68104388602068C1687A
:1024600080229143C1602068806880060CD4204699
:1024700000F014F8002807D02168FF2048620420EB
:10248000607727770120F8BD2168FF20486201208E
:10249000607727770020F8BD7F7F7F0070B5044606
:1024A0000068C168A0229143C160FEF7FBFF7D2652
:1024B0000546F60006E0FEF7F5FF401BB04201D9E5
:1024C000032070BD2068C0688006F4D5002070BD70
:1024D000094910B5401E884201D9012010BD074CA2
:1024E00060610321081F01F03FFE0020A06107206A
:1024F0002061002010BD0000FFFFFF0000E000E0B1
:102500007047704730B5034620331A7F012A26D022
:1025100001221A770325CA682D02AA438D68002478
:102520002A430125AD02AA434D6800682A430125CC
:10253000ED02AA430D682A4301252D03AA430D6924
:102540002A4301256D03AA434D69C9692A43012520
:10255000AD03AA430A4342641C77002030BD022029
:1025600030BD0000F0B502462032137F012B1ED093
:10257000012515770223537706687468B3687027BE
:10258000BC430F682743776000680A4CA04205D01F
:10259000094CA04202D0094CA04204D180244968D1
:1025A000A34319438160557700201077F0BD0220C6
:1025B000F0BD0000002C014000040040004001403C
:1025C00070B5040005D025462035687F002802D06C
:1025D00006E0012070BD00202877204600F014F8A6
:1025E00002206877211D206801F03AF9012040346B
:1025F000A071A877E87720706070A070E0702071FB
:1026000060716877002070BD08B5144A01681448ED
:10261000914205D18269C1140A438261806907E051
:10262000104A914207D1C26902210A43C261C069BE
:102630000840009008BD0C4A9142FBD1C2691021AC
:102640000A43C261C069002208400090114611206F
:10265000FFF718FA1120FFF709FA08BD002C014016
:1026600000100240000400400010004001462031EC
:102670004A7F012A01D00120704702224A77006870
:10268000094A0121904205D0084A904202D0084AE6
:10269000904204D182685207520F062A02D0026883
:1026A0000A43026000207047002C014000040040F3
:1026B00000400140014620314A7F012A01D001201B
:1026C000704702224A770268D36801210B43D36026
:1026D0000068094A904205D0084A904202D0084A50
:1026E000904204D182685207520F062A02D0026833
:1026F0000A43026000207047002C014000040040A3
:1027000000400140F8B5054604462035287F0026E4
:10271000012817D001202877022068772268906866
:102720007727FF23B8431B0298439060086850281E
:1027300038D00EDC20284FD006DC00284CD01028E2
:102740001ED149E00220F8BD302845D0402817D1DD
:102750003AE060282ED0702819D001221203801A86
:102760000FD090420CD1CB684A688968206801F08C
:10277000BBF820688168012292031143816000E068
:10278000012601206877002028773046F8BDCB6805
:102790004A688968206801F0A7F82168886838438A
:1027A0008860EEE7CA684968206801F0ADF95021F9
:1027B000206806E0CA684968206801F0B6F960211F
:1027C000206801F09CF8DCE7CA684968206801F0DD
:1027D0009BF940212068F4E7226801461046F0E7A3
:1027E000704770B50446006801690025C943890730
:1027F000002915DBC168C943890711D4E91E0161AD
:1028000001202077206880698007204602D0FFF7EA
:10281000E7FF04E000F0D2F8204600F05DF92577EC
:1028200020680169C943490717D4C168C9434907EA
:1028300013D40421C94301610220207720688069F4
:102840008005800F204602D0FFF7CAFF04E000F0A9
:10285000B5F8204600F040F9257720680169C943A2
:10286000090716D4C168C943090712D40821C9430E
:102870000161042020772068C0698007204602D0CB
:10288000FFF7AEFF04E000F099F8204600F024F9CD
:10289000257720680169C943C90617D4C168C943AF
:1028A000C90613D41021C94301610820207720688C
:1028B000C0698005800F204602D0FFF791FF04E039
:1028C00000F07CF8204600F007F9257720680169C0
:1028D000C943C90708D1C168C943C90704D1891EC2
:1028E0000161204600F0FAF820680169C943090631
:1028F00009D4C168C943090605D48021C9430161CF
:102900002046FFF7FDFD20680169C943490609D447
:10291000C168C943490605D44021C9430161204625
:1029200000F03EF920680169C943890609D4C168ED
:10293000C943890605D42021C94301612046FFF718
:10294000E0FD70BD10B586B0044614216846FDF761
:1029500039FC2368154C002215480221A3420FD1EF
:1029600044690B041C434461406918400590880287
:102970006B4607C30491092003926946C00610E024
:102980000C4CA3420FD144691B131C4344614069A2
:102990001840059001206B4607C3049069460392D6
:1029A0000548FEF7A7FC06B010BD0000002C014052
:1029B0000010024000040040000400487047F8B5D1
:1029C000064604462036307F00270D4601280ED0EB
:1029D00001203077002A0CD0042A1BD0082A2FD0DF
:1029E0000C2A3ED00127002030773846F8BD02205F
:1029F000F8BD206800F08CFF20688169082211432F
:102A000081612068826904218A438261206881692A
:102A10002A6912E0206800F0BFFF20688269012166
:102A2000C9020A43826120688169012292029143AE
:102A30008161206881692A69120211438161D2E7AC
:102A4000206800F0E9FF2068C16908221143C161D4
:102A50002068C26904218A43C2612068C1692A6969
:102A600012E0206801F01AF82068C1690122D20240
:102A70001143C1612068C269012189028A43C26190
:102A80002068C1692A6912021143C161ABE770B5C0
:102A9000040005D025462035687F002802D006E0D6
:102AA000012070BD00202877204600F014F8022095
:102AB0006877211D206800F0D3FE01204034A0710A
:102AC000A877E87720706070A070E0702071607166
:102AD0006877002070BD704770470000F8B52B493B
:102AE000884252D12A4800F071FB2948801D00F02D
:102AF000AFFB2748274C02882270110A6170418879
:102B0000A1700B0AE3708088214D2071030A637164
:102B1000AD1D2B88A3711B0AE3716B8823721B0AFE
:102B20006372AB88A3721B0A1B4EE372F280318181
:102B30007081304601F0ADFF374628882437B881D0
:102B40006888F881A8883882384601F08FFD30887F
:102B50002073000A60737088A073000AE073B08865
:102B60002074000A60743888A074000AE074B88881
:102B70002075000A60753889A075000AE0750A237F
:102B800018222146054800F0DDF8F8BD6C1200203F
:102B9000160000205400002068100020B41200200D
:102BA00070477047704710B5040003D0A06F00282D
:102BB00002D007E0012010BD0021742001552046FD
:102BC00000F026F82420A067206801684908490021
:102BD0000160204601F012F90128ECD0606A00285B
:102BE00002D0204600F0B4FF206841680122D202E2
:102BF0009143416020688168082291438160206888
:102C00000168012211430160204601F007F810BD60
:102C1000F0B587B0064614216846FDF7D3FA2A4F6F
:102C20000121346800252948490402230322BC42BB
:102C300019D18669CC10264386618669264005969F
:102C400044690C43446140696C4608400590500259
:102C5000039229C40120049009206946C006FEF7AA
:102C600049FB07B0F0BD1A4FBC42FAD1C4690C430E
:102C7000C461C4690C40059444690C4344614069D3
:102C80006C46084005900C20039229C40120049052
:102C900009206946C006FEF72DFB0E480E4C21C4E4
:102CA0002560A5608020E56060602020656120616E
:102CB0000948083CFEF77AFA002801D0FDF7B8FF72
:102CC00034676662CDE70000003801400010024022
:102CD0000044004058000240BC13002070B5C36F90
:102CE000202B2BD100290BD0002A09D00124836886
:102CF0002403A34206D10369002B03D1CB0701D0E3
:102D0000012070BD034660331C7D012C16D00124C8
:102D10001C7500230366046863681B020BD5EFF380
:102D20001083012585F3108825680126B6063543F2
:102D3000256083F3108801F0FBF870BD022070BDA0
:102D400070477047FFB50446806F83B017460D4645
:102D500020285ED1002D0AD0002F08D0A168C00124
:102D6000814207D12069002804D1E80702D0012060
:102D700007B0F0BD204660300090007D012848D0AB
:102D80000098012101750020802108512120A067B1
:102D9000FEF788FB26464036019037827782012075
:102DA000A1680003814202D12069002805D02F4686
:102DB000002500990020087511E00027F9E700229E
:102DC0008021204601F00CF9002815D1002F15D0E4
:102DD0002168387808857F1C708A401E7082708A4E
:102DE000019B002806980090E9D10022402120464E
:102DF00001F0F6F8002808D00320B9E728882168F8
:102E0000C005C00D0885AD1CE6E72020A0670020A6
:102E1000AEE70220ACE7FEE701688A69D243920779
:102E200001D400228A6200688169C943C90703D0BE
:102E3000816901221143816170470000F7B50446A2
:102E400000680F468169C943C90636D441688901C3
:102E500004D44168012292031143416000262546B3
:102E6000403520688069C043800612D5781CF8D0B0
:102E7000FEF718FB0299401AB84201D8002FF0D192
:102E8000616C2020014361646870AE702E70012077
:102E9000FEBD21681020C86120682027C761204638
:102EA000FFF7BAFF20684168054A11404160606C35
:102EB0000421084360646F70E7E70020FEBD000056
:102EC00000E800FE7CB50E46694608710A201546EA
:102ED000D0240090012301AA21460648FEF714FCE5
:102EE000642000902B46324621460248FEF784FBC0
:102EF0007CBD000000140020F8B5044616461548B5
:102F00001D46DAB20090079F0023204600F024F807
:102F10003A462046069900F0C1F8002818D1284604
:102F2000F5B2012809D02168300A88623A46204665
:102F3000069900F0B3F800280AD12068856200974E
:102F4000002240212046069B00F01AF8002800D0FD
:102F50000120F8BD00200080F0B50668059C75686A
:102F6000064F600D384385438805800D11040843E2
:102F70001843204305437560F0BD0000FF63FF0365
:102F8000F8B51D4617460E46044609E0681C07D0F2
:102F9000FEF788FA0699401AA8420BD8002D09D0EE
:102FA00020688169304688430FD00020B842EDD0B8
:102FB0000020F8BD616C20200143616440346070E2
:102FC0000020A07020700120F8BD0120EEE7000075
:102FD000F7B50027202605460446403528E0204660
:102FE000029A0199FFF72AFF002801D00120FEBDB7
:102FF00020688069C043800611D420688169C94374
:10300000490702D4218D002917D1C6612068416883
:103010000E4A1140416067646E70AF7013E0FEF7B6
:1030200041FA0299411A0198814208D8002806D035
:1030300020688069C0434007D1D40020FEBD606C89
:10304000304360646E702F70D0E7000000E800FE2F
:1030500070B516460D4604460FE032462946204616
:10306000FFF7ECFE002801D0012070BDFEF71AFA30
:10307000801BA84208D8002D06D020688069C04374
:103080008006EAD4002070BD616C20200143616499
:10309000403460700020A0702070E5E770B51646DF
:1030A0000D46044611E0324629462046FFF7C6FE8B
:1030B000002801D0012070BD681C06D0FEF7F2F98F
:1030C000801BA84208D8002D06D020688069C04324
:1030D0008007E8D4002070BD616C2020014361644A
:1030E000403460700020A0702070E3E71CB56A4691
:1030F0001071517164200090D021022301AA02486E
:10310000FEF702FB1CBD00000014002010B50446B1
:1031100080216B20FFF7EAFF6420FEF7A7F82078F4
:1031200021794007C907400F490E01436B20FFF783
:10313000DDFF6420FEF79AF8E0784107490F1A2076
:10314000FFF7D4FF60788007C10E1B20FFF7CEFF8A
:10315000A0788007C10E1C20FFF7C8FF042000F0F4
:103160008BF8A27811491248002A06D0012A06D00D
:10317000022A06D0032A06D10FE0C16003E00D4AFF
:1031800000E00D4AC2606278002A08D0012A08D007
:10319000022A08D0032A08D106E0084AF2E70849C3
:1031A00002E0084900E00849016110BD00007A3DD5
:1031B000280000200000FA3D00007A3E0000FA3EA0
:1031C0000000FA3B00007A3C0000FA3C10B586B0E3
:1031D000044600A901223A200131FFF773FE684638
:1031E0004078002830D0062201A93B20FFF76AFE74
:1031F0006946087949790002401820806946887933
:10320000C9790002401860806946087A497A00024C
:103210004018A080062203A94320FFF753FE694609
:10322000087B497B00024118084801806946897B78
:103230000A026946C97B511841806946097C0A0225
:103240006946497C5118818006B010BD3C000020C1
:1032500003490A8802804A884280898881807047B1
:103260003C00002010B501464C220248FCF791FFBB
:1032700010BD00000014002010B501461920FFF712
:1032800035FF10BD3EB50021174800910191029114
:10329000416081600124134A04610260C16004221C
:1032A0004261017641768176C176C1611102016287
:1032B000014620310C718462FDF7CEFD002801D05B
:1032C000FDF7B6FC01200003019000040290009479
:1032D00069460548FDF7AEFC002801D0FDF7A8FCC3
:1032E0003EBD000000240140EC10002008B50C4851
:1032F0004169012211434161406910400022009060
:1033000011460920FEF7BEFB0920FEF7AFFB0022A5
:1033100011460B20FEF7B6FB0B20FEF7A7FB08BDFE
:103320000010024030B587B014216846FCF74AFF10
:10333000344842690121C9040A43426142690A4092
:103340000592426989100A43426142690A40059226
:10335000426949000A43426142690A400592426952
:1033600009010A4342614069274D08404C1205900B
:10337000002221462846FEF78FF800940120002401
:1033800001900294694628460394FDF7B3FF40205C
:1033900011252D0400906946019502941B48FDF704
:1033A000A9FF0120C00300900920694601950294FD
:1033B000C006FDF79FFFFF2001953930144D0090A6
:1033C000694602942846FDF795FF012040020090CF
:1033D000212000040190694602942846FDF78AFFE7
:1033E000002211460620FEF74DFB0620FEF73EFBAD
:1033F000002211460720FEF745FB0720FEF736FBAB
:1034000007B030BD0010024000080048001400481A
:103410000004004810B51348114901601249416089
:10342000002181600161416181610122C161C2604D
:103430000162FEF787F8002801D0FDF7F9FB0021B3
:103440000848FEF735F8002801D0FDF7F1FB002110
:103450000448FEF752F8002801D0FDF7E9FB10BD43
:1034600000540040701100200E09002010B590B0EB
:1034700014216846FCF7A6FE0024282106A805941E
:10348000FCF7A0FE2649274812C07F210160846016
:10349000C460FF21046141600838FEF72FFE002858
:1034A00001D0FDF7C5FB6846047044708470039436
:1034B000002269461B480494FEF782FF002801D0D1
:1034C000FDF7B6FB01206946087548751720887519
:1034D0006220C875002205A91248FEF713FF0028D4
:1034E00001D0FDF7A5FB68460476447684760E4845
:1034F0000B90C00107940D9009940A940C94052137
:1035000008A80176FF2001300F90002206A9054887
:10351000FEF766FE002801D0FDF78AFB10B010BD53
:1035200000280040BC1100200000808010B596B03B
:1035300000240F9410941194129413941C2108A841
:103540001494FCF73FFE20216846FCF73BFE2C4814
:103550002A4901602F218460416004614461294946
:103560008461C160FFF72CF8002801D0FDF760FBF3
:10357000012000030F900FA92148FFF7C3F800288E
:1035800001D0FDF755FB1E48FFF781FA002801D056
:10359000FDF74EFB202013A911C119480839FEF789
:1035A000E1FF002801D0FDF743FB60200890FF20D9
:1035B0002D300E9409900A940C940D940C2208A9B5
:1035C0000F48FFF7FCF9002801D0FDF731FB01207F
:1035D0000094400302940590019403940494694676
:1035E00007940748FEF78EFF002801D0FDF720FB67
:1035F0000348FFF7A7F916B010BD0000002C0140EA
:10360000DC110020E703000010B58EB00024079401
:10361000089409940A940B941C2168460C94FCF7B6
:10362000D1FD21481F4901602F2184604160046160
:103630001E498461C160FEF7C3FF002801D0FDF779
:10364000F7FA01200003079007A91748FFF75AF877
:10365000002801D0FDF7ECFA1348FFF718FA00280C
:1036600001D0FDF7E5FA0B940BA90F480C94FEF777
:1036700079FF002801D0FDF7DBFA60200090FF20E1
:10368000F530019002940822694604940648FFF739
:1036900096F9002801D0FDF7CBFA0348FFF752F95D
:1036A0000EB010BD0004004024120020E70300000B
:1036B00010B50948074901602F2141600021074AE0
:1036C0008160C2608161FEF77BFF002801D0FDF7B9
:1036D000AFFA10BD001000406C120020E70300009C
:1036E00010B50C480A490160E121490241600021FE
:1036F0008160C16001618161C1610C22016242612E
:103700004162FFF750FA002801D0FDF791FA10BD91
:1037100000380140B412002010B50E480C49016079
:103720004B21C901416000218160C160016181615B
:103730000C22C161426101620821416209034163B7
:10374000FFF731FA002801D0FDF772FA10BD000032
:10375000004400403813002070477047002102E009
:103760000A38C0B2491C0A28FAD20907090E0843D0
:10377000704770B504460068C168490613D400213B
:10378000C943C160FDF78EFE7D260546F60006E0C2
:10379000FDF788FE401BB04201D9032070BD2068B0
:1037A000C0684006F4D5002070BD000010B5024886
:1037B000FEF788FC10BD0000BC110020704710B55A
:1037C000FEF706F910BD000030B595B0302168460F
:1037D000FCF7F8FC00240C940D940E940F941094B4
:1037E000119412941394FEF751F91648016A1822A5
:1037F0001143016216200090012003900290059071
:103800001020049006900520C00402250A90089517
:1038100009940B946846FEF789FA07200C900E94E1
:1038200001210D950F940CA8FEF7ACF906481090F5
:10383000001211901294139410A8FEF72FF915B0EE
:1038400030BD000000100240210001007047000060
:1038500010B50248FEF7C5FF10BD00006C12002035
:10386000F0B502681A4B1B4C984201D0A04203D11C
:103870007025AA434D682A43174D184E184F984299
:103880000AD0A04208D0174CA04205D0A84203D0CD
:10389000B04201D0B84205D114460322120294432B
:1038A000CA6822438024A2434C69224302608A688A
:1038B000C2620A688262984205D0A84203D0B04230
:1038C00001D0B84201D10969016301214161F0BD14
:1038D000002C014000040040004001400044014031
:1038E000004801400020004030B58468FF252D02CB
:1038F0001B021343AC430B432343836030BD8268F8
:1039000070239A430A4307210A43826070470000EC
:10391000F0B5026A520852000262056A4368826981
:103920007024A24392080C6892001443022295432B
:103930008A68164E2A43144DA84207D0B04205D0DB
:10394000134FB84202D0134FB84206D10827BA43EA
:10395000CF681743042297433A46A84207D0B042A3
:1039600005D00B4DA84202D00A4DA84206D103252E
:103970002D02AB434D691D438B692B43436084612A
:10398000496841630262F0BD002C014000400140E3
:10399000004401400048014070B5026A10239A4378
:1039A0000262056A4268836973242402A3430C6897
:1039B00024021C4320239D438B681B012B43124D83
:1039C000A84208D11D46CB688026B5431B012B4376
:1039D0004025AB4308E00D4DA84205D00C4DA84250
:1039E00002D00C4DA84208D10325AD02AA434D696F
:1039F000AD0015438A6992002A4342608461496898
:103A00008163036270BD0000002C01400040014052
:103A1000004401400048014070B5026AFF230133B1
:103A20009A430262056A4368C2697024A2439208FD
:103A30000C68920014430122520295438A681202D4
:103A40002A43124DA84208D11546CA68C614B54388
:103A500012022A430515AA4308E00D4DA84205D0DD
:103A60000C4DA84202D00C4DA84208D103252D03CD
:103A7000AB434D692D011D438B691B012B434360F3
:103A8000C4614968C163026270BD0000002C01403E
:103A900000400140004401400048014030B5026A46
:103AA00001231B039A430262046A4268C3697325B7
:103AB0002D02AB430D682D021D4301235B039C4384
:103AC0008B681B0323430C4CA04208D00B4CA04234
:103AD00005D00B4CA04202D00A4CA04205D10124D3
:103AE000A403A2434C69A40122434260C561496812
:103AF0000164036230BD0000002C01400040014021
:103B0000004401400048014030B5036A046A64087B
:103B1000640004628469F025AC43120122430A2444
:103B2000A3430B438261036230BD30B5036A1024A6
:103B3000A34303628469036A0F252D031203AC4378
:103B40002243A024A343090119438261016230BDCD
:103B500010B5818CC90707D001684A6801235B044E
:103B60009A43836A1A434A60818C890707D50168A2
:103B70004A6801231B049A43C36A1A434A60818C32
:103B8000490707D501684A6801239B049A43036BE0
:103B90001A434A60818C090707D501684A680123E6
:103BA000DB039A43436B1A434A60818CC90607D5ED
:103BB0000268916801231B039943836B1943916049
:103BC000818C890607D501688A6801235B039A43C3
:103BD000C36B1A438A60818C490612D503685A6800
:103BE00001210905046C8A4322435A60026C8A420F
:103BF00007D10268516803235B059943436C19435D
:103C00005160818C090607D501684A680123DB04ED
:103C1000806C9A4302434A6010BD0000F8B5044628
:103C2000002680300660FDF73DFC054620680068F0
:103C3000124F000709D501212B46002249052046D5
:103C4000009700F0CDF900280DD1206800684007EA
:103C50000BD501212B46002289052046009700F054
:103C6000BFF9002801D00320F8BD2020A067E0673D
:103C70002666603426750020F8BD0000FFFFFF01B6
:103C800070B5446AA06FE56F21688968002609064F
:103C9000002906DA212804D152200653204600F0DC
:103CA0009CF820688068400606D5222D04D15A2051
:103CB0000653204600F062F820468030016810224A
:103CC000114301602046FEF76DFF70BD10B501463F
:103CD0008969406A202938D000225A210A52EFF31C
:103CE0001081012282F3108802681368FF240134D6
:103CF000A343136081F31088EFF31081012282F354
:103D00001088026893685B085B00936081F31088F9
:103D1000EFF31081012282F3108802689368402437
:103D2000A343936081F310882021C167016E0129AC
:103D30000BD1EFF31081012282F31088026813681F
:103D40001024A343136081F31088016E012902D06F
:103D5000FEF7F6FF10BD5821095AFEF722FF10BDED
:103D600010B5406A016E012902D0FEF7EAFF10BDCE
:103D70005821095A4908FEF714FF10BD10B5EFF39A
:103D80001081012282F3108802681368FF24213415
:103D9000A343136081F31088EFF31081012282F3B3
:103DA0001088026893685B085B00936081F3108859
:103DB000016E01290BD1EFF31081012282F31088EB
:103DC000026813681024A343136081F31088202134
:103DD000C16700210166416610BD10B5EFF3108187
:103DE000012282F3108802681368C024A343136081
:103DF00081F310882021816710BD000070B5044652
:103E000080682169E26908436169002511432268DD
:103E100008431168404B194001431160216848680C
:103E2000032212039043E26810434860A169206AAC
:103E3000084321688A680B231B029A4302438A6065
:103E400036492068884210D13548006B8007800FC2
:103E50000ED0012805D0022805D003280AD102215E
:103E600009E0042107E0082105E02E49884201D13C
:103E7000002100E010210120E369C0032A4A2B4EF3
:103E8000834223D1002906D0022907D0042907D074
:103E9000082937D108E0FDF7F9FE03E0104603E0FA
:103EA000FDF704FF002831D0616840004A088018FF
:103EB000FCF718F980B201461039B14222D81B49EB
:103EC000491C01400007400F08431DE0002906D0AF
:103ED000022907D0042907D0082913D108E0FDF7EB
:103EE000D5FE03E0104603E0FDF7E0FE00280DD00C
:103EF00061684A081018FCF7F5F880B201461039DD
:103F0000B14201D9012501E02168C8600020606646
:103F1000A066284670BD0000F369FFFF003801402D
:103F2000001002400044004000127A00EFFF000041
:103F3000F8B50446416540300026274602838037A5
:103F40003E602220E0672546206F603500281BD0A8
:103F500020498162216F2048C862216F1F48086391
:103F6000206F13464663606D2168844662462431A3
:103F7000206FFDF745F9002806D0102038602E7517
:103F80002020E0670120F8BD2E75EFF3108001219D
:103F900081F3108821680A68FF2301331A430A60FD
:103FA00080F31088EFF31080012181F310882268DC
:103FB00093680B43936080F31088EFF3108081F3D4
:103FC000108821688A6840231A438A6080F3108829
:103FD0000020F8BDCD3C0008613D0008813C000890
:103FE000FFB581B005461746044660350A9E55E088
:103FF000701C53D0FDF756FA0499401AB04230D8DD
:10400000002E2ED020680168490747D5C069C043FB
:10401000000543D401202168C0020862EFF310803C
:10402000012181F3108821680B68FF22A13293439C
:104030000B6080F31088EFF31080012181F310886A
:1040400021688A68520852008A6080F31088202014
:10405000A067E0678034206000202875032005B049
:10406000F0BDEFF31080012181F3108821680B6807
:10407000FF22A13293430B6080F31088EFF310808E
:10408000012181F3108821688A68520852008A60F1
:1040900080F310882020A067E067DDE72068C16911
:1040A0000298884304D00020B842A1D00020D6E76F
:1040B0000120F9E70FB410B504A9074B02AA039831
:1040C00000F00AF9044602A9002000F0ADFA2046EB
:1040D00010BC08BC04B01847294600082021020C77
:1040E00001D010211046020A01D0104608390209F9
:1040F00001D01046091F820801D01046891E4208CF
:1041000001D0881E7047081A7047F8B5040C8BB2AE
:10411000264682B25E430D0C1046370C58433604D7
:1041200080190021794116466E43370C36048019F8
:10413000794126466E438919F8BD00004900CA023C
:104140000243100000D004204A0D01D00122104388
:10415000044A490D914201D102210843012800D1AE
:1041600005207047FF0700008307FF22DB0E9A40FF
:104170008907090E9940002808DB830809489B003D
:104180001B18186890430843186070470007000F19
:104190000838830804489B001B18D86990430843DB
:1041A000D861704700E400E000ED00E0F8B5044697
:1041B0004F1EC8000838211815461E460868496871
:1041C0003A4606239A4310D02A463346FCF798F91C
:1041D0003A46D200083AA3181A687F1E5B68FCF7BB
:1041E000DDF806223B469343EED1022F23D0042F65
:1041F00011D0062F2FD12A463346FCF781F9E36A06
:10420000A26AFCF7CBF82A463346FCF779F9636AD1
:10421000226AFCF7C3F82A463346FCF771F9E369D2
:10422000A269FCF7BBF82A463346FCF769F96369D3
:104230002269FCF7B3F82A463346FCF761F9E368D4
:10424000A268FCF7ABF82A463346FCF759F96368D5
:104250002268FCF7A3F8F8BD002210B513461046FB
:104260000149FCF7B5F910BD0000F03F10B5FCF7AF
:1042700095F810BD002210B5134610461146FCF704
:10428000A7F910BD10B50721024A00200907FCF765
:1042900057FB10BD01030000034A10B500201107B1
:1042A000FCF74EFB10BD000001FDFFFF02E008C857
:1042B000121F08C1002AFAD170477047002001E0A0
:1042C00001C1121F002AFBD170470000014908609C
:1042D0007047000050000020FFB58FB00546002653
:1042E00006E025280AD0129A119990476D1C761C79
:1042F00028780028F5D1304613B0F0BD0024029490
:104300000121B54A009400E004436D1C2B78084657
:10431000203B98401042F7D128782A280ED002225C
:10432000287801463039092916D802990A235943B9
:104330003039401814436D1C0290F1E7109802C800
:1043400002911090002904DA0120400304434842FE
:104350000290022004436D1C28782E2817D10420D7
:10436000044368786D1C2A280CD110986D1C02C873
:10437000009110900BE000990A2251433039401807
:104380006D1C00902878014630390929F3D9287826
:104390006C2810D006DC4C281AD068280ED06A2869
:1043A00017D104E0742813D07A2812D110E001202C
:1043B000400504430CE00121090501E00321090542
:1043C0000C436978814203D10120000524186D1C3B
:1043D0006D1C2878692874D006DC00288BD06328EF
:1043E00027D0642806D16CE06E2808D073282CD022
:1043F000752878D0129A11999047761C5FE0600278
:10440000400F022809D003280DD004281098016815
:104410000DD00E60001D109051E01098F217016849
:104420000E604A60F6E7109801680E80F2E70E70A1
:10443000F0E710986A4601781173001D1090002073
:10444000507303A80190012005E0109802C8019163
:1044500010900020C04361070CD5002700E07F1CAE
:1044600000998F420FDA8742F9DB0199C95D002973
:10447000F5D108E0002700E07F1C8742FCDB0199B2
:10448000C95D0029F8D102982146C01B0290129BF9
:10449000119A00F0B3F88019C61907E00198019944
:1044A0000078491C0191129A119990477F1EF5D20C
:1044B0002146129B119A029800F090F886196D1C03
:1044C00016E70A200190109901C910916102490F65
:1044D000032900D100B2042900D140B2002803DA38
:1044E00040422D2103E00DE0210504D52B216A4631
:1044F0001173012103E0E10711D02021F7E70CAF90
:104500000C9114E00A200190109901C910916102E8
:10451000490F032900D180B2042900D1C0B2002183
:10452000EDE70199FBF7DEFD30317F1E3970002881
:10453000F7D104A8C01B20300190600704D50120EA
:1045400000048443009801E0012000900199884212
:1045500001DD401A00E00020411800900C98091875
:104560000298401A0290E00306D42146129B119A49
:10457000029800F043F8861900200D9008E003A986
:10458000085C129A119990470D98401C761C0D906A
:104590000C998842F3DBE0030CD52146129B119A5B
:1045A000029800F02BF8861904E0129A3020119935
:1045B0009047761C0099481E00900029F5DC05E024
:1045C0003878129A7F1C11999047761C0199481EE1
:1045D00001900029F4DC6BE709280100F8B50446D6
:1045E00000251E461746880404D405E039462020DD
:1045F000B0476D1C641EF9D52846F8BDFFB50446CA
:10460000002581B01E46C80301D5302700E02027D1
:10461000880404D505E038460399B0476D1C641E34
:10462000F9D5284605B0F0BD0A68531C0B60107020
:104630007047002303804380038143818381038289
:104640004382838243838383036283624362C362C0
:10465000036383634363C363036483644364C36426
:104660008365C3650265416570470000F0B5044687
:10467000FE4891B0C068401CFCF72DF8FC49FBF7E0
:1046800042FE01460090FBF701FEE56C2946FBF770
:10469000FDFD074601210098FBF773FE666C31466D
:1046A000FBF7F4FD216CFBF798FD3946FBF795FD10
:1046B00020620746059029460098FBF7E7FD314642
:1046C000FBF78BFDA062606206462846616DFBF732
:1046D00084FDE062206D069001463846FBF77DFDC3
:1046E000054629463846FBF70EFEA065029001906C
:1046F00029463046FBF707FEE065054604900C208E
:10470000205EFBF7DDFF10900199FBF7BFFD0890DD
:104710000220205EFBF7D4FF07460099FBF7B6FDA9
:10472000064600990198FBF7B1FD079039460990BC
:10473000FBF7ACFD0C900020205EFBF7C1FF0F9053
:104740000199FBF7A3FD01460F98FBF797FD0C9924
:10475000FBF794FD3146FBF740FD0899FBF73DFD63
:10476000FBF7E2FF06B2268029461098FBF78EFD84
:104770000A900C9728460099FBF788FD39460E9061
:10478000FBF784FD07463046FBF79AFF0146012000
:10479000C00745402846FBF779FD3946FBF76EFD1B
:1047A0000C99FBF71AFD0A99FBF717FDFBF7BCFF05
:1047B00060806682A0820E20205EFBF781FF0D9054
:1047C0000199FBF763FD07460620205EFBF778FFA3
:1047D0000C900099FBF75AFD06460C990998FBF7D7
:1047E00055FD03900420205EFBF76AFF0F900199AE
:1047F000FBF74CFD01460F98FBF740FD0399FBF7D3
:104800003DFD3146FBF7E9FC3946FBF7E6FCFBF7DB
:104810008BFF06B2A68004990D98FBF737FD0B902D
:104820000C980A9001460E98FBF730FD074630467B
:10483000FBF746FF01462846FBF728FD3946FBF704
:104840001DFD0A99FBF7C9FC0B99FBF7C6FCFBF7AA
:104850006BFFE080E68220831020205EFBF730FFB4
:104860000B900299FBF712FD03900A20205EFBF7E4
:1048700027FF06460099FBF709FD074631460798D2
:10488000FBF704FD07900820205EFBF719FF099055
:104890000299FBF7FBFC01460998FBF7EFFC07992F
:1048A000FBF7ECFC3946FBF798FC0399FBF795FC0A
:1048B000FBF73AFF07B2278104990B98FBF7E6FC58
:1048C0000390314600960E98FBF7E0FC064638460A
:1048D000FBF7F6FE01462846FBF7D8FC3146FBF70E
:1048E000CDFC0099FBF779FC0399FBF776FCFBF70D
:1048F0001BFF60816783A0830598FBF72EFF019162
:10490000049001210298FBF73CFD0599FBF7BEFCE2
:10491000FBF723FF074603910698FBF71EFF0546AA
:104920000E460298FBF719FF012300229B0700F0B7
:10493000F3F92A463346FBF7E3FD02900E46206A60
:10494000FBF70BFF05460091A06DFBF706FF012367
:1049500000229B0700F0E0F92A46009BFBF7D0FD00
:104960003346029AFBF71AFD3A46039BFBF7BAFD62
:10497000019B049AFBF712FDFBF703FF2063276AF4
:10498000E06D39460190FBF781FC0690606A00906B
:10499000A56D01462846FBF779FC0490284601994D
:1049A000FBF774FC0790256D2946FBF76FFC064664
:1049B00039460798FBF76AFC3146FBF70EFC049971
:1049C000FBF75CFC0699FBF759FC0099FBF705FC2B
:1049D000A0636063E06AFBF7C0FE0F46069001210A
:1049E0000198FBF7CEFC0099FBF750FCFBF7B5FEF6
:1049F000064628460391FBF7B0FE05460491019850
:104A0000FBF7ABFE012300229B0700F085F92A4645
:104A1000049BFBF775FD01910A90206AFBF79DFE50
:104A200005460591E06DFBF798FE012300229B07E8
:104A300000F072F92A46059BFBF762FD019B0A9A7A
:104A4000FBF7ACFC3246039BFBF74CFD3B46069A5A
:104A5000FBF7A4FCFBF795FEE063216B2164A16BDF
:104A6000A164616B6164E06411B0F0BD6C12002060
:104A7000002474490023038043808380C380038122
:104A800043818381C381038243618361C261016287
:104A90007047F0B50446062085B0205EFBF710FE97
:104AA0000646216AA069FBF798FB0390E169009133
:104AB000FBF793FB014602900398FBF724FC0546A5
:104AC0003146FBF7E3FB06460C20205EFBF7F8FDC2
:104AD000074602990098FBF716FC39460190FBF750
:104AE000D5FB3146FBF779FBFBF71EFE074620801E
:104AF0000820205EFBF7E4FD01462846FBF7C6FBD5
:104B000006460E20205EFBF7DBFD01460198FBF711
:104B1000BDFB3146FBF761FBFBF706FE06466080F6
:104B20000A20205EFBF7CCFD01462846FBF7AEFBD2
:104B300005461020205EFBF7C3FD01460198FBF7F8
:104B4000A5FB2946FBF749FBFBF7EEFDA080A781FB
:104B5000E6812082029D00990398FBF797FB294686
:104B6000FBF7D1FB6061A06105B0F0BD86B0FCF73A
:104B700037FFFEF729FEFEF7D5FBFEF7B7FBFEF782
:104B800049FCFEF773FCFEF7D1FCFEF73DFDFEF796
:104B9000A7FDFEF777FBFEF7BFFDFEF789FD214875
:104BA000FEF760FB2048012181700024047002217F
:104BB000C170032141700471FEF7A8FA62216846B2
:104BC000C1750A2141751721817505210175047090
:104BD00044708470002205A91448FDF793FB00225D
:104BE00069461248FDF7ECFB052211491148FEF712
:104BF00075F80F49642234310F48FCF739FA0F4831
:104C0000FDF734FD0E4A0F490F48FFF733FF0E48FA
:104C10007F22D2050D492430FFF70BFD0C48FDF72C
:104C200049FDFEE77011002010000020BC1100209B
:104C30006C00002038130020EC100020DC11002054
:104C4000000061449A99993E68100020CDCCCC3D7B
:104C50006C120020F0B58BB00C460646052900D931
:104C60000524204606225043192103AD02910190EC
:104C7000012307220095AF211248FCF7CDFD002249
:104C80001BE0104606214843295C4019437809047B
:104C90001B021943837819438903890BD300F15010
:104CA000C178077909043F024079394301438803F9
:104CB000800B9919521CD2B24860A242E1D30BB0CA
:104CC000F0BD00007011002030B585B000216846AD
:104CD00001730174012403A80A25009023460422CD
:104CE000AF21029501940B48FCF796FD04A80090B3
:104CF00001230622AF21029501940648FCF78CFDA2
:104D00006846017B007C081A00D52030C0B205B08F
:104D100030BD000070110020F0B51FB496B084467D
:104D20000C460246199D18980390490068006300DC
:104D3000490840080193002A01D0012600E000261E
:104D40009E19FE4BF6185B109E422BD36E00039FFC
:104D50000296002F00D00127F719F84EF84BBE1924
:104D60009E421FD3039E0346F64F334309D03B4672
:104D70009C4201D1002A04D0019B002A05D00126C3
:104D800004E0002039461BB0F0BD00269E19EE4B12
:104D90009E4207D8039F029E002F00D00127F619DC
:104DA0009E4207D92B4660462146189AFFF75EFAC5
:104DB0001BB0F0BD0023002C29DAE44EB04226DA05
:104DC000E34EB04201DB022321E0DE4EB0421EDBA7
:104DD000E04E070DBE19142E09DD3427BF1B039EBC
:104DE000FE400196BE40039FBE420BD00FE0039FE2
:104DF000002F0CD11427BF1B0646FE400196BE4073
:104E0000864204D1019BDE07F60F02239B1B0E4650
:104E1000164318D1002D16DA002C03D0022B01D036
:104E2000012B06D00220FFF751FAFFF715FA1BB04D
:104E3000F0BD0220FFF74AFAFFF70EFA0122D2076F
:104E400051401BB0F0BD039E002E61D1BF4EB04259
:104E500020D1C148844201D1002A08D0B9488142FA
:104E600009DB002D10DB189829461BB0F0BD00208F
:104E7000B4491BB0F0BD002D06DA01222946D20745
:104E8000189851401BB0F0BDB4497944086849688E
:104E90001BB0F0BDAB4FB84225D1002D1FDA002961
:104EA00004D0B14212D1002A09D018E0002A72D1F0
:104EB000A649E20F0020D20711431BB0F0BD00202D
:104EC000E20F0146D20711431BB0F0BDB14206DA32
:104ED000234600203946FBF77BFB1BB0F0BD104694
:104EE00021461BB0F0BDB14212DA0126B607B54229
:104EF00003D1234610461946FEE3994EB54207D129
:104F0000261E05DB1046314600F004FC1BB0F0BD48
:104F100067007F081646002A40D100290AD08B4A34
:104F2000914229D1002C0EDD002D1CDB0020114602
:104F30001BB0F0BD022B16D0002C14D0012B12D1C7
:104F4000002C14DB0FE0002C28DA002D09DB012BEC
:104F500003D000207D491BB0F0BD002081491BB06B
:104F6000F0BD012B03D0002001461BB0F0BD002096
:104F70000121C9071BB0F0BD724A91420ED1002C2D
:104F800001DA002B17D0022B06D00020C043FBF71C
:104F9000A9FB1BB0F0BD90E20120F8E7E217521C1C
:104FA00094461A4307D000220892664C62465B1E64
:104FB0001A4307D009E00120FFF788F9FFF75AF9F3
:104FC0001BB0F0BD0022644C0892674A90427DDD20
:104FD000664B674A98421FDD914202DC002D05DBDB
:104FE0004DE05848814217DB002D48DD0220FFF7D5
:104FF0006DF9FFF747F905460E460022534B21464F
:105000000898FBF77DFA084671004908C00FC007F1
:10501000014328461BB0F0BD914215DA002D2EDA6F
:105020000220FFF753F9FFF72DF905460E4600223F
:10503000464B21460898FBF763FA72005208C80FE6
:10504000C0070243114617E03E4B994223DD002D75
:1050500015DD0220FFF73AF9FFF714F905460E4671
:1050600000223A4B21460898FBF74AFA084671009D
:105070004908C00FC007014328461BB0F0BD0220FD
:10508000FFF724F9FFF708F949004908E20FD207B2
:1050900011431BB0F0BD002230463946FBF722FA1F
:1050A000012205460E46D243FBF74AFC314A324BF9
:1050B000FBF71EFA2A463346FBF722FA0022284B5A
:1050C000FBF716FA07462A46334600E064E00391F0
:1050D00010461946FBF714FA3A46039BFBF710FA01
:1050E0000746032209915207244B28463146FBF715
:1050F00007FA07910C90224A204B38460999FBF792
:10510000FFF9074601911F4A1F4B28463146FBF71E
:10511000F7F93A46019BFBF7E5F907460B460246CD
:10512000099107990C98FBF739F900250E46284696
:10513000079B0C9AFBF7D6F93A4627E0FFFF1F00C2
:10514000FFFF0F000000F03F0000E0FF0000F07FD5
:105150000000404301FCFFFF0000F0BF72090000A7
:105160000000E03F0000F0FF0000E0410000F043DD
:10517000FFFFEF3F555555555555D53F4715F73F5F
:10518000FE822B6544DF5DF80BAE543E099BFBF7B6
:10519000AFF902460B4652E1012500202D05A94238
:1051A00007DA352230463946FBF7CAFB064634207B
:1051B000C0430A151218FE48101803900803FD4951
:1051C000000B01430F46FC49884201DC002003E04C
:1051D000FA49884202DA0120119005E0002011907E
:1051E0000398401C7F1B039011980597C200F44858
:1051F0000F927844801843680268394630460D9310
:105200000292FBF76FF907910C9030460D9B029AC2
:105210000599FBF7C3F802460B460020E549FBF76A
:10522000D7F909910490079B0C9AFBF769F9129042
:1052300000201090E3480D46784400680E9001214C
:1052400078104907084311990D9B890440180121E2
:10525000C90447183946029A0E98FBF743F93246BB
:10526000059BFBF745F902460B4629461098FBF7CC
:1052700047F9064602913B4629460E9A1098FBF7DD
:105280003FF9079B0C9AFBF733F93246029BFBF779
:1052900029F9099B049AFBF733F90591129A0A90B0
:1052A0002B4610461946FBF72BF906460246C64820
:1052B0000F460B4606217844FEF778FF32463B4600
:1052C0000091049010461946FBF71AF9009B049AC6
:1052D000FBF716F906460F462B461946129A109808
:1052E000FBF75CF8059B0A9AFBF70AF932463B4646
:1052F000FBF754F8109A079104902B461046194674
:10530000FBF7FEF8B14E0022334609910290FBF7FD
:1053100045F8079B049AFBF741F800200746024630
:1053200033460091FBF7DEF8099B029AFBF7DAF8A7
:10533000079B049AFBF7DCF806460D913A4629468E
:10534000009B1098FBF7DCF807910C902B46304639
:10535000129A0D99FBF7D4F805460E463A46009B83
:1053600005990A98FBF7CCF833462A46FBF716F85E
:1053700002460B460746099107990C98FBF70EF871
:1053800000250E462846079B0C9AFBF7ABF83A46D9
:10539000099BFBF7ADF807460722099152078C4B92
:1053A00031462846FBF7ACF807910090894A884BB4
:1053B00038460999FBF7A4F807460191864A874BBE
:1053C00031462846FBF79CF83A46019BFAF7E6FF80
:1053D000834B7B440F9A9B181A685B68FAF7DEFFD1
:1053E000029009910398FBF77DF905910490099BC0
:1053F000029A07990098FAF7D1FF7A4B7B440F9AEB
:105400009B181A685B6817460393FAF7C7FF059B5A
:10541000049AFAF7C3FF0E462846059B049AFBF749
:1054200061F83A46039BFBF75DF8079B009AFBF790
:1054300059F8099B029AFBF75BF802460B4619994B
:1054400000200C900F461898FBF75AF80291049030
:105450003B460C9A19991898FBF744F82A463346AC
:10546000FBF74EF8029B049AFAF798FF09910E9009
:105470002A46334639460C98FBF742F806460F4653
:10548000099B0E9AFAF78AFF574A0D46914220DB94
:105490005242AA18024310D132463B46FBF722F88B
:1054A00004900391514A524B09990E98FAF776FFEE
:1054B000039B049AFBF75AFA1ED20220FEF706FF5E
:1054C000FEF7E0FE49004908E20FD20711431BB086
:1054D000F0BD6A00474B52089A420DD3464AAA18BB
:1054E000024300D0CBE532463B46FAF7FBFF099B6F
:1054F0000E9AFBF73BFAF5D96800002340082C49C7
:105500000393020D3D4B5218984223DD0120000504
:10551000521CD04042195000400D4018384979447F
:10552000096813468C463749C1408B431203012159
:10553000120B090551181422101AC1400391002DB5
:1055400001DA48420390624630463946FAF7CAFF0C
:1055500006460F4632463B4609990E98FAF71EFF5B
:1055600000252A46284B28460591FAF7C9FF0791DE
:105570000C90264A264B28460599FAF7C1FF009160
:10558000029032463B4628460599FAF7ABFF099B45
:105590000E9AFAF7ADFF1F4A1F4BFAF7B1FF009BB7
:1055A000029AFAF7FBFE07460B460246099135E0E0
:1055B00001FCFFFF0000F03F8E9803007AB60B005D
:1055C00082050000C4050000EE0400000000084051
:1055D00009C7EE3FFD033ADCF5015B14E02F3EBE48
:1055E000C20300008803000000009040FE822B658B
:1055F0004715973C00CC904000346F3F0000E03FDF
:10560000DE020000FFFF0F00432EE63F396CA80CBE
:10561000615C20BEEF39FAFE422EE63F07990C98F6
:10562000FAF7BCFE05460E46079B0C9AFAF75AFF9E
:105630003A46099BFAF75CFF09912A4633460E90D9
:1056400010461946FAF75CFF074602462F480B46FC
:10565000059105217844FEF7A9FD3A46059BFAF726
:105660004FFF2A463346FAF743FF07460191284683
:105670003146099B0E9AFAF743FF099B0E9AFAF7F7
:105680008DFE012304910C9000229B07384601995E
:10569000FAF728FF05910E903A4628463146019BBD
:1056A000FAF72EFF059B0E9AFAF792FF049B0C9ACD
:1056B000FAF718FF2A463346FAF714FF0022144B74
:1056C000FAF716FF064603980D460005411909151D
:1056D000002912DC30462946039AFBF731F9FEF720
:1056E0002DFD042801D1FEF7D7FD30462946039A47
:1056F000FBF726F9064601E004E029180B4632467E
:1057000021460898FAF7FCFE1BB0F0BD80010000AE
:105710000000F03FF8B506460C46FBF74DF9051EB4
:105720000F4600D00120014349000B484908411AA7
:10573000C90F0DD0002E01D0012100E000210C4343
:1057400061004908401AC00F02D10120FEF7BEFDDA
:1057500028463946F8BD00000000F07F0000000038
:105760000000000001020304060708090000000011
:105770000102030400000000000000000000F03FF0
:10578000000000000000F83F0000000000000000E2
:105790000000004003B8E23F0000000000000000ED
:1057A00006D0CF43EBFD4C3E033333333333E33F7B
:1057B000FFAB6FDBB66DDB3F4D268F515555D53FA7
:1057C00001411DA96074D13F65DBC9934A86CD3F75
:1057D000EF4E454A287ECA3F3E5555555555C53F63
:1057E00093BDBE166CC166BF2CDE25AF6A56113F55
:1057F000F16BD2C541BDBBBED0A4BE726937663E57
:1058000000000000000000002858000800000020F0
:1058100054000000AC4200087C58000854000020EE
:10582000FC190000BC42000800000000000000005D
:105830000000000000000000000000000000000068
:1058400000000000000000000000000000127A00CC
:105850000000000000000000000000000000000048
:105860000000000000000000000000000100000037
:0C58700004000000000000000000000028
:04000005080000B53A
:00000001FF
