:020000040800F2
:10000000B8190020C9000008A9340008F52B000821
:1000100000000000000000000000000000000000E0
:100020000000000000000000000000000D35000886
:100030000000000000000000AB3400080F3500088D
:10004000DB00000800000000FD340008DB000008B1
:10005000DB000008DB000008AD090008B709000854
:100060000000000041090008DB00000851090008F9
:100070000D080008DB000008DB000008000000009D
:10008000DB000008A135000800000000DB000008CC
:10009000DB000008DB000008DB000008DB000008D4
:1000A000DB000008DB000008DB000008DB000008C4
:1000B000DB0000080348854600F096FB0048004737
:1000C00051400008B8190020044880470448004700
:1000D000FEE7FEE7FEE7FEE7FEE7FEE79D350008E8
:1000E000B500000830B50B4601460020202201244F
:1000F00009E00D46D5409D4205D31D469540491B5C
:100100002546954040191546521E002DF1DC30BDA4
:1001100070B500242546002801DA01244042002958
:1001200001DA01254942FFF7DDFFAC4200D0404231
:10013000002C00D0494270BDF0B51FB40646002027
:1001400082B005464024019100901BE001992246AF
:100150000F46304600F020F8049A059B801A99411A
:1001600010D310461946224600F08EFA361A8F41F7
:100170000197224601200021009F00F085FA3818DF
:100180004D4100902046641E0028DFDC019B009852
:100190002946324607B0F0BD10B5202A04DB0846D8
:1001A000203AD040002110BD0B46D340D04020243F
:1001B000A21A91400843194610BD03460B439B0702
:1001C00003D009E008C9121F08C0042AFAD203E0CC
:1001D0000B780370401C491C521EF9D27047D2B2F2
:1001E00001E00270401C491EFBD270470022F6E776
:1001F00010B513460A4604461946FFF7F0FF20469D
:1002000010BDF8B502464A40D40F42004B005208D8
:100210005B089A4202D20246084611464A0023D0A1
:10022000C30D4A00DDB2120EAD1A202D35DA490297
:100230000126490AF6058A19002C00D052422021D5
:100240004F1B1146B9402A411018C20D9A4221D0C5
:10025000002C17D0012D08DCDA05801AD20F801986
:10026000D207DBB200F028FAF8BDDA05801A0123C4
:1002700040001B06C01880185A428018CA0F10434D
:10028000490007E04908C2071143DA05801A8019BE
:100290004008801800F008FAF8BD61000122511AE8
:1002A000001BF7E70122D2075140AAE70122D2073B
:1002B0005040A6E7024670B54A40D30FDB07400026
:1002C0002DD04A002AD0010E140E00021202091984
:1002D000400A520A8418E50104465443000A120AEF
:1002E0002E045043A4194219200CC543AA18120C1D
:1002F0000125AD03521C521912047F39240400D089
:10030000521C104301D44000491EC2B20C06C00961
:100310002018401C4008802A02D003E0002070BD55
:1003200040084000002900DA0020184370BD70B575
:1003300002464A40D50F40004A00ED0740085208E7
:10034000002814D0002A12D0C40DD30D4102012080
:10035000C0055202490A520AE41A091812187D34DB
:10036000914201D3641C00E04900002C01DA002016
:1003700070BD0023914201D3891A0343400849000C
:100380000028F7D100290AD0914202D10121C907E2
:1003900005E0914201D2012101E00121C943E005BC
:1003A000C018401900F080F970BD0000F0B51FB40E
:1003B00088B00B990998002448400999C00F49005A
:1003C00049080991C0070B990090490049080B9111
:1003D00009990898A64608431CD00B990A98084327
:1003E00018D0099801244000420D4800410D099899
:1003F00024050003000B204309900B980003000B19
:1004000020430B9050181C494018002201901446BC
:10041000104605E0002001460DB0F0BD032801DACA
:10042000034600E003239C46C11A0AAE0AE05F00BF
:1004300008ADED5B4F00F75B7D430027AA187C41B8
:10044000491C5B1E6145F2DD410004AB5A52210498
:10045000120C0A43240C401C0828DFDB0198029090
:100460000099704601910090059B049A079906989F
:1004700000F068F9D0E700000DFCFFFFF0B50C4676
:100480005C4085B0E40FE40703944C000026640848
:1004900059009446490802460296224321D06246FA
:1004A0000A431ED06200570D4A000E032303550D68
:1004B000012402462C492405781B1B0B360B4018DF
:1004C00023432643614600901C46501AB44103D38F
:1004D0000098401C009002E0921800985B410028B0
:1004E00003DA0020014605B0F0BD00200121090516
:1004F0000746864611E064461D46141BB54106D3E7
:100500006546521BB341744607430C43A646CD07CC
:1005100040084908284392185B4105460D43EAD13B
:100520001046184313D060461946504071400843A6
:1005300006D06046101AB34106D20122002306E01D
:1005400000220123DB0702E00122D243531000986E
:1005500074460105381C6141029C039D00196941E4
:1005600000F0E3F8BFE70000FD030000C217C10F71
:10057000504010B54018CA079623002100F09CF89F
:1005800010BD10B500229623114600F095F810BD5D
:100590000EB5C217C10F5040CA0740180021054BC5
:1005A0000293019200910A460B4600F0CBF803B08B
:1005B00000BD0000330400000EB505490291002182
:1005C00000910A460B46019100F0BCF803B000BD53
:1005D00033040000C20F410040020123400ADB0542
:1005E000D207090EC0187F2901DA0020704796292A
:1005F00003DC9623591AC84001E096398840002A46
:10060000F4D040427047000070B5CD0F4A00090396
:100610000123090B1B0519430B4BED070024520D59
:100620009A4201DA002070BD074B34339A4203DC52
:100630009A1AFFF7B1FD02E00449511888402C4393
:10064000F1D0404270BD0000FF030000CDFBFFFF72
:10065000CB0FDB07490010B5490802460A4307D013
:100660000A0D07240903E401090B121B002A01DC0F
:10067000002010BDC900440F0C43C100E018D20592
:10068000801800F011F810BD10B5202A04DB0146D7
:10069000203A9140002010BD914020239C1A03462F
:1006A000E3401943904010BD002904DA401C490082
:1006B00001D140084000704770B40024050C05D1FA
:1006C0001024000402D1002921D01124050E01D1EB
:1006D00000020834050F01D10001241D850F01D14E
:1006E0008000A41C002801DB4000641C002908D005
:1006F00020252E1B0D46F540A14000D001212943A5
:10070000084301061B1B000ADB1D02D5002070BC3C
:100710007047DB05181880180029F8DA401C4900DA
:10072000F5D170BC40084000704710B5002B08DAC6
:100730000024401C614192185B411A4301D14008DA
:10074000400010BDF0B51FB482B005460C0003D0C8
:10075000084603F063FB02E003F060FB2030024632
:10076000009021462846FFF78FFF049B059A044618
:100770000F4618431143084314D0184610431BD0AA
:10078000009840210A1A18460599FFF705FD05460D
:100790000E46009A05990498FFF776FF084305D0A6
:1007A000012004E02046394607B0F0BD0020C11703
:1007B00005430E432C43374300990E986305401AB6
:1007C0007905E40A00220C43FD0A0A3002D5002014
:1007D0000146E9E70105101969410C9C0D9D0019BE
:1007E0006941FFF7A2FFDFE7064C0125064E05E051
:1007F000E36807CC2B430C3C98471034B442F7D342
:10080000FFF75CFC94420008B442000810B50248AF
:1008100000F094F910BD00005410002010B50146FE
:10082000406A826B50231A420AD1816B0122520224
:10083000114381630168CA681205920F05D020E058
:10084000006B026B0846904710BD827E002A18D1CB
:100850000A68120715D58A6853070122002B09DBA5
:100860004B680C24A3434B60816B130299431143E3
:10087000816306E0816B202319438163C16B1143BF
:10088000C16300F039F910BD10B5406A816B402298
:1008900011438163C16B04221143C16300F04DF920
:1008A00010BD10B5406A00F047F910BDF8B5044618
:1008B00000200090206881688907890F012905D1EF
:1008C0000168C90731D1C16809042ED48168184A6A
:1008D00010261140012500291AD181682943816021
:1008E000154814490068FFF7FDFB00E0401E00902A
:1008F0000028FBD100F0A4FC074611E000F0A0FCAA
:10090000C01B02280CD920680068C043C00707D06C
:10091000A06B3043A063E06B2843E0630120F8BD87
:1009200020680068C043C007E8D10020F8BD00007F
:100930001700008040420F00280000207047000090
:1009400010B5024800F0BEFA10BD0000941000205F
:1009500010B5024800F0B6FA10BD000024130020C4
:1009600010B504460068054940181421FFF7BAFB8A
:10097000800020640248E06310BD0000F8FFFDBF66
:100980000000024030B5056C0124AC40C56B6C60C2
:10099000046863604368102B036803D099600068A3
:1009A000C26030BD9A600068C16030BD10B50820DB
:1009B00000F062FB10BD10B5102000F05DFB2020A0
:1009C00000F05AFB402000F057FBFF20013000F000
:1009D00053FB0120400200F04FFB0120C00300F058
:1009E0004BFB10BD70470000F8B5002504462034CD
:1009F0000095227D012A39D00122227503689E6864
:100A0000760767D4384F4E68BE424DD09E6A0F7845
:100A1000BA4016439E620123C26A1B079A421FD046
:100A2000012A1DD0022A1BD0032A19D0042A17D06C
:100A3000052A15D0062A13D0072A11D002688B6820
:100A400056697607760FB3420AD05369DB08DB009C
:100A50005361006842690B7A5B075B0F1A4342617E
:100A60000A68102A04D0112A02D038E00220F8BD0A
:100A70001E488368102A07D0012292051343836021
:100A80000868102803D02AE00122D205F6E71948A9
:100A900017490068FFF726FB0A21484300E0401E83
:100AA00000900028FBD11AE0986A0E78B24090437B
:100AB00098620968102901D0112910D10B48826869
:100AC000102904D0012189058A43826007E00121B1
:100AD000C905F9E7816B20221143816301250020BC
:100AE00020752846F8BD00000110000000270140D5
:100AF00040420F002800002070B500200B4C0C4A2B
:100B00007D230146DB0020618D005559491C2818C2
:100B10009942F9DB2061FFF74FFD0022054BFFF7FB
:100B2000ADFCFFF795FDE06070BD00000000002007
:100B300060000020000059407047704770B50446BF
:100B400000680168490702D54168490705D4016872
:100B5000090730D5416809072DD5A16BC90604D412
:100B6000A16B012252021143A163C1680C25090542
:100B7000890F00291AD1A17E002917D10168090720
:100B800014D581684A070121002A08DB4268AA437C
:100B90004260A06B0A0290430843A06306E0A06B8A
:100BA00020221043A063E06B0843E0632046FFF778
:100BB000A3FF206805602068016809060DD540681C
:100BC00000060AD5A06B012109040843A063204652
:100BD00000F0D8F821688020086020680168C90604
:100BE00013D54168C90610D5A16A1025012902D084
:100BF000C168C90707D0E16B02221143E1630560B8
:100C00002046FFF79AFF2068056070BDF8B5002602
:100C10000446002805D0A06B25462035002802D0C8
:100C200007E00120F8BD0020E0632875204600F0B1
:100C3000ABF8A06B1022C006002870DB206881682A
:100C400049076CD4A16B1301994302231943A16393
:100C500081688907890F012905D10168C9070FD16A
:100C6000C16809040CD4C16818239943A3681943C7
:100C7000C1602068016963688900890819430161BE
:100C80002068C1683D4B1940C160207E617E8003B1
:100C9000C9030843A17E4B031843A36A012B02D06A
:100CA00001231B0300E000231843E3681843236972
:100CB000022B09D0002318432B79E57E5B001843F3
:100CC0000123012D02D00AE00423F4E7002927D0F4
:100CD000A16B20252943A163E16B1943E163E1691D
:100CE0000D46FF3DC23D02D0256A294308432168D5
:100CF000CD680543CD600125E16A2D07A94213D0D7
:100D0000012911D002290FD003290DD004290BD0BD
:100D1000052909D0062907D0072905D010E028E0C9
:100D2000012109040843DAE721684D69ED08ED0067
:100D30004D6121684D69A78D7F077F0F3D434D6150
:100D40002168C9680E4D2940814207D10020E06327
:100D5000A06B80088000401CA06308E0A06B02210B
:100D600088431043A063E06B1843E06301263046DC
:100D7000F8BDA06B1043A063F8E700001902FEFF66
:100D8000E7FF3F8370470000F0B587B005461421A8
:100D90006846FFF72BFA1F492868884237D11E4959
:100DA00088694E15304388618869304005904A69EA
:100DB000300202434A61496900270140059102203F
:100DC000009003200190092069460297C00600F0B8
:100DD0005FF91248124C81C427608020A6606060D1
:100DE0000001E0602020676120610D48083C00F0B0
:100DF000B7F8002801D0FFF7F5FD2C63002211465B
:100E00000C20656200F00CFD0C2000F0FDFC07B02A
:100E1000F0BD000000240140001002400800024024
:100E200094100020F7B5044600680025806840074C
:100E30003DD426462036307D01280AD0012737755B
:100E4000607E012807D02046FFF730FD050002D064
:100E50002EE00220FEBDA06B16490840FF210131A3
:100E60000843A0630020E0633075216B124888625C
:100E7000216B1248C862216B1148086321681C204D
:100E80000860206841681022114341602068C168F1
:100E90003943C1602168206B4031029B019A00F008
:100EA00089F82068816804221143816000E00225EE
:100EB0002846FEBDFEF1FFFF1D080008A30800083C
:100EC00089080008F0B4C16B0D6801680C68042241
:100ED000066C1346B3402B420DD063070BD50B684D
:100EE0009B0602D40B6893430B60016C8A40C16B74
:100EF0004A60C16A19E00227B74002462F40012329
:100F00002032002F15D0A70713D50C68A40604D4EF
:100F10000C680A25AC430C605370036C02219940A5
:100F2000C36B596000211170816A002916D0F0BC92
:100F300008470827B7402F4210D024070ED50C6869
:100F40000E25AC430C60046C1946A140C46B616073
:100F50008363537000211170016BE6E7F0BC7047AA
:100F600070B5040021D00221204620300546417092
:100F7000226811680E48A36801406068266918431A
:100F8000E3683343184363691843A3691843E3696B
:100F90001843084310602046FFF7E2FC0021A163DC
:100FA000012068702970084670BD012070BD0000E6
:100FB0000FC0FFFFF8B504468C46203001780025AD
:100FC000012909D00126067041780027012905D0A2
:100FD000077002252846F8BD0220F8BD02214170A5
:100FE000A7632068016849084900016061462046FE
:100FF000FFF7C8FCE06A00282068016802D00E22D2
:10100000114306E00A2211430160206801680422AE
:10101000914301602068016831430160DAE7000014
:1010200070B5044600F00CF90546601C02D0044877
:101030000078241800F004F9401BA042FAD370BDD8
:101040002C000020C11F10B5FF39FA390CD103F074
:10105000BDF80649C8700146054803F07DF804480C
:10106000416804A0FFF76AFC10BD000000000020EA
:101070000010002025640A0010B504494A690242A4
:1010800002D04861FFF7DEFF10BD00000004014000
:10109000F8B5002303240125BAE02E469E40B4464D
:1010A00032407CD00E79B607B60F012E01D0022E49
:1010B00017D186682746B6465E00B740009676464A
:1010C000BE43B646CF68009EB7407646374387603A
:1010D00046686746BE430F79FF06FF0F9F403743C0
:1010E00047600E79F643B6070ED0C6682746B44669
:1010F0005E00B646B7406646BE43B4468F68764645
:10110000B74066463743C7600E79B607B60F022E62
:1011100014D1DE08B60036180096366A5F07B4466A
:10112000FE0E0F27B646B7406646BE43B4460F696B
:101130007646B74066463743009E376206682746C4
:10114000B4465E00B646B7406646BE430F79B44625
:10115000BF07BF0F7646B7406646374307604E6805
:10116000B603B60F53D02D4FBE692E43BE61BE6984
:101170009F08F607F60F2A4EBF00BE190096B66804
:101180000F27B4469E07360FB646B7406646BE43A5
:101190000927FF06B446B84202D1002710E036E026
:1011A000204FB84201D101270AE01F4FB84201D1B8
:1011B000022705E01D4FB84201D1032700E00527B3
:1011C0007646B74066463743009EB760184E36688D
:1011D0004F689643FF0300D51643154F3E607E6867
:1011E0004F689643BF0300D51643114F7E60BE681B
:1011F0004F689643FF0200D516430D4FBE60FE6850
:101200004F689643BF0200D51643094AD6605B1C5F
:101210000A681646DE4000D03FE7F8BD00100240E5
:10122000000001400004004800080048000C00488D
:1012300000040140002A01D081617047816270473B
:1012400001488068704700002C00002070B50246FD
:1012500040325378202B1CD11378012B19D0012355
:10126000137024245470046825689D432560046825
:1012700025681E03B5432560046825680D43256075
:101280000068016819430160202050700020107030
:1012900070BD022070BD70B5024640325378202BDD
:1012A0001BD11378012B18D0012414702423537000
:1012B00003681D68A5431D6005682B680F2636026C
:1012C000B3430902194329600068016821430160A2
:1012D000202050700020107070BD022070BD0000F2
:1012E00070B5040006D025464035687800260028F1
:1012F00002D005E0012070BD2E70204600F004FAF7
:1013000024206870206801684908490001600F21A5
:101310006068090688432168086121688A6801209D
:10132000C00382438A60E1680129A16808D02122B4
:101330009202114322689160E168022902D005E01F
:101340000143F7E701212268C902516021684A6818
:101350000F4B1A434A602168CA688243CA606169B8
:1013600020690843A169090208432168C860216A0D
:10137000E069084321680860206801680122114380
:1013800001606664202068702663AE70002070BD26
:1013900000800002FFB5054604464035687881B0FC
:1013A000202878D12878012875D001202870FFF7EF
:1013B00047FF0746012200901923D103204601F080
:1013C000CDFC00283CD1222068701020A870002697
:1013D000666403986062049860856663618D2F4837
:1013E000FF2903D9FF22228500903BE0618D2185F2
:1013F00000903DE02046029901F09CFC16E001F0CF
:10140000D5FC00281CD12068406A616A0870606AB7
:10141000401C6062208D401E81B22185608D401E7F
:101420006085608D002801D000290CD0608D0A995C
:1014300000283A462046E2D101F0F8FC00281CD0F2
:10144000012005B0F0BD00970022802120460A9BB4
:1014500001F084FC0028F3D1608DFF2805D9FF221C
:101460002285009601231B06C4E7608D2085009627
:10147000208D0123C2B25B06BCE721682020C86131
:1014800021684A68064B1A404A606870AE702E7038
:101490000020D6E7FFE70220D3E700000024008009
:1014A00000E800FEFFB5054604464035687881B087
:1014B000202878D12878012875D001202870FFF7DE
:1014C000BFFE0746012200901923D103204601F0F8
:1014D00045FC00283CD1212068701020A87000260F
:1014E000666403986062049860856663618D2F4826
:1014F000FF2903D9FF22228500903BE0618D2185E1
:1015000000903DE02046029901F014FC16E001F045
:10151000B3FC00281CD1606A216800788862606A88
:10152000401C6062608D401E6085208D401E80B230
:101530002085618D002901D000280CD0608D0A998A
:1015400000283A462046E2D101F070FC00281CD069
:10155000012005B0F0BD00970022802120460A9BA3
:1015600001F0FCFB0028F3D1608DFF2805D9FF2294
:101570002285009601231B06C4E7608D2085009616
:10158000208D0123C2B25B06BCE721682020C86120
:1015900021684A68064B1A404A606870AE702E7027
:1015A0000020D6E7FFE70220D3E7000000200080FC
:1015B00000E800FEFFB5054604464035687883B074
:1015C000202875D10C98002814D00D98002811D02F
:1015D000287801286CD001202870FFF731FE0746DB
:1015E000012200901923D103204601F0B7FB002807
:1015F00074D103E00120400260646FE02220687033
:101600004020A870002666640C9860620D98608582
:1016100066630E980090019704A90EC9204601F058
:1016200059FB002801D02E7058E0618D3448FF2905
:1016300005D9FF22228501231B06009006E0618D5B
:1016400021850090208D0123C2B25B0620460499BB
:1016500001F070FB00970022042120460E9B01F050
:101660007DFB00283AD12068406A616A0870606A90
:10167000401C6062208D401E81B22185608D401E1D
:101680006085608D00281FD000291DD100970022A1
:10169000802120460E9B01F061FB00281ED1608D49
:1016A000FF2806D9FF22228501231B06009607E0AA
:1016B00024E0608D20850096208D0123C2B25B0658
:1016C0002046049901F036FB608D0028C2D13A46CD
:1016D00020460E9901F0AAFB002802D0012007B095
:1016E000F0BD20682021C16120684268054B1A4086
:1016F00042606970AE702E700020F0E70220EEE7C5
:101700000024008000E800FE10B586B004461421D5
:101710006846FEF76BFD1249206888421DD1114CC6
:1017200061690120800401436161616901400591A3
:10173000C020009012200121019003200291049109
:10174000039069460848FFF7A3FCE16901204005C2
:101750000143E161E1690140059106B010BD00005F
:101760000054004000100240000400480248816814
:1017700002788918816070472C00002010B5064857
:101780000168102211430160002000F007F800F00A
:1017900027F8002010BD00000020024070B504466C
:1017A0000D4D7D202978C000FEF79CFC01460B48BA
:1017B0000068FEF797FC00F059FD002809D1042CC1
:1017C00007D200222146401E00F02AF800206C605B
:1017D00070BD012070BD00002C00002028000020FA
:1017E00008B508488169012211438161816911406E
:1017F0000091C26901040A43C261C06908400090B7
:1018000008BD000000100240002805DBC106C90E1B
:1018100001208840014908607047000000E100E0B5
:1018200010B502F02BFB10BD024801688215114370
:101830000160704700700040F8B505460068354CFF
:10184000C00352D5E0690026C00007D4E169200436
:101850000143E161E1690140012600912E480168E0
:10186000C90510D40168821511430160FFF7E8FC37
:10187000074604E0FFF7E4FCC01B642824D8264890
:101880000068C005F6D5206A03273F02384020D003
:101890006968394081421CD0206A226AB84301211C
:1018A00009040A432262226A8A4322622062C00734
:1018B0000FD0FFF7C5FC009008E0FFF7C1FC0099CE
:1018C000411A1648814201D90320F8BD206A8007D9
:1018D000F3D5206A6968B84308432062002E04D01B
:1018E000E169012000078143E1612878C00705D044
:1018F000206BA96880088000084320632878800650
:1019000005D5206B10218843E96808432063002037
:10191000F8BD000000100240007000408813000075
:10192000F8B50F46060059D03A4D2868C007C00FD9
:10193000B84209D228684008400038432860286827
:10194000C007C00FB84249D13068334C81070CD56D
:10195000400704D560680721090208436060606899
:10196000F0218843B168084360603078C00726D012
:10197000706801280ED0216802280ED0890700293E
:101980002CDA61688908890001436160FFF758FC1F
:1019900000900DE021688903F1E78901EFE7FFF787
:1019A0004FFC0099411A1D48814201D90320F8BD1E
:1019B00060680C210840716889008842EFD128686E
:1019C000C007C00FB8420BD9286840084000384310
:1019D00028602868C007C00FB84201D00120F8BDB8
:1019E0003078400706D56068072109028843F1680E
:1019F0000843606000F028F86168094A0906090F89
:101A0000515CC840074908600020FFF7C7FE00206E
:101A1000F8BD0000002002400010024088130000C2
:101A20007C420008280000200448054900684968F5
:101A3000044A4905490F515CC840704728000020FE
:101A4000001002408C42000810B514A30FCB88B0E0
:101A50006C460FC415A30FCB0FC4184A51680C2055
:101A60000B4603401648042B16D0082B14D18B02CA
:101A70001B0F6C46E45CD26A04AB1207120F9A5C2F
:101A8000C90305D500231946FEF756FB214601E0A0
:101A900020460C4902F0D9F908B010BD0203040534
:101AA000060708090A0B0C0D0E0F101001020304A3
:101AB00005060708090A0B0C0D0E0F100010024056
:101AC00000127A0000093D00FEB5040070D02078B5
:101AD000DC4DC0074AD068680007800F012807D096
:101AE00068680007800F022809D16868C00306D51E
:101AF000286880033AD560680028E7D036E061683E
:101B0000012914D001208004002901D0052914D016
:101B10002A68012109048A432A60296881432960CF
:101B20006068002816D0FFF78BFB06460EE0286899
:101B30000121090408432860F2E72968014329606C
:101B4000F5E7FFF77DFB801B64286ED828688003CB
:101B5000F7D50BE0FFF774FB064604E0FFF770FBD8
:101B6000801B6428F1D828688003F7D420780126E8
:101B7000800700283CDA68680007800F07D0686893
:101B80000007800F022809D16868C00306D42868BE
:101B9000800716D5E06801280AD112E0E068002825
:101BA000286816D030432860FFF74AFB074605E057
:101BB00043E1FFF745FBC01B0228C6D82868800711
:101BC000F7D52868F82188432169C90008432860AF
:101BD0000EE0400840002860FFF732FB074604E0B3
:101BE000FFF72EFBC01B0228AFD828688007F7D468
:101BF0002078000722D5E0690028686A0ED03043BB
:101C00006862FFF71DFB074604E0FFF719FBC01BE6
:101C100002289AD8686A8007F7D50FE0400840008C
:101C20006862FFF70DFB074605E09DE0FFF708FB44
:101C3000C01B022889D8686A8007F7D42078042757
:101C40004007002860DA00200190E869C00008D44D
:101C5000E969B8060143E961E969014001200091A1
:101C6000019079480168C90511D4016882151143B2
:101C70000160FFF7E5FA009005E0FFF7E1FA00994F
:101C8000401A642870D870480068C005F5D5A0686F
:101C900001280AD0002801D0052810D0286A400861
:101CA00040002862286AB84301E0286A304328626D
:101CB000A068002812D0FFF7C3FA00900AE0286A53
:101CC00038432862F1E7FFF7BBFA0099411A5F48F1
:101CD000814249D8286A8007F5D50DE0FFF7B0FAB0
:101CE000009006E0FFF7ACFA0099411A574881428C
:101CF0003AD8286A8007F5D40198002804D0E96909
:101D0000012000078143E9612078C00635D560696C
:101D100001280CD0401D686B23D038436863686B82
:101D2000400840006863FFF78BFA064622E0686BC4
:101D300038436863686B30436863FFF781FA06468F
:101D400004E0FFF77DFA801B02285BD8686B8007F0
:101D5000F7D5686BF8218843A169C9000843686317
:101D60000BE0B8436863F4E74CE0FFF769FA801BC7
:101D7000022847D8686B8007F7D4206A00285ED015
:101D800069680907890F022942D001263606022810
:101D9000286805D0B0432860FFF752FA044633E0C4
:101DA000B0432860FFF74CFA074604E0FFF748FA13
:101DB000C01B022826D828688001F7D4E86AE16AA7
:101DC000000900010843E862616AA06A0843696883
:101DD0003D2212049143084368602868304328601C
:101DE000FFF72EFA044604E0FFF72AFA001B022848
:101DF00008D828688001F7D521E0FFF721FA001BF9
:101E0000022801D90320FEBD28688001F5D416E020
:101E10000128F8D06868E96A01221204636A024066
:101E20009A420AD10907E26A090F914205D10F21AE
:101E300089040840A16A884201D00120FEBD00202B
:101E4000FEBD00000010024000700040881300003A
:101E500002488168491C8160704700000000002032
:101E600010B5044600688168C9040CD5C068C00577
:101E700009D52046FFF7ECFF2168C8688022104092
:101E8000FF388238C86001200249400448610120BF
:101E9000607710BD0004014070B5040003D0607F7E
:101EA000002802D006E0012070BD002020772046E7
:101EB00000F04CF8022060772168CA20486221684F
:101EC00053204862204601F0FCFAFF250426002832
:101ED00024D1206881681C4A11408160216888688B
:101EE00062686369104322691A431043886021685D
:101EF000E0680861206801692289120411430161C8
:101F00002068C16880229143C16020688068800693
:101F100008D4204600F090F9002803D020684562DC
:101F20006677C0E72068016C012292049143016446
:101F30002068016CA2691143016420684562012098
:101F40006077002070BD0000BFFF8FFF10B50068F4
:101F5000084988420DD10848016A0122D203114381
:101F60000162002211460220FFF75AFC0220FFF70F
:101F70004BFC10BD0028004000100240F8B504469C
:101F8000007F0B46012839D001202077022060779E
:101F900020681F46203700268068002A30D040067F
:101FA00000D4DE7019789D7809040D435978DA78E9
:101FB0000902120411430D433978D86909060D430B
:101FC000054358699969054358680843009021689A
:101FD000CA20486221685320486220688168FF2235
:101FE0000132914381602068C16880221140FF392D
:101FF0008239C160FFF724F9074629E00220F8BDC5
:10200000400600D4DE70187801F050FA05045878C4
:1020100001F04CFA00020543987801F047FA0543B5
:10202000D87800040543387801F040FA00060543EB
:10203000D869C5E7FFF704F9C11B7D20C0008142C4
:1020400006D92168FF204862032060772677F8BD13
:102050002068C068C007EDD02068C561216800987D
:10206000486420688168FF22013211438160206842
:102070008168120111438160084802680121490406
:102080000A43026082680A4382602168FF20486236
:102090000120607726770020F8BD00000004014091
:1020A000F8B50446007F0B4601280FD001202077A9
:1020B00002206077002A0BD0D8789D780004054371
:1020C0005878097800024903084317E00220F8BD58
:1020D0005878C10603D5EF2108400A305870D878E7
:1020E00001F0E4F90504587801F0E0F90002054335
:1020F000987801F0DBF9054318784003054321681F
:10210000CA204862216853204862204601F0D9F96C
:102110000026FF27002811D10F48054020684560A0
:102120002068C16880229143C16020688068800671
:102130000BD4204600F080F8002806D020684762C3
:102140000420607726770120F8BD206847620120CF
:10215000607726770020F8BD3FFFFF00F8B5044602
:10216000007F0D46012821D00120207702206077D2
:10217000206800278068002A1AD0400600D4EF703B
:102180002878AE78000406436878E97800020904EC
:10219000084306432168CA204862216853204862E8
:1021A000204601F08EF9002834D114E00220F8BD59
:1021B000400600D4EF70287801F078F906046878BA
:1021C00001F074F900020643A87801F06FF90643A4
:1021D000E8780004DDE717480640206806602068BC
:1021E000816801229204914381602969E86808436B
:1021F00021688A68104388602068C1688022914302
:10220000C1602068806880060CD4204600F014F875
:10221000002807D02168FF204862042060772777D4
:102220000120F8BD2168FF204862012060772777F0
:102230000020F8BD7F7F7F0070B504460068C1684C
:10224000A0229143C160FEF7FBFF7D260546F60004
:1022500006E0FEF7F5FF401BB04201D9032070BD38
:102260002068C0688006F4D5002070BD094910B50B
:10227000401E884201D9012010BD074C6061032136
:10228000081F01F0FBFD0020A06107202061002055
:1022900010BD0000FFFFFF0000E000E07047704746
:1022A00030B5034620331A7F012A26D001221A773F
:1022B0000325CA682D02AA438D6800242A430125FC
:1022C000AD02AA434D6800682A430125ED02AA43E6
:1022D0000D682A4301252D03AA430D692A430125D0
:1022E0006D03AA434D69C9692A430125AD03AA4379
:1022F0000A4342641C77002030BD022030BD00003C
:10230000F0B502462032137F012B1ED00125157730
:102310000223537706687468B3687027BC430F685C
:102320002743776000680A4CA04205D0094CA042C0
:1023300002D0094CA04204D180244968A343194328
:102340008160557700201077F0BD0220F0BD0000BD
:10235000002C0140000400400040014070B5040022
:1023600005D025462035687F002802D006E00120F0
:1023700070BD00202877204600F014F8022068770E
:10238000211D206801F014F901204034A071A877C4
:10239000E87720706070A070E070207160716877DD
:1023A000002070BD08B5144A01681448914205D157
:1023B0008269C1140A438261806907E0104A914230
:1023C00007D1C26902210A43C261C0690840009076
:1023D00008BD0C4A9142FBD1C26910210A43C26177
:1023E000C06900220840009011461120FFF718FA3A
:1023F0001120FFF709FA08BD002C0140001002402F
:102400000004004000100040014620314A7F012AAC
:1024100001D00120704702224A770068094A012151
:10242000904205D0084A904202D0084A904204D116
:1024300082685207520F062A02D002680A430260DD
:1024400000207047002C0140000400400040014083
:10245000014620314A7F012A01D001207047022223
:102460004A770268D36801210B43D3600068094AA8
:10247000904205D0084A904202D0084A904204D1C6
:1024800082685207520F062A02D002680A4302608D
:1024900000207047002C0140000400400040014033
:1024A000F8B5054604462035287F0026012817D0B8
:1024B0000120287702206877226890687727FF2319
:1024C000B8431B02984390600868502838D00EDC4F
:1024D00020284FD006DC00284CD010281ED149E01F
:1024E0000220F8BD302845D0402817D13AE06028B6
:1024F0002ED0702819D001221203801A0FD09042DA
:102500000CD1CB684A688968206801F0A2F820687D
:102510008168012292031143816000E001260120BD
:102520006877002028773046F8BDCB684A6889680C
:10253000206801F08EF82168886838438860EEE7EB
:10254000CA684968206801F093F95021206806E0C4
:10255000CA684968206801F09CF96021206801F090
:1025600083F8DCE7CA684968206801F081F94021F6
:102570002068F4E7226801461046F0E7704770B51E
:102580000446006801690025C9438907002915DB55
:10259000C168C943890711D4E91E01610120207770
:1025A000206880698007204602D0FFF7E7FF04E03B
:1025B00000F0D2F8204600F05DF925772068016927
:1025C000C943490717D4C168C943490713D4042133
:1025D000C943016102202077206880698005800F4F
:1025E000204602D0FFF7CAFF04E000F0B5F820460D
:1025F00000F040F9257720680169C943090716D41E
:10260000C168C943090712D40821C94301610420E4
:1026100020772068C0698007204602D0FFF7AEFF10
:1026200004E000F099F8204600F024F925772068AE
:102630000169C943C90617D4C168C943C90613D47F
:102640001021C9430161082020772068C0698005F6
:10265000800F204602D0FFF791FF04E000F07CF8E5
:10266000204600F007F9257720680169C943C907AA
:1026700008D1C168C943C90704D1891E0161204638
:1026800000F098F920680169C943090609D4C168B6
:10269000C943090605D48021C94301612046FFF7DB
:1026A000FDFD20680169C943490609D4C168C943D1
:1026B000490605D44021C9430161204600F0C8F90C
:1026C00020680169C943890609D4C168C9438906DC
:1026D00005D42021C94301612046FFF7E0FD70BD0C
:1026E00010B586B0044614216846FDF77FFD2368C7
:1026F000154C002215480221A3420FD144690B0456
:102700001C43446140691840059088026B4607C32A
:102710000491092003926946C00610E00C4CA342C4
:102720000FD144691B131C43446140691840059054
:1027300001206B4607C30490694603920548FEF7E3
:10274000A7FC06B010BD0000002C014000100240A4
:1027500000040040000400487047F8B506460446EF
:102760002036307F00270D4601280ED0012030771B
:10277000002A0CD0042A1BD0082A2FD00C2A3ED0C5
:102780000127002030773846F8BD0220F8BD2068C8
:1027900000F072FF2068816908221143816120687E
:1027A000826904218A438261206881692A6912E072
:1027B000206800F0A5FF206882690121C9020A4350
:1027C00082612068816901229202914381612068BF
:1027D00081692A69120211438161D2E7206800F001
:1027E000CFFF2068C16908221143C1612068C26916
:1027F00004218A43C2612068C1692A6912E0206805
:1028000001F000F82068C1690122D2021143C161C0
:102810002068C269012189028A43C2612068C169B6
:102820002A6912021143C161ABE770B5040005D0FB
:1028300025462035687F002802D006E0012070BDC3
:1028400000202877204600F014F802206877211D28
:10285000206800F0ADFE01204034A071A877E87731
:1028600020706070A070E070207160716877002047
:1028700070BD70477047000030B50446022220301A
:1028800000290AD004290DD02046403008290ED056
:102890004378012B10D0012030BD837F012BFAD16A
:1028A00082770AE0C37F012BF5D1C27705E0037878
:1028B000012BF0D1027000E042700122206800F08C
:1028C000BBFE12492068124B884207D0984205D0BF
:1028D000104A904202D0104A904204D1426C012525
:1028E000ED032A43426420680122884204D00B4948
:1028F000884201D0984204D181684907490F0629CE
:1029000002D0016811430160002030BD002C01405D
:1029100000400140004401400048014000040040E4
:1029200070B504460D460068002200F085FE1D4982
:102930001B4B20688A10984208D01B4B984205D048
:102940001A4B984202D01A4B98420AD1036A0B42A2
:1029500007D1036A134204D1436C0126F603B34343
:1029600043642068036A0B4206D1016A114203D115
:102970000168490849000160204620300121002DEE
:1029800007D0042D07D04034082D06D061700020F8
:1029900070BD8177FBE7C177F9E72170F7E70000A9
:1029A000002C014011110000004001400044014092
:1029B0000048014070B52249884238D12149881F1A
:1029C00000F0BEFA1F48204D801F0088688028460E
:1029D00001F007FB1B482C4640881834A080204695
:1029E00001F084FA0022AA5E1648184D0121002346
:1029F0002038AA4202DB0578002D19D07D25ED0094
:102A0000AA4203DA0578002D00D003700025655F27
:102A10007D246401A54202DB8478002C0DD07D2149
:102A200009018A4203DA8178002900D0837070BDE1
:102A3000017085886D1C8580E8E78170417070BDEC
:102A4000D41100202000002028100020DC05000008
:102A500070477047704710B5040003D0A06F00287E
:102A600002D007E0012010BD00217420015520464E
:102A700000F026F82420A067206801684908490072
:102A80000160204601F06EF80128ECD0606A002851
:102A900002D0204600F010FF206841680122D202D7
:102AA00091434160206881680822914381602068D9
:102AB0000168012211430160204600F063FF10BD50
:102AC000F0B587B0064614216846FDF78FFB2A4F04
:102AD0000121346800252948490402230322BC420D
:102AE00019D18669CC1026438661866926400596F1
:102AF00044690C43446140696C46084005905002AB
:102B0000039229C40120049009206946C006FEF7FB
:102B1000BFFA07B0F0BD1A4FBC42FAD1C4690C43EA
:102B2000C461C4690C40059444690C434461406924
:102B30006C46084005900C20039229C401200490A3
:102B400009206946C006FEF7A3FA0E480E4C21C4C0
:102B50002560A5608020E5606060202065612061BF
:102B60000948083CFEF7FCF9002801D0FDF73AFFC0
:102B700034676662CDE70000003801400010024073
:102B800000440040580002402413002070B5C36F79
:102B9000202B2BD100290BD0002A09D001248368D7
:102BA0002403A34206D10369002B03D1CB0701D034
:102BB000012070BD034660331C7D012C16D001241A
:102BC0001C7500230366046863681B020BD5EFF3D2
:102BD0001083012585F3108825680126B606354344
:102BE000256083F3108801F057F870BD022070BD96
:102BF00070477047FEE701688A69D243920701D4A3
:102C000000228A6200688169C943C90703D08169CB
:102C10000122114381617047F7B5044600680F46F1
:102C20008169C943C90636D44168890104D4416821
:102C30000122920311434160002625464035206859
:102C40008069C043800612D5781CF8D0FEF7F8FAE8
:102C50000299401AB84201D8002FF0D1616C2020AF
:102C6000014361646870AE702E700120FEBD216862
:102C70001020C86120682027C7612046FFF7BBFFEE
:102C800020684168054A11404160606C0421084396
:102C900060646F70E7E70020FEBD000000E800FE02
:102CA0007CB50E46694608710A201546D02400906E
:102CB000012301AA21460648FEF7F4FB6420009098
:102CC0002B46324621460248FEF764FB7CBD0000DD
:102CD00068130020F8B50446164615481D46DAB2BA
:102CE0000090079F0023204600F024F83A46204633
:102CF000069900F0C1F8002818D12846F5B201283D
:102D000009D02168300A88623A462046069900F0C8
:102D1000B3F800280AD1206885620097002240217C
:102D20002046069B00F01AF8002800D00120F8BDCC
:102D300000200080F0B50668059C7568064F600DA0
:102D4000384385438805800D110408431843204308
:102D500005437560F0BD0000FF63FF03F8B51D4635
:102D600017460E46044609E0681C07D0FEF768FACD
:102D70000699401AA8420BD8002D09D02068816915
:102D8000304688430FD00020B842EDD00020F8BD77
:102D9000616C202001436164403460700020A070A9
:102DA00020700120F8BD0120EEE70000F7B50027F4
:102DB000202605460446403528E02046029A01991F
:102DC000FFF72AFF002801D00120FEBD206880699E
:102DD000C043800611D420688169C943490702D4E1
:102DE000218D002917D1C661206841680E4A114023
:102DF000416067646E70AF7013E0FEF721FA0299CC
:102E0000411A0198814208D8002806D020688069BC
:102E1000C0434007D1D40020FEBD606C30436064E5
:102E20006E702F70D0E7000000E800FE70B5164607
:102E30000D4604460FE0324629462046FFF7ECFED9
:102E4000002801D0012070BDFEF7FAF9801BA842CE
:102E500008D8002D06D020688069C0438006EAD4D7
:102E6000002070BD616C20200143616440346070BB
:102E70000020A0702070E5E770B516460D460446A8
:102E800011E0324629462046FFF7C6FE002801D051
:102E9000012070BD681C06D0FEF7D2F9801BA84245
:102EA00008D8002D06D020688069C0438007E8D488
:102EB000002070BD616C202001436164403460706B
:102EC0000020A0702070E3E71CB56A4610715171B4
:102ED00064200090D021022301AA0248FEF7E2FA02
:102EE0001CBD00006813002010B5044680216B2033
:102EF000FFF7EAFF6420FEF793F820782179400776
:102F0000C907400F490E01436B20FFF7DDFF642026
:102F1000FEF786F8E0784107490F1A20FFF7D4FF43
:102F200060788007C10E1B20FFF7CEFFA0788007D6
:102F3000C10E1C20FFF7C8FF042000F045F810BDAB
:102F400030B585B00C46054600A901223A20013172
:102F5000FFF7A6FE68464078002829D0062201A97E
:102F60003B20FFF79DFE6A46107951790002401818
:102F700028809079D179000240186880107A517ABF
:102F800000024018A880062203A94320FFF788FE0C
:102F90006A46107B517B000240182080907BD17BD9
:102FA000000240186080107C517C00024018A08014
:102FB00005B030BD10B501464C220248FDF7FDF8C2
:102FC00010BD00006813002010B501461920FFF75E
:102FD0007BFF10BD3EB50021174800910191029181
:102FE000416081600124134A04610260C1600422CF
:102FF0004261017641768176C176C161110201623A
:10300000014620310C718462FDF700FE002801D0DA
:10301000FDF7E8FC012000030190000402900094F9
:1030200069460548FDF7E0FC002801D0FDF7DAFC11
:103030003EBD0000002401405410002008B50C489B
:103040004169012211434161406910400022009012
:1030500011460920FEF7E4FB0920FEF7D5FB00220C
:1030600011460B20FEF7DCFB0B20FEF7CDFB08BD65
:103070000010024030B587B014216846FDF7B6F85D
:10308000344842690121C9040A43426142690A4045
:103090000592426989100A43426142690A400592D9
:1030A000426949000A43426142690A400592426905
:1030B00009010A4342614069274D08404C120590BE
:1030C000002221462846FEF7B5F80094012000248E
:1030D00001900294694628460394FDF7D9FF4020E9
:1030E00011252D0400906946019502941B48FDF7B7
:1030F000CFFF0120C003009009206946019502948A
:10310000C006FDF7C5FFFF2001953930144D009032
:10311000694602942846FDF7BBFF0120400200905B
:10312000212000040190694602942846FDF7B0FF73
:10313000002211460620FEF773FB0620FEF764FB13
:10314000002211460720FEF76BFB0720FEF75CFB11
:1031500007B030BD001002400008004800140048CD
:103160000004004810B5134811490160124941603C
:10317000002181600161416181610122C161C26000
:103180000162FEF7ADF8002801D0FDF72BFC00210D
:103190000848FEF75BF8002801D0FDF723FC00216A
:1031A0000448FEF778F8002801D0FDF71BFC10BD9D
:1031B00000540040D81000200E09002010B590B037
:1031C00014216846FDF712F80024282106A805946A
:1031D000FDF70CF82649274812C07F210160846062
:1031E000C460FF21046141600838FEF755FE0028E5
:1031F00001D0FDF7F7FB68460470447084700394B7
:10320000002269461B480494FEF7A8FF002801D05D
:10321000FDF7E8FB01206946087548751720887599
:103220006220C875002205A91248FEF739FF002860
:1032300001D0FDF7D7FB68460476447684760E48C5
:103240000B90C00107940D9009940A940C940521E9
:1032500008A80176FF2001300F90002206A905483A
:10326000FEF78CFE002801D0FDF7BCFB10B010BDAE
:1032700000280040241100200000808010B596B086
:1032800000240F9410941194129413941C2108A8F4
:103290001494FCF7ABFF20216846FCF7A7FF2C48ED
:1032A0002A4901602F2184604160046144612949F9
:1032B0008461C160FFF752F8002801D0FDF792FB4E
:1032C000012000030F900FA92148FFF7E9F800281B
:1032D00001D0FDF787FB1E48FFF7A7FA002801D0B1
:1032E000FDF780FB202013A911C119480839FFF709
:1032F00007F8002801D0FDF775FB60200890FF203B
:103300002D300E9409900A940C940D940C2208A967
:103310000F48FFF722FA002801D0FDF763FB0120D8
:103320000094400302940590019403940494694628
:1033300007940748FEF7B4FF002801D0FDF752FBC1
:103340000348FFF7CDF916B010BD0000002C014076
:1033500044110020E703000010B58EB0002407944C
:10336000089409940A940B941C2168460C94FCF769
:103370003DFF21481F4901602F21846041600461A5
:103380001E498461C160FEF7E9FF002801D0FDF706
:1033900029FB01200003079007A91748FFF780F8D1
:1033A000002801D0FDF71EFB1348FFF73EFA002866
:1033B00001D0FDF717FB0B940BA90F480C94FEF7F7
:1033C0009FFF002801D0FDF70DFB60200090FF203B
:1033D000F530019002940822694604940648FFF7EC
:1033E000BCF9002801D0FDF7FDFA0348FFF778F992
:1033F0000EB010BD000400408C110020E703000057
:1034000010B50948074901602F2141600021074A92
:103410008160C2608161FEF7A1FF002801D0FDF745
:10342000E1FA10BD00100040D4110020E7030000B5
:1034300010B50C480A490160E121490241600021B0
:103440008160C16001618161C1610C2201624261E0
:103450004162FFF700FB002801D0FDF7C3FA10BD61
:10346000003801401C12002010B50E480C490160C4
:10347000E1214902416000218160C16001618161F7
:103480000C22C1614261016208214162090341636A
:10349000FFF7E1FA002801D0FDF7A4FA10BD000003
:1034A00000440040A012002070477047002102E055
:1034B0000A38C0B2491C0A28FAD20907090E084383
:1034C000704770B504460068C168490613D40021EE
:1034D000C943C160FDF7B4FE7D260546F60006E04F
:1034E000FDF7AEFE401BB04201D9032070BD20683D
:1034F000C0684006F4D5002070BD000010B5024839
:10350000FEF7AEFC10BD000024110020704710B57E
:10351000FEF72CF910BD000030B595B0302168469B
:10352000FCF764FE00240C940D940E940F941094F8
:10353000119412941394FEF777F91648016A182231
:103540001143016216200090012003900290059023
:103550001020049006900520C00402250A900895CA
:1035600009940B946846FEF7AFFA07200C900E946E
:1035700001210D950F940CA8FEF7D2F90648109082
:10358000001211901294139410A8FEF755F915B07B
:1035900030BD000000100240210001007047000013
:1035A00010B50248FEF7EBFF10BD0000D41100205B
:1035B000F0B502681A4B1B4C984201D0A04203D1CF
:1035C0007025AA434D682A43174D184E184F98424C
:1035D0000AD0A04208D0174CA04205D0A84203D080
:1035E000B04201D0B84205D11446032212029443DE
:1035F000CA6822438024A2434C69224302608A683D
:10360000C2620A688262984205D0A84203D0B042E2
:1036100001D0B84201D10969016301214161F0BDC6
:10362000002C0140000400400040014000440140E3
:10363000004801400020004010B5CB06DB0E012100
:10364000046A99408C430462016A9A401143016202
:1036500010BD30B58468FF252D021B021343AC4317
:103660000B432343836030BD826870239A430A432F
:1036700007210A4382607047F0B5026A520852007F
:103680000262056A436882697024A24392080C684A
:1036900092001443022295438A68164E2A43144D21
:1036A000A84207D0B04205D0134FB84202D0134F02
:1036B000B84206D10827BA43CF681743042297437C
:1036C0003A46A84207D0B04205D00B4DA84202D0DE
:1036D0000A4DA84206D103252D02AB434D691D4377
:1036E0008B692B4343608461496841630262F0BD8A
:1036F000002C0140004001400044014000480140CE
:1037000070B5026A10239A430262056A42688369AF
:1037100073242402A3430C6824021C4320239D43EA
:103720008B681B012B43124DA84208D11D46CB6864
:103730008026B5431B012B434025AB4308E00D4DCC
:10374000A84205D00C4DA84202D00C4DA84208D189
:103750000325AD02AA434D69AD0015438A69920065
:103760002A434260846149688163036270BD00003E
:10377000002C01400040014000440140004801404D
:1037800070B5026AFF2301339A430262056A4368F7
:10379000C2697024A24392080C689200144301226B
:1037A000520295438A6812022A43124DA84208D158
:1037B0001546CA68C614B54312022A430515AA4322
:1037C00008E00D4DA84205D00C4DA84202D00C4D8A
:1037D000A84208D103252D03AB434D692D011D439C
:1037E0008B691B012B434360C4614968C16302625A
:1037F00070BD0000002C0140004001400044014029
:103800000048014030B5026A01231B039A4302625B
:10381000046A4268C36973252D02AB430D682D020B
:103820001D4301235B039C438B681B0323430C4C08
:10383000A04208D00B4CA04205D00B4CA04202D0B5
:103840000A4CA04205D10124A403A2434C69A4015F
:1038500022434260C56149680164036230BD0000D3
:10386000002C01400040014000440140004801405C
:1038700030B5036A046A6408640004628469F02550
:10388000AC43120122430A24A3430B438261036227
:1038900030BD30B5036A1024A34303628469036A10
:1038A0000F252D031203AC432243A024A343090197
:1038B00019438261016230BD10B5818CC90707D000
:1038C00001684A6801235B049A43836A1A434A6089
:1038D000818C890707D501684A6801231B049A4334
:1038E000C36A1A434A60818C490707D501684A6850
:1038F00001239B049A43036B1A434A60818C090796
:1039000007D501684A680123DB039A43436B1A43D6
:103910004A60818CC90607D50268916801231B03A0
:103920009943836B19439160818C890607D501689F
:103930008A6801235B039A43C36B1A438A60818CB4
:10394000490612D503685A6801210905046C8A43A7
:1039500022435A60026C8A4207D1026851680323ED
:103960005B059943436C19435160818C090607D567
:1039700001684A680123DB04806C9A4302434A6071
:1039800010BD0000F8B50446002680300660FDF743
:1039900057FC054620680068124F000709D5012131
:1039A0002B46002249052046009700F0CDF900285B
:1039B0000DD12068006840070BD501212B4600225D
:1039C00089052046009700F0BFF9002801D00320A8
:1039D000F8BD2020A067E0672666603426750020C9
:1039E000F8BD0000FFFFFF0170B5446AA06FE56FEE
:1039F0002168896800260906002906DA212804D1F1
:103A000052200653204600F09CF82068806840064B
:103A100006D5222D04D15A200653204600F062F824
:103A20002046803001681022114301602046FFF7D4
:103A300011F870BD10B501468969406A202938D057
:103A400000225A210A52EFF31081012282F31088DA
:103A500002681368FF240134A343136081F31088C4
:103A6000EFF31081012282F31088026893685B08EB
:103A70005B00936081F31088EFF31081012282F3E1
:103A80001088026893684024A343936081F31088F0
:103A90002021C167016E01290BD1EFF310810122B2
:103AA00082F31088026813681024A343136081F323
:103AB0001088016E012902D0FFF79AF810BD582135
:103AC000095AFEF7C6FF10BD10B5406A016E012904
:103AD00002D0FFF78EF810BD5821095A4908FEF7A9
:103AE000B8FF10BD10B5EFF31081012282F31088EA
:103AF00002681368FF242134A343136081F3108804
:103B0000EFF31081012282F31088026893685B084A
:103B10005B00936081F31088016E01290BD1EFF3F4
:103B20001081012282F31088026813681024A343D5
:103B3000136081F310882021C1670021016641666E
:103B400010BD10B5EFF31081012282F310880268D6
:103B50001368C024A343136081F310882021816778
:103B600010BD000070B5044680682169E269084311
:103B7000616900251143226808431168404B1940D0
:103B80000143116021684868032212039043E268F0
:103B900010434860A169206A084321688A680B23A2
:103BA0001B029A4302438A6036492068884210D13A
:103BB0003548006B8007800F0ED0012805D0022801
:103BC00005D003280AD1022109E0042107E00821D9
:103BD00005E02E49884201D1002100E0102101209A
:103BE000E369C0032A4A2B4E834223D1002906D021
:103BF000022907D0042907D0082937D108E0FDF7AA
:103C000013FF03E0104603E0FDF71EFF002831D04C
:103C1000616840004A088018FCF764FA80B20146E7
:103C20001039B14222D81B49491C01400007400FFE
:103C300008431DE0002906D0022907D0042907D037
:103C4000082913D108E0FDF7EFFE03E0104603E07A
:103C5000FDF7FAFE00280DD061684A081018FCF73D
:103C600041FA80B201461039B14201D9012501E083
:103C70002168C86000206066A066284670BD00000C
:103C8000F369FFFF0038014000100240004400408B
:103C900000127A00EFFF0000F8B50446416540309D
:103CA00000262746028380373E602220E0672546B3
:103CB000206F603500281BD020498162216F204889
:103CC000C862216F1F480863206F13464663606D0A
:103CD0002168844662462431206FFDF76BF9002885
:103CE00006D0102038602E752020E0670120F8BD36
:103CF0002E75EFF31080012181F3108821680A6886
:103D0000FF2301331A430A6080F31088EFF3108019
:103D1000012181F31088226893680B43936080F33C
:103D20001088EFF3108081F3108821688A6840239F
:103D30001A438A6080F310880020F8BD353A0008E5
:103D4000C93A0008E9390008FFB581B005461746B1
:103D5000044660350A9E55E0701C53D0FDF770FA9A
:103D60000499401AB04230D8002E2ED02068016845
:103D7000490747D5C069C043000543D401202168E5
:103D8000C0020862EFF31080012181F310882168DE
:103D90000B68FF22A13293430B6080F31088EFF38E
:103DA0001080012181F3108821688A68520852002E
:103DB0008A6080F310882020A067E067803420604C
:103DC00000202875032005B0F0BDEFF3108001211D
:103DD00081F3108821680B68FF22A13293430B60A6
:103DE00080F31088EFF31080012181F3108821689F
:103DF0008A68520852008A6080F310882020A067E9
:103E0000E067DDE72068C1690298884304D000209C
:103E1000B842A1D00020D6E70120F9E72021020C0A
:103E200001D010211046020A01D0104608390209BB
:103E300001D01046091F820801D01046891E420891
:103E400001D0881E7047081A7047F8B5040C8BB271
:103E5000264682B25E430D0C1046370C584336049A
:103E600080190021794116466E43370C36048019BB
:103E7000794126466E438919F8BD00008307FF2269
:103E8000DB0E9A408907090E9940002808DB830859
:103E900009489B001B181868904308431860704736
:103EA0000007000F0838830804489B001B18D869D6
:103EB00090430843D861704700E400E000ED00E063
:103EC00002E008C8121F08C1002AFAD170477047E3
:103ED000002001E001C1121F002AFBD17047002120
:103EE000018041808180C18001817047F0B5044626
:103EF000324885B0C068401CFCF743FB3049FCF7F2
:103F000016FA00902F48E0602F4820610420205EC0
:103F1000FCF72CFB2B490390FCF7CCF90290022014
:103F2000205EFCF723FB05460099FCF7C3F9064623
:103F300024480099FCF7BEF92946FCF7BBF907466F
:103F40000020205EFCF712FB1E490190FCF7B2F93D
:103F500001460198FCF7A6F93946FCF7A3F931466A
:103F6000FCF74FF90299FCF74CF9FCF733FB06B26A
:103F7000268015490398FCF79DF9074601951248DC
:103F80000099FCF797F92946FCF794F90546304665
:103F9000FCF7ECFA01460D48FCF78CF92946FCF7D2
:103FA00081F90199FCF72DF93946FCF72AF9FCF75C
:103FB00011FB6080E680208105B0F0BDD4110020A7
:103FC00000247449C572CB3CA4E29F3EA4E29FBE8C
:103FD00000230380438083808360C360026141616A
:103FE0007047FEB504460220205EFCF7BFFA064685
:103FF0006169E068FCF705F9009027693946FCF72C
:1040000000F9054629460098FCF791F93146FCF77E
:1040100051F906460420205EFCF7A8FA01902946D3
:104020003846FCF784F90199FCF744F93146FCF76E
:10403000E8F8FCF7CFFA2080A08039460098FCF71A
:1040400039F92946FCF773F9A060E060FEBD000075
:1040500086B0FDF793FBFFF75FFAFFF70BF8FEF76B
:10406000EDFFFFF77FF8FFF7A9F8FFF707F9FFF774
:1040700073F9FFF7DDF9FEF7ADFFFFF7F5F9FFF78D
:10408000BFF92848FEF796FF2748012181700024D8
:1040900004700221C170032141700471FEF724FFF6
:1040A00062206946C8750A20487517228A7505225C
:1040B0000A750C704C708870002205A91B48FDF72A
:1040C000EFFF002269461948FEF748F828221849F0
:1040D0001848FEF75BFD1649642228311648FCF7A4
:1040E000A1FE1648FEF790F9154A16491648FFF743
:1040F0006FFF15487F22D20514491830FFF7EFFEF5
:104100001348FEF7A5F9084D124E143D7D27FF0018
:1041100068780028FCD03146384600F07FF86C7093
:10412000F6E70000D8100020140000202411002021
:1041300038000020A012002054100020441100205C
:1041400000006144CDCC4C3F28100020CDCCCC3DAC
:10415000D4110020DC050000F0B58BB00C460646FB
:10416000052900D90524204606225043192103AD14
:1041700002910190012307220095AF211248FDF71B
:1041800019FA00221BE0104606214843295C401919
:10419000437809041B021943837819438903890B67
:1041A000D300F150C178077909043F0240793943BF
:1041B00001438803800B9919521CD2B24860A24275
:1041C000E1D30BB0F0BD0000D810002030B585B0B1
:1041D0000021684601730174012403A80A25009098
:1041E00023460422AF21029501940B48FDF7E2F922
:1041F00004A8009001230622AF21029501940648ED
:10420000FDF7D8F96846017B007C081A00D52030FC
:10421000C0B205B030BD0000D810002070B50C460B
:10422000054608211148FEF727FB29461048FBF7F1
:104230006FFF0E490A68D062C860C20F1018096883
:104240004010C8632046FCF7EBFE08210748FEF744
:1042500067FB2046FCF79CF9064A074BFCF7A6F8DB
:10426000FCF7D2F9FCF7DCFE70BD00008C110020D9
:1042700040420F00333333333333D33F0000000069
:104280000000000001020304060708090000000006
:1042900001020304B44200080000002038000000BE
:1042A000C03E0008EC4200083800002080190000E1
:1042B000D03E0008000000000000000000000000E8
:1042C00000000000000000000000000000000000EE
:1042D00000000000000000000000000000127A0052
:0C42E000010000000400000000000000CD
:04000005080000B53A
:00000001FF
