:020000040800F2
:10000000A81A0020C900000805310008FB290008D3
:1000100000000000000000000000000000000000E0
:10002000000000000000000000000000793100081E
:100030000000000000000000073100087B310008CC
:10004000DB0000080000000069310008DB00000848
:10005000DB000008DB0000082D0B0008370B000850
:1000600000000000C10A0008DB000008D10A0008F7
:100070009D090008DB000008DB000008000000000C
:10008000DB000008DB00000800000000DB000008C7
:10009000DB000008DB000008DB000008DB000008D4
:1000A000DB000008DB000008DB000008DB000008C4
:1000B000DB0000080348854600F05EFC004800476E
:1000C00029430008A81A0020044880470448004734
:1000D000FEE7FEE7FEE7FEE7FEE7FEE7093200087F
:1000E000B500000830B50B4601460020202201244F
:1000F00009E00D46D5409D4205D31D469540491B5C
:100100002546954040191546521E002DF1DC30BDA4
:10011000F0B51FB40646002082B005464024019188
:1001200000901BE0019922460F46304600F020F86F
:10013000049A059B801A994110D31046194622460D
:1001400000F022FB361A8F41019722460120002140
:10015000009F00F019FB38184D4100902046641EA6
:100160000028DFDC019B00982946324607B0F0BD2D
:1001700010B5202A04DB0846203AD040002110BDEB
:100180000B46D340D0402024A21A91400843194680
:1001900010BDD2B201E00270401C491EFBD2704774
:1001A0000022F6E710B513460A4604461946FFF743
:1001B000F0FF204610BDF8B502464A40D40F420079
:1001C0004B0052085B089A4202D20246084611468A
:1001D0004A0023D0C30D4A00DDB2120EAD1A202D05
:1001E00035DA49020126490AF6058A19002C00D0A1
:1001F000524220214F1B1146B9402A411018C20D0E
:100200009A4221D0002C17D0012D08DCDA05801A83
:10021000D20F8019D207DBB200F0E1FAF8BDDA059F
:10022000801A012340001B06C01880185A4280180B
:10023000CA0F1043490007E04908C2071143DA0515
:10024000801A80194008801800F0C1FAF8BD6100DA
:100250000122511A001BF7E70122D2075140AAE7F9
:100260000122D2075040A6E7024670B54A40D30F9C
:10027000DB0740002DD04A002AD0010E140E0002E8
:1002800012020919400A520A8418E501044654432F
:10029000000A120A2E045043A4194219200CC54327
:1002A000AA18120C0125AD03521C521912047F39F1
:1002B000240400D0521C104301D44000491EC2B295
:1002C0000C06C0092018401C4008802A02D003E018
:1002D000002070BD40084000002900DA00201843CB
:1002E00070BD70B502464A40D50F40004A00ED0788
:1002F00040085208002814D0002A12D0C40DD30D93
:1003000041020120C0055202490A520AE41A0918A2
:1003100012187D34914201D3641C00E04900002C86
:1003200001DA002070BD0023914201D3891A0343F2
:10033000400849000028F7D100290AD0914202D193
:100340000121C90705E0914201D2012101E001210B
:10035000C943E005C018401900F039FA70BD00002B
:10036000F0B507460846584087B0C00F04904800D3
:100370000E46590040084908BC1A884105D2384643
:1003800031461E4617460B460246580040081043A9
:100390004CD0300D039040055900400D490D05909B
:1003A000401A0290402872DA18030121000B090557
:1003B0000843019004980092002805D00199524208
:1003C0000020884100920190029840210A1A019968
:1003D000009800F0D9F905460C466B4607CB00F0B3
:1003E000E3F9C0197141039A0E0D0023D717564047
:1003F0001A467A40164344D0049A002A2DD0029A15
:10040000012A039A15DC1205C01A9141012636050E
:10041000001C7141D20F059ED207009301920296F3
:100420002A46234600F021FA07B0F0BD384631468F
:10043000FAE71605224A0F46B218C01AB741012141
:100440000905001C4F4100187F41114618187941D9
:10045000E20F10436D19644113E0E2076D08154384
:100460006408C2071443039A01261205C01A914179
:100470003605001C7141CE07400830434908C018BA
:1004800051412A46234600F0E3F9CDE7FFE70498FF
:1004900001224000C117121A00238B4104983146F3
:1004A000C417381AA141EEE730B40124E4076340D1
:1004B00030BC55E730B40124E407614030BC4FE75D
:1004C0000000E0FFF0B51FB488B00B990998002434
:1004D00048400999C00F490049080991C0070B9984
:1004E0000090490049080B9109990898A6460843CD
:1004F0001CD00B990A98084318D009980124400091
:10050000420D4800410D099824050003000B2043CB
:1005100009900B980003000B20430B9050181C49C6
:100520004018002201901446104605E000200146C4
:100530000DB0F0BD032801DA034600E003239C461A
:10054000C11A0AAE0AE05F0008ADED5B4F00F75B31
:100550007D430027AA187C41491C5B1E6145F2DDE2
:10056000410004AB5A522104120C0A43240C401CD3
:100570000828DFDB019802900099704601910090F5
:10058000059B049A0799069800F06FF9D0E70000E0
:100590000DFCFFFFF0B50C465C4085B0E40FE407AE
:1005A00003944C000026640859009446490802460A
:1005B0000296224321D062460A431ED06200570DA4
:1005C0004A000E032303550D012402462C4924053D
:1005D000781B1B0B360B40182343264361460090C3
:1005E0001C46501AB44103D30098401C009002E00E
:1005F000921800985B41002803DA0020014605B0FC
:10060000F0BD0020012109050746864611E0644639
:100610001D46141BB54106D36546521BB3417446B3
:1006200007430C43A646CD074008490828439218C3
:100630005B4105460D43EAD11046184313D060468E
:10064000194650407140084306D06046101AB34125
:1006500006D20122002306E000220123DB0702E08C
:100660000122D2435310009874460105381C6141A1
:10067000029C039D0019694100F0EAF8BFE7000001
:10068000FD030000C217C10F504010B54018CA0743
:100690009623002100F0A3F810BD10B50022962388
:1006A000114600F09CF810BD0EB5054902910021DD
:1006B00000910A460B46019100F0D7F803B000BD47
:1006C00033040000410040020122400AD205090E15
:1006D00080187F2901DA00207047962903DC9622D2
:1006E000511AC84070479639884070474A0009033C
:1006F0000123090B1B051943094B10B5520D9A42F2
:1007000001DA002010BD064B34339A4203DC9A1AFA
:10071000FFF72EFD10BD03495118884010BD0000A1
:10072000FF030000CDFBFFFFC20FD20740004008CF
:100730000BD0C10D0723DB01C91840020905400A8F
:100740001143C2084007114370470020014670471B
:10075000CB0FDB07490010B5490802460A4307D012
:100760000A0D07240903E401090B121B002A01DC0E
:10077000002010BDC900440F0C43C100E018D20591
:10078000801800F024F810BD10B5202A04DB0146C3
:10079000203A9140002010BD914020239C1A03462E
:1007A000E3401943904010BD10B5202A06DBCB175B
:1007B0000846203A1041C1170B4306E00B4613418F
:1007C000D0402024A21A91400843194610BD0029A8
:1007D00004DA401C490001D140084000704770B461
:1007E0000024050C05D11024000402D1002921D0D9
:1007F0001124050E01D100020834050F01D10001BA
:10080000241D850F01D18000A41C002801DB4000BD
:10081000641C002908D020252E1B0D46F540A14060
:1008200000D001212943084301061B1B000ADB1DE0
:1008300002D5002070BC7047DB051818801800290D
:10084000F8DA401C4900F5D170BC40084000704700
:1008500010B5002B08DA0024401C614192185B415E
:100860001A4301D14008400010BDF0B51FB482B05A
:1008700005460C0003D0084603F03CF802E003F004
:1008800039F820300246009021462846FFF77CFFC9
:10089000049B059A04460F4618431143084314D09D
:1008A000184610431BD0009840210A1A1846059993
:1008B000FFF75EFC05460E46009A05990498FFF77F
:1008C00063FF084305D0012004E02046394607B005
:1008D000F0BD0020C11705430E432C433743009958
:1008E0000E986305401A7905E40A00220C43FD0ABC
:1008F0000A3002D500200146E9E7010510196941D7
:100900000C9C0D9D00196941FFF7A2FFDFE7000075
:100910004A0009030123090B1B0519430A4B10B5B3
:10092000520D9A4202DA0020014610BD064B3433C4
:100930009A4203DC9A1AFFF71BFC10BD034BD21836
:10094000FFF722FF10BD0000FF030000CDFBFFFFFB
:1009500010B5002904DB0124E40740428C41214604
:10096000002B04DB1C460123DB075242A3419942C2
:1009700000D1904210BD0000064C0125064E05E056
:10098000E36807CC2B430C3C98471034B442F7D3B0
:10099000FFF794FB084900082849000810B50248F1
:1009A00000F08CF910BD00005410002010B5014675
:1009B000406A826B50231A420AD1816B0122520293
:1009C000114381630168CA681205920F05D020E0C7
:1009D000006B026B0846904710BD827E002A18D13A
:1009E0000A68120715D58A6853070122002B09DB14
:1009F0004B680C24A3434B60816B13029943114352
:100A0000816306E0816B202319438163C16B11432D
:100A1000C16300F031F910BD10B5406A816B40220E
:100A200011438163C16B04221143C16300F045F996
:100A300010BD10B5406A00F03FF910BDF8B504468E
:100A400000200090206881688907890F012905D15D
:100A50000168C9072CD1C168090429D48168154AE5
:100A6000102611400125002915D181682943816094
:100A7000124811490068FFF735FB00E0401E009066
:100A80000028FBD100F07CFC07460CE000F078FC6D
:100A9000C01B022807D9A06B3043A063E06B28433A
:100AA000E0630120F8BD20680068C043C007EDD1B5
:100AB0000020F8BD1700008040420F001400002005
:100AC00010B5024800F0BEFA10BD000094100020DE
:100AD00010B5024800F0B6FA10BD0000C4120020A4
:100AE00010B504460068054940181421FFF7FAFACA
:100AF000800020640248E06310BD0000F8FFFDBFE5
:100B00000000024030B5056C0124AC40C56B6C6040
:100B1000046863604368102B036803D09960006821
:100B2000C26030BD9A600068C16030BD10B5082059
:100B300000F05CFB10BD10B5102000F057FB20202A
:100B400000F054FB402000F051FBFF20013000F08A
:100B50004DFB0120400200F049FB0120C00300F0E2
:100B600045FB10BD70470000F8B500250446203451
:100B70000095227D012A39D00122227503689E68E2
:100B8000760767D4384F4E68BE424DD09E6A0F78C4
:100B9000BA4016439E620123C26A1B079A421FD0C5
:100BA000012A1DD0022A1BD0032A19D0042A17D0EB
:100BB000052A15D0062A13D0072A11D002688B689F
:100BC00056697607760FB3420AD05369DB08DB001B
:100BD0005361006842690B7A5B075B0F1A434261FD
:100BE0000A68102A04D0112A02D038E00220F8BD89
:100BF0001E488368102A07D00122920513438360A0
:100C00000868102803D02AE00122D205F6E7194827
:100C100017490068FFF766FA0A21484300E0401EC2
:100C200000900028FBD11AE0986A0E78B2409043F9
:100C300098620968102901D0112910D10B488268E7
:100C4000102904D0012189058A43826007E001212F
:100C5000C905F9E7816B202211438163012500203A
:100C600020752846F8BD0000011000000027014053
:100C700040420F001400002070B500200B4C0C4ABD
:100C80007D230146DB00E0608D005559491C281882
:100C90009942F9DBE060FFF707FD0022054BFFF703
:100CA00079FCFFF755FDA06070BD0000000000203A
:100CB000A0000020000059407047704770B50446FE
:100CC00000680168490702D54168490705D40168F1
:100CD000090730D5416809072DD5A16BC90604D491
:100CE000A16B012252021143A163C1680C250905C1
:100CF000890F00291AD1A17E002917D1016809079F
:100D000014D581684A070121002A08DB4268AA43FA
:100D10004260A06B0A0290430843A06306E0A06B08
:100D200020221043A063E06B0843E0632046FFF7F6
:100D3000A3FF206805602068016809060DD540689A
:100D400000060AD5A06B012109040843A0632046D0
:100D500000F0D8F821688020086020680168C90682
:100D600013D54168C90610D5A16A1025012902D002
:100D7000C168C90707D0E16B02221143E163056036
:100D80002046FFF79AFF2068056070BDF8B5002681
:100D90000446002805D0A06B25462035002802D047
:100DA00007E00120F8BD0020E0632875204600F030
:100DB000ABF8A06B1022C006002870DB20688168A9
:100DC00049076CD4A16B1301994302231943A16312
:100DD00081688907890F012905D10168C9070FD1E9
:100DE000C16809040CD4C16818239943A368194346
:100DF000C16020680169636889008908194301613D
:100E00002068C1683D4B1940C160207E617E80032F
:100E1000C9030843A17E4B031843A36A012B02D0E8
:100E200001231B0300E000231843E36818432369F0
:100E3000022B09D0002318432B79E57E5B00184371
:100E40000123012D02D00AE00423F4E7002927D072
:100E5000A16B20252943A163E16B1943E163E1699B
:100E60000D46FF3DC23D02D0256A29430843216853
:100E7000CD680543CD600125E16A2D07A94213D055
:100E8000012911D002290FD003290DD004290BD03C
:100E9000052909D0062907D0072905D010E028E048
:100EA000012109040843DAE721684D69ED08ED00E6
:100EB0004D6121684D69A78D7F077F0F3D434D61CF
:100EC0002168C9680E4D2940814207D10020E063A6
:100ED000A06B80088000401CA06308E0A06B02218A
:100EE00088431043A063E06B1843E063012630465B
:100EF000F8BDA06B1043A063F8E700001902FEFFE5
:100F0000E7FF3F8370470000F0B587B00546142126
:100F10006846FFF745F91F492868884237D11E49BE
:100F200088694E15304388618869304005904A6968
:100F3000300202434A6149690027014005910220BD
:100F4000009003200190092069460297C00600F036
:100F500059F91248124C81C427608020A660606055
:100F60000001E0602020676120610D48083C00F02E
:100F7000B7F8002801D0FFF7F5FD2C6300221146D9
:100F80000C20656200F082FC0C2000F073FC07B0BE
:100F9000F0BD0000002401400010024008000240A3
:100FA00094100020F7B504460068002580684007CB
:100FB0003DD426462036307D01280AD001273775DA
:100FC000607E012807D02046FFF738FD050002D0DB
:100FD0002EE00220FEBDA06B16490840FF21013122
:100FE0000843A0630020E0633075216B12488862DB
:100FF000216B1248C862216B1148086321681C20CC
:101000000860206841681022114341602068C1686F
:101010003943C1602168206B4031029B019A00F086
:1010200089F82068816804221143816000E002256C
:101030002846FEBDFEF1FFFFAD090008330A000897
:10104000190A0008F0B4C16B0D6801680C6804222D
:10105000066C1346B3402B420DD063070BD50B68CB
:101060009B0602D40B6893430B60016C8A40C16BF2
:101070004A60C16A19E00227B74002462F400123A7
:101080002032002F15D0A70713D50C68A40604D46E
:101090000C680A25AC430C605370036C0221994024
:1010A000C36B596000211170816A002916D0F0BC11
:1010B00008470827B7402F4210D024070ED50C68E8
:1010C0000E25AC430C60046C1946A140C46B6160F2
:1010D0008363537000211170016BE6E7F0BC704729
:1010E00070B5040021D00221204620300546417011
:1010F000226811680E48A368014060682669184399
:10110000E3683343184363691843A3691843E369E9
:101110001843084310602046FFF7E2FC0021A1635A
:10112000012068702970084670BD012070BD000064
:101130000FC0FFFFF8B504468C462030017800252B
:10114000012909D00126067041780027012905D020
:10115000077002252846F8BD0220F8BD0221417023
:10116000A76320680168490849000160614620467C
:10117000FFF7C8FCE06A00282068016802D00E2250
:10118000114306E00A22114301602068016804222D
:10119000914301602068016831430160DAE7000093
:1011A00070B5044600F0ECF80546601C02D0044817
:1011B0000078241800F0E4F8401BA042FAD370BD78
:1011C00030000020C11F10B5FF39FA390BD103F0F0
:1011D000ADF903F0B7FA044C207003F0ADFA60707B
:1011E00003F06AFA608010BD0000002010B50449C9
:1011F0004A69024202D04861FFF7E4FF10BD0000D7
:1012000000040140FCB500230124A1E027462A4642
:101210009F403A4073D04D68012D05D0022D03D078
:10122000112D01D0122D16D185680326AC465D0024
:10123000AE46AE406546B543AC46CE687546AE4058
:1012400065462E43866046680D79BE43ED06ED0F78
:101250009D4035434560C6685F000325BD40AE46EE
:10126000AE4335468E68BE402E43C6604E68022EA1
:1012700001D0122E14D1DE08B60036180196366A57
:101280005D07B446EE0E0F25B54000966646AE43A8
:10129000B4460D69009EB54066462E43019D2E6200
:1012A00006687546AE430D79AD07AD0FBD403543B9
:1012B00005604D68ED004AD5284DAE692643AE6104
:1012C000AD699E08ED07ED0F0095254DB600751927
:1012D000AC46AD689E07360F0F27B740BD430927C0
:1012E000FF06B84201D1002710E01E4FB84201D1DD
:1012F00001270BE01C4FB84202D1022706E026E08E
:101300001A4FB84201D1032700E00527B7402F4309
:101310006546AF60164E35684F689543FF0300D5AC
:101320001543356075684F689543BF0300D5154375
:101330007560B5684F689543FF0200D51543B560E9
:10134000F5684F689543BF0200D51543F5605B1CF7
:101350000A681546DA4000D058E7FCBD001002408C
:10136000000001400004004800080048000C00484C
:1013700000040140002A01D08161704781627047FA
:1013800001488068704700003000002070B50246B8
:1013900040325378202B1CD11378012B19D0012314
:1013A000137024245470046825689D4325600468E4
:1013B00025681E03B5432560046825680D43256034
:1013C00000680168194301602020507000201070EF
:1013D00070BD022070BD70B5024640325378202B9C
:1013E0001BD11378012B18D00124147024235370BF
:1013F00003681D68A5431D6005682B680F2636022B
:10140000B343090219432960006801682143016060
:10141000202050700020107070BD022070BD0000B0
:1014200070B5040006D025464035687800260028AF
:1014300002D005E0012070BD2E70204600F09AF920
:1014400024206870206801684908490001600F2164
:101450006068090688432168086121688A6801205C
:10146000C00382438A60E1680129A16808D0212273
:101470009202114322689160E168022902D005E0DE
:101480000143F7E701212268C902516021684A68D7
:101490000F4B1A434A602168CA688243CA60616977
:1014A00020690843A169090208432168C860216ACC
:1014B000E06908432168086020680168012211433F
:1014C00001606664202068702663AE70002070BDE5
:1014D00000800002FFB5054604464035687883B0B9
:1014E000202875D10C98002814D00D98002811D010
:1014F000287801286CD001202870FFF741FF0746AB
:10150000012200901923D103204601F035FB002869
:1015100074D103E00120400260646FE02220687013
:101520004020A870002666640C9860620D98608563
:1015300066630E980090019704A90EC9204601F039
:10154000A7FA002801D02E7058E0618D3448FF2999
:1015500005D9FF22228501231B06009006E0618D3C
:1015600021850090208D0123C2B25B06204604999C
:1015700001F0EEFA00970022042120460E9B01F0B4
:10158000FBFA00283AD12068406A616A0870606AF4
:10159000401C6062208D401E81B22185608D401EFE
:1015A0006085608D00281FD000291DD10097002282
:1015B000802120460E9B01F0DFFA00281ED1608DAD
:1015C000FF2806D9FF22228501231B06009607E08B
:1015D00024E0608D20850096208D0123C2B25B0639
:1015E0002046049901F0B4FA608D0028C2D13A4631
:1015F00020460E9901F0E7FA002802D0012007B03A
:10160000F0BD20682021C16120684268054B1A4066
:1016100042606970AE702E700020F0E70220EEE7A5
:101620000024008000E800FEFFB505460446403572
:10163000687883B0202872D10C98002814D00D98B7
:10164000002811D02878012869D001202870FFF7E0
:1016500097FE0746012200901923D103204601F08E
:101660008BFA002871D103E00120400260646CE035
:10167000212068704020A870002666640C98606283
:101680000D98608566630E980090019704A90EC9B5
:10169000204601F02DFA002801D02E7055E0608D13
:1016A000FF2805D9FF22228501231B06009606E0AC
:1016B000608D20850096208D0123C2B25B062046F6
:1016C000049901F045FA3A4620460E9901F0A1FA34
:1016D00000283AD1606A216800788862606A401CFC
:1016E0006062608D401E6085208D401E80B2208526
:1016F000618D00291FD000281DD100970022802174
:1017000020460E9B01F038FA00281ED1608DFF287C
:1017100006D9FF22228501231B06009607E024E05C
:10172000608D20850096208D0123C2B25B06204685
:10173000049901F00DFA608D0028C4D13A46204684
:101740000E9901F040FA002802D0012007B0F0BD48
:1017500020682021C16120684268054B1A40426020
:101760006970AE702E700020F0E70220EEE70000F6
:1017700000E800FE10B586B0044614216846FEF766
:101780000FFD1249206888421DD1114C616901206A
:10179000800401436161616901400591C0200090AE
:1017A00012200121019003200291049103906946C7
:1017B0000848FFF727FDE169012040050143E16189
:1017C000E1690140059106B010BD000000540040E1
:1017D000001002400004004802488168027889181D
:1017E000816070473000002010B506480168102263
:1017F00011430160002000F007F800F027F80020F6
:1018000010BD00000020024070B504460D4D7D2043
:101810002978C000FEF766FC01460B480068FEF719
:1018200061FC00F0A1FD002809D1042C07D20022A0
:101830002146401E00F02AF800206C6070BD012097
:1018400070BD0000300000201400002008B50848DA
:101850008169012211438161816911400091C2694E
:1018600001040A43C261C0690840009008BD00003D
:1018700000100240002805DBC106C90E0120884087
:10188000014908607047000000E100E010B502F077
:1018900061F810BD0248016882151143016070476C
:1018A00000700040F8B505460068354CC00352D5BD
:1018B000E0690026C00007D4E16920040143E1612A
:1018C000E1690140012600912E480168C90510D444
:1018D0000168821511430160FFF752FD074604E0DD
:1018E000FFF74EFDC01B642824D826480068C005B9
:1018F000F6D5206A03273F02384020D06968394076
:1019000081421CD0206A226AB843012109040A439B
:101910002262226A8A4322622062C0070FD0FFF748
:101920002FFD009008E0FFF72BFD0099411A1648A3
:10193000814201D90320F8BD206A8007F3D5206ACF
:101940006968B84308432062002E04D0E169012091
:1019500000078143E1612878C00705D0206BA968A2
:1019600080088000084320632878800605D5206B16
:1019700010218843E968084320630020F8BD000077
:10198000001002400070004088130000F8B50F46B8
:10199000060059D03A4D2868C007C00FB84209D296
:1019A000286840084000384328602868C007C00FF6
:1019B000B84249D13068334C81070CD5400704D573
:1019C000606807210902084360606068F02188436D
:1019D000B168084360603078C00726D0706801287D
:1019E0000ED0216802280ED0890700292CDA616800
:1019F0008908890001436160FFF7C2FC00900DE097
:101A000021688903F1E78901EFE7FFF7B9FC009945
:101A1000411A1D48814201D90320F8BD60680C219C
:101A20000840716889008842EFD12868C007C00F5C
:101A3000B8420BD92868400840003843286028681D
:101A4000C007C00FB84201D00120F8BD3078400770
:101A500006D56068072109028843F1680843606081
:101A600000F028F86168094A0906090F515CC8406E
:101A7000074908600020FFF7C7FE0020F8BD0000FE
:101A8000002002400010024088130000F0480008C7
:101A9000140000200448054900684968044A4905C3
:101AA000490F515CC84070471400002000100240EC
:101AB0000049000810B514A30FCB88B06C460FC4C2
:101AC00015A30FCB0FC4184A51680C200B460340D6
:101AD0001648042B16D0082B14D18B021B0F6C4612
:101AE000E45CD26A04AB1207120F9A5CC90305D5F5
:101AF00000231946FEF70CFB214601E020460C4965
:101B000001F00FFF08B010BD020304050607080925
:101B10000A0B0C0D0E0F1010010203040506070836
:101B2000090A0B0C0D0E0F100010024000127A0073
:101B300000093D00FEB5040070D02078DC4DC007E0
:101B40004AD068680007800F012807D0686800073E
:101B5000800F022809D16868C00306D52868800371
:101B60003AD560680028E7D036E06168012914D0D2
:101B700001208004002901D0052914D02A68012100
:101B800009048A432A602968814329606068002823
:101B900016D0FFF7F5FB06460EE028680121090480
:101BA00008432860F2E7296801432960F5E7FFF759
:101BB000E7FB801B64286ED828688003F7D50BE00C
:101BC000FFF7DEFB064604E0FFF7DAFB801B642824
:101BD000F1D828688003F7D42078012680070028F0
:101BE0003CDA68680007800F07D068680007800F3C
:101BF000022809D16868C00306D42868800716D572
:101C0000E06801280AD112E0E0680028286816D0B0
:101C100030432860FFF7B4FB074605E043E1FFF7D8
:101C2000AFFBC01B0228C6D828688007F7D52868F4
:101C3000F82188432169C900084328600EE0400864
:101C400040002860FFF79CFB074604E0FFF798FB85
:101C5000C01B0228AFD828688007F7D42078000777
:101C600022D5E0690028686A0ED030436862FFF729
:101C700087FB074604E0FFF783FBC01B02289AD8C6
:101C8000686A8007F7D50FE0400840006862FFF7F8
:101C900077FB074605E09DE0FFF772FBC01B0228BB
:101CA00089D8686A8007F7D420780427400700287D
:101CB00060DA00200190E869C00008D4E969B8063C
:101CC0000143E961E96901400120009101907948EF
:101CD0000168C90511D40168821511430160FFF73D
:101CE0004FFB009005E0FFF74BFB0099401A64287A
:101CF00070D870480068C005F5D5A06801280AD0E2
:101D0000002801D0052810D0286A40084000286229
:101D1000286AB84301E0286A30432862A068002896
:101D200012D0FFF72DFB00900AE0286A38432862A2
:101D3000F1E7FFF725FB0099411A5F48814249D836
:101D4000286A8007F5D50DE0FFF71AFB009006E042
:101D5000FFF716FB0099411A574881423AD8286A82
:101D60008007F5D40198002804D0E9690120000714
:101D70008143E9612078C00635D5606901280CD01F
:101D8000401D686B23D038436863686B400840008F
:101D90006863FFF7F5FA064622E0686B384368632C
:101DA000686B30436863FFF7EBFA064604E0FFF721
:101DB000E7FA801B02285BD8686B8007F7D5686B51
:101DC000F8218843A169C900084368630BE0B84360
:101DD0006863F4E74CE0FFF7D3FA801B022847D88A
:101DE000686B8007F7D4206A00285ED0696809070D
:101DF000890F022942D0012636060228286805D01C
:101E0000B0432860FFF7BCFA044633E0B0432860D3
:101E1000FFF7B6FA074604E0FFF7B2FAC01B022844
:101E200026D828688001F7D4E86AE16A0009000131
:101E30000843E862616AA06A084369683D221204A7
:101E4000914308436860286830432860FFF798FA98
:101E5000044604E0FFF794FA001B022808D828681B
:101E60008001F7D521E0FFF78BFA001B022801D98A
:101E70000320FEBD28688001F5D416E00128F8D0C3
:101E80006868E96A01221204636A02409A420AD130
:101E90000907E26A090F914205D10F218904084020
:101EA000A16A884201D00120FEBD0020FEBD0000D5
:101EB0000010024000700040881300000248416892
:101EC000491C4160704700000000002010B5044626
:101ED00000688168C9040CD5C068C00509D52046D2
:101EE000FFF7ECFF2168C86880221040FF38823875
:101EF000C86001200249400448610120607710BD9C
:101F00000004014010B500680B464068C021C94379
:101F100001400002000ECC04D870E40E5C708C0608
:101F2000A40E0904490F9C701970002A0AD101F00F
:101F3000EBF8D870587801F0E7F85870987801F00D
:101F4000E3F89870002010BD30B500680B460468B7
:101F50000F482146014088024D04800E18706D0E16
:101F600049065D70490E99706102490E4024214076
:101F7000D970002A0AD101F0C7F81870587801F01A
:101F8000C3F85870987801F0BFF89870002030BD01
:101F90007F7F7F0070B5040003D0607F002802D0EF
:101FA00006E0012070BD00202077204600F04CF8AC
:101FB000022060772168CA20486221685320486265
:101FC000204601F0B4F8FF250426002824D120681B
:101FD00081681C4A11408160216888686268636971
:101FE000104322691A43104388602168E068086141
:101FF0002068016922891204114301612068C168C7
:1020000080229143C16020688068800608D4204601
:1020100000F090F9002803D0206845626677C0E799
:102020002068016C01229204914301642068016CD4
:10203000A269114301642068456201206077002095
:1020400070BD0000BFFF8FFF10B5006808498842CF
:102050000DD10848016A0122D20311430162002216
:1020600011460220FFF712FC0220FFF703FC10BD0F
:102070000028004000100240F8B50446007F0B46DF
:10208000012839D0012020770220607720681F4680
:10209000203700268068002A30D0400600D4DE7049
:1020A00019789D7809040D435978DA7809021204E9
:1020B00011430D433978D86909060D430543586922
:1020C000996905435868084300902168CA2048620E
:1020D00021685320486220688168FF2201329143C1
:1020E00081602068C16880221140FF398239C16057
:1020F000FFF746F9074629E00220F8BD400600D464
:10210000DE70187801F008F80504587801F004F83A
:1021100000020543987800F0FFFF0543D8780004DB
:102120000543387800F0F8FF00060543D869C5E795
:10213000FFF726F9C11B7D20C000814206D9216826
:10214000FF204862032060772677F8BD2068C068CA
:10215000C007EDD02068C5612168009848642068F8
:102160008168FF2201321143816020688168120179
:102170001143816008480268012149040A43026052
:1021800082680A4382602168FF20486201206077EC
:1021900026770020F8BD000000040140F8B5044691
:1021A000007F0B4601280FD00120207702206077A6
:1021B000002A0BD0D8789D78000405435878097818
:1021C00000024903084317E00220F8BD5878C10611
:1021D00003D5EF2108400A305870D87800F09CFFF2
:1021E0000504587800F098FF00020543987800F045
:1021F00093FF05431878400305432168CA204862CD
:10220000216853204862204600F091FF0026FF27F6
:10221000002811D10F480540206845602068C1683A
:1022200080229143C1602068806880060BD42046DC
:1022300000F080F8002806D020684762042060770C
:1022400026770120F8BD2068476201206077267755
:102250000020F8BD3FFFFF00F8B50446007F0D46A3
:10226000012821D0012020770220607720680027F4
:102270008068002A1AD0400600D4EF702878AE7823
:10228000000406436878E97800020904084306431D
:102290002168CA204862216853204862204600F025
:1022A00046FF002834D114E00220F8BD400600D4D7
:1022B000EF70287800F030FF0604687800F02CFFFB
:1022C00000020643A87800F027FF0643E8780004E0
:1022D000DDE7174806402068066020688168012213
:1022E0009204914381602969E868084321688A68FB
:1022F000104388602068C16880229143C1602068D3
:10230000806880060CD4204600F014F8002807D01E
:102310002168FF2048620420607727770120F8BDFC
:102320002168FF2048620120607727770020F8BDF0
:102330007F7F7F0070B504460068C168A02291438A
:10234000C160FFF71DF87D260546F60006E0FFF7A1
:1023500017F8401BB04201D9032070BD2068C06847
:102360008006F4D5002070BD094910B5401E884292
:1023700001D9012010BD074C60610321081F01F045
:10238000E9FA0020A06107202061002010BD0000B4
:10239000FFFFFF0000E000E030B5034620331A7F66
:1023A000012A26D001221A770325CA682D02AA43E2
:1023B0008D6800242A430125AD02AA434D680068B8
:1023C0002A430125ED02AA430D682A4301252D0366
:1023D000AA430D692A4301256D03AA434D69C969C2
:1023E0002A430125AD03AA430A4342641C77002017
:1023F00030BD022030BD0000F0B502462032137F10
:10240000012B1ED0012515770223537706687468C7
:10241000B3687027BC430F682743776000680A4C95
:10242000A04205D0094CA04202D0094CA04204D1E0
:1024300080244968A34319438160557700201077B1
:10244000F0BD0220F0BD0000002C0140000400405F
:102450000040014070B5040005D025462035687F56
:10246000002802D006E0012070BD00202877204619
:1024700000F00AF802206877211D206800F0C6FEEF
:1024800001206877002070BD08B50B4A01680B4831
:10249000914205D18269C1140A438261806907E0D3
:1024A000074A914206D1C26902210A43C261C0694A
:1024B0000840009008BD0000002C014000100240C0
:1024C000000400400222014620314A7700688268F9
:1024D00001235207520F062A02D002681A430260F3
:1024E0004B7700207047F8B5054604462035287F15
:1024F000012817D001262E7702206877226890687D
:102500007727FF23B8431B02984390600A68502A3C
:1025100031D00EDC202A4BD006DC002A48D0102A0D
:102520003AD145E00220F8BD302A41D0402A33D1CB
:1025300036E0602A27D0702A12D001200003121A38
:102540002AD0824228D1CB684A688968206800F086
:10255000A1FE2068816801229203114381601BE083
:10256000CB684A688968206800F094FE2168886812
:102570003843886010E0CA684968206800F09AFF14
:102580005021206806E0CA684968206800F0A3FF6F
:102590006021206800F089FE6E7700202877F8BD62
:1025A000CA684968206800F085FF40212068F1E78B
:1025B00011462068EEE7000010B586B004461421ED
:1025C0006846FDF7EDFD2368154C002215480221F1
:1025D000A3420FD144690B041C4344614069184075
:1025E000059088026B4607C304910920039269464F
:1025F000C00610E00C4CA3420FD144691B131C43CE
:10260000446140691840059001206B4607C304905F
:10261000694603920548FEF7F5FD06B010BD0000BF
:10262000002C01400010024000040040000400485B
:10263000F8B5064604462036307F0D4601280DD0F9
:1026400001203077022070770427002A08D0042A5E
:1026500016D0082A2AD00C2A4DD137E00220F8BD26
:10266000206800F02BFE20688169082211438161F7
:1026700020688169B9438161206881692A6912E013
:10268000206800F05FFE206882690121C9020A43C8
:1026900082612068816901229202914381612068F0
:1026A00081692A6912021143816124E0206800F0E7
:1026B00089FE2068C26908210A43C2612068C16995
:1026C000B943C1612068C1692A6912E0206800F03D
:1026D000BBFE2068C1690122D2021143C16120689A
:1026E000C269012189028A43C2612068C1692A69DD
:1026F00012021143C1610120707700203077F8BDCC
:1027000070B5040005D025462035687F002802D02A
:1027100006E0012070BD00202877204600F00AF86E
:1027200002206877211D206800F070FD0120687785
:10273000002070BD7047704710B5040003D0606F73
:10274000002802D007E0012010BD002170200155B3
:10275000204600F027F824206067206801684908B7
:1027600049000160204600F0BFFF0128ECD0606AFC
:10277000002802D0204600F0C1FE206841680122F6
:10278000D2029143416020688168082291438160B0
:1027900020680168012211430160204600F014FF07
:1027A00010BD0000F0B587B0064614216846FDF75D
:1027B000F7FC2A4F012134680025294849040223E7
:1027C0000322BC4219D18669CC10264386618669F2
:1027D0002640059644690C43446140696C460840B4
:1027E00005905002039229C40120049009206946F3
:1027F000C006FEF707FD07B0F0BD1A4FBC42FAD184
:10280000C4690C43C461C4690C40059444690C4319
:10281000446140696C46084005900C20039229C42D
:102820000120049009206946C006FEF7EBFC0E4823
:102830000E4C21C42560A5608020E56060602020EA
:10284000656120610948083CFEF74AFC002801D078
:10285000FEF788F9F4666662CDE7000000380140B3
:10286000001002400044004058000240C412002002
:10287000F8B50446806F20284DD100290BD0002ADE
:1028800009D00123A0681B03984206D120690028C3
:1028900003D1C80701D00120F8BD25466035287C4A
:1028A000012838D001202874582061650253002681
:1028B000E6672220A067E06E002819D017498162E0
:1028C000E16E1748C862E16E16480863E06E134671
:1028D0004663676D21683A462431E06EFEF72AFCB4
:1028E000002805D01020E0672E7420206067D2E712
:1028F0002E7420680168FF220132114301602068B4
:10290000816801221143816020688168402211435F
:1029100081600020F8BD0220F8BD0000713600087B
:10292000AD3600082936000870477047FFB50446E9
:10293000406F83B017460D4620285CD1002D0AD089
:10294000002F08D0A168C001814207D1206900286A
:1029500004D1E80702D0012007B0F0BD2046603066
:102960000290007C012846D00298012101740020C9
:10297000E06721206067FEF703FD264640360190A0
:10298000378277820120A1680003814202D1206949
:10299000002802D02F46002511E000270FE000227A
:1029A0008021204600F044FF002815D1002F15D0CB
:1029B0002168387808857F1C708A401E7082708A72
:1029C000019B002806980090E9D100224021204672
:1029D00000F02EFF002808D00320BDE728882168DA
:1029E000C005C00D0885AD1CE6E720206067029990
:1029F00000200874B0E70220AEE7FEE701688A69AC
:102A0000D243920701D400228A6200688169C943D7
:102A1000C90703D081690122114381617047000019
:102A2000F7B5044600680E468069C043C0062BD443
:102A300020272546403520688069C043800612D58E
:102A4000701CF8D0FEF79CFC0299401AB04201D8E5
:102A5000002EF0D1606C384360646F700020A87065
:102A600028700120FEBD21681020C8612068C76160
:102A70002046FFF7C3FF20684168044A11404160C7
:102A8000606C04210843E7E70020FEBD00E800FE7B
:102A9000F8B50446164615481D46DAB20090079F61
:102AA0000023204600F054F83A462046069900F0EC
:102AB000B0F8002818D12846F5B2012809D02168BD
:102AC000300A88623A462046069900F0A2F80028AB
:102AD0000AD1206885620097002240212046069B8B
:102AE00000F04AF8002800D00120F8BD0020008046
:102AF000F8B50446164615481D46DAB2C3020090E2
:102B0000079F204600F024F83A462046069900F038
:102B100080F8002818D12846F5B2012809D021688C
:102B2000300A88623A462046069900F072F800287A
:102B30000AD1206885620097002280212046069BEA
:102B400000F01AF8002800D00120F8BD0020008015
:102B5000F0B50668059C7568064F600D38438543DF
:102B60008805800D11040843184320430543756010
:102B7000F0BD0000FF63FF03F8B51D4617460E4683
:102B8000044609E0681C07D0FEF7FAFB0699401AD4
:102B9000A8420BD8002D09D02068816930468843AF
:102BA0000FD00020B842EDD00020F8BD616C20208D
:102BB00001436164403460700020A07020700120E7
:102BC000F8BD0120EEE770B516460D4604460FE04D
:102BD000324629462046FFF723FF002801D0012076
:102BE00070BDFEF7CDFB801BA84208D8002D06D093
:102BF00020688069C0438006EAD4002070BD616C03
:102C0000202001436164403460700020A070207077
:102C1000E5E770B516460D46044611E032462946F2
:102C20002046FFF7FDFE002801D0012070BD681C82
:102C300006D0FEF7A5FB801BA84208D8002D06D0C1
:102C400020688069C0438007E8D4002070BD616CB3
:102C5000202001436164403460700020A070207027
:102C6000E3E700003EB50021174800910191029171
:102C7000416081600124134A04610260C160042242
:102C80004261017641768176C176C16111020162AD
:102C9000014620310C718462FEF778F8002801D0DB
:102CA000FDF760FF012000030190000402900094F2
:102CB00069460548FDF758FF002801D0FDF752FF8F
:102CC0003EBD0000002401405410002008B50C480F
:102CD0004169012211434161406910400022009086
:102CE00011460920FEF7D2FD0920FEF7C3FD0022A0
:102CF00011460B20FEF7CAFD0B20FEF7BBFD08BDF9
:102D00000010024030B587B014216846FDF748FA3C
:102D1000334842690121C9040A43426142690A40B9
:102D20000592426989100A43426142690A4005924C
:102D3000426949000A43426142690A400592426978
:102D400009010A4342614069264D08404C12059032
:102D5000002221462846FEF70DFB009401200024A6
:102D600001900294694628460394FEF74BFA4020EE
:102D70001D4D00906946019502941C48FEF742FAE9
:102D80000120C00300900920694601950294C00605
:102D9000FEF738FAFF2001953930154D009069464D
:102DA00002942846FEF72EFA0120400200901148B6
:102DB0000190694602942846FEF724FA0022114643
:102DC0000620FEF763FD0620FEF754FD00221146A3
:102DD0000720FEF75BFD0720FEF74CFD07B030BD76
:102DE00000100240000800480000111000140048C4
:102DF000000400480000211010B51348114901607B
:102E000012494160002181600161416181610122BB
:102E1000C161C2600162FEF703FB002801D0FDF72B
:102E2000A1FE00210848FEF7B1FA002801D0FDF705
:102E300099FE00210448FEF7CEFA002801D0FDF7E4
:102E400091FE10BD00540040D81000200E09002053
:102E500010B590B014216846FDF7A2F9002428218E
:102E600006A80594FDF79CF92649274812C07F2142
:102E700001608460C460FF21046141600838FFF78D
:102E800089F8002801D0FDF76DFE68460470447093
:102E900084700394002269461B480494FFF7DCF910
:102EA000002801D0FDF75EFE0120694608754875CF
:102EB000172088756220C875002205A91248FFF7FF
:102EC0006DF9002801D0FDF74DFE68460476447682
:102ED00084760E480B90C00107940D9009940A94D3
:102EE0000C94052108A80176FF2001300F900022E4
:102EF00006A90548FFF7C0F8002801D0FDF732FE0B
:102F000010B010BD00280040241100200000808077
:102F100010B596B000240F94109411941294139449
:102F20001C2108A81494FDF73BF920216846FDF701
:102F300037F92C482A4901602F21846041600461DF
:102F4000446129498461C160FFF784FA002801D0F7
:102F5000FDF708FE012000030F900FA92148FFF79D
:102F6000C2FA002801D0FDF7FDFD1E48FFF7C8FB9F
:102F7000002801D0FDF7F6FD202013A911C1194842
:102F80000839FFF739FA002801D0FDF7EBFD602082
:102F90000890FF202D300E9409900A940C940D9403
:102FA0000C2208A90F48FFF743FB002801D0FDF7CA
:102FB000D9FD0120009440030294059001940394EC
:102FC0000494694607940748FFF7E6F9002801D002
:102FD000FDF7C8FD0348FFF7EFFA16B010BD00007B
:102FE000002C014044110020E703000010B58EB012
:102FF00000240794089409940A940B941C216846B1
:103000000C94FDF7CDF821481F4901602F21846001
:10301000416004611E498461C160FFF71BFA00280A
:1030200001D0FDF79FFD01200003079007A9174875
:10303000FFF759FA002801D0FDF794FD1348FFF778
:103040005FFB002801D0FDF78DFD0B940BA90F4805
:103050000C94FFF7D1F9002801D0FDF783FD602023
:103060000090FF20F53001900294082269460494F4
:103070000648FFF7DDFA002801D0FDF773FD03488D
:10308000FFF79AFA0EB010BD000400408411002032
:10309000E703000010B50C480A4901604B21C90143
:1030A000416000218160C16001618161C1610C22C8
:1030B000016242614162FFF73FFB002801D0FDF74A
:1030C00051FD10BD00380140C411002010B50C485E
:1030D0000A4901604B21C901416000218160C16042
:1030E00001618161C1610C22016242614162FFF7AD
:1030F00023FB002801D0FDF735FD10BD0044004042
:10310000441200207047704701090A22000751430A
:10311000000F4018C0B27047002102E00A38C0B268
:10312000491C0A28FAD20907090E0843704770B5EE
:1031300004460068C168490613D40021C943C16030
:10314000FEF71EF97D260546F60006E0FEF718F9A3
:10315000401BB04201D9032070BD2068C068400602
:10316000F4D5002070BD000010B50248FEF7AEFE99
:1031700010BD000024110020704710B5FEF72CFB95
:1031800010BD000030B595B030216846FDF708F855
:1031900000240C940D940E940F9410941194129496
:1031A0001394FEF777FB1648016A18221143016257
:1031B00016200090012003900290059010200490AA
:1031C00006900520C00402250A90089509940B94E6
:1031D0006846FEF7AFFC07200C900E9401210D9578
:1031E0000F940CA8FEF7D2FB064810900012119025
:1031F0001294139410A8FEF755FB15B030BD0000D3
:10320000001002402100010070470000F0B5026884
:103210001A4B1B4C984201D0A04203D17025AA43FF
:103220004D682A43174D184E184F98420AD0A042B5
:1032300008D0174CA04205D0A84203D0B04201D01C
:10324000B84205D11446032212029443CA682243AD
:103250008024A2434C69224302608A68C2620A68E1
:103260008262984205D0A84203D0B04201D0B84251
:1032700001D10969016301214161F0BD002C0140C8
:10328000000400400040014000440140004801406B
:103290000020004030B58468FF252D021B02134337
:1032A000AC430B432343836030BD826870239A4351
:1032B0000A4307210A43826070470000F0B5026AA2
:1032C000520852000262056A436882697024A24370
:1032D00092080C6892001443022295438A68164EA5
:1032E0002A43144DA84207D0B04205D0134FB8422C
:1032F00002D0134FB84206D10827BA43CF6817430C
:10330000042297433A46A84207D0B04205D00B4D5D
:10331000A84202D00A4DA84206D103252D02AB4394
:103320004D691D438B692B43436084614968416348
:103330000262F0BD002C0140004001400044014009
:103340000048014070B5026A10239A430262056A80
:103350004268836973242402A3430C6824021C433B
:1033600020239D438B681B012B43124DA84208D19B
:103370001D46CB688026B5431B012B434025AB433C
:1033800008E00D4DA84205D00C4DA84202D00C4DCE
:10339000A84208D10325AD02AA434D69AD001543EB
:1033A0008A6992002A4342608461496881630362AA
:1033B00070BD0000002C014000400140004401406D
:1033C0000048014070B5026AFF2301339A4302624C
:1033D000056A4368C2697024A24392080C6892008F
:1033E00014430122520295438A6812022A43124D65
:1033F000A84208D11546CA68C614B54312022A432A
:103400000515AA4308E00D4DA84205D00C4DA84271
:1034100002D00C4DA84208D103252D03AB434D69C2
:103420002D011D438B691B012B434360C461496817
:10343000C163026270BD0000002C014000400140E9
:10344000004401400048014030B5026A01231B03DB
:103450009A430262046A4268C36973252D02AB4332
:103460000D682D021D4301235B039C438B681B03E6
:1034700023430C4CA04208D00B4CA04205D00B4C6F
:10348000A04202D00A4CA04205D10124A403A243C9
:103490004C69A40122434260C5614968016403622A
:1034A00030BD0000002C01400040014000440140BC
:1034B0000048014030B5036A046A6408640004628D
:1034C0008469F025AC43120122430A24A3430B4331
:1034D0008261036230BD30B5036A1024A3430362E6
:1034E0008469036A0F252D031203AC432243A024F1
:1034F000A343090119438261016230BD10B5818C7B
:10350000C90707D001684A6801235B049A43836AAC
:103510001A434A60818C890707D501684A680123EC
:103520001B049A43C36A1A434A60818C490707D532
:1035300001684A6801239B049A43036B1A434A605B
:10354000818C090707D501684A680123DB039A4388
:10355000436B1A434A60818CC90607D5026891689B
:1035600001231B039943836B19439160818C890666
:1035700007D501688A6801235B039A43C36B1A432A
:103580008A60818C490612D503685A6801210905B1
:10359000046C8A4322435A60026C8A4207D1026853
:1035A000516803235B059943436C19435160818C37
:1035B000090607D501684A680123DB04806C9A4339
:1035C00002434A6010BD0000F8B500260446C667F5
:1035D000FDF7D6FE054620680068124F000709D5A2
:1035E00001212B46002249052046009700F020F9D2
:1035F00000280DD12068006840070BD501212B461B
:10360000002289052046009700F012F9002801D019
:103610000320F8BD20206067A06760342674002076
:10362000F8BD0000FFFFFF0170B5446A606FA56F31
:103630002168896800260906002906DA212804D1B4
:1036400052200653204600F046F820688068400665
:1036500006D5222D04D15A200653204600F02BF81F
:10366000E06F10210843E0672046FFF764F870BD63
:1036700010B501468969406A202914D000225A21D8
:103680000A5201680A68FF2301339A430A600168FD
:103690008A68520852008A6001688A6840239A4307
:1036A0008A6020218167FFF73FF910BD10B5406A9D
:1036B000FFF73BF910BD01680A68FF2321339A43E5
:1036C0000A6001688A68520852008A602021816776
:1036D00000210166704701680A68C0239A430A60A6
:1036E000202141677047000070B504468068216959
:1036F000E2690843616900251143226808431168A3
:10370000444B1940014311602168486803221203A9
:103710009043E26810434860A169206A2268084328
:1037200091680B231B029943014391603A49206839
:10373000884210D13948006B8007800F11D00128D2
:1037400005D0022805D003280AD1022009E0042070
:1037500007E0082005E03249884201D1002000E05E
:1037600010200122E169D2032E4E914228D1002877
:1037700006D0022807D0042817D0082844D11AE020
:10378000FEF788F913E06168274A48088018FCF7BB
:10379000A9FC80B201461039B14235D82149491CF3
:1037A00001400007400F084321E0FEF783F96168FC
:1037B00040004A08EAE76168012248081204E5E788
:1037C000002806D0022807D0042813D008281BD1CF
:1037D00016E0FEF75FF90FE06168144A480811E04F
:1037E000FCF780FC80B201461039B1420CD8216848
:1037F000C8600AE0FEF75EF961684A081018EFE752
:10380000616848088018EBE70125002020666066A3
:10381000284670BDF369FFFF0038014000100240E8
:1038200000440040EFFF00000024F40000127A0082
:10383000FFB581B005460F46044660350A9E38E064
:10384000701C36D0FDF79CFD0499401AB04221D877
:10385000002E1FD02068016849072AD5C069C043DF
:10386000000526D401202168C00208622068016892
:10387000FF22A13291430160206881684908490014
:10388000816020206067A067E06700202874032023
:1038900005B0F0BD20680168FF22A13291430160AC
:1038A0002068816849084900816020206067A0671E
:1038B000EBE72068C1693846884305D000210398AA
:1038C0008142BDD00020E3E70121F8E70FB410B535
:1038D00004A9074B02AA039800F028F9044602A99C
:1038E000002000F0BFFC204610BC08BC04B0184704
:1038F000654200082021020C01D010211046020A66
:1039000001D010460839020901D01046091F82086B
:1039100001D01046891E420801D0881E7047081A3F
:103920007047F8B5040C8BB2264682B25E430D0C8C
:103930001046370C58433604801900217941164649
:103940006E43370C36048019794126466E43891937
:10395000F8BD00008307FF22DB0E9A408907090E9D
:103960009940002808DB830809489B001B18186849
:1039700090430843186070470007000F0838830819
:1039800004489B001B18D86990430843D8617047CE
:1039900000E400E000ED00E002E008C8121F08C1EA
:1039A000002AFAD170477047002001E001C1121FC0
:1039B000002AFBD170470000F0B51FB486B009980B
:1039C000089A030D0021024314D05148514A181897
:1039D000504305141198012810981AD0281A401C39
:1039E00000264D4F4D49009601910490002812DAAF
:1039F000444211E01198012449A3012801D11098F3
:103A0000C1430698119A84600360C26041600BB0A4
:103A1000F0BD4042E4E70446210500203F4A001C77
:103A200051410391029012E0E00707D032463B4635
:103A300001990098FCF746FD0191009032463B4603
:103A400010461946FCF73EFD06460F466410002C52
:103A5000EAD10498039B0028029A0999089806DA8B
:103A6000FCF730FD019B009AFCF72CFD05E0FCF70C
:103A700091FD019B009AFCF78DFD04460E46002245
:103A8000284BFCF765FF03D80020C043014607E040
:103A90000022254B20463146FCF762FCFCF738FF3C
:103AA000102409E0002C0ADB0A220023FCF730FB7B
:103AB000079B30321A55641E02460A43F2D1112286
:103AC000641C079B121B1C19119B012B03D00123A3
:103AD00008430ED10AE0084304D0112010900020C2
:103AE000119077E71098151A6D1E0BE0109882421E
:103AF00002DD00236D1C03E0824201DA00236D1E0B
:103B0000002BEED0069811998260C16030C07EE72C
:103B100001FCFFFF104D0000000014400000F03FCA
:103B2000300000000000F0430000E03FFFB597B018
:103B30000646002518E2252877D100242746FD49AE
:103B4000049400E00443761C32780120203A90402F
:103B50000842F7D130782A280ED002223078014668
:103B60003039092916D804990A23594330394018A5
:103B70001443761C0490F1E7189802C80491189039
:103B8000002904DA01204003044348420490022043
:103B90000443761C30782E2814D104200443707816
:103BA000761C2A2809D11898761C80C8189009E03C
:103BB0000A214F43303FC719761C3078014630390F
:103BC0000929F5D930786C2810D006DC4C281AD099
:103BD00068280ED06A2817D104E0742813D07A28F8
:103BE00012D110E00120400504430CE00121090539
:103BF00001E0032109050C437178814203D10120C2
:103C000000052418761C761C3078119066280BD09D
:103C100013DC58287DD009DC00287BD04528F6D05D
:103C20004628F4D047281AD1A5E118E0632835D0FA
:103C3000642870D0652812D19DE170286CD008DC12
:103C40006728F1D069287BD06E280DD06F2806D167
:103C5000BAE073282ED0752871D0782859D01A9AD6
:103C6000199990476D1C7EE16002400F022809D02F
:103C700003280DD00428189801680DD00D60001D90
:103C8000189070E11898EA1701680D604A60F6E72D
:103C9000189801680D80F2E70D70F0E718986A46F1
:103CA00001781172001D18900020507202A8009037
:103CB000012005E0189802C8189000200091C04328
:103CC00061070DD5002101E00199491C0191B9421C
:103CD00012DA8142F8DB009A515C0029F4D10BE042
:103CE000002101E00199491C01918142FADB019A0E
:103CF0000099895C0029F5D1019904981A9B471A0B
:103D000021463846199A00F097FA0199401945184A
:103D10000BE04FE02CE113E04EE0009800990078B2
:103D2000491C00911A9A199990470198401E0190D8
:103D3000401CF2D1214638461A9B199A10E137E00F
:103D40000A200021009001916002410F022907D052
:103D5000189A01CA1892C2179446032908D00AE09B
:103D60001898C01DC108C90005C91891944607E0FC
:103D700000B2C2179446042902D140B2C1178C4642
:103D800000226146944506DA0A46002140429141EC
:103D90008C462D2102E0210504D52B216A461173A2
:103DA000012103E0E10701D02021F7E7029155E06E
:103DB0000A200AE0102008E01020009000210420D2
:103DC00004430191082703E008200021019100909D
:103DD0006002410F022907D0189A01CA18920022E6
:103DE0009446032908D008E01898C01DC108C900EE
:103DF00005C91891944603E080B2042900D1C0B2ED
:103E000000210291210729D51199702906D0009A25
:103E10001021019B4A401A4305D00EE040216A461A
:103E20001173012108E06146014306D030216A4642
:103E300011731199517302210291009A0821019B7B
:103E40004A401A430AD16146014301D1610705D5B1
:103E500030216A46117301217F1E02911199582960
:103E600004D035A10E910DA90D910DE037A1F9E710
:103E70006146019B009AFCF74BF90E9B8C469B5CBC
:103E80000D9A521E0D92137061460143F0D10D98A8
:103E900005A9081A20300190600703D5012000040D
:103EA000844300E001270198874201DD381A00E0D1
:103EB0000020019900904118029809180498401AAE
:103EC0000490E00306D421461A9B199A049800F046
:103ED000B3F94519002706E003A81A9AC05D19999D
:103EE00090476D1C7F1C02988742F5DBE0030CD5E0
:103EF00021461A9B199A049800F09EF9451904E08E
:103F00001A9A3020199990476D1C0099481E00900C
:103F10000029F5DC08E00D980D990078491C0D91F9
:103F20001A9A199990476D1C0199481E0190002911
:103F3000F1DC63E1092801003031323334353637A2
:103F400038396162636465660000000030313233E5
:103F50003435363738394142434445460000000085
:103F600000F05AF94519761C3078002800D0E2E5B7
:103F700028461BB0F0BD600700D406271898C01D66
:103F8000C108C90048680A680831C30FDB071891E7
:103F9000190001D09CA108E0210501D59BA104E0F6
:103FA000E10701D09AA100E09AA1430011985B08B3
:103FB000109165280CD006DC452809D046281DD074
:103FC000472841D141E0662818D067283CD13CE021
:103FD0000021112F01DB112000E0781C01910090DD
:103FE00008A911A8FFF7E8FC139905910021119A7F
:103FF00015927F1C12980197009150E00120C00794
:1040000003900120019008A9009711A8FFF7D4FCA4
:10401000139A149905920022119B009212981593FD
:10402000059A0192002901D0104602E0791C40183F
:104030000190381A01D5019804E04042401E0090DA
:10404000781C0190C01B029043E0012F00DA012789
:104050000021112F01DD112000E038460191009070
:1040600008A911A8FFF7A8FC13990591119A00213E
:10407000129815920091019721070CD40599B94225
:1040800001DB019900E00191012904DD159A491E27
:10409000515C302906D0B84201DA011D05DA012150
:1040A000029115E00199491EEDE7002805DC009911
:1040B000411800910199091A03E0019A411C9142AB
:1040C00000DD01910099401A401C02900120C007B8
:1040D0000390200706D402990198814202DB002058
:1040E000C043029000206946C87707AF01210398BA
:1040F0000337C907884224D0022011902B20129048
:10410000039800280CDA404203902D20129007E01B
:104110000A210398FBF7E6FF30317F1E03903970C8
:104120001199481E11900029F2DC03980028EFD164
:10413000791E129808703078202108404530BF1E43
:10414000387006A8C01BC01D039010980078002886
:1041500000D00120019941180298C017091803984E
:1041600009180498401A401E0490E00306D4214622
:104170001A9B199A049800F05FF845191098007876
:10418000002803D01A9A199990476D1CE00324D592
:1041900021461A9B199A049800F04EF845191CE024
:1041A0000098002807DB00990598884203DD1598E0
:1041B000405C199901E0199930201A9A90470098AB
:1041C0006D1C401C00900298401E0290002804D1F3
:1041D0001A9A2E20199990476D1C0199481E01903A
:1041E0000029DDDC05E038781A9A7F1C1999904780
:1041F0006D1C0399481E03900029F4DC21461A9B8C
:10420000199A0498ACE600002D0000002B00000075
:104210002000000000000000F8B5044600251E46FE
:104220001746880404D405E039462020B0476D1CA9
:10423000641EF9D52846F8BDFFB50446002581B0B7
:104240001E46C80301D5302700E02027880404D586
:1042500005E038460399B0476D1C641EF9D5284621
:1042600005B0F0BD0A68531C0B6010707047000069
:10427000F0B5084A3123DE00B5182C46803CA76F04
:1042800097515B1EE46F1B066C601B0EF3D103C2DB
:10429000F0BD000014130020FFB58E46144984467B
:1042A0000D684B682C461A460026F0000F58AF42A6
:1042B00000D93D46A74200D23C46401847689F427D
:1042C00000D93B46974200D23A46761CF6B2322ECF
:1042D000EBD3281B6146088028194108704601600D
:1042E0000299981A08809818410803980160FFBD48
:1042F0001413002070B500230A4C1A461946CD004D
:1043000066592D196D68491CF318AA18C9B20729F6
:10431000F5D30168C918C908016041688918C9083E
:10432000416070BD141300208CB0FDF75DFAFEF7FC
:1043300029FFFEF7E7FCFEF7C9FCFEF75DFDFEF77F
:1043400087FDFEF7E5FDFEF751FEFEF7A3FEFEF743
:1043500089FCFEF7BBFE622108A8C1730A214173E4
:10436000172181730521017300216846017641768A
:1043700081760A460BA93948FDF710FF002206A9ED
:104380003648FDF769FF052235493648FEF770FAD1
:10439000334835A13238FFF799FA3149C2B27D234B
:1043A000DB0032392F48FEF7C1FA2D496422323141
:1043B0003048FCF7F7FD3048FEF784F8012251033E
:1043C0002E48FCF7D7FF00F00FFA2D4D2C46103C7D
:1043D00000222B492148FDF795FD002229491F485D
:1043E000FDF7B2FDA068FCF76DF96421009180B281
:1043F0000023254A254900F07DF8FCF795F9214B6B
:10440000AA789F785E781B78029203AAC8C26B785C
:10441000EA7800920246019311480B461CA13238FB
:10442000FFF754FA7D260E49C2B2F6003346323900
:104430000C48FEF77BFA0A482378627824A13238C8
:10444000FFF744FA0649C2B2334632390548FEF74F
:104450006DFA3046FCF7A4FEBAE7000024110020F4
:104460006E00002044120020537461727465640A67
:1044700000000000541000204411002000080048F3
:104480001000002040100020430F0000B80B000077
:10449000426174746572793A20252E316625252093
:1044A0002D204461746554696D653A203139253099
:1044B00032642D253032642D25303264202530328F
:1044C000643A253032643A253032640A0000000034
:1044D0007C5F5F5F5F204865617274526174653A0A
:1044E00020253364202D2053704F323A2025336429
:1044F000200A0000FFB581B01F4615460C4618463D
:10450000FCF7CBF80646281BFCF7BCF805460198DB
:104510000A99001BC91B4843FCF7B4F82946FBF76E
:10452000E0FE3146FBF747FE05B0F0BDF0B58DB0BB
:1045300000F032F906460146684600F0C3F85148DB
:104540000024476997E0E000694645184E486968CD
:10455000814205D24B49002008704870088188E0EC
:104560002A7810466A7812021043AA78120410437F
:10457000EA7812061043FFF77BFE424B10331A46CF
:104580000A3A911D901EFFF787FE2846FFF7B2FEFC
:104590003C480069FCF781F80A903A48C088FCF76B
:1045A0007CF80A99FBF79DFE0B903648C068FCF733
:1045B00074F80A9033488088FCF76FF80A99FBF783
:1045C00090FE0B99FBF78DFE3049314A411891421C
:1045D0000BD23049FBF748FE2F49FBF741FEFCF7B1
:1045E00071F801462748417011E02C492C4A4118C6
:1045F00091420CD22B49FBF737FEFCF795F82A4A7B
:104600002A4BFBF757FFFCF771F81E4948706D689D
:10461000781B01B21B483229018125DD0746BB7892
:104620000C2B21D9224909200A19203AD27F401E99
:1046300000060A55000EFAD10B70095D0022401CDD
:104640008A18C0B20A28FAD31046FCF726F8FCF7FD
:104650006BF802460B4600201649FBF79BFFFCF760
:1046600045F838700020B87006482F468178491CFC
:104670008170641CE4B2B44200D264E7014847612F
:104680000DB0F0BD18000020409C000014AE47C1E2
:10469000D7A370000000A0410000D6423D0AD7C059
:1046A0003D0A57000000584214AE47E17A3460409A
:1046B00008130020004CDD4001490820085E7047C7
:1046C00018000020F0B58BB00C460646052900D92D
:1046D0000524204606225043192103AD0291019082
:1046E000012307220095AF211248FCF7F3FE0022B8
:1046F0001BE0104606214843295C40194378090411
:104700001B021943837819438903890BD300F150A5
:10471000C178077909043F0240793943014388038E
:10472000800B9919521CD2B24860A242E1D30BB05F
:10473000F0BD0000D810002001480078704700004C
:104740001800002001484078704700001800002041
:10475000F0B585B000206946087301250A2603AC30
:104760006F4670C702462B46AF210A48FCF7B2FEDF
:1047700069460F7B01231A46AF2106480296019530
:104780000094FCF7A7FE6946097B3846084305B04C
:10479000F0BD0000D810002030B585B0002168467B
:1047A00001730174012403A80A2500902346042202
:1047B000AF21029501940B48FCF78CFE04A80090F1
:1047C00001230622AF21029501940648FCF782FEE0
:1047D0006846017B007C081A00D52030C0B205B0C5
:1047E00030BD0000D8100020F0B585B040276846E5
:1047F000077301260A2403AD33460922AE213B4844
:10480000019600950294FCF70FFF01230922AF21C6
:104810003648019600950294FCF75CFE6846007BE2
:104820004006F2D46846077301230222AE212F48C6
:10483000019600950294FCF7F7FE63216846017328
:1048400001230A22AE212948019600950294FCF723
:10485000EBFE47216846017301230C22AE21234859
:10486000019600950294FCF7DFFE01230D22AE2194
:104870001E48019600950294FCF7D6FE01231022F3
:10488000AE211A48019600950294FCF7CDFE002156
:104890006846017301230422AE2114480196009555
:1048A0000294FCF7C1FE01230522AE210F480196B8
:1048B00000950294FCF7B8FE01230622AE210B48B6
:1048C000019600950294FCF7AFFEFFF741FF03212C
:1048D0006846017301230922AE2104480196009520
:1048E0000294FCF7A1FE05B0F0BD0000D810002036
:1048F0000000000000000000010203040607080990
:104900000000000001020304284900080000002004
:104910003C00000098390008644900083C00002071
:104920006C1A0000A8390008000000000000000018
:1049300000000000000000000000000000127A00EB
:104940000000000000000000000000000000000067
:104950000000000000000000010000000400000052
:044960000000000053
:04000005080000B53A
:00000001FF
