:020000040800F2
:1000000028160020C9000008E51F0008191C000878
:1000100000000000000000000000000000000000E0
:100020000000000000000000000000002120000887
:100030000000000000000000E71F00082320000867
:10004000DB00000800000000DB000008DB00000807
:10005000DB000008DB000008DB000008DB00000814
:1000600000000000A5050008DB000008DB00000818
:1000700081040008DB000008DB000008000000002D
:10008000DB000008DB00000800000000DB000008C7
:10009000DB000008DB000008DB000008DB000008D4
:1000A000DB000008DB000008DB000008DB000008C4
:1000B000DB0000080348854600F0D0F900480047FF
:1000C0006D27000828160020044880470448004790
:1000D000FEE7FEE7FEE7FEE7FEE7FEE7A5200008F5
:1000E000B500000830B50B4601460020202201244F
:1000F00009E00D46D5409D4205D31D469540491B5C
:100100002546954040191546521E002DF1DC30BDA4
:10011000F0B51FB40646002082B005464024019188
:1001200000901BE0019922460F46304600F020F86F
:10013000049A059B801A994110D31046194622460D
:1001400000F0DCF8361A8F41019722460120002189
:10015000009F00F0D3F838184D4100902046641EEF
:100160000028DFDC019B00982946324607B0F0BD2D
:1001700010B5202A04DB0846203AD040002110BDEB
:100180000B46D340D0402024A21A91400843194680
:1001900010BDD2B201E00270401C491EFBD2704774
:1001A0000022F6E710B513460A4604461946FFF743
:1001B000F0FF204610BD0000F0B50C465C4085B055
:1001C000E40FE40703944C000026640859009446A9
:1001D000490802460296224321D062460A431ED0B5
:1001E0006200570D4A000E032303550D01240246F9
:1001F0002C492405781B1B0B360B40182343264340
:10020000614600901C46501AB44103D30098401C2C
:10021000009002E0921800985B41002803DA002069
:10022000014605B0F0BD00200121090507468646BC
:1002300011E064461D46141BB54106D36546521BAA
:10024000B341744607430C43A646CD07400849080E
:10025000284392185B4105460D43EAD110461843E6
:1002600013D06046194650407140084306D060469E
:10027000101AB34106D20122002306E00022012316
:10028000DB0702E00122D2435310009874460105B7
:10029000381C6141029C039D0019694100F07FF800
:1002A000BFE70000FD0300000EB5054902910021E3
:1002B00000910A460B46019100F07EF803B000BDA4
:1002C00033040000CB0FDB07490010B54908024694
:1002D0000A4307D00A0D07240903E401090B121B86
:1002E000002A01DC002010BDC900440F0C43C100EE
:1002F000E018D205801800F011F810BD10B5202AC2
:1003000004DB0146203A9140002010BD914020239B
:100310009C1A0346E3401943904010BD002904DABB
:10032000401C490001D140084000704770B40024CF
:10033000050C05D11024000402D1002921D011247C
:10034000050E01D100020834050F01D10001241D62
:10035000850F01D18000A41C002801DB4000641C33
:10036000002908D020252E1B0D46F540A14000D0C5
:1003700001212943084301061B1B000ADB1D02D58E
:10038000002070BC7047DB05181880180029F8DAC7
:10039000401C4900F5D170BC40084000704710B5C2
:1003A000002B08DA0024401C614192185B411A437B
:1003B00001D14008400010BDF0B51FB482B0054621
:1003C0000C0003D0084602F06FF902E002F06CF96D
:1003D00020300246009021462846FFF78FFF049BFD
:1003E000059A04460F4618431143084314D0184693
:1003F00010431BD0009840210A1A18460599FFF7B0
:10040000B7FE05460E46009A05990498FFF776FF59
:10041000084305D0012004E02046394607B0F0BD6E
:100420000020C11705430E432C43374300990E9813
:100430006305401A7905E40A00220C43FD0A0A30DC
:1004400002D500200146E9E70105101969410C9C1D
:100450000D9D00196941FFF7A2FFDFE7064C01255A
:10046000064E05E0E36807CC2B430C3C984710345C
:10047000B442F7D3FFF722FED0270008F027000888
:1004800010B5024800F068F910BD0000B80F002058
:1004900010B50146406A826B50231A420AD1816B23
:1004A00001225202114381630168CA681205920F4A
:1004B00005D020E0006B026B0846904710BD827E9D
:1004C000002A18D10A68120715D58A685307012235
:1004D000002B09DB4B680C24A3434B60816B130298
:1004E00099431143816306E0816B202319438163A3
:1004F000C16B1143C16300F00DF910BD10B5406A26
:10050000816B402211438163C16B04221143C1639B
:1005100000F021F910BD10B5406A00F01BF910BDC4
:10052000F8B5044600200090206881688907890F8B
:10053000012905D10168C9072CD1C168090429D452
:100540008168154A102611400125002915D18168BE
:1005500029438160124811490068FFF7C3FD00E09C
:10056000401E00900028FBD100F026FC07460CE05E
:1005700000F022FCC01B022807D9A06B3043A06307
:10058000E06B2843E0630120F8BD20680068C043A9
:10059000C007EDD10020F8BD1700008040420F00D9
:1005A0001400002010B5024800F09AFA10BD0000B7
:1005B000F80F002010B504460068054940181421C2
:1005C000FFF790FD800020640248E06310BD00004A
:1005D000F8FFFDBF0000024030B5056C0124AC40BF
:1005E000C56B6C60046863604368102B036803D0BC
:1005F00099600068C26030BD9A600068C16030BD1B
:1006000070470000F8B50025044620340095227D8F
:10061000012A39D00122227503689E68760767D4C3
:10062000384F4E68BE424DD09E6A0F78BA4016438E
:100630009E620123C26A1B079A421FD0012A1DD065
:10064000022A1BD0032A19D0042A17D0052A15D054
:10065000062A13D0072A11D002688B6856697607DC
:10066000760FB3420AD05369DB08DB0053610068A0
:1006700042690B7A5B075B0F1A4342610A68102AD2
:1006800004D0112A02D038E00220F8BD1E48836849
:10069000102A07D0012292051343836008681028AE
:1006A00003D02AE00122D205F6E71948174900686D
:1006B000FFF718FD0A21484300E0401E0090002883
:1006C000FBD11AE0986A0E78B240904398620968AC
:1006D000102901D0112910D10B488268102904D0AB
:1006E000012189058A43826007E00121C905F9E7F4
:1006F000816B20221143816301250020207528464B
:10070000F8BD0000011000000027014040420F002A
:100710001400002070B500200B4C0C4A7D230146CC
:10072000DB0060608D005559491C28189942F9DB9F
:100730006060FFF7B9FD0022054BFFF73DFDFFF7B5
:10074000C1FD206070BD00000000002018000020E6
:10075000000059407047704770B504460068016852
:10076000490702D54168490705D40168090730D512
:10077000416809072DD5A16BC90604D4A16B0122DC
:1007800052021143A163C1680C250905890F002994
:100790001AD1A17E002917D10168090714D58168F3
:1007A0004A070121002A08DB4268AA434260A06B85
:1007B0000A0290430843A06306E0A06B2022104386
:1007C000A063E06B0843E0632046FFF7A3FF2068C7
:1007D00005602068016809060DD5406800060AD545
:1007E000A06B012109040843A063204600F0D8F85B
:1007F00021688020086020680168C90613D5416817
:10080000C90610D5A16A1025012902D0C168C907FF
:1008100007D0E16B02221143E16305602046FFF738
:100820009AFF2068056070BDF8B5002604460028D0
:1008300005D0A06B25462035002802D007E0012016
:10084000F8BD0020E0632875204600F0ABF8A06BEF
:100850001022C006002870DB2068816849076CD42C
:10086000A16B1301994302231943A163816889078E
:10087000890F012905D10168C9070FD1C168090491
:100880000CD4C16818239943A3681943C160206838
:100890000169636889008908194301612068C1689A
:1008A0003D4B1940C160207E617E8003C90308432F
:1008B000A17E4B031843A36A012B02D001231B0323
:1008C00000E000231843E36818432369022B09D092
:1008D000002318432B79E57E5B0018430123012D8B
:1008E00002D00AE00423F4E7002927D0A16B2025D9
:1008F0002943A163E16B1943E163E1690D46FF3DC3
:10090000C23D02D0256A294308432168CD680543CA
:10091000CD600125E16A2D07A94213D0012911D02C
:1009200002290FD003290DD004290BD0052909D0A5
:10093000062907D0072905D010E028E00121090485
:100940000843DAE721684D69ED08ED004D61216843
:100950004D69A78D7F077F0F3D434D612168C968B1
:100960000E4D2940814207D10020E063A06B800832
:100970008000401CA06308E0A06B02218843104364
:10098000A063E06B1843E06301263046F8BDA06B1E
:100990001043A063F8E700001902FEFFE7FF3F8362
:1009A00070470000F0B587B0054614216846FFF790
:1009B000F7FB1F492868884237D11E4988694E15C0
:1009C000304388618869304005904A6930020243AB
:1009D0004A614969002701400591022000900320E7
:1009E0000190092069460297C00600F027F91248D5
:1009F000124C81C427608020A66060600001E06026
:100A00002020676120610D48083C00F0B7F80028FD
:100A100001D0FFF7F5FD2C63002211460C20656222
:100A200000F000FB0C2000F0F1FA07B0F0BD000070
:100A3000002401400010024008000240F80F00208E
:100A4000F7B5044600680025806840073DD4264677
:100A50002036307D01280AD001273775607E0128B5
:100A600007D02046FFF75CFD050002D02EE00220F3
:100A7000FEBDA06B16490840FF2101310843A06369
:100A80000020E0633075216B12488862216B1248A8
:100A9000C862216B1148086321681C200860206827
:100AA00041681022114341602068C1683943C16028
:100AB0002168206B4031029B019A00F089F8206880
:100AC000816804221143816000E002252846FEBDB2
:100AD000FEF1FFFF9104000817050008FD0400085F
:100AE000F0B4C16B0D6801680C680422066C1346F3
:100AF000B3402B420DD063070BD50B689B0602D485
:100B00000B6893430B60016C8A40C16B4A60C16AF9
:100B100019E00227B74002462F4001232032002F60
:100B200015D0A70713D50C68A40604D40C680A25B1
:100B3000AC430C605370036C02219940C36B596045
:100B400000211170816A002916D0F0BC08470827DF
:100B5000B7402F4210D024070ED50C680E25AC43A9
:100B60000C60046C1946A140C46B616083635370D0
:100B700000211170016BE6E7F0BC704770B504000E
:100B800021D002212046203005464170226811689C
:100B90000E48A3680140606826691843E368334340
:100BA000184363691843A3691843E369184308436A
:100BB00010602046FFF7FEFC0021A1630120687051
:100BC0002970084670BD012070BD00000FC0FFFFF6
:100BD000F8B504468C46203001780025012909D05B
:100BE0000126067041780027012905D007700225EB
:100BF0002846F8BD0220F8BD02214170A763206895
:100C0000016849084900016061462046FFF7E4FC9D
:100C1000E06A00282068016802D00E22114306E035
:100C20000A22114301602068016804229143016097
:100C30002068016831430160DAE70000FCB5002359
:100C40000124A1E027462A469F403A4073D04D68D0
:100C5000012D05D0022D03D0112D01D0122D16D15A
:100C600085680326AC465D00AE46AE406546B5439A
:100C7000AC46CE687546AE4065462E4386604668F3
:100C80000D79BE43ED06ED0F9D4035434560C668C6
:100C90005F000325BD40AE46AE4335468E68BE407C
:100CA0002E43C6604E68022E01D0122E14D1DE08EB
:100CB000B60036180196366A5D07B446EE0E0F256B
:100CC000B54000966646AE43B4460D69009EB540F9
:100CD00066462E43019D2E6206687546AE430D7929
:100CE000AD07AD0FBD40354305604D68ED004AD5F9
:100CF000284DAE692643AE61AD699E08ED07ED0F44
:100D00000095254DB6007519AC46AD689E07360FA7
:100D10000F27B740BD430927FF06B84201D100277E
:100D200010E01E4FB84201D101270BE01C4FB84222
:100D300002D1022706E026E01A4FB84201D103276C
:100D400000E00527B7402F436546AF60164E356873
:100D50004F689543FF0300D51543356075684F68AC
:100D60009543BF0300D515437560B5684F6895433B
:100D7000FF0200D51543B560F5684F689543BF0283
:100D800000D51543F5605B1C0A681546DA4000D0B3
:100D900058E7FCBD0010024000000140000400487C
:100DA00000080048000C004800040140002A01D05F
:100DB0008161704781627047014880687047000018
:100DC0000800002070B5024640325378202B1CD119
:100DD0001378012B19D00123137024245470046854
:100DE00025689D432560046825681E03B54325607A
:100DF000046825680D432560006801681943016097
:100E0000202050700020107070BD022070BD70B5A1
:100E1000024640325378202B1BD11378012B18D077
:100E2000012414702423537003681D68A5431D60BA
:100E300005682B680F263602B3430902194329605F
:100E4000006801682143016020205070002010706C
:100E500070BD022070BD000070B5040006D02546AC
:100E6000403568780026002802D005E0012070BDDA
:100E70002E70204600F04AF824206870206801682F
:100E80004908490001600F2160680906884321680C
:100E9000086121688A680120C00382438A60E16892
:100EA0000129A16808D02122920211432268916091
:100EB000E168022902D005E00143F7E70121226839
:100EC000C902516021684A680F4B1A434A60216881
:100ED000CA688243CA60616920690843A16909023E
:100EE00008432168C860216AE069084321680860F6
:100EF0002068016801221143016066642020687047
:100F00002663AE70002070BD0080000210B586B070
:100F1000044614216846FFF743F9124920688842C5
:100F20001DD1114C61690120800401436161616937
:100F300001400591C0200090122001210190032062
:100F400002910491039069460848FFF777FEE16932
:100F5000012040050143E161E1690140059106B0CE
:100F600010BD000000540040001002400004004882
:100F70000248816802788918816070470800002063
:100F800010B506480168102211430160002000F0EE
:100F900007F800F027F8002010BD000000200240F4
:100FA00070B504460D4D7D202978C000FFF79AF8F2
:100FB00001460B480068FFF795F800F0CFFB0028CA
:100FC00009D1042C07D200222146401E00F02AF845
:100FD00000206C6070BD012070BD00000800002082
:100FE0001400002008B5084881690122114381617D
:100FF000816911400091C26901040A43C261C0695C
:101000000840009008BD000000100240002805DBE9
:10101000C106C90E012088400149086070470000E0
:1010200000E100E010B501F06FFB10BD024801685F
:10103000821511430160704700700040F8B5054605
:101040000068354CC00352D5E0690026C00007D4C3
:10105000E16920040143E161E16901400126009159
:101060002E480168C90510D401688215114301603A
:10107000FFF7A2FE074604E0FFF79EFEC01B6428B0
:1010800024D826480068C005F6D5206A03273F0209
:10109000384020D06968394081421CD0206A226AD9
:1010A000B843012109040A432262226A8A43226268
:1010B0002062C0070FD0FFF77FFE009008E0FFF727
:1010C0007BFE0099411A1648814201D90320F8BDE0
:1010D000206A8007F3D5206A6968B8430843206214
:1010E000002E04D0E169012000078143E1612878E6
:1010F000C00705D0206BA9688008800008432063E2
:101100002878800605D5206B10218843E9680843BC
:1011100020630020F8BD0000001002400070004075
:1011200088130000F8B50F46060059D03A4D2868DC
:10113000C007C00FB84209D22868400840003843B1
:1011400028602868C007C00FB84249D13068334CC6
:1011500081070CD5400704D56068072109020843C0
:1011600060606068F0218843B1680843606030784F
:10117000C00726D0706801280ED0216802280ED042
:10118000890700292CDA61688908890001436160B8
:10119000FFF712FE00900DE021688903F1E7890155
:1011A000EFE7FFF709FE0099411A1D48814201D976
:1011B0000320F8BD60680C210840716889008842EE
:1011C000EFD12868C007C00FB8420BD92868400883
:1011D0004000384328602868C007C00FB84201D0DB
:1011E0000120F8BD3078400706D560680721090264
:1011F0008843F1680843606000F028F86168094A94
:101200000906090F515CC840074908600020FFF734
:10121000C7FE0020F8BD0000002002400010024080
:1012200088130000B827000814000020044805496E
:1012300000684968044A4905490F515CC840704735
:101240001400002000100240C827000810B514A3A5
:101250000FCB88B06C460FC415A30FCB0FC4184A30
:1012600051680C200B4603401648042B16D0082B5F
:1012700014D18B021B0F6C46E45CD26A04AB1207DC
:10128000120F9A5CC90305D500231946FEF740FFEB
:10129000214601E020460C4901F01DFA08B010BDBE
:1012A00002030405060708090A0B0C0D0E0F1010A7
:1012B0000102030405060708090A0B0C0D0E0F10A6
:1012C0000010024000127A0000093D00FEB5040043
:1012D00070D02078DC4DC0074AD068680007800FC6
:1012E000012807D068680007800F022809D16868C4
:1012F000C00306D5286880033AD560680028E7D087
:1013000036E06168012914D001208004002901D051
:10131000052914D02A68012109048A432A60296812
:10132000814329606068002816D0FFF745FD064616
:101330000EE028680121090408432860F2E72968C3
:1013400001432960F5E7FFF737FD801B64286ED85D
:1013500028688003F7D50BE0FFF72EFD064604E072
:10136000FFF72AFD801B6428F1D828688003F7D492
:1013700020780126800700283CDA68680007800F83
:1013800007D068680007800F022809D16868C00389
:1013900006D42868800716D5E06801280AD112E033
:1013A000E0680028286816D030432860FFF704FD65
:1013B000074605E043E1FFF7FFFCC01B0228C6D843
:1013C00028688007F7D52868F82188432169C90073
:1013D000084328600EE0400840002860FFF7ECFC5E
:1013E000074604E0FFF7E8FCC01B0228AFD82868D6
:1013F0008007F7D42078000722D5E0690028686AC2
:101400000ED030436862FFF7D7FC074604E0FFF7D1
:10141000D3FCC01B02289AD8686A8007F7D50FE072
:10142000400840006862FFF7C7FC074605E09DE002
:10143000FFF7C2FCC01B022889D8686A8007F7D46E
:10144000207804274007002860DA00200190E8692E
:10145000C00008D4E969B8060143E961E9690140BF
:1014600001200091019079480168C90511D40168F3
:10147000821511430160FFF79FFC009005E0FFF724
:101480009BFC0099401A642870D870480068C00519
:10149000F5D5A06801280AD0002801D0052810D071
:1014A000286A400840002862286AB84301E0286A98
:1014B00030432862A068002812D0FFF77DFC00901E
:1014C0000AE0286A38432862F1E7FFF775FC0099C3
:1014D000411A5F48814249D8286A8007F5D50DE056
:1014E000FFF76AFC009006E0FFF766FC0099411ADE
:1014F000574881423AD8286A8007F5D401980028D5
:1015000004D0E969012000078143E9612078C00621
:1015100035D5606901280CD0401D686B23D0384355
:101520006863686B400840006863FFF745FC064647
:1015300022E0686B38436863686B30436863FFF789
:101540003BFC064604E0FFF737FC801B02285BD813
:10155000686B8007F7D5686BF8218843A169C900DB
:10156000084368630BE0B8436863F4E74CE0FFF7B7
:1015700023FC801B022847D8686B8007F7D4206AB9
:1015800000285ED069680907890F022942D0012628
:1015900036060228286805D0B0432860FFF70CFC07
:1015A000044633E0B0432860FFF706FC074604E03A
:1015B000FFF702FCC01B022826D828688001F7D458
:1015C000E86AE16A000900010843E862616AA06A0A
:1015D000084369683D221204914308436860286803
:1015E00030432860FFF7E8FB044604E0FFF7E4FB24
:1015F000001B022808D828688001F7D521E0FFF7F2
:10160000DBFB001B022801D90320FEBD28688001F6
:10161000F5D416E00128F8D06868E96A01221204BE
:10162000636A02409A420AD10907E26A090F9142AD
:1016300005D10F2189040840A16A884201D0012008
:10164000FEBD0020FEBD0000001002400070004002
:101650008813000070B5040003D0607F002802D01A
:1016600006E0012070BD00202077204600F04CF8F5
:10167000022060772168CA204862216853204862AE
:10168000204600F0B1FCFF250426002824D1206864
:1016900081681C4A114081602168886862686369BA
:1016A000104322691A43104388602168E06808618A
:1016B0002068016922891204114301612068C16810
:1016C00080229143C16020688068800608D420464B
:1016D00000F02AF8002803D0206845626677C0E74A
:1016E0002068016C01229204914301642068016C1E
:1016F000A2691143016420684562012060770020DF
:1017000070BD0000BFFF8FFF00680549884205D10A
:101710000448016A0122D2031143016270470000AC
:10172000002800400010024070B504460068C168FF
:10173000A0229143C160FFF73FFB7D260546F600DE
:1017400006E0FFF739FB401BB04201D9032070BD12
:101750002068C0688006F4D5002070BD094910B526
:10176000401E884201D9012010BD074C6061032151
:10177000081F00F0C9FF0020A061072020610020A1
:1017800010BD0000FFFFFF0000E000E030B50346A1
:1017900020331A7F012A26D001221A770325CA682E
:1017A0002D02AA438D6800242A430125AD02AA43D5
:1017B0004D6800682A430125ED02AA430D682A43BB
:1017C00001252D03AA430D692A4301256D03AA4370
:1017D0004D69C9692A430125AD03AA430A434264FE
:1017E0001C77002030BD022030BD0000F0B502465D
:1017F0002032137F012B1ED001251577022353774A
:1018000006687468B3687027BC430F682743776025
:1018100000680A4CA04205D0094CA04202D0094CF5
:10182000A04204D180244968A343194381605577BD
:1018300000201077F0BD0220F0BD0000002C014018
:10184000000400400040014070B5040005D025466A
:101850002035687F002802D006E0012070BD0020FE
:101860002877204600F00AF802206877211D2068BA
:1018700000F01AFC01206877002070BD08B50B4A03
:1018800001680B48914205D18269C1140A43826103
:10189000806907E0074A914206D1C26902210A43E2
:1018A000C261C0690840009008BD0000002C0140E2
:1018B00000100240000400400222014620314A7715
:1018C0000068826801235207520F062A02D002687C
:1018D0001A4302604B7700207047F8B5054604466E
:1018E0002035287F012817D001262E77022068771F
:1018F000226890687727FF23B8431B0298439060C3
:101900000A68502A31D00EDC202A4BD006DC002A8F
:1019100048D0102A3AD145E00220F8BD302A41D003
:10192000402A33D136E0602A27D0702A12D0012015
:101930000003121A2AD0824228D1CB684A688968EB
:10194000206800F0F5FB20688168012292031143B2
:1019500081601BE0CB684A688968206800F0E8FB7A
:10196000216888683843886010E0CA684968206840
:1019700000F0EEFC5021206806E0CA684968206843
:1019800000F0F7FC6021206800F0DDFB6E7700209E
:101990002877F8BDCA684968206800F0D9FC402162
:1019A0002068F1E711462068EEE7000010B586B028
:1019B000044614216846FEF7F3FB2368154C002209
:1019C00015480221A3420FD144690B041C43446112
:1019D00040691840059088026B4607C304910920AE
:1019E00003926946C00610E00C4CA3420FD1446933
:1019F0001B131C43446140691840059001206B464D
:101A000007C30490694603920548FFF717F906B02B
:101A100010BD0000002C01400010024000040040F6
:101A200000040048F8B5064604462036307F0D46CF
:101A300001280DD001203077022070770427002A7A
:101A400008D0042A16D0082A2AD00C2A4DD137E013
:101A50000220F8BD206800F07FFB20688169082221
:101A60001143816120688169B9438161206881697E
:101A70002A6912E0206800F0B3FB20688269012126
:101A8000C9020A438261206881690122920291435E
:101A90008161206881692A6912021143816124E011
:101AA000206800F0DDFB2068C26908210A43C2619A
:101AB0002068C169B943C1612068C1692A6912E01F
:101AC000206800F00FFC2068C1690122D202114396
:101AD000C1612068C269012189028A43C26120680C
:101AE000C1692A6912021143C16101207077002087
:101AF0003077F8BD70B5040005D025462035687FE5
:101B0000002802D006E0012070BD00202877204682
:101B100000F00AF802206877211D206800F0C4FA5E
:101B200001206877002070BD704710B5040003D015
:101B3000606F002802D007E0012010BD0021702056
:101B40000155204600F026F82420606720680168CF
:101B5000490849000160204600F0B4FC0128ECD09F
:101B6000606A002802D0204600F016FC2068416818
:101B70000122D2029143416020688168082291438A
:101B8000816020680168012211430160204600F055
:101B900069FC10BDF0B587B0044614216846FEF715
:101BA000FFFA1A4F0121266800221948490402232E
:101BB00003240125BE420ED18769CE1037438761C9
:101BC00087693740059746690E434661406908407A
:101BD000059060020FE00F4FBE4215D1C6690E435B
:101BE000C661C6690E40059646690E434661406966
:101BF000084005900C200090019302AE34C60920E5
:101C00006946C006FFF71AF807B0F0BD003801407A
:101C10000010024000440040FEE700003EB50021F5
:101C20001748009101910291416081600124134A9B
:101C300004610260C16004224261017641768176CE
:101C4000C176C16111020162014620310C718462CA
:101C5000FEF7EAFD002801D0FEF7D2FC01200003C8
:101C6000019000040290009469460548FEF7CAFC02
:101C7000002801D0FEF7C4FC3EBD00000024014056
:101C8000B80F002008B5084841690122114341619D
:101C9000406910400022009011460920FFF7C2F968
:101CA0000920FFF7B3F908BD0010024030B587B036
:101CB00014216846FEF774FA264842690121C904D6
:101CC0000A43426142690A400592426989100A4307
:101CD000426142690A400592426949000A434261F1
:101CE00042690A400592426909010A43426140691A
:101CF000194D08404C120590002221462846FFF756
:101D000055F8009401200024019002946946284669
:101D10000394FEF793FF4020104D00906946019513
:101D200002940F48FEF78AFF0120C00300900920AB
:101D3000694601950294C006FEF780FF6720C00047
:101D400000906946019502940648FEF777FF07B0B8
:101D500030BD0000001002400008004800001110D3
:101D6000001400480004004810B5134811490160F0
:101D7000124941600021816001614161816101225C
:101D8000C161C2600162FFF767F8002801D0FEF769
:101D900037FC00210848FFF715F8002801D0FEF7AE
:101DA0002FFC00210448FFF732F8002801D0FEF78D
:101DB00027FC10BD005400403C1000200E090020FC
:101DC00010B50A48084901607F2282600021416005
:101DD0000161FF224161C2608161FFF73BFC002885
:101DE00001D0FEF70DFC10BD002800408810002037
:101DF00010B596B000240F9410941194129413947B
:101E00001C2108A81494FEF7CBF920216846FEF7A0
:101E1000C7F92C482A4901600721846041600461A8
:101E2000446129498461C160FFF70EFD002801D09B
:101E3000FEF7E6FB012000030F900FA92148FFF7F2
:101E40004CFD002801D0FEF7DBFB1E48FFF752FED9
:101E5000002801D0FEF7D4FB202013A911C1194896
:101E60000839FFF7C3FC002801D0FEF7C9FB60204A
:101E70000890FF202D300E9409900A940C940D9434
:101E80000C2208A90F48FFF7CDFD002801D0FEF76E
:101E9000B7FB012000944003029405900194039441
:101EA0000494694607940748FFF770FC002801D0A6
:101EB000FEF7A6FB0348FFF779FD16B010BD000042
:101EC000002C0140A8100020E703000010B58EB0E0
:101ED00000240794089409940A940B941C216846E2
:101EE0000C94FEF75DF921481F49016007218460C9
:101EF000416004611E498461C160FFF7A5FC0028B0
:101F000001D0FEF77DFB01200003079007A91748C9
:101F1000FFF7E3FC002801D0FEF772FB1348FFF740
:101F2000E9FD002801D0FEF76BFB0B940BA90F48CD
:101F30000C94FFF75BFC002801D0FEF761FB6020EA
:101F40000090FF20F5300190029408226946049425
:101F50000648FFF767FD002801D0FEF751FB034854
:101F6000FFF724FD0EB010BD00040040E810002073
:101F7000E703000010B50C480A4901604B21C90174
:101F8000416000218160C16001618161C1610C22F9
:101F9000016242614162FFF7C8FD002801D0FEF7EF
:101FA0002FFB10BD003801402811002010B50C484F
:101FB0000A4901604B21C901416000218160C16073
:101FC00001618161C1610C22016242614162FFF7DE
:101FD000ACFD002801D0FEF713FB10BD004400400B
:101FE000A81100207047704770B504460068C168AA
:101FF000490613D40021C943C160FEF7DDFE7D26EA
:102000000546F60006E0FEF7D7FE401BB04201D9B8
:10201000032070BD2068C0684006F4D5002070BD64
:10202000704710B5FEF7A4FF10BD000010B594B0C6
:1020300030216846FEF7B4F800240C940D940E94F9
:102040000F941094119412941394FEF7EFFF134819
:10205000016A1822114301621620009001200390AA
:102060000290059010200490069008946846FFF7AF
:102070002DF907200C900D940E9400210F940CA8BC
:10208000FFF750F806481090001211901294139424
:1020900010A8FEF7D3FF14B010BD000000100240DE
:1020A0002100010070470000F0B502681A4B1B4C7C
:1020B000984201D0A04203D17025AA434D682A431B
:1020C000174D184E184F98420AD0A04208D0174C0E
:1020D000A04205D0A84203D0B04201D0B84205D1F9
:1020E0001446032212029443CA6822438024A24366
:1020F0004C69224302608A68C2620A68826298421E
:1021000005D0A84203D0B04201D0B84201D109693C
:10211000016301214161F0BD002C01400004004039
:1021200000400140004401400048014000200040C0
:1021300030B58468FF252D021B021343AC430B43CB
:102140002343836030BD826870239A430A4307218A
:102150000A43826070470000F0B5026A52085200DC
:102160000262056A436882697024A24392080C687F
:1021700092001443022295438A68164E2A43144D56
:10218000A84207D0B04205D0134FB84202D0134F37
:10219000B84206D10827BA43CF68174304229743B1
:1021A0003A46A84207D0B04205D00B4DA84202D013
:1021B0000A4DA84206D103252D02AB434D691D43AC
:1021C0008B692B4343608461496841630262F0BDBF
:1021D000002C014000400140004401400048014003
:1021E00070B5026A10239A430262056A42688369E5
:1021F00073242402A3430C6824021C4320239D4320
:102200008B681B012B43124DA84208D11D46CB6899
:102210008026B5431B012B434025AB4308E00D4D01
:10222000A84205D00C4DA84202D00C4DA84208D1BE
:102230000325AD02AA434D69AD0015438A6992009A
:102240002A434260846149688163036270BD000073
:10225000002C014000400140004401400048014082
:1022600070B5026AFF2301339A430262056A43682C
:10227000C2697024A24392080C68920014430122A0
:10228000520295438A6812022A43124DA84208D18D
:102290001546CA68C614B54312022A430515AA4357
:1022A00008E00D4DA84205D00C4DA84202D00C4DBF
:1022B000A84208D103252D03AB434D692D011D43D1
:1022C0008B691B012B434360C4614968C16302628F
:1022D00070BD0000002C014000400140004401405E
:1022E0000048014030B5026A01231B039A43026291
:1022F000046A4268C36973252D02AB430D682D0241
:102300001D4301235B039C438B681B0323430C4C3D
:10231000A04208D00B4CA04205D00B4CA04202D0EA
:102320000A4CA04205D10124A403A2434C69A40194
:1023300022434260C56149680164036230BD000008
:10234000002C014000400140004401400048014091
:1023500030B5036A046A6408640004628469F02585
:10236000AC43120122430A24A3430B43826103625C
:1023700030BD30B5036A1024A34303628469036A45
:102380000F252D031203AC432243A024A3430901CC
:1023900019438261016230BD10B5818CC90707D035
:1023A00001684A6801235B049A43836A1A434A60BE
:1023B000818C890707D501684A6801231B049A4369
:1023C000C36A1A434A60818C490707D501684A6885
:1023D00001239B049A43036B1A434A60818C0907CB
:1023E00007D501684A680123DB039A43436B1A430C
:1023F0004A60818CC90607D50268916801231B03D6
:102400009943836B19439160818C890607D50168D4
:102410008A6801235B039A43C36B1A438A60818CE9
:10242000490612D503685A6801210905046C8A43DC
:1024300022435A60026C8A4207D102685168032322
:102440005B059943436C19435160818C090607D59C
:1024500001684A680123DB04806C9A4302434A60A6
:1024600010BD0000F8B500260446C667FEF7A4FCC0
:10247000054620680068124F000709D501212B4648
:10248000002249052046009700F0C0F800280DD131
:102490002068006840070BD501212B4600228905E2
:1024A0002046009700F0B2F8002801D00320F8BDC4
:1024B00020206067A067603426740020F8BD00000B
:1024C000FFFFFF0170B5044680682169E269084397
:1024D000616900251143226808431168444B194083
:1024E0000143116021684868032212039043E268A7
:1024F00010434860A169206A2268084391680B2351
:102500001B029943014391603A492068884210D1E7
:102510003948006B8007800F11D0012805D00228B0
:1025200005D003280AD1022009E0042007E0082092
:1025300005E03249884201D1002000E0102001224C
:10254000E169D2032E4E914228D1002806D00228FC
:1025500007D0042817D0082844D11AE0FEF766FEF9
:1025600013E06168274A48088018FDF7BBFD80B278
:1025700001461039B14235D82149491C01400007B4
:10258000400F084321E0FEF761FE616840004A0801
:10259000EAE76168012248081204E5E7002806D04E
:1025A000022807D0042813D008281BD116E0FEF714
:1025B0003DFE0FE06168144A480811E0FDF792FD06
:1025C00080B201461039B1420CD82168C8600AE0D7
:1025D000FEF73CFE61684A081018EFE7616848089A
:1025E0008018EBE70125002020666066284670BD54
:1025F000F369FFFF00380140001002400044004032
:10260000EFFF00000024F40000127A00FFB581B053
:1026100005460F46044660350A9E38E0701C36D0E9
:10262000FEF7CAFB0499401AB04221D8002E1FD0F1
:102630002068016849072AD5C069C043000526D42F
:1026400001202168C002086220680168FF22A132CF
:102650009143016020688168490849008160202019
:102660006067A067E06700202874032005B0F0BD14
:1026700020680168FF22A1329143016020688168CF
:1026800049084900816020206067A067EBE7206867
:10269000C1693846884305D0002103988142BDD0E6
:1026A0000020E3E70121F8E72021020C01D01021EE
:1026B0001046020A01D010460839020901D010461E
:1026C000091F820801D01046891E420801D0881EC9
:1026D0007047081A7047F8B5040C8BB2264682B2D0
:1026E0005E430D0C1046370C584336048019002108
:1026F000794116466E43370C3604801979412646D7
:102700006E438919F8BD00008307FF22DB0E9A4053
:102710008907090E9940002808DB830809489B00B7
:102720001B18186890430843186070470007000F93
:102730000838830804489B001B18D8699043084355
:10274000D861704700E400E000ED00E002E008C856
:10275000121F08C1002AFAD170477047002001E01B
:1027600001C1121F002AFBD170470000FEF708FCD0
:10277000FFF75CFCFFF79AFAFFF784FAFFF7F4FA29
:10278000FFF71EFBFFF734FBFFF7A0FBFFF7F2FBA1
:10279000FFF744FAFFF70AFC642204490448FEF7F5
:1027A0004FF90448FFF788F8FEE700001800002002
:1027B000B80F0020A810002000000000000000005A
:1027C00001020304060708090000000001020304D7
:1027D000F027000800000020180000004C27000827
:1027E0000828000818000020101600005C270008C8
:1027F00000000000000000000100000004000000D4
:082800000000000000127A0044
:04000005080000B53A
:00000001FF
