:020000040800F2
:1000000048150020C9000008A93B0008C1310008BC
:1000100000000000000000000000000000000000E0
:10002000000000000000000000000000273C000865
:100030000000000000000000AB3B0008293C000865
:10004000DB000008000000000D3C0008DB00000899
:10005000DB000008DB000008350B00083F0B000840
:1000600000000000C90A0008DB000008D90A0008E7
:1000700061090008DB000008DB0000080000000048
:10008000DB000008D53C000800000000B53C00087B
:10009000DB000008C53C0008DB000008DB000008AE
:1000A000DB000008DB000008DB000008DB000008C4
:1000B000DB0000080348854600F040FC004800478C
:1000C000A95000084815002004488047044800470C
:1000D000FEE7FEE7FEE7FEE7FEE7FEE7B13C0008CD
:1000E000B500000830B50B4601460020202201244F
:1000F00009E00D46D5409D4205D31D469540491B5C
:100100002546954040191546521E002DF1DC30BDA4
:10011000F0B51FB40646002082B005464024019188
:1001200000901BE0019922460F46304600F020F86F
:10013000049A059B801A994110D31046194622460D
:1001400000F005FB361A8F4101972246012000215D
:10015000009F00F0FCFA38184D4100902046641EC4
:100160000028DFDC019B00982946324607B0F0BD2D
:1001700010B5202A04DB0846203AD040002110BDEB
:100180000B46D340D0402024A21A91400843194680
:1001900010BD03460B439B0703D009E008C9121F9B
:1001A00008C0042AFAD203E00B780370401C491CF3
:1001B000521EF9D27047D2B201E00270401C491EB3
:1001C000FBD270470022F6E710B513460A460446F4
:1001D0001946FFF7F0FF204610BDF8B502464A4029
:1001E000D40F42004B0052085B089A4202D20246EA
:1001F000084611464A0023D0C30D4A00DDB2120E54
:10020000AD1A202D35DA49020126490AF6058A1968
:10021000002C00D0524220214F1B1146B9402A41E8
:100220001018C20D9A4221D0002C17D0012D08DCE5
:10023000DA05801AD20F8019D207DBB200F0B2FAC9
:10024000F8BDDA05801A012340001B06C01880188B
:100250005A428018CA0F1043490007E04908C207F4
:100260001143DA05801A80194008801800F092FACC
:10027000F8BD61000122511A001BF7E70122D207E5
:100280005140AAE70122D2075040A6E7024670B5C6
:100290004A40D30FDB0740002DD04A002AD0010E80
:1002A000140E000212020919400A520A8418E501CC
:1002B00004465443000A120A2E045043A41942195A
:1002C000200CC543AA18120C0125AD03521C52196B
:1002D00012047F39240400D0521C104301D4400082
:1002E000491EC2B20C06C0092018401C4008802AD2
:1002F00002D003E0002070BD40084000002900DA71
:100300000020184370BD70B502464A40D50F40002A
:100310004A00ED0740085208002814D0002A12D0E5
:10032000C40DD30D41020120C0055202490A520AF0
:10033000E41A091812187D34914201D3641C00E0BC
:100340004900002C01DA002070BD0023914201D346
:10035000891A0343400849000028F7D100290AD030
:10036000914202D10121C90705E0914201D2012148
:1003700001E00121C943E005C018401900F00AFA64
:1003800070BD0000F0B507460846584087B0C00F62
:10039000049048000E46590040084908BC1A88419C
:1003A00005D2384631461E4617460B4602465800CF
:1003B000400810434CD0300D039040055900400DCB
:1003C000490D0590401A0290402872DA1803012165
:1003D000000B09050843019004980092002805D0FD
:1003E00001995242002088410092019002984021D8
:1003F0000A1A0199009800F0AAF905460C466B46C6
:1004000007CB00F0B4F9C0197141039A0E0D002317
:10041000D71756401A467A40164344D0049A002A09
:100420002DD0029A012A039A15DC1205C01A9141B7
:1004300001263605001C7141D20F059ED20700939C
:10044000019202962A46234600F0F2F907B0F0BD69
:1004500038463146FAE71605224A0F46B218C01A46
:10046000B74101210905001C4F4100187F41114689
:1004700018187941E20F10436D19644113E0E20747
:100480006D0815436408C2071443039A0126120538
:10049000C01A91413605001C7141CE074008304317
:1004A0004908C01851412A46234600F0B4F9CDE767
:1004B000FFE7049801224000C117121A00238B4164
:1004C00004983146C417381AA141EEE730B401242C
:1004D000E407634030BC55E730B40124E4076140D1
:1004E00030BC4FE70000E0FFF0B51FB488B00B99B7
:1004F0000998002448400999C00F4900490809910A
:10050000C0070B990090490049080B910999089878
:10051000A64608431CD00B990A98084318D009989E
:1005200001244000420D4800410D099824050003B4
:10053000000B204309900B980003000B20430B9005
:1005400050181C494018002201901446104605E03E
:10055000002001460DB0F0BD032801DA034600E09B
:1005600003239C46C11A0AAE0AE05F0008ADED5BAA
:100570004F00F75B7D430027AA187C41491C5B1E96
:100580006145F2DD410004AB5A522104120C0A43CA
:10059000240C401C0828DFDB01980290009970466B
:1005A00001910090059B049A0799069800F040F984
:1005B000D0E700000DFCFFFFF0B50C465C4085B0B5
:1005C000E40FE40703944C000026640859009446A5
:1005D000490802460296224321D062460A431ED0B1
:1005E0006200570D4A000E032303550D01240246F5
:1005F0002C492405781B1B0B360B4018234326433C
:10060000614600901C46501AB44103D30098401C28
:10061000009002E0921800985B41002803DA002065
:10062000014605B0F0BD00200121090507468646B8
:1006300011E064461D46141BB54106D36546521BA6
:10064000B341744607430C43A646CD07400849080A
:10065000284392185B4105460D43EAD110461843E2
:1006600013D06046194650407140084306D060469A
:10067000101AB34106D20122002306E00022012312
:10068000DB0702E00122D2435310009874460105B3
:10069000381C6141029C039D0019694100F0BBF8C0
:1006A000BFE70000FD030000C217C10F504010B5A6
:1006B0004018CA079623002100F074F810BD10B549
:1006C00000229623114600F06DF810BDC20F4100C4
:1006D00040020123400ADB05D207090EC0187F291A
:1006E00001DA00207047962903DC9623591AC84086
:1006F00001E096398840002AF4D04042704741001A
:1007000040020122400AD205090E80187F2901DA31
:1007100000207047962903DC9622511AC840704782
:10072000963988407047C20FD207400040080BD06E
:10073000C10D0723DB01C91840020905400A114316
:10074000C20840071143704700200146704710B5AA
:10075000202A04DB0146203A9140002010BD914040
:1007600020239C1A0346E3401943904010BD10B566
:10077000202A06DBCB170846203A1041C1170B434D
:1007800006E00B461341D0402024A21A91400843B2
:10079000194610BD002904DA401C490001D1400867
:1007A0004000704770B40024050C05D110240004EB
:1007B00002D1002921D01124050E01D100020834F4
:1007C000050F01D10001241D850F01D18000A41C5B
:1007D000002801DB4000641C002908D020252E1BC6
:1007E0000D46F540A14000D00121294308430106F0
:1007F0001B1B000ADB1D02D5002070BC7047DB0507
:10080000181880180029F8DA401C4900F5D170BC8E
:1008100040084000704710B5002B08DA0024401C47
:10082000614192185B411A4301D14008400010BD5C
:10083000F0B51FB482B005460C0003D0084603F0A3
:10084000A1FE02E003F09EFE203002460090214609
:100850002846FFF77CFF049B059A04460F46184381
:100860001143084314D0184610431BD00098402170
:100870000A1A18460599FFF77BFC05460E46009AB2
:1008800005990498FFF763FF084305D0012004E0B1
:100890002046394607B0F0BD0020C11705430E437E
:1008A0002C43374300990E986305401A7905E40AF2
:1008B00000220C43FD0A0A3002D500200146E9E778
:1008C0000105101969410C9C0D9D00196941FFF744
:1008D000A2FFDFE74A0009030123090B1B051943A7
:1008E0000A4B10B5520D9A4202DA0020014610BDA3
:1008F000064B34339A4203DC9A1AFFF739FC10BDD9
:10090000034BD218FFF723FF10BD0000FF030000C8
:10091000CDFBFFFF10B5002904DB0124E4074042B2
:100920008C412146002B04DB1C460123DB0752428D
:10093000A341994200D1904210BD0000064C012510
:10094000064E05E0E36807CC2B430C3C9847103477
:10095000B442F7D3FFF7B2FBC47D0008E47D000882
:1009600010B5024800F0A6F910BD000048050020AF
:1009700010B50146406A826B50231A420AD1816B3E
:1009800001225202114381630168CA681205920F65
:1009900005D020E0006B026B0846904710BD827EB8
:1009A000002A18D10A68120715D58A685307012250
:1009B000002B09DB4B680C24A3434B60816B1302B3
:1009C00099431143816306E0816B202319438163BE
:1009D000C16B1143C16300F053F910BD10B5406AFB
:1009E000816B402211438163C16B04221143C163B7
:1009F00000F05FF910BD10B5406A00F059F910BD64
:100A0000F8B5044600200090206881688907890FA6
:100A1000012905D10168C90731D1C16809042ED463
:100A20008168184A10261140012500291AD18168D1
:100A300029438160154814490068FFF753FB00E023
:100A4000401E00900028FBD100F04EFD074611E04B
:100A500000F04AFDC01B02280CD920680068C04382
:100A6000C00707D0A06B3043A063E06B2843E0636E
:100A70000120F8BD20680068C043C007E8D100200D
:100A8000F8BD00001700008040420F002800002041
:100A90000FB410B58EB011AC34216846FFF792FB4D
:100AA00022466846109903F05BFD82B27D23DB008D
:100AB0006946044802F01BFB0EB010BC08BC04B031
:100AC000184700006C08002010B5024800F0B6FA84
:100AD00010BD00008805002010B5024800F0AEFAF5
:100AE00010BD0000F008002010B50446006805495C
:100AF00040181421FFF7F6FA800020640248E063F2
:100B000010BD0000F8FFFDBF0000024030B5056CCD
:100B10000124AC40C56B6C60046863604368102BB3
:100B2000036803D099600068C26030BD9A600068B5
:100B3000C16030BD10B5082000F0F2FB10BD10B54B
:100B4000102000F0EDFB202000F0EAFB402000F038
:100B5000E7FBFF20013000F0E3FB0120400200F042
:100B6000DFFB0120C00300F0DBFB10BD704700007D
:100B7000F8B50025044620340095227D012A39D09D
:100B80000122227503689E68760767D4384F4E6845
:100B9000BE424DD09E6A0F78BA4016439E62012332
:100BA000C26A1B079A421FD0012A1DD0022A1BD0FD
:100BB000032A19D0042A17D0052A15D0062A13D0E3
:100BC000072A11D002688B6856697607760FB34200
:100BD0000AD05369DB08DB005361006842690B7A75
:100BE0005B075B0F1A4342610A68102A04D0112A7E
:100BF00002D038E00220F8BD1E488368102A07D0D2
:100C000001229205134383600868102803D02AE06C
:100C10000122D205F6E7194817490068FFF762FA82
:100C20000A21484300E0401E00900028FBD11AE052
:100C3000986A0E78B240904398620968102901D0F2
:100C4000112910D10B488268102904D0012189058F
:100C50008A43826007E00121C905F9E7816B202200
:100C6000114381630125002020752846F8BD00004E
:100C7000011000000027014040420F002800002022
:100C800010B50020084A094B0146D0608C001C5961
:100C9000491C20188029F9D3D06040020349000C78
:100CA000E039088110BD0000000000208C01002008
:100CB0007047704770B5044600680168490702D55F
:100CC0004168490705D40168090730D5416809071B
:100CD0002DD5A16BC90604D4A16B01225202114388
:100CE000A163C1680C250905890F00291AD1A17ECD
:100CF000002917D10168090714D581684A07012125
:100D0000002A08DB4268AA434260A06B0A029043B3
:100D10000843A06306E0A06B20221043A063E06BB1
:100D20000843E0632046FFF7ABFF206805602068BA
:100D3000016809060DD5406800060AD5A06B01219F
:100D400009040843A063204600F0D8F821688020F9
:100D5000086020680168C90613D54168C90610D526
:100D6000A16A1025012902D0C168C90707D0E16B2B
:100D700002221143E16305602046FFF79AFF2068D5
:100D8000056070BDF8B500260446002805D0A06BAC
:100D900025462035002802D007E00120F8BD0020BC
:100DA000E0632875204600F0ABF8A06B1022C00667
:100DB000002870DB2068816849076CD4A16B13019F
:100DC000994302231943A16381688907890F012987
:100DD00005D10168C9070FD1C16809040CD4C168E5
:100DE00018239943A3681943C160206801696368A7
:100DF00089008908194301612068C1683D4B194089
:100E0000C160207E617E8003C9030843A17E4B033D
:100E10001843A36A012B02D001231B0300E0002327
:100E20001843E36818432369022B09D000231843B1
:100E30002B79E57E5B0018430123012D02D00AE0E7
:100E40000423F4E7002927D0A16B20252943A163BF
:100E5000E16B1943E163E1690D46FF3DC23D02D0FC
:100E6000256A294308432168CD680543CD600125E3
:100E7000E16A2D07A94213D0012911D002290FD010
:100E800003290DD004290BD0052909D0062907D044
:100E9000072905D010E028E0012109040843DAE71A
:100EA00021684D69ED08ED004D6121684D69A78D00
:100EB0007F077F0F3D434D612168C9680E4D294072
:100EC000814207D10020E063A06B80088000401CB5
:100ED000A06308E0A06B022188431043A063E06B8D
:100EE0001843E06301263046F8BDA06B1043A063B1
:100EF000F8E700001902FEFFE7FF3F83704700009C
:100F0000F0B587B0054614216846FFF75BF91F4925
:100F10002868884237D11E4988694E153043886158
:100F20008869304005904A69300202434A61496944
:100F30000027014005910220009003200190092024
:100F400069460297C00600F0F7F91248124C81C4B6
:100F500027608020A66060600001E060202067615B
:100F600020610D48083C00F0B7F8002801D0FFF7D9
:100F7000FDFD2C63002211460C20656200F04AFE44
:100F80000C2000F03BFE07B0F0BD00000024014043
:100F9000001002400800024088050020F7B5044612
:100FA00000680025806840073DD426462036307D05
:100FB00001280AD001273775607E012807D0204616
:100FC000FFF71EFD050002D02EE00220FEBDA06B43
:100FD00016490840FF2101310843A0630020E06367
:100FE0003075216B12488862216B1248C862216BF0
:100FF0001148086321681C2008602068416810229D
:10100000114341602068C1683943C1602168206B89
:101010004031029B019A00F089F82068816804221F
:101020001143816000E002252846FEBDFEF1FFFF6E
:1010300071090008F7090008DD090008F0B4C16B68
:101040000D6801680C680422066C1346B3402B42FD
:101050000DD063070BD50B689B0602D40B68934336
:101060000B60016C8A40C16B4A60C16A19E00227BB
:10107000B74002462F4001232032002F15D0A7078A
:1010800013D50C68A40604D40C680A25AC430C6084
:101090005370036C02219940C36B59600021117099
:1010A000816A002916D0F0BC08470827B7402F42B4
:1010B00010D024070ED50C680E25AC430C60046CD0
:1010C0001946A140C46B61608363537000211170A5
:1010D000016BE6E7F0BC704770B5040021D0022137
:1010E0002046203005464170226811680E48A368EA
:1010F0000140606826691843E36833431843636915
:101100001843A3691843E369184308431060204655
:10111000FFF7EAFC0021A1630120687029700846EE
:1011200070BD012070BD00000FC0FFFFF8B5044680
:101130008C46203001780025012909D0012606704F
:1011400041780027012905D0077002252846F8BDFF
:101150000220F8BD02214170A76320680168490898
:101160004900016061462046FFF7D0FCE06A002894
:101170002068016802D00E22114306E00A221143C2
:1011800001602068016804229143016020680168C1
:1011900031430160DAE7000070B5044600F0A4F9BD
:1011A0000546601C02D004480078241800F09CF921
:1011B000401BA042FAD370BDA0000020F8B5C11FAB
:1011C000FF39FA391AD0022500263F4F3F4C20281C
:1011D00022D010283BD008284ED0A90388421AD12B
:1011E0003BA0FFF755FC2046C03803F09DFE0028C9
:1011F00011D07E62E07A00280DD85EE004F0E8F8B5
:10120000374908700146374804F0A8F83548416866
:1012100035A0FFF73DFCF8BD34A0FFF739FC2B48A3
:10122000C03803F081FE0028F5D07E62E07A03002A
:1012300003F0D7F905040441053F0400EBE7E5722C
:101240007E622E4801F076FBF8BDE072F8BD2CA05E
:10125000FFF71EFC1D48C038066003F065FE00283D
:10126000F4D07E62E07A030003F0BBF903030304C9
:101270000300EBE7E672F8BD25A0FFF709FC134871
:10128000C03803F051FE002809D07E62E07A0300E6
:1012900003F0A7F90504040F11130400EBE7E5724E
:1012A000164801F047FB09480121C03804F08BFBC8
:1012B000F8BD0320C9E70420C7E77E620F4801F0AC
:1012C00039FBE572F8BD0000004401406C010020CC
:1012D0004C4546542050524553534544200A000083
:1012E000000000208C03002025640A005550205087
:1012F000524553534544200A00000000A007002037
:1013000052494748542050524553534544200A00FF
:10131000444F574E2050524553534544200A000035
:1013200010B504494A69024202D04861FFF746FFFE
:1013300010BD000000040140F8B50023032401257E
:10134000BAE02E469E40B44632407CD00E79B607B5
:10135000B60F012E01D0022E17D186682746B64659
:101360005E00B74000967646BE43B646CF68009E04
:10137000B74076463743876046686746BE430F7975
:10138000FF06FF0F9F40374347600E79F643B607CD
:101390000ED0C6682746B4465E00B646B7406646DD
:1013A000BE43B4468F687646B74066463743C7604B
:1013B0000E79B607B60F022E14D1DE08B600361825
:1013C0000096366A5F07B446FE0E0F27B646B74052
:1013D0006646BE43B4460F697646B7406646374315
:1013E000009E376206682746B4465E00B646B740A0
:1013F0006646BE430F79B446BF07BF0F7646B74077
:101400006646374307604E68B603B60F53D02D4F7C
:10141000BE692E43BE61BE699F08F607F60F2A4ECD
:10142000BF00BE190096B6680F27B4469E07360F58
:10143000B646B7406646BE430927FF06B446B842E3
:1014400002D1002710E036E0204FB84201D1012739
:101450000AE01F4FB84201D1022705E01D4FB842F4
:1014600001D1032700E005277646B740664637439B
:10147000009EB760184E36684F689643FF0300D54C
:101480001643154F3E607E684F689643BF0300D5F4
:101490001643114F7E60BE684F689643FF0200D529
:1014A00016430D4FBE60FE684F689643BF0200D5DD
:1014B0001643094AD6605B1C0A681646DE4000D017
:1014C0003FE7F8BD00100240000001400004004862
:1014D00000080048000C004800040140002A01D028
:1014E00081617047816270470148806870470000E1
:1014F000A000002070B5024640325378202B1CD14A
:101500001378012B19D0012313702424547004681C
:1015100025689D432560046825681E03B543256042
:10152000046825680D43256000680168194301605F
:10153000202050700020107070BD022070BD70B56A
:10154000024640325378202B1BD11378012B18D040
:10155000012414702423537003681D68A5431D6083
:1015600005682B680F263602B34309021943296028
:101570000068016821430160202050700020107035
:1015800070BD022070BD000070B5040006D0254675
:10159000403568780026002802D005E0012070BDA3
:1015A0002E70204600F0AAFA242068702068016896
:1015B0004908490001600F216068090688432168D5
:1015C000086121688A680120C00382438A60E1685B
:1015D0000129A16808D0212292021143226891605A
:1015E000E168022902D005E00143F7E70121226802
:1015F000C902516021684A680F4B1A434A6021684A
:10160000CA688243CA60616920690843A169090206
:1016100008432168C860216AE069084321680860BE
:10162000206801680122114301606664202068700F
:101630002663AE70002070BD00800002FFB5054635
:1016400004464035687881B0202878D12878012870
:1016500075D001202870FFF747FF07460122009050
:101660001923D103204601F08FFE00283CD122200F
:1016700068701020A8700026666403986062049861
:1016800060856663618D2F48FF2903D9FF2222857B
:1016900000903BE0618D218500903DE0204602995D
:1016A00001F05EFE16E001F097FE00281CD12068D4
:1016B000406A616A0870606A401C6062208D401E4A
:1016C00081B22185608D401E6085608D002801D02B
:1016D00000290CD0608D0A9900283A462046E2D1B4
:1016E00001F0BAFE00281CD0012005B0F0BD009723
:1016F0000022802120460A9B01F046FE0028F3D1FB
:10170000608DFF2805D9FF222285009601231B0644
:10171000C4E7608D20850096208D0123C2B25B0650
:10172000BCE721682020C86121684A68064B1A403E
:101730004A606870AE702E700020D6E7FFE7022086
:10174000D3E700000024008000E800FEFFB5054656
:1017500004464035687881B0202878D1287801285F
:1017600075D001202870FFF7BFFE074601220090C8
:101770001923D103204601F007FE00283CD1212087
:1017800068701020A8700026666403986062049850
:1017900060856663618D2F48FF2903D9FF2222856A
:1017A00000903BE0618D218500903DE0204602994C
:1017B00001F0D6FD16E001F075FE00281CD1606A2C
:1017C000216800788862606A401C6062608D401EFB
:1017D0006085208D401E80B22085618D002901D05A
:1017E00000280CD0608D0A9900283A462046E2D1A4
:1017F00001F032FE00281CD0012005B0F0BD00979A
:101800000022802120460A9B01F0BEFD0028F3D172
:10181000608DFF2805D9FF222285009601231B0633
:10182000C4E7608D20850096208D0123C2B25B063F
:10183000BCE721682020C86121684A68064B1A402D
:101840004A606870AE702E700020D6E7FFE7022075
:10185000D3E700000020008000E800FEFFB5054649
:1018600004464035687883B0202875D10C9800284C
:1018700014D00D98002811D0287801286CD00120B0
:101880002870FFF731FE0746012200901923D1038B
:10189000204601F079FD002874D103E001204002C8
:1018A00060646FE0222068704020A87000266664A3
:1018B0000C9860620D98608566630E9800900197A1
:1018C00004A90EC9204601F0EBFC002801D02E70BF
:1018D00058E0618D3448FF2905D9FF222285012374
:1018E0001B06009006E0618D21850090208D01236C
:1018F000C2B25B062046049901F032FD0097002237
:10190000042120460E9B01F03FFD00283AD12068BB
:10191000406A616A0870606A401C6062208D401EE7
:1019200081B22185608D401E6085608D00281FD0AA
:1019300000291DD100970022802120460E9B01F036
:1019400023FD00281ED1608DFF2806D9FF222285A5
:1019500001231B06009607E024E0608D2085009699
:10196000208D0123C2B25B062046049901F0F8FCE9
:10197000608D0028C2D13A4620460E9901F06CFDD8
:10198000002802D0012007B0F0BD20682021C161ED
:1019900020684268054B1A4042606970AE702E7034
:1019A0000020F0E70220EEE70024008000E800FEBF
:1019B000FFB5054604464035687883B0202872D1CB
:1019C0000C98002814D00D98002811D028780128F0
:1019D00069D001202870FFF787FD0746012200909B
:1019E0001923D103204601F0CFFC002871D103E078
:1019F0000120400260646CE0212068704020A870E3
:101A0000002666640C9860620D98608566630E9887
:101A10000090019704A90EC9204601F071FC00282E
:101A200001D02E7055E0608DFF2805D9FF22228558
:101A300001231B06009606E0608D20850096208D10
:101A40000123C2B25B062046049901F089FC3A46A4
:101A500020460E9901F026FD00283AD1606A2168DF
:101A600000788862606A401C6062608D401E6085FC
:101A7000208D401E80B22085618D00291FD0002856
:101A80001DD100970022802120460E9B01F07CFC96
:101A900000281ED1608DFF2806D9FF222285012350
:101AA0001B06009607E024E0608D20850096208DBF
:101AB0000123C2B25B062046049901F051FC608DFF
:101AC0000028C4D13A4620460E9901F0C5FC0028F2
:101AD00002D0012007B0F0BD20682021C16120683C
:101AE0004268054B1A4042606970AE702E7000204B
:101AF000F0E70220EEE7000000E800FE10B586B037
:101B0000044614216846FEF75DFB124920688842AE
:101B10001DD1114C6169012080040143616161693B
:101B200001400591C0200090122001210190032066
:101B300002910491039069460848FFF7FDFBE169B3
:101B4000012040050143E161E1690140059106B0D2
:101B500010BD000000540040001002400004004886
:101B6000024881680278891881607047A0000020CF
:101B700010B506480168102211430160002000F0F2
:101B800007F800F027F8002010BD000000200240F8
:101B900070B504460D4D7D202978C000FEF7A2FAED
:101BA00001460B480068FEF79DFA00F0A1FD0028F1
:101BB00009D1042C07D200222146401E00F02AF849
:101BC00000206C6070BD012070BD0000A0000020EE
:101BD0002800002008B5084881690122114381616D
:101BE000816911400091C26901040A43C261C06960
:101BF0000840009008BD000000100240002805DBEE
:101C0000C106C90E012088400149086070470000E4
:101C100000E100E010B502F0F1FC10BD02480168DF
:101C2000821511430160704700700040F8B5054609
:101C30000068354CC00352D5E0690026C00007D4C7
:101C4000E16920040143E161E1690140012600915D
:101C50002E480168C90510D401688215114301603E
:101C6000FFF742FC074604E0FFF73EFCC01B642878
:101C700024D826480068C005F6D5206A03273F020D
:101C8000384020D06968394081421CD0206A226ADD
:101C9000B843012109040A432262226A8A4322626C
:101CA0002062C0070FD0FFF71FFC009008E0FFF78D
:101CB0001BFC0099411A1648814201D90320F8BD46
:101CC000206A8007F3D5206A6968B8430843206218
:101CD000002E04D0E169012000078143E1612878EA
:101CE000C00705D0206BA9688008800008432063E6
:101CF0002878800605D5206B10218843E9680843C1
:101D000020630020F8BD0000001002400070004079
:101D100088130000F8B50F46060059D03A4D2868E0
:101D2000C007C00FB84209D22868400840003843B5
:101D300028602868C007C00FB84249D13068334CCA
:101D400081070CD5400704D56068072109020843C4
:101D500060606068F0218843B16808436060307853
:101D6000C00726D0706801280ED0216802280ED046
:101D7000890700292CDA61688908890001436160BC
:101D8000FFF7B2FB00900DE021688903F1E78901BC
:101D9000EFE7FFF7A9FB0099411A1D48814201D9DD
:101DA0000320F8BD60680C210840716889008842F2
:101DB000EFD12868C007C00FB8420BD92868400887
:101DC0004000384328602868C007C00FB84201D0DF
:101DD0000120F8BD3078400706D560680721090268
:101DE0008843F1680843606000F028F86168094A98
:101DF0000906090F515CC840074908600020FFF739
:101E0000C7FE0020F8BD0000002002400010024084
:101E100088130000905D0008280000200448054950
:101E200000684968044A4905490F515CC840704739
:101E30002800002000100240A05D000810B514A387
:101E40000FCB88B06C460FC415A30FCB0FC4184A34
:101E500051680C200B4603401648042B16D0082B63
:101E600014D18B021B0F6C46E45CD26A04AB1207E0
:101E7000120F9A5CC90305D500231946FEF748F9ED
:101E8000214601E020460C4902F093FB08B010BD4A
:101E900002030405060708090A0B0C0D0E0F1010AB
:101EA0000102030405060708090A0B0C0D0E0F10AA
:101EB0000010024000127A0000093D00FEB5040047
:101EC00070D02078DC4DC0074AD068680007800FCA
:101ED000012807D068680007800F022809D16868C8
:101EE000C00306D5286880033AD560680028E7D08B
:101EF00036E06168012914D001208004002901D056
:101F0000052914D02A68012109048A432A60296816
:101F1000814329606068002816D0FFF7E5FA06467D
:101F20000EE028680121090408432860F2E72968C7
:101F300001432960F5E7FFF7D7FA801B64286ED8C4
:101F400028688003F7D50BE0FFF7CEFA064604E0D9
:101F5000FFF7CAFA801B6428F1D828688003F7D4F9
:101F600020780126800700283CDA68680007800F87
:101F700007D068680007800F022809D16868C0038D
:101F800006D42868800716D5E06801280AD112E037
:101F9000E0680028286816D030432860FFF7A4FACC
:101FA000074605E043E1FFF79FFAC01B0228C6D8A9
:101FB00028688007F7D52868F82188432169C90077
:101FC000084328600EE0400840002860FFF78CFAC4
:101FD000074604E0FFF788FAC01B0228AFD828683C
:101FE0008007F7D42078000722D5E0690028686AC6
:101FF0000ED030436862FFF777FA074604E0FFF738
:1020000073FAC01B02289AD8686A8007F7D50FE0D8
:10201000400840006862FFF767FA074605E09DE068
:10202000FFF762FAC01B022889D8686A8007F7D4D4
:10203000207804274007002860DA00200190E86932
:10204000C00008D4E969B8060143E961E9690140C3
:1020500001200091019079480168C90511D40168F7
:10206000821511430160FFF73FFA009005E0FFF78A
:102070003BFA0099401A642870D870480068C0057F
:10208000F5D5A06801280AD0002801D0052810D075
:10209000286A400840002862286AB84301E0286A9C
:1020A00030432862A068002812D0FFF71DFA009084
:1020B0000AE0286A38432862F1E7FFF715FA009929
:1020C000411A5F48814249D8286A8007F5D50DE05A
:1020D000FFF70AFA009006E0FFF706FA0099411AA6
:1020E000574881423AD8286A8007F5D401980028D9
:1020F00004D0E969012000078143E9612078C00626
:1021000035D5606901280CD0401D686B23D0384359
:102110006863686B400840006863FFF7E5F90646AE
:1021200022E0686B38436863686B30436863FFF78D
:10213000DBF9064604E0FFF7D7F9801B02285BD8DD
:10214000686B8007F7D5686BF8218843A169C900DF
:10215000084368630BE0B8436863F4E74CE0FFF7BB
:10216000C3F9801B022847D8686B8007F7D4206A20
:1021700000285ED069680907890F022942D001262C
:1021800036060228286805D0B0432860FFF7ACF96E
:10219000044633E0B0432860FFF7A6F9074604E0A1
:1021A000FFF7A2F9C01B022826D828688001F7D4BF
:1021B000E86AE16A000900010843E862616AA06A0E
:1021C000084369683D221204914308436860286807
:1021D00030432860FFF788F9044604E0FFF784F9EC
:1021E000001B022808D828688001F7D521E0FFF7F6
:1021F0007BF9001B022801D90320FEBD286880015D
:10220000F5D416E00128F8D06868E96A01221204C2
:10221000636A02409A420AD10907E26A090F9142B1
:1022200005D10F2189040840A16A884201D001200C
:10223000FEBD0020FEBD0000001002400070004006
:102240008813000002488168491C816070470000C3
:102250000000002010B5044600688168C9040CD550
:10226000C068C00509D52046FFF7ECFF2168C868A3
:1022700080221040FF388238C860012002494004A3
:1022800048610120607710BD0004014010B500686E
:102290000B464068C021C94301400002000ECC0437
:1022A000D870E40E5C708C06A40E0904490F9C7073
:1022B0001970002A0AD101F079FCD870587801F021
:1022C00075FC5870987801F071FC9870002010BD72
:1022D00030B500680B4604680F482146014088026B
:1022E0004D04800E18706D0E49065D70490E997090
:1022F0006102490E40242140D970002A0AD101F020
:1023000055FC1870587801F051FC5870987801F01D
:102310004DFC9870002030BD7F7F7F0070B50400B9
:1023200003D0607F002802D006E0012070BD0020AD
:102330002077204600F04CF8022060772168CA2000
:102340004862216853204862204601F042FCFF2584
:102350000426002824D1206881681C4A114081602D
:102360002168886862686369104322691A431043D0
:1023700088602168E0680861206801692289120488
:10238000114301612068C16880229143C1602068C7
:102390008068800608D4204600F090F9002803D019
:1023A000206845626677C0E72068016C01229204CC
:1023B000914301642068016CA269114301642068A3
:1023C000456201206077002070BD0000BFFF8FFFD5
:1023D00010B50068084988420DD10848016A0122F9
:1023E000D20311430162002211460220FFF712FCC2
:1023F0000220FFF703FC10BD00280040001002403F
:10240000F8B50446007F0B46012839D0012020771B
:102410000220607720681F46203700268068002A47
:1024200030D0400600D4DE7019789D7809040D4341
:102430005978DA780902120411430D433978D869C2
:1024400009060D43054358699969054358680843CF
:1024500000902168CA2048622168532048622068A1
:102460008168FF220132914381602068C168802227
:102470001140FF398239C160FFF736F8074629E07D
:102480000220F8BD400600D4DE70187801F096FBFB
:102490000504587801F092FB00020543987801F09A
:1024A0008DFB0543D87800040543387801F086FB9E
:1024B00000060543D869C5E7FFF716F8C11B7D2064
:1024C000C000814206D92168FF204862032060775E
:1024D0002677F8BD2068C068C007EDD02068C561C8
:1024E00021680098486420688168FF220132114306
:1024F0008160206881681201114381600848026888
:10250000012149040A43026082680A43826021680B
:10251000FF2048620120607726770020F8BD000088
:1025200000040140F8B50446007F0B4601280FD097
:102530000120207702206077002A0BD0D8789D7880
:10254000000405435878097800024903084317E05E
:102550000220F8BD5878C10603D5EF2108400A30A3
:102560005870D87801F02AFB0504587801F026FB52
:1025700000020543987801F021FB054318784003D9
:1025800005432168CA2048622168532048622046DA
:1025900001F01FFB0026FF27002811D10F4805403E
:1025A000206845602068C16880229143C16020682E
:1025B000806880060BD4204600F080F8002806D002
:1025C000206847620420607726770120F8BD2068E4
:1025D00047620120607726770020F8BD3FFFFF00AB
:1025E000F8B50446007F0D46012821D00120207750
:1025F00002206077206800278068002A1AD04006F1
:1026000000D4EF702878AE78000406436878E97843
:1026100000020904084306432168CA204862216871
:1026200053204862204601F0D4FA002834D114E047
:102630000220F8BD400600D4EF70287801F0BEFA01
:102640000604687801F0BAFA00020643A87801F09F
:10265000B5FA0643E8780004DDE71748064020682D
:102660000660206881680122920491438160296993
:10267000E868084321688A68104388602068C16858
:1026800080229143C1602068806880060CD4204677
:1026900000F014F8002807D02168FF2048620420C9
:1026A000607727770120F8BD2168FF20486201206C
:1026B000607727770020F8BD7F7F7F0070B50446E4
:1026C0000068C168A0229143C160FEF70DFF7D261E
:1026D0000546F60006E0FEF707FF401BB04201D9B1
:1026E000032070BD2068C0688006F4D5002070BD4E
:1026F000094910B5401E884201D9012010BD074C80
:1027000060610321081F01F079FF0020A06107200C
:102710002061002010BD0000FFFFFF0000E000E08E
:102720007047704730B5034620331A7F012A26D000
:1027300001221A770325CA682D02AA438D68002456
:102740002A430125AD02AA434D6800682A430125AA
:10275000ED02AA430D682A4301252D03AA430D6902
:102760002A4301256D03AA434D69C9692A430125FE
:10277000AD03AA430A4342641C77002030BD022007
:1027800030BD0000F0B502462032137F012B1ED071
:10279000012515770223537706687468B36870279C
:1027A000BC430F682743776000680A4CA04205D0FD
:1027B000094CA04202D0094CA04204D180244968AF
:1027C000A34319438160557700201077F0BD0220A4
:1027D000F0BD0000002C014000040040004001401A
:1027E00070B5040005D025462035687F002802D04A
:1027F00006E0012070BD00202877204600F014F884
:1028000002206877211D206801F06CFA0120403415
:10281000A071A877E87720706070A070E0702071D8
:1028200060716877002070BD08B5294A01682948A1
:10283000914202D18269C11434E0274A914207D102
:10284000C26902210A43C261C0690840009008BD04
:10285000224A91420DD1C26910210A43C261C06966
:1028600000220840009011461120FFF7D3F91120F3
:102870000FE01B4A91420FD1C26989150A43C26118
:10288000C06900220840009011461320FFF7C2F9EA
:102890001320FFF7B3F908BD124A914206D18269AD
:1028A000012109040A4382618069CEE70E4A914200
:1028B000F1D18269012149040A43826180690022C1
:1028C0000840009011461520FFF7A4F91520E0E715
:1028D000002C0140001002400004004000100040A5
:1028E00000200040004001400044014001462031EA
:1028F0004A7F012A01D00120704702224A770068EE
:10290000094A0121904205D0084A904202D0084A63
:10291000904204D182685207520F062A02D0026800
:102920000A43026000207047002C01400004004070
:1029300000400140014620314A7F012A01D0012098
:10294000704702224A770268D36801210B43D360A3
:102950000068094A904205D0084A904202D0084ACD
:10296000904204D182685207520F062A02D00268B0
:102970000A43026000207047002C01400004004020
:102980000040014001680A6A074B1A4207D10A6AEF
:102990009B101A4203D10A68520852000A600121B2
:1029A000203041770020704711110000F8B505462E
:1029B00004462035287F0026012817D001202877DB
:1029C00002206877226890687727FF23B8431B02AC
:1029D000984390600868502838D00EDC20284FD0EB
:1029E00006DC00284CD010281ED149E00220F8BD9A
:1029F000302845D0402817D13AE060282ED07028E2
:102A000019D001221203801A0FD090420CD1CB684A
:102A10004A688968206801F0A9F920688168012264
:102A200092031143816000E00126012068770020B5
:102A300028773046F8BDCB684A688968206801F07D
:102A400095F92168886838438860EEE7CA68496864
:102A5000206801F09BFA5021206806E0CA684968A6
:102A6000206801F0A4FA6021206801F08AF9DCE70F
:102A7000CA684968206801F089FA40212068F4E7B3
:102A8000226801461046F0E7704770B504460068BA
:102A900001690025C9438907002915DBC168C943BD
:102AA000890711D4E91E016101202077206880691F
:102AB0008007204602D0FFF7E7FF04E000F0D2F8DD
:102AC000204600F05DF9257720680169C943490770
:102AD00017D4C168C943490713D40421C94301610C
:102AE00002202077206880698005800F204602D070
:102AF000FFF7CAFF04E000F0B5F8204600F040F907
:102B0000257720680169C943090716D4C168C943FC
:102B1000090712D40821C9430161042020772068E5
:102B2000C0698007204602D0FFF7AEFF04E000F046
:102B300099F8204600F024F9257720680169C943F7
:102B4000C90617D4C168C943C90613D41021C943A3
:102B50000161082020772068C0698005800F204629
:102B600002D0FFF791FF04E000F07CF8204600F06F
:102B700007F9257720680169C943C90708D1C168E9
:102B8000C943C90704D1891E0161204600F0FAF843
:102B900020680169C943090609D4C168C943090607
:102BA00005D48021C94301612046FFF7B9FD2068A3
:102BB0000169C943490609D4C168C943490605D416
:102BC0004021C9430161204600F0B0F92068016945
:102BD000C943890609D4C168C943890605D420219F
:102BE000C94301612046FFF79CFD70BD10B586B05A
:102BF000044614216846FDF7E5FA2368154C0022C7
:102C000015480221A3420FD144690B041C434461BF
:102C100040691840059088026B4607C3049109205B
:102C200003926946C00610E00C4CA3420FD14469E0
:102C30001B131C43446140691840059001206B46FA
:102C400007C30490694603920548FEF775FB06B07A
:102C500010BD0000002C01400010024000040040A4
:102C6000000400487047F8B5064604462036307F19
:102C700000270D4601280ED001203077002A0CD005
:102C8000042A1BD0082A2FD00C2A3ED0012700206E
:102C900030773846F8BD0220F8BD206801F07AF898
:102CA00020688169082211438161206882690421BA
:102CB0008A438261206881692A6912E0206801F0F4
:102CC000ADF8206882690121C9020A438261206847
:102CD00081690122920291438161206881692A6998
:102CE000120211438161D2E7206801F0D7F8206811
:102CF000C16908221143C1612068C26904218A4365
:102D0000C2612068C1692A6912E0206801F008F9EF
:102D10002068C1690122D2021143C1612068C269E1
:102D2000012189028A43C2612068C1692A691202AD
:102D30001143C161ABE770B5040005D025462035CD
:102D4000687F002802D006E0012070BD00202877AF
:102D5000204600F014F802206877211D206800F05A
:102D6000C1FF01204034A071A877E877207060701F
:102D7000A070E070207160716877002070BD7047AE
:102D80007047000070B5604988425BD15F49881F79
:102D900000F0ECFB5D485E4C801F008860802046A0
:102DA00002F050F95948254640881835A880284631
:102DB00002F0CCF80020205E7D21C900884204DBAF
:102DC000544802F0ACF800282ED00020205E642881
:102DD00008DA504802F0A3F8002803D000214D483B
:102DE00002F0E6FD0020285E7D214901884204DBD7
:102DF000484802F09EF800281FD00020205EFF21E6
:102E0000913188420FDA434802F093F800280AD043
:102E10000021404802F0E2FD3F48FFF78BFD012111
:102E20003C4802F0D0FD70BD01213A4802F0C0FDDF
:102E300038480168491C0160D4E70121354802F097
:102E4000CDFD70BD35490025354E88424FD1314802
:102E500002F06AF8002843D02E48C030C17A0B0037
:102E600001F0BFFB05050C2030370400E9E72A48D4
:102E7000FFF788FD274802F021FB70BD234C223C60
:102E800061680C2906DA234802F0A2FC6068401C45
:102E9000606070BD0221C172656075621E48FFF7F7
:102EA00049FD70BD1B49002214311E48FFF710FA7E
:102EB0001849002210311B48FFF7E8F9154802F0C5
:102EC000BFFC70BD1448FFF75DFD124802F070FBB7
:102ED00070BD1148FFF756FD0E4802F0A1FA70BD13
:102EE000002002F0CDFD104802F086FE70BD0A49B8
:102EF0008842FBD10846FFF745FD0021054802F056
:102F000062FD756270BD0000C8060020220000202E
:102F10001C050020AC000020A007002010070020A6
:102F20000044014018060020CC050020704770477F
:102F3000704710B5040003D0A06F002802D007E04E
:102F4000012010BD002174200155204600F026F814
:102F50002420A067206801684908490001602046D4
:102F600001F08EF90128ECD0606A002802D02046DA
:102F700001F030F8206841680122D202914341609B
:102F800020688168082291438160206801680122DD
:102F900011430160204601F083F810BDF0B587B001
:102FA000064614216846FDF70DF92A4F01213468C1
:102FB00000252948490402230322BC4219D186690D
:102FC000CC102643866186692640059644690C43E9
:102FD000446140696C46084005905002039229C440
:102FE0000120049009206946C006FEF7A5F907B044
:102FF000F0BD1A4FBC42FAD1C4690C43C461C46924
:103000000C40059444690C43446140696C46084097
:1030100005900C20039229C40120049009206946E0
:10302000C006FEF789F90E480E4C21C42560A56044
:103030008020E56060602020656120610948083CCF
:10304000FEF74AF8002801D0FDF790FD346766626C
:10305000CDE700000038014000100240004400406D
:1030600058000240F008002070B5C36F202B2BD110
:1030700000290BD0002A09D0012483682403A3422D
:1030800006D10369002B03D1CB0701D0012070BD0D
:10309000034660331C7D012C16D001241C750023CF
:1030A0000366046863681B020BD5EFF310830125E8
:1030B00085F3108825680126B6063543256083F31D
:1030C000108801F077F970BD022070BD044910B579
:1030D000884203D10349044800F0A0FD10BD000060
:1030E0006C08002015000020AC0000207047FFB5E0
:1030F0000446806F83B017460D4620285ED1002D10
:103100000AD0002F08D0A168C001814207D12069F0
:10311000002804D1E80702D0012007B0F0BD204606
:1031200060300090007D012848D000980121017591
:103130000020802108512120A067FEF7D5F92646FE
:1031400040360190378277820120A16800038142D6
:1031500002D12069002805D02F46002500990020C3
:10316000087511E00027F9E700228021204601F0D0
:1031700079F9002815D1002F15D0216838780885F5
:103180007F1C708A401E7082708A019B00280698FE
:103190000090E9D100224021204601F063F9002887
:1031A00008D00320B9E728882168C005C00D08852C
:1031B000AD1CE6E72020A0670020AEE70220ACE7C8
:1031C000FEE701688A69D243920701D400228A622D
:1031D00000688169C943C90703D08169012211438D
:1031E00081617047F7B5044600680F468169C9439D
:1031F000C90636D44168890104D44168012292038A
:103200001143416000262546403520688069C0434F
:10321000800612D5781CF8D0FEF766F90299401A9C
:10322000B84201D8002FF0D1616C202001436164C5
:103230006870AE702E700120FEBD21681020C8613C
:1032400020682027C7612046FFF7BBFF2068416840
:10325000054A11404160606C0421084360646F704E
:10326000E7E70020FEBD000000E800FEFEB50F46C7
:10327000694608710A20094D1646D02400900123A2
:1032800001AA21462868FEF761FA642000903346BF
:103290003A4621462868FEF7D1F9FEBD2C000020F1
:1032A000F8B50446164615481D46DAB20090079F49
:1032B0000023204600F054F83A462046069900F0D4
:1032C000F1F8002818D12846F5B2012809D0216864
:1032D000300A88623A462046069900F0E3F8002852
:1032E0000AD1206885620097002240212046069B73
:1032F00000F04AF8002800D00120F8BD002000802E
:10330000F8B50446164615481D46DAB2C3020090C9
:10331000079F204600F024F83A462046069900F020
:10332000C1F8002818D12846F5B2012809D0216833
:10333000300A88623A462046069900F0B3F8002821
:103340000AD1206885620097002280212046069BD2
:1033500000F01AF8002800D00120F8BD00200080FD
:10336000F0B50668059C7568064F600D38438543C7
:103370008805800D110408431843204305437560F8
:10338000F0BD0000FF63FF03F8B51D4617460E466B
:10339000044609E0681C07D0FEF7A6F80699401A13
:1033A000A8420BD8002D09D0206881693046884397
:1033B0000FD00020B842EDD00020F8BD616C202075
:1033C00001436164403460700020A07020700120CF
:1033D000F8BD0120EEE70000F7B5002720260546DE
:1033E0000446403528E02046029A0199FFF7FAFE8C
:1033F000002801D00120FEBD20688069C0438006FE
:1034000011D420688169C943490702D4218D00295C
:1034100017D1C661206841680E4A11404160676457
:103420006E70AF7013E0FEF75FF80299411A0198D1
:10343000814208D8002806D020688069C043400730
:10344000D1D40020FEBD606C304360646E702F707C
:10345000D0E7000000E800FE70B516460D460446B1
:103460000FE0324629462046FFF7BCFE002801D077
:10347000012070BDFEF738F8801BA84208D8002D47
:1034800006D020688069C0438006EAD4002070BD61
:10349000616C202001436164403460700020A070A2
:1034A0002070E5E770B516460D46044611E0324639
:1034B00029462046FFF796FE002801D0012070BD66
:1034C000681C06D0FEF710F8801BA84208D8002D13
:1034D00006D020688069C0438007E8D4002070BD12
:1034E000616C202001436164403460700020A07052
:1034F0002070E3E71CB56A4610715171642000909A
:103500000348D021022301AA0068FEF71FF91CBD61
:103510002C00002010B5044680216B20FFF7EAFF45
:103520006420FDF739FE207821794007C907400F54
:10353000490E01436B20FFF7DDFF6420FDF72CFEF1
:10354000E0784107490F1A20FFF7D4FF6078800721
:10355000C10E1B20FFF7CEFFA0788007C10E1C20F4
:10356000FFF7C8FF042000F041F810BD30B585B06A
:103570000C46054600A901223A200131FFF776FEEC
:1035800068464078002829D0062201A93B20FFF791
:103590006DFE6A46107951790002401828809079B2
:1035A000D179000240186880107A517A00024018E0
:1035B000A880062203A94320FFF758FE6A46107B25
:1035C000517B000240182080907BD17B0002401884
:1035D0006080107C517C00024018A08005B030BD96
:1035E00001490860704700002C00002010B501461A
:1035F0001920FFF77FFF10BD3EB50021184800914C
:103600000191164A02910260816001245205046111
:103610004260C16004224261017641768176C176C2
:103620009101C16189000162014620310C718462FF
:10363000FDF7A8FB002801D0FDF798FA0120000350
:10364000019000040290009469460548FDF790FA45
:10365000002801D0FDF78AFA3EBD00000024014099
:103660004805002008B50C48416901221143416119
:10367000406910400022009011460920FEF7CAFA66
:103680000920FEF7BBFA002211460B20FEF7C2FA12
:103690000B20FEF7B3FA08BD0010024030B587B02A
:1036A00014216846FCF78EFD344842690121C904A3
:1036B0000A43426142690A400592426989100A43FD
:1036C000426142690A400592426949000A434261E7
:1036D00042690A400592426909010A434261406910
:1036E000274D08404C120590002221462846FDF740
:1036F000F5FE0094012000240190029469462846BA
:103700000394FDF719FE402011252D040090694611
:10371000019502941B48FDF70FFE0120C0030090A5
:103720000920694601950294C006FDF705FEFF20B9
:1037300001953930144D0090694602942846FDF7F2
:10374000FBFD012040020090212000040190694609
:1037500002942846FDF7F0FD002211460620FEF7F0
:1037600059FA0620FEF74AFA002211460720FEF712
:1037700051FA0720FEF742FA07B030BD00100240B0
:1037800000080048001400480004004810B5134821
:10379000114901601249416000218160016141616C
:1037A00081610122C161C2600162FDF7EDFE002866
:1037B00001D0FDF7DBF900210848FDF79BFE00284A
:1037C00001D0FDF7D3F900210448FDF7B8FE002829
:1037D00001D0FDF7CBF910BD00540040CC0500200E
:1037E0000E09002010B590B014216846FCF7EAFCE1
:1037F0000024282106A80594FCF7E4FC2649274864
:1038000012C07F2101608460C460FF2104614160B7
:103810000838FEF783FD002801D0FDF7A7F96846B8
:103820000470447084700394002269461B48049419
:10383000FEF7D6FE002801D0FDF798F90120694671
:1038400008754875172088756220C875002205A97B
:103850001248FEF767FE002801D0FDF787F9684699
:103860000476447684760E480B90C00107940D9040
:1038700009940A940C94052108A80176FF200130D0
:103880000F90002206A90548FEF7BAFD002801D0D6
:10389000FDF76CF910B010BD00280040180600209C
:1038A0000000808010B50A4808490160094941605C
:1038B0000021FF228160F4320161C2608161FEF764
:1038C0008FFF002801D0FDF751F910BD0020004006
:1038D000100700207FBB000010B586B000240094C4
:1038E00017480194029403940494144905940160C8
:1038F0002F21846041600461446112498461C16088
:10390000FEF76EFF002801D0FDF730F9012000031B
:10391000009069460A48FFF749F8002801D0FDF7F2
:1039200025F9202004A911C105480839FEF72AFF0E
:10393000002801D0FDF71AF906B010BD0040014083
:10394000580700200F27000010B50B4809490160F7
:103950000A494160002181607D220161520141617B
:10396000C2608161FEF73CFF002801D0FDF7FEF840
:1039700010BD000000440140A00700207FBB0000F4
:1039800010B596B000240F941094119412941394CF
:103990001C2108A81494FCF715FC20216846FCF7AC
:1039A00011FC2B48294901602F218460416004618A
:1039B000446128498461C160FEF712FF002801D0EC
:1039C000FDF7D4F8012000030F900FA92048FEF75F
:1039D000EDFF002801D0FDF7C9F81D48FFF7ABF94E
:1039E000002801D0FDF7C2F8139413A918481494C5
:1039F000FEF7C8FE002801D0FDF7B8F86020089057
:103A0000FF202D300E9409900A940C940D940C22F2
:103A100008A90F48FFF727F9002801D0FDF7A6F8FD
:103A200001200094400302940590019403940494AF
:103A3000694607940648FEF775FE002801D0FDF799
:103A400095F80348FFF7D2F816B010BD002C0140DE
:103A500038060020E703000010B58EB0002407945C
:103A6000089409940A940B941C2168460C94FCF762
:103A7000A9FB21481F4901602F2184604160046136
:103A80001E498461C160FEF7ABFE002801D0FDF73E
:103A90006DF801200003079007A91748FEF786FF7D
:103AA000002801D0FDF762F81348FFF744F9002819
:103AB00001D0FDF75BF80B940BA90F480C94FEF7AF
:103AC00061FE002801D0FDF751F860200090FF2032
:103AD000F530019002940822694604940648FFF7E5
:103AE000C2F8002801D0FDF741F80348FFF77EF83F
:103AF0000EB010BD0004004080060020E703000067
:103B000010B50948074901602F2141600021074A8B
:103B10008160C2608161FEF763FE002801D0FDF77D
:103B200025F810BD00100040C8060020E703000083
:103B300010B50C480A490160E121490241600021A9
:103B40008160C16001618161C1610C2201624261D9
:103B50004162FFF7EEF9002801D0FDF707F810BD2C
:103B600000380140E807002010B50E480C490160FC
:103B7000E1214902416000218160C16001618161F0
:103B80000C22C16142610162082141620903416363
:103B9000FFF7CFF9002801D0FCF7E8FF10BD0000C7
:103BA000004400406C0800207047704701090A2259
:103BB00000075143000F4018C0B27047002102E0D7
:103BC0000A38C0B2491C0A28FAD20907090E08436C
:103BD000704770B504460068C168490613D40021D7
:103BE000C943C160FDF780FC7D260546F60006E06E
:103BF000FDF77AFC401BB04201D9032070BD20685C
:103C0000C0684006F4D5002070BD000010B5024821
:103C1000FEF720FB10BD00001806002000B50121B2
:103C200001F0D1FE00BD704710B5FDF799FF10BD42
:103C300030B595B030216846FCF7C4FA00240C94E6
:103C40000D940E940F941094119412941394FDF704
:103C5000E5FF1548016A1822114301620620009011
:103C60000120039002901020099404900520C004C4
:103C700002250A9008950B946846FEF71FF9072065
:103C80000C900E9401210D950F940CA8FEF742F8AC
:103C900006481090001211901294139410A8FDF78A
:103CA000C5FF15B030BD000000100240210001002A
:103CB0007047000010B50248FEF7E7FE10BD000097
:103CC0001007002010B50248FEF7DFFE10BD00000F
:103CD000A007002010B50248FEF7D7FE10BD000077
:103CE000C8060020F0B502681A4B1B4C984201D060
:103CF000A04203D17025AA434D682A43174D184EA0
:103D0000184F98420AD0A04208D0174CA04205D0C4
:103D1000A84203D0B04201D0B84205D114460322D4
:103D200012029443CA6822438024A2434C6922436E
:103D300002608A68C2620A688262984205D0A8421C
:103D400003D0B04201D0B84201D109690163012119
:103D50004161F0BD002C01400004004000400140E2
:103D600000440140004801400020004030B5846814
:103D7000FF252D021B021343AC430B4323438360F7
:103D800030BD826870239A430A4307210A43826048
:103D900070470000F0B5026A520852000262056ADC
:103DA000436882697024A24392080C68920014430D
:103DB000022295438A68164E2A43144DA84207D022
:103DC000B04205D0134FB84202D0134FB84206D1CB
:103DD0000827BA43CF681743042297433A46A842BC
:103DE00007D0B04205D00B4DA84202D00A4DA842E0
:103DF00006D103252D02AB434D691D438B692B432F
:103E000043608461496841630262F0BD002C014057
:103E100000400140004401400048014070B5026A82
:103E200010239A430262056A42688369732424025C
:103E3000A3430C6824021C4320239D438B681B0171
:103E40002B43124DA84208D11D46CB688026B543AE
:103E50001B012B434025AB4308E00D4DA84205D084
:103E60000C4DA84202D00C4DA84208D10325AD024A
:103E7000AA434D69AD0015438A6992002A43426006
:103E8000846149688163036270BD0000002C0140B9
:103E900000400140004401400048014070B5026A02
:103EA000FF2301339A430262056A4368C2697024A2
:103EB000A24392080C6892001443012252029543D7
:103EC0008A6812022A43124DA84208D11546CA68D0
:103ED000C614B54312022A430515AA4308E00D4D46
:103EE000A84205D00C4DA84202D00C4DA84208D1E2
:103EF00003252D03AB434D692D011D438B691B0128
:103F00002B434360C4614968C163026270BD000015
:103F1000002C0140004001400044014000480140A5
:103F200030B5026A01231B039A430262046A4268A5
:103F3000C36973252D02AB430D682D021D43012378
:103F40005B039C438B681B0323430C4CA04208D0AB
:103F50000B4CA04205D00B4CA04202D00A4CA04210
:103F600005D10124A403A2434C69A4012243426069
:103F7000C56149680164036230BD0000002C014046
:103F800000400140004401400048014030B5036A50
:103F9000046A6408640004628469F025AC43120179
:103FA00022430A24A3430B438261036230BD30B530
:103FB000036A1024A34303628469036A0F252D0357
:103FC0001203AC432243A024A34309011943826195
:103FD000016230BD10B5818CC90707D001684A68FD
:103FE00001235B049A43836A1A434A60818C8907E0
:103FF00007D501684A6801231B049A43C36A1A4320
:104000004A60818C490707D501684A6801239B04EF
:104010009A43036B1A434A60818C090707D50168EC
:104020004A680123DB039A43436B1A434A60818C3D
:10403000C90607D50268916801231B039943836B66
:1040400019439160818C890607D501688A6801232C
:104050005B039A43C36B1A438A60818C490612D56D
:1040600003685A6801210905046C8A4322435A6097
:10407000026C8A4207D10268516803235B059943A9
:10408000436C19435160818C090607D501684A6861
:104090000123DB04806C9A4302434A6010BD000098
:1040A000F8B50446002680300660FDF71DFA054687
:1040B00020680068124F000709D501212B46002215
:1040C00049052046009700F0CDF900280DD1206861
:1040D000006840070BD501212B46002289052046A8
:1040E000009700F0BFF9002801D00320F8BD202080
:1040F000A067E0672666603426750020F8BD0000E2
:10410000FFFFFF0170B5446AA06FE56F2168896801
:1041100000260906002906DA212804D15220065378
:10412000204600F09CF820688068400606D5222DC5
:1041300004D15A200653204600F062F82046803011
:1041400001681022114301602046FEF7F1FE70BDA8
:1041500010B501468969406A202938D000225A21C9
:104160000A52EFF31081012282F31088026813686B
:10417000FF240134A343136081F31088EFF310810F
:10418000012282F31088026893685B085B009360E9
:1041900081F31088EFF31081012282F31088026806
:1041A00093684024A343936081F310882021C16762
:1041B000016E01290BD1EFF31081012282F31088E7
:1041C000026813681024A343136081F31088016E02
:1041D000012902D0FEF77AFF10BD5821095AFEF7D7
:1041E000A6FE10BD10B5406A016E012902D0FEF78F
:1041F0007DFF10BD5821095A4908FEF798FE10BDF1
:1042000010B5EFF31081012282F310880268136861
:10421000FF242134A343136081F31088EFF310814E
:10422000012282F31088026893685B085B00936048
:1042300081F31088016E01290BD1EFF31081012267
:1042400082F31088026813681024A343136081F37B
:1042500010882021C16700210166416610BD10B59C
:10426000EFF31081012282F3108802681368C024E2
:10427000A343136081F310882021816710BD0000E3
:1042800070B5044680682169E269084361690025C8
:104290001143226808431168404B194001431160E3
:1042A00021684868032212039043E2681043486083
:1042B000A169206A084321688A680B231B029A437C
:1042C00002438A6036492068884210D13548006B25
:1042D0008007800F0ED0012805D0022805D00328C2
:1042E0000AD1022109E0042107E0082105E02E4956
:1042F000884201D1002100E010210120E369C003C0
:104300002A4A2B4E834223D1002906D0022907D006
:10431000042907D0082937D108E0FDF77FFD03E025
:10432000104603E0FDF78AFD002831D061684000A7
:104330004A088018FBF7D6FE80B201461039B14218
:1043400022D81B49491C01400007400F08431DE0CB
:10435000002906D0022907D0042907D0082913D143
:1043600008E0FDF75BFD03E0104603E0FDF766FDA6
:1043700000280DD061684A081018FBF7B3FE80B220
:1043800001461039B14201D9012501E02168C86018
:1043900000206066A066284670BD0000F369FFFF3C
:1043A00000380140001002400044004000127A0032
:1043B000EFFF0000F8B5044641654030002627466F
:1043C000028380373E602220E0672546206F6035FB
:1043D00000281BD020498162216F2048C862216FCC
:1043E0001F480863206F13464663606D216884464A
:1043F00062462431206FFCF799FE002806D0102079
:1044000038602E752020E0670120F8BD2E75EFF38F
:104410001080012181F3108821680A68FF2301338D
:104420001A430A6080F31088EFF31080012181F3B2
:104430001088226893680B43936080F31088EFF331
:10444000108081F3108821688A6840231A438A60AB
:1044500080F310880020F8BD51410008E5410008B4
:1044600005410008FFB581B0054617460446603592
:104470000A9E55E0701C53D0FDF736F80499401A97
:10448000B04230D8002E2ED020680168490747D5A9
:10449000C069C043000543D401202168C0020862FE
:1044A000EFF31080012181F3108821680B68FF224F
:1044B000A13293430B6080F31088EFF31080012149
:1044C00081F3108821688A68520852008A6080F35C
:1044D00010882020A067E0678034206000202875C5
:1044E000032005B0F0BDEFF31080012181F31088A7
:1044F00021680B68FF22A13293430B6080F3108880
:10450000EFF31080012181F3108821688A68520836
:1045100052008A6080F310882020A067E067DDE702
:104520002068C1690298884304D00020B842A1D015
:104530000020D6E70120F9E70FB410B504A9074B16
:1045400002AA039800F046F9044602A9002000F0F0
:10455000DDFC204610BC08BC04B018470D4F000815
:1045600037B514460846064B6A46214600F032F934
:1045700004466946002000F0C9FC20463EBD00000C
:104580000D4F00082021020C01D010211046020A14
:1045900001D010460839020901D01046091F8208CF
:1045A00001D01046891E420801D0881E7047081AA3
:1045B0007047F8B5040C8BB2264682B25E430D0CF0
:1045C0001046370C584336048019002179411646AD
:1045D0006E43370C36048019794126466E4389199B
:1045E000F8BD30B47446641E2578641CAB4200D21A
:1045F0001D46635D5B00E31830BC18478307FF224C
:10460000DB0E9A408907090E9940002808DB8308D1
:1046100009489B001B1818689043084318607047AE
:104620000007000F0838830804489B001B18D8694E
:1046300090430843D861704700E400E000ED00E0DB
:1046400002E008C8121F08C1002AFAD1704770475B
:10465000002001E001C1121F002AFBD170470000B9
:10466000F0B51FB486B00998089A030D00210243E3
:1046700014D05148514A1818504305141198012874
:1046800010981AD0281A401C00264D4F4D4900960C
:1046900001910490002812DA444211E0119801249B
:1046A00049A3012801D11098C1430698119A84604A
:1046B0000360C26041600BB0F0BD4042E4E70446D5
:1046C000210500203F4A001C51410391029012E055
:1046D000E00707D032463B4601990098FBF704FFFC
:1046E0000191009032463B4610461946FBF7FCFE0E
:1046F00006460F466410002CEAD10498039B00285C
:10470000029A0999089806DAFBF7EEFE019B009AD7
:10471000FBF7EAFE05E0FBF74FFF019B009AFBF772
:104720004BFF04460E460022284BFCF7F3F803D853
:104730000020C043014607E00022254B20463146B9
:10474000FBF720FEFCF7C6F8102409E0002C0ADB7A
:104750000A220023FBF7DCFC079B30321A55641E4B
:1047600002460A43F2D11122641C079B121B1C193A
:10477000119B012B03D0012308430ED10AE008430B
:1047800004D0112010900020119077E71098151A8E
:104790006D1E0BE01098824202DD00236D1C03E0C9
:1047A000824201DA00236D1E002BEED0069811998B
:1047B0008260C16030C07EE701FCFFFF104D000049
:1047C000000014400000F03F300000000000F04303
:1047D0000000E03FFFB597B00646002518E2252807
:1047E00077D100242746FD49049400E00443761C59
:1047F00032780120203A90400842F7D130782A28B8
:104800000ED00222307801463039092916D8049991
:104810000A235943303940181443761C0490F1E7B9
:10482000189802C804911890002904DA0120400366
:1048300004434842049002200443761C30782E281A
:1048400014D1042004437078761C2A2809D11898C2
:10485000761C80C8189009E00A214F43303FC719E1
:10486000761C3078014630390929F5D930786C2822
:1048700010D006DC4C281AD068280ED06A2817D130
:1048800004E0742813D07A2812D110E001204005EA
:1048900004430CE00121090501E0032109050C4353
:1048A0007178814203D1012000052418761C761C02
:1048B0003078119066280BD013DC58287DD009DCA5
:1048C00000287BD04528F6D04628F4D047281AD1B6
:1048D000A5E118E0632835D0642870D0652812D18E
:1048E0009DE170286CD008DC6728F1D069287BD066
:1048F0006E280DD06F2806D1BAE073282ED0752807
:1049000071D0782859D01A9A199990476D1C7EE178
:104910006002400F022809D003280DD004281898FF
:1049200001680DD00D60001D189070E11898EA170D
:1049300001680D604A60F6E7189801680D80F2E79B
:104940000D70F0E718986A4601781172001D1890F2
:104950000020507202A80090012005E0189802C8BB
:10496000189000200091C04361070DD5002101E09F
:104970000199491C0191B94212DA8142F8DB009A8F
:10498000515C0029F4D10BE0002101E00199491CA0
:1049900001918142FADB019A0099895C0029F5D1E5
:1049A000019904981A9B471A21463846199A00F033
:1049B00097FA0199401945180BE04FE02CE113E0FC
:1049C0004EE0009800990078491C00911A9A1999B4
:1049D00090470198401E0190401CF2D12146384674
:1049E0001A9B199A10E137E00A20002100900191EA
:1049F0006002410F022907D0189A01CA1892C21703
:104A00009446032908D00AE01898C01DC108C900BF
:104A100005C91891944607E000B2C21794460429CC
:104A200002D140B2C1178C4600226146944506DA95
:104A30000A460021404291418C462D2102E0210589
:104A400004D52B216A461173012103E0E10701D04F
:104A50002021F7E7029155E00A200AE0102008E043
:104A6000102000900021042004430191082703E056
:104A700008200021019100906002410F022907D017
:104A8000189A01CA189200229446032908D008E017
:104A90001898C01DC108C90005C91891944603E0C3
:104AA00080B2042900D1C0B200210291210729D58A
:104AB0001199702906D0009A1021019B4A401A438F
:104AC00005D00EE040216A461173012108E06146DD
:104AD000014306D030216A461173119951730221A6
:104AE0000291009A0821019B4A401A430AD161466B
:104AF000014301D1610705D530216A4611730121B7
:104B00007F1E02911199582904D035A10E910DA94B
:104B10000D910DE037A1F9E76146019B009AFBF783
:104B2000F7FA0E9B8C469B5C0D9A521E0D921370E9
:104B300061460143F0D10D9805A9081A2030019073
:104B4000600703D501200004844300E00127019899
:104B5000874201DD381A00E00020019900904118D9
:104B6000029809180498401A0490E00306D42146DC
:104B70001A9B199A049800F0B3F94519002706E02A
:104B800003A81A9AC05D199990476D1C7F1C029862
:104B90008742F5DBE0030CD521461A9B199A04984D
:104BA00000F09EF9451904E01A9A302019999047AF
:104BB0006D1C0099481E00900029F5DC08E00D9856
:104BC0000D990078491C0D911A9A199990476D1CFE
:104BD0000199481E01900029F1DC63E109280100D8
:104BE0003031323334353637383961626364656663
:104BF0000000000030313233343536373839414225
:104C0000434445460000000000F05AF94519761C5F
:104C10003078002800D0E2E528461BB0F0BD6007E0
:104C200000D406271898C01DC108C90048680A6842
:104C30000831C30FDB071891190001D09CA108E0CF
:104C4000210501D59BA104E0E10701D09AA100E074
:104C50009AA1430011985B08109165280CD006DCDE
:104C6000452809D046281DD0472841D141E0662873
:104C700018D067283CD13CE00021112F01DB112026
:104C800000E0781C0191009008A911A8FFF7E8FC4A
:104C9000139905910021119A15927F1C1298019782
:104CA000009150E00120C00703900120019008A965
:104CB000009711A8FFF7D4FC139A149905920022CB
:104CC000119B009212981593059A0192002901D028
:104CD000104602E0791C40180190381A01D501985D
:104CE00004E04042401E0090781C0190C01B0290DE
:104CF00043E0012F00DA01270021112F01DD1120EF
:104D000000E038460191009008A911A8FFF7A8FC1F
:104D100013990591119A002112981592009101970B
:104D200021070CD40599B94201DB019900E00191FA
:104D3000012904DD159A491E515C302906D0B8427C
:104D400001DA011D05DA0121029115E00199491EE0
:104D5000EDE7002805DC0099411800910199091A36
:104D600003E0019A411C914200DD01910099401A33
:104D7000401C02900120C0070390200706D402992E
:104D80000198814202DB0020C04302900020694666
:104D9000C87707AF012103980337C907884224D099
:104DA000022011902B201290039800280CDA404228
:104DB00003902D20129007E00A210398FBF792F947
:104DC00030317F1E039039701199481E11900029CF
:104DD000F2DC03980028EFD1791E12980870307821
:104DE000202108404530BF1E387006A8C01BC01DDA
:104DF000039010980078002800D0012001994118F4
:104E00000298C0170918039809180498401A401E00
:104E10000490E00306D421461A9B199A049800F0E6
:104E20005FF8451910980078002803D01A9A19994C
:104E300090476D1CE00324D521461A9B199A0498CB
:104E400000F04EF845191CE00098002807DB009997
:104E50000598884203DD1598405C199901E019997D
:104E600030201A9A904700986D1C401C00900298C0
:104E7000401E0290002804D11A9A2E2019999047BA
:104E80006D1C0199481E01900029DDDC05E0387891
:104E90001A9A7F1C199990476D1C0399481E03901C
:104EA0000029F4DC21461A9B199A0498ACE600000C
:104EB0002D0000002B00000020000000000000007A
:104EC000F8B5044600251E461746880404D405E0BC
:104ED00039462020B0476D1C641EF9D52846F8BD20
:104EE000FFB50446002581B01E46C80301D5302712
:104EF00000E02027880404D505E038460399B04730
:104F00006D1C641EF9D5284605B0F0BD0A68531C17
:104F10000B6010707047A030807FC0097047A030D0
:104F2000807F4007C00F7047A030807F0007C00F10
:104F30007047A030807FC006C00F704700210180FD
:104F400041808180C180018170470000F0B5044636
:104F5000324885B0C068401CFBF7B1FB3049FBF715
:104F6000D2F900902F48E0602F4820610420205E95
:104F7000FBF79AFB2B490390FBF788F9029002207C
:104F8000205EFBF791FB05460099FBF77FF906468B
:104F900024480099FBF77AF92946FBF777F9074689
:104FA0000020205EFBF780FB1E490190FBF76EF9A5
:104FB00001460198FBF762F93946FBF75FF9314684
:104FC000FBF70BF90299FBF708F9FBF77FFB06B239
:104FD000268015490398FBF759F9074601951248B1
:104FE0000099FBF753F92946FBF750F9054630467F
:104FF000FBF75AFB01460D48FBF748F92946FBF73A
:105000003DF90199FBF7E9F83946FBF7E6F8FBF7BC
:105010005DFB6080E680208105B0F0BDC806002001
:1050200000247449C572CB3CA4E29F3EA4E29FBE1B
:1050300000230380438083808360C36002614161F9
:1050400070470000F8B504460220205EFBF72CFBF9
:1050500000906169E068FBF7C0F8266907463146B1
:10506000FBF7BBF8054629463846FBF74CF9009993
:10507000FBF70CF907460420205EFBF715FB0090B8
:1050800029463046FBF73FF90099FBF7FFF8394610
:10509000FBF7A3F8FBF71AFB2080A0800148A06073
:1050A000E060F8BD6D7CD341BEB0FCF761FDFEF75A
:1050B000BFFDFEF7F3FAFEF7D5FAFEF767FBFEF742
:1050C00091FBFEF75DFCFEF7C7FCFEF731FDFEF736
:1050D00093FAFEF749FDFEF713FDFEF7FDFBFEF721
:1050E000E1FBFEF731FC4BA0FBF7D2FC1621684632
:1050F000C1750821417502248475042101751321AD
:105100000170092141700A218170002205A94848D7
:10511000FDF708FA002269464548FDF761FA45A007
:10512000FBF7B6FC7D252D012846FCF735F844A099
:10513000FBF7AEFC484800F0B5FC3EA0FBF7A8FC2E
:105140002846FCF729F845A0FBF7A2FC06A800F0CA
:10515000EDFDE02206A94748FBF71BF84648FDF79E
:10516000E9FB34A0FBF794FC2846FCF715F843A0B4
:10517000FBF78EFC3848FEF733FA46490120887069
:1051800000220A70CC70032048700A710846FEF7AE
:10519000C1F928A0FBF77CFC2846FBF7FDFF3EA0E9
:1051A000FBF776FC3B490622491D4248FDF75CFFB0
:1051B00020A0FBF76DFC2846FBF7EEFF3EA0FBF7B7
:1051C00067FC2C498022E0314448FBF7E7FE444865
:1051D000FDF78CFB17A0FBF75BFC2846FBF7DCFF19
:1051E00040A0FBF755FC474A47494848FFF720FFD6
:1051F00046487F22D20546491830FFF79FFE4548B2
:10520000FDF798FB0BA0FBF743FC2846FBF7C4FF18
:10521000FEE700004461746520616E642054696D8E
:10522000652073657474696E672E2E2E2020000031
:10523000180600202020446F6E6521200A0D2000F2
:10524000446973706C617920696E6974696174690D
:105250006F6E2E2E2E202000CC0500205379737403
:10526000656D20696E6974696174696F6E2E2E2E8A
:1052700020200000AC000020100700204D505536C3
:1052800030353020696E6974696174696F6E2E2ED5
:105290002E20200010000020426C7565746F6F7422
:1052A0006820696E6974696174696F6E2E2E2E2094
:1052B000200000006C0800204261657474657279FA
:1052C000206C6576656C2041444320736574746975
:1052D0006E67732E2E2E202000000000480500204F
:1052E000580700204B616C6D616E2066696C7465B7
:1052F0007220696E6974696174696F6E2E2E2E203A
:105300002000000000006144CDCC4C3F1C05002073
:10531000CDCCCC3DC8060020FFB581B01F46154658
:105320000C461846FBF7CBF90646281BFBF7BCF9E1
:10533000054601980A99001BC91B4843FBF7B4F9BD
:105340002946FAF7E0FF3146FAF747FF024988425B
:1053500000DD084605B0F0BD0000C842F0B58BB0D6
:105360000C460646052900D905242046062250434E
:10537000192103AD02910190012307220095AF216D
:105380001248FCF76BFA00221BE010460621484346
:10539000295C4019437809041B0219438378194397
:1053A0008903890BD300F150C178077909043F02C2
:1053B0004079394301438803800B9919521CD2B2BA
:1053C0004860A242E1D30BB0F0BD0000CC05002044
:1053D00030B585B00021684601730174012403A82B
:1053E0000A25009023460422AF21029501940B4820
:1053F000FCF734FA04A8009001230622AF2102959D
:1054000001940648FCF72AFA6846017B007C081ADA
:1054100000D52030C0B205B030BD0000CC05002062
:1054200070B50446002000F02BFB2546C0352878D7
:10543000A0341030C1B2E07F0E30C0B200F0D6FB15
:105440001248012306C812A000F059FC2878283021
:10545000C1B2E07F0830C0B200F0C8FB0F4E01239C
:1054600006CE0FA0083E00F04AFC28783730C1B2C3
:10547000E07F3530C0B200F0B9FB06CE01230DA0AD
:1054800000F03DFC0C4800F0B7FB70BD3800002078
:105490004F70656E57617463680000003000002033
:1054A000532E4D6F746C6171202D20534D534D540C
:1054B0000000000041555400CC050020F8B504461A
:1054C000002000F0DDFA2646C0363078A0341030D7
:1054D000C1B2E07F234A3D300CCAC0B200F0ACFA42
:1054E00030781630C1B2E07F00F080FB1E4F012300
:1054F00006CF1EA0083F00F002FC00253078E27FB6
:105500002430C1B228460E301018C0B2012200F07B
:1055100071FA6D1C662DF1DB30782A30C1B2E07F64
:1055200000F064FB06CF012315A0083F00F0E7FB65
:1055300030783430C1B2E07F00F058FB06CF012351
:1055400014A000F0DCFB3078174A3F30C1B2E07F96
:105550000CCA3D30C0B200F06FFA144800F04CFBAA
:10556000F8BD0000880000203000002050726573F4
:105570007320555020746F20616363657074000060
:10558000202020507265737320444F574E20746F53
:105590002020000072656A6563742020636F6E6E60
:1055A000656374696F6E000090000020CC050020D8
:1055B000F0B5044685B0002000F062FA2646C036F9
:1055C000307825461230C1B2A035E87F6F4A801C82
:1055D0000CCAC0B200F030FA1F20A17A2856642904
:1055E00001D3002100E0042140183178C0B22531F8
:1055F000C9B200F0FBFAA27A65A16846FEF79CFFEB
:10560000644F012306CF6846083F00F078FB3078EE
:105610003330C1B2E87F001DC0B200F0E7FA06CF18
:1056200001235DA0083F00F06AFB30785B4A12302E
:10563000C1B2E87F0CCA1F30C0B200F0FDF930786B
:105640002530C1B2E87F1A30C0B200F0CFFAE0686E
:10565000FBF769F802460B4651A16846FEF76CFF5E
:1056600006CF01236846083F00F049FB307833300D
:10567000C1B2E87F1A30C0B200F0B8FA06CF0123F9
:1056800049A0083F00F03BFB3078494A1130C1B2D5
:10569000E87F0CCA4430C0B200F0CEF920680A2876
:1056A00001D249200FE0642801D245200BE07D2182
:1056B000C900884201D2422005E03E49884201D219
:1056C0003E2000E03B203178EA7F25311018C9B236
:1056D000C0B200F08BFA2EA168462268FEF72CFFBC
:1056E00006CF01236846083F00F009FB30783330CD
:1056F000C1B2E87F3B30C0B200F078FA06CF012398
:105700002DA0083F00F0FBFA30782D4A1130C1B2CD
:10571000E87F0CCA6B30C0B200F08EF92068FAF74F
:10572000CEFF6168FAF7B2FD04461F2025492856CE
:105730008C4201DB632100E0662140183178C0B261
:105740002531C9B200F052FA2046FAF7ECFF0246C2
:105750000B4613A16846FEF7EFFE06CF012368460D
:10576000083F00F0CCFA30783330C1B2E87F6A30BD
:10577000C0B200F03BFA06CF012313A000F0BFFA3D
:10578000124800F039FA05B0F0BD000050000020CA
:105790002564000030000020485200006000002016
:1057A000252E31660000000053704F3200000000CB
:1057B000580000201027000053746570730000002B
:1057C00080000020000020416B6D0000CC0500200F
:1057D00070B50446002000F053F92546C0352878FE
:1057E00026461630C1B2A036F07F0E30C0B200F0AF
:1057F000FDF90D48012306C80CA000F080FAF07FE7
:10580000A97F40182978C0B22B31C9B200F0EEF957
:105810000948012306C82046CC3000F070FA07483A
:1058200000F0EAF970BD00003800002047726561A1
:1058300074696E677300000030000020CC05002002
:10584000F0B5044685B0002000F01AF92546C035B1
:10585000287826461030C1B2A036F07F1830C0B28A
:1058600000F0C4F9637D227D3EA101A8FEF764FE2D
:105870003F48012306C801A800F041FA28781D30EE
:10588000C1B2F07F6830C0B200F0B0F9A27D36A19D
:1058900001A8FEF751FE374F012306CF01A8083FAC
:1058A00000F02DFA28782A30C1B2F07F1E30C0B245
:1058B00000F09CF9A07C0090637CE27C2EA101A802
:1058C000FEF73AFE06CF012301A8083F00F017FAC1
:1058D00028782E4A3630C1B20CCAF07F00F0ACF8FE
:1058E00028783730C1B2F07F0F30C0B200F07EF9B7
:1058F0006420009020890023254A2649FFF70CFDEB
:10590000FAF7FDFEC2B224A101A8FEF715FE06CFEC
:10591000012301A800F0F3F92878214A3030C1B200
:10592000F07F0CCA7730C0B200F086F82046FFF74F
:10593000F2FA0028287806D03130C1B2F07F194A37
:105940006A30C0B205E03130C1B2F07F164A68302B
:10595000C0B20CCA00F070F8144800F04DF905B060
:10596000F0BD0000253032643A253032640000007A
:1059700040000020300000203230253032642D25D8
:105980003032642D253032640000000048000020D1
:10599000430F0000B80B000025642525000000001F
:1059A000680000207800002070000020CC05002056
:1059B000A030827F002902D004210A4301E0FB21AC
:1059C0000A4082777047A030827F002902D00821E8
:1059D0000A4301E0F7210A4082777047A030827FB6
:1059E000002902D010210A4301E0EF210A4082770A
:1059F0007047000070B5822816D2402914D24D0796
:105A000001246D0FAC400A4BC90882251E796943F9
:105A1000084B0818002E02D0002A06D001E0012A07
:105A200003D0195CA143195470BD195C2143FAE7F6
:105A30009800002034090020FFB582B06846002598
:105A4000067C477C18E005986900405A019003984D
:105A50000024401900900CE00198A040000407D5F4
:105A600000980122C1B202980019C0B2FFF7C2FF2C
:105A7000641CA642F0DC6D1CAF42E4DC06B0F0BD55
:105A800010B50021064B41221201002805D0FF2449
:105A90005C54491C9142F8D310BD0024F8E7000083
:105AA0003409002070B505466420FBF775FBAE2174
:105AB000284600F015F904462021284600F010F988
:105AC00004191021284600F00BF90419B0212846CA
:105AD00000F006F90419C821284600F001F904195C
