:020000040800F2
:10000000881B0020C9000008E12D000837270008E0
:1000100000000000000000000000000000000000E0
:10002000000000000000000000000000452E000855
:100030000000000000000000E32D0008472E00082B
:10004000DB00000800000000352E0008DB0000087F
:10005000DB000008DB000008550900085F09000804
:1000600000000000E9080008DB000008F9080008AB
:10007000C5070008DB000008DB00000800000000E6
:10008000DB000008DB00000800000000DB000008C7
:10009000DB000008DB000008DB000008DB000008D4
:1000A000DB000008DB000008DB000008DB000008C4
:1000B000DB0000080348854600F046FB0048004787
:1000C000F9390008881B002004488047044800478D
:1000D000FEE7FEE7FEE7FEE7FEE7FEE7D52E0008B7
:1000E000B500000830B50B4601460020202201244F
:1000F00009E00D46D5409D4205D31D469540491B5C
:100100002546954040191546521E002DF1DC30BDA4
:1001100070B500242546002801DA01244042002958
:1001200001DA01254942FFF7DDFFAC4200D0404231
:10013000002C00D0494270BDF0B51FB40646002027
:1001400082B005464024019100901BE001992246AF
:100150000F46304600F020F8049A059B801A99411A
:1001600010D310461946224600F03EFA361A8F4147
:100170000197224601200021009F00F035FA38182F
:100180004D4100902046641E0028DFDC019B009852
:100190002946324607B0F0BD10B5202A04DB0846D8
:1001A000203AD040002110BD0B46D340D04020243F
:1001B000A21A91400843194610BDD2B201E0027064
:1001C000401C491EFBD270470022F6E710B51346CB
:1001D0000A4604461946FFF7F0FF204610BDF8B561
:1001E00002464A40D40F42004B0052085B089A4234
:1001F00002D20246084611464A0023D0C30D4A00E7
:10020000DDB2120EAD1A202D35DA49020126490A57
:10021000F6058A19002C00D0524220214F1B1146AE
:10022000B9402A411018C20D9A4221D0002C17D093
:10023000012D08DCDA05801AD20F8019D207DBB253
:1002400000F0EAF9F8BDDA05801A012340001B0628
:10025000C01880185A428018CA0F1043490007E09E
:100260004908C2071143DA05801A8019400880182E
:1002700000F0CAF9F8BD61000122511A001BF7E72E
:100280000122D2075140AAE70122D2075040A6E737
:1002900070B502464A40D50F40004A00ED074008BD
:1002A0005208002814D0002A12D0C40DD30D4102E8
:1002B0000120C0055202490A520AE41A091812180C
:1002C0007D34914201D3641C00E04900002C01DA26
:1002D000002070BD0023914201D3891A03434008D6
:1002E00049000028F7D100290AD0914202D101210A
:1002F000C90705E0914201D2012101E00121C94372
:10030000E005C018401900F07FF970BDF0B51FB4CA
:1003100088B00B990998002448400999C00F4900FA
:1003200049080991C0070B990090490049080B91B1
:1003300009990898A64608431CD00B990A980843C7
:1003400018D0099801244000420D4800410D099839
:1003500024050003000B204309900B980003000BB9
:1003600020430B9050181C4940180022019014465D
:10037000104605E0002001460DB0F0BD032801DA6B
:10038000034600E003239C46C11A0AAE0AE05F0060
:1003900008ADED5B4F00F75B7D430027AA187C4159
:1003A000491C5B1E6145F2DD410004AB5A52210439
:1003B000120C0A43240C401C0828DFDB0198029031
:1003C0000099704601910090059B049A0799069840
:1003D00000F068F9D0E700000DFCFFFFF0B50C4617
:1003E0005C4085B0E40FE40703944C0000266408E9
:1003F00059009446490802460296224321D062469B
:100400000A431ED06200570D4A000E032303550D08
:10041000012402462C492405781B1B0B360B40187F
:1004200023432643614600901C46501AB44103D32F
:100430000098401C009002E0921800985B41002850
:1004400003DA0020014605B0F0BD002001210905B6
:100450000746864611E064461D46141BB54106D387
:100460006546521BB341744607430C43A646CD076D
:1004700040084908284392185B4105460D43EAD1DC
:100480001046184313D06046194650407140084347
:1004900006D06046101AB34106D20122002306E0BE
:1004A00000220123DB0702E00122D243531000980F
:1004B00074460105381C6141029C039D0019694185
:1004C00000F0E3F8BFE70000FD030000C217C10F12
:1004D000504010B54018CA079623002100F09CF840
:1004E00010BD10B500229623114600F095F810BDFE
:1004F0000EB5C217C10F5040CA0740180021054B66
:100500000293019200910A460B4600F0CBF803B02B
:1005100000BD0000330400000EB505490291002122
:1005200000910A460B46019100F0BCF803B000BDF3
:1005300033040000C20F410040020123400ADB05E2
:10054000D207090EC0187F2901DA002070479629CA
:1005500003DC9623591AC84001E096398840002AE6
:10056000F4D040427047000070B5CD0F4A00090337
:100570000123090B1B0519430B4BED070024520DFA
:100580009A4201DA002070BD074B34339A4203DCF3
:100590009A1AFFF701FE02E00449511888402C43E3
:1005A000F1D0404270BD0000FF030000CDFBFFFF13
:1005B000CB0FDB07490010B5490802460A4307D0B4
:1005C0000A0D07240903E401090B121B002A01DCB0
:1005D000002010BDC900440F0C43C100E018D20533
:1005E000801800F011F810BD10B5202A04DB014678
:1005F000203A9140002010BD914020239C1A0346D0
:10060000E3401943904010BD002904DA401C490022
:1006100001D140084000704770B40024050C05D19A
:100620001024000402D1002921D01124050E01D18B
:1006300000020834050F01D10001241D850F01D1EE
:100640008000A41C002801DB4000641C002908D0A5
:1006500020252E1B0D46F540A14000D00121294345
:10066000084301061B1B000ADB1D02D5002070BCDD
:100670007047DB05181880180029F8DA401C49007B
:10068000F5D170BC40084000704710B5002B08DA67
:100690000024401C614192185B411A4301D140087B
:1006A000400010BDF0B51FB482B005460C0003D069
:1006B000084602F091FF02E002F08EFF2030024671
:1006C000009021462846FFF78FFF049B059A0446B9
:1006D0000F4618431143084314D0184610431BD04B
:1006E000009840210A1A18460599FFF755FD05465E
:1006F0000E46009A05990498FFF776FF084305D047
:10070000012004E02046394607B0F0BD0020C117A3
:1007100005430E432C43374300990E986305401A56
:100720007905E40A00220C43FD0A0A3002D50020B4
:100730000146E9E70105101969410C9C0D9D00195E
:100740006941FFF7A2FFDFE7064C0125064E05E0F1
:10075000E36807CC2B430C3C98471034B442F7D3E2
:10076000FFF7ACFC843C0008A43C000870B58C1872
:100770000578401C6B075B0F01D10378401C2A11E0
:1007800006D10278401C03E006780E70401C491C1C
:100790005B1EF9D12B0705D40023521E0DD40B701C
:1007A000491CFAE70378401CCB1A921C03E01D7821
:1007B0000D70491C5B1C521EF9D5A142D8D30020F4
:1007C00070BD000010B5024800F08CF910BD0000AB
:1007D000D412002010B50146406A826B50231A42A1
:1007E0000AD1816B01225202114381630168CA68F8
:1007F0001205920F05D020E0006B026B084690476F
:1008000010BD827E002A18D10A68120715D58A68A1
:1008100053070122002B09DB4B680C24A3434B60D8
:10082000816B130299431143816306E0816B20239E
:1008300019438163C16B1143C16300F031F910BDED
:1008400010B5406A816B402211438163C16B042261
:100850001143C16300F045F910BD10B5406A00F0C6
:100860003FF910BDF8B5044600200090206881686B
:100870008907890F012905D10168C9072CD1C168F1
:10088000090429D48168154A102611400125002940
:1008900015D1816829438160124811490068FFF72A
:1008A00021FC00E0401E00900028FBD100F08EFCEF
:1008B00007460CE000F08AFCC01B022807D9A06B99
:1008C0003043A063E06B2843E0630120F8BD20685B
:1008D0000068C043C007EDD10020F8BD17000080BC
:1008E00040420F009802002010B5024800F0BEFA06
:1008F00010BD00001413002010B5024800F0B6FA35
:1009000010BD00004415002010B5044600680549DC
:1009100040181421FFF7E6FB800020640248E063E2
:1009200010BD0000F8FFFDBF0000024030B5056CAF
:100930000124AC40C56B6C60046863604368102B95
:10094000036803D099600068C26030BD9A60006897
:10095000C16030BD10B5082000F06EFB10BD10B5B1
:10096000102000F069FB202000F066FB402000F022
:1009700063FBFF20013000F05FFB0120400200F02C
:100980005BFB0120C00300F057FB10BD7047000067
:10099000F8B50025044620340095227D012A39D07F
:1009A0000122227503689E68760767D4384F4E6827
:1009B000BE424DD09E6A0F78BA4016439E62012314
:1009C000C26A1B079A421FD0012A1DD0022A1BD0DF
:1009D000032A19D0042A17D0052A15D0062A13D0C5
:1009E000072A11D002688B6856697607760FB342E2
:1009F0000AD05369DB08DB005361006842690B7A57
:100A00005B075B0F1A4342610A68102A04D0112A5F
:100A100002D038E00220F8BD1E488368102A07D0B3
:100A200001229205134383600868102803D02AE04E
:100A30000122D205F6E7194817490068FFF752FB73
:100A40000A21484300E0401E00900028FBD11AE034
:100A5000986A0E78B240904398620968102901D0D4
:100A6000112910D10B488268102904D00121890571
:100A70008A43826007E00121C905F9E7816B2022E2
:100A8000114381630125002020752846F8BD000030
:100A9000011000000027014040420F009802002092
:100AA00070B500200B4C0C4A7D230146DB00E06052
:100AB0008D005559491C28189942F9DBE060FFF771
:100AC0002BFD0022054BFFF789FCFFF771FDA060AD
:100AD00070BD0000000000200C0300200000594001
:100AE0007047704770B5044600680168490702D531
:100AF0004168490705D40168090730D541680907ED
:100B00002DD5A16BC90604D4A16B01225202114359
:100B1000A163C1680C250905890F00291AD1A17E9E
:100B2000002917D10168090714D581684A070121F6
:100B3000002A08DB4268AA434260A06B0A02904385
:100B40000843A06306E0A06B20221043A063E06B83
:100B50000843E0632046FFF7A3FF20680560206894
:100B6000016809060DD5406800060AD5A06B012171
:100B700009040843A063204600F0D8F821688020CB
:100B8000086020680168C90613D54168C90610D5F8
:100B9000A16A1025012902D0C168C90707D0E16BFD
:100BA00002221143E16305602046FFF79AFF2068A7
:100BB000056070BDF8B500260446002805D0A06B7E
:100BC00025462035002802D007E00120F8BD00208E
:100BD000E0632875204600F0ABF8A06B1022C00639
:100BE000002870DB2068816849076CD4A16B130171
:100BF000994302231943A16381688907890F012959
:100C000005D10168C9070FD1C16809040CD4C168B6
:100C100018239943A3681943C16020680169636878
:100C200089008908194301612068C1683D4B19405A
:100C3000C160207E617E8003C9030843A17E4B030F
:100C40001843A36A012B02D001231B0300E00023F9
:100C50001843E36818432369022B09D00023184383
:100C60002B79E57E5B0018430123012D02D00AE0B9
:100C70000423F4E7002927D0A16B20252943A16391
:100C8000E16B1943E163E1690D46FF3DC23D02D0CE
:100C9000256A294308432168CD680543CD600125B5
:100CA000E16A2D07A94213D0012911D002290FD0E2
:100CB00003290DD004290BD0052909D0062907D016
:100CC000072905D010E028E0012109040843DAE7EC
:100CD00021684D69ED08ED004D6121684D69A78DD2
:100CE0007F077F0F3D434D612168C9680E4D294044
:100CF000814207D10020E063A06B80088000401C87
:100D0000A06308E0A06B022188431043A063E06B5E
:100D10001843E06301263046F8BDA06B1043A06382
:100D2000F8E700001902FEFFE7FF3F83704700006D
:100D3000F0B587B0054614216846FFF745FA1F490C
:100D40002868884237D11E4988694E15304388612A
:100D50008869304005904A69300202434A61496916
:100D600000270140059102200090032001900920F6
:100D700069460297C00600F06BF91248124C81C414
:100D800027608020A66060600001E060202067612D
:100D900020610D48083C00F0B7F8002801D0FFF7AB
:100DA000F5FD2C63002211460C20656200F0EEFB7D
:100DB0000C2000F0DFFB07B0F0BD00000024014074
:100DC000001002400800024014130020F7B504464A
:100DD00000680025806840073DD426462036307DD7
:100DE00001280AD001273775607E012807D02046E8
:100DF000FFF738FD050002D02EE00220FEBDA06BFB
:100E000016490840FF2101310843A0630020E06338
:100E10003075216B12488862216B1248C862216BC1
:100E20001148086321681C2008602068416810226E
:100E3000114341602068C1683943C1602168206B5B
:100E40004031029B019A00F089F8206881680422F1
:100E50001143816000E002252846FEBDFEF1FFFF40
:100E6000D50700085B08000841080008F0B4C16B12
:100E70000D6801680C680422066C1346B3402B42CF
:100E80000DD063070BD50B689B0602D40B68934308
:100E90000B60016C8A40C16B4A60C16A19E002278D
:100EA000B74002462F4001232032002F15D0A7075C
:100EB00013D50C68A40604D40C680A25AC430C6056
:100EC0005370036C02219940C36B5960002111706B
:100ED000816A002916D0F0BC08470827B7402F4286
:100EE00010D024070ED50C680E25AC430C60046CA2
:100EF0001946A140C46B6160836353700021117077
:100F0000016BE6E7F0BC704770B5040021D0022108
:100F10002046203005464170226811680E48A368BB
:100F20000140606826691843E368334318436369E6
:100F30001843A3691843E369184308431060204627
:100F4000FFF7E2FC0021A1630120687029700846C8
:100F500070BD012070BD00000FC0FFFFF8B5044652
:100F60008C46203001780025012909D00126067021
:100F700041780027012905D0077002252846F8BDD1
:100F80000220F8BD02214170A7632068016849086A
:100F90004900016061462046FFF7C8FCE06A00286E
:100FA0002068016802D00E22114306E00A22114394
:100FB0000160206801680422914301602068016893
:100FC00031430160DAE7000070B5044600F0FEF836
:100FD0000546601C02D004480078241800F0F6F89A
:100FE000401BA042FAD370BD9C02002010B5C11F67
:100FF000FF39FA3914D102F0C3FD0A4908700146DD
:10100000094802F083FD084808A14268084802F038
:10101000CFFAC2B27D23DB000549064801F024FB6C
:1010200010BD000000000020AC12002025640A0062
:10103000A8020020C414002010B504494A690242E5
:1010400002D04861FFF7D2FF10BD0000000401404C
:10105000FCB500230124A1E027462A469F403A40E0
:1010600073D04D68012D05D0022D03D0112D01D074
:10107000122D16D185680326AC465D00AE46AE4003
:101080006546B543AC46CE687546AE4065462E43D0
:10109000866046680D79BE43ED06ED0F9D403543F1
:1010A0004560C6685F000325BD40AE46AE43354689
:1010B0008E68BE402E43C6604E68022E01D0122EAE
:1010C00014D1DE08B60036180196366A5D07B446BC
:1010D000EE0E0F25B54000966646AE43B4460D6948
:1010E000009EB54066462E43019D2E6206687546F9
:1010F000AE430D79AD07AD0FBD40354305604D687A
:10110000ED004AD5284DAE692643AE61AD699E0813
:10111000ED07ED0F0095254DB6007519AC46AD688D
:101120009E07360F0F27B740BD430927FF06B84279
:1011300001D1002710E01E4FB84201D101270BE07A
:101140001C4FB84202D1022706E026E01A4FB842EF
:1011500001D1032700E00527B7402F436546AF6064
:10116000164E35684F689543FF0300D5154335602B
:1011700075684F689543BF0300D515437560B56822
:101180004F689543FF0200D51543B560F5684F6879
:101190009543BF0200D51543F5605B1C0A681546F0
:1011A000DA4000D058E7FCBD0010024000000140CA
:1011B0000004004800080048000C004800040140FA
:1011C000002A01D0816170478162704701488068C0
:1011D000704700009C02002070B5024640325378F0
:1011E000202B1CD11378012B19D001231370242438
:1011F0005470046825689D432560046825681E03B3
:10120000B5432560046825680D43256000680168C2
:1012100019430160202050700020107070BD022022
:1012200070BD70B5024640325378202B1BD1137825
:10123000012B18D0012414702423537003681D68F7
:10124000A5431D6005682B680F263602B3430902CB
:101250001943296000680168214301602020507013
:101260000020107070BD022070BD000070B5040039
:1012700006D02546403568780026002802D005E0D3
:10128000012070BD2E70204600F0F4F82420687014
:10129000206801684908490001600F21606809065B
:1012A00088432168086121688A680120C00382435D
:1012B0008A60E1680129A16808D0212292021143C5
:1012C00022689160E168022902D005E00143F7E756
:1012D00001212268C902516021684A680F4B1A43F4
:1012E0004A602168CA688243CA606169206908430C
:1012F000A169090208432168C860216AE0690843BE
:101300002168086020680168012211430160666459
:10131000202068702663AE70002070BD008000023F
:10132000FFB5054604464035687883B0202875D15E
:101330000C98002814D00D98002811D02878012886
:101340006CD001202870FFF741FF07460122009072
:101350001923D103204601F07DFA002874D103E05F
:101360000120400260646FE0222068704020A87075
:10137000002666640C9860620D98608566630E981E
:101380000090019704A90EC9204601F01FFA002819
:1013900001D02E7058E0618D3448FF2905D9FF2215
:1013A000228501231B06009006E0618D21850090B7
:1013B000208D0123C2B25B062046049901F036FA63
:1013C00000970022042120460E9B01F043FA0028DA
:1013D0003AD12068406A616A0870606A401C6062A5
:1013E000208D401E81B22185608D401E6085608DFC
:1013F00000281FD000291DD10097002280212046FF
:101400000E9B01F027FA00281ED1608DFF2806D917
:10141000FF22228501231B06009607E024E0608D51
:1014200020850096208D0123C2B25B0620460499D8
:1014300001F0FCF9608D0028C2D13A4620460E9991
:1014400001F02FFA002802D0012007B0F0BD20687B
:101450002021C16120684268054B1A4042606970D2
:10146000AE702E700020F0E70220EEE7002400802E
:1014700000E800FE10B586B0044614216846FEF769
:10148000A3FE1249206888421DD1114C61690120D8
:10149000800401436161616901400591C0200090B1
:1014A00012200121019003200291049103906946CA
:1014B0000848FFF7CDFDE169012040050143E161E6
:1014C000E1690140059106B010BD000000540040E4
:1014D0000010024000040048024881680278891820
:1014E000816070479C02002010B5064801681022F8
:1014F00011430160002000F007F800F027F80020F9
:1015000010BD00000020024070B504460D4D7D2046
:101510002978C000FEF7E6FD01460B480068FEF79B
:10152000E1FD00F059FD002809D1042C07D200226A
:101530002146401E00F02AF800206C6070BD01209A
:1015400070BD00009C0200209802002008B50848E9
:101550008169012211438161816911400091C26951
:1015600001040A43C261C0690840009008BD000040
:1015700000100240002805DBC106C90E012088408A
:10158000014908607047000000E100E010B502F07A
:1015900053F810BD0248016882151143016070477D
:1015A00000700040F8B505460068354CC00352D5C0
:1015B000E0690026C00007D4E16920040143E1612D
:1015C000E1690140012600912E480168C90510D447
:1015D0000168821511430160FFF7F8FD074604E03A
:1015E000FFF7F4FDC01B642824D826480068C00516
:1015F000F6D5206A03273F02384020D06968394079
:1016000081421CD0206A226AB843012109040A439E
:101610002262226A8A4322622062C0070FD0FFF74B
:10162000D5FD009008E0FFF7D1FD0099411A16485A
:10163000814201D90320F8BD206A8007F3D5206AD2
:101640006968B84308432062002E04D0E169012094
:1016500000078143E1612878C00705D0206BA968A5
:1016600080088000084320632878800605D5206B19
:1016700010218843E968084320630020F8BD00007A
:10168000001002400070004088130000F8B50F46BB
:10169000060059D03A4D2868C007C00FB84209D299
:1016A000286840084000384328602868C007C00FF9
:1016B000B84249D13068334C81070CD5400704D576
:1016C000606807210902084360606068F021884370
:1016D000B168084360603078C00726D07068012880
:1016E0000ED0216802280ED0890700292CDA616803
:1016F0008908890001436160FFF768FD00900DE0F3
:1017000021688903F1E78901EFE7FFF75FFD0099A1
:10171000411A1D48814201D90320F8BD60680C219F
:101720000840716889008842EFD12868C007C00F5F
:10173000B8420BD928684008400038432860286820
:10174000C007C00FB84201D00120F8BD3078400773
:1017500006D56068072109028843F1680843606084
:1017600000F028F86168094A0906090F515CC84071
:10177000074908600020FFF7C7FE0020F8BD000001
:101780000020024000100240881300006C3C00085A
:10179000980200200448054900684968044A490540
:1017A000490F515CC8407047980200200010024069
:1017B0007C3C000810B514A30FCB88B06C460FC456
:1017C00015A30FCB0FC4184A51680C200B460340D9
:1017D0001648042B16D0082B14D18B021B0F6C4615
:1017E000E45CD26A04AB1207120F9A5CC90305D5F8
:1017F00000231946FEF7A0FC214601E020460C49D3
:1018000001F001FF08B010BD020304050607080936
:101810000A0B0C0D0E0F1010010203040506070839
:10182000090A0B0C0D0E0F100010024000127A0076
:1018300000093D00FEB5040070D02078DC4DC007E3
:101840004AD068680007800F012807D06868000741
:10185000800F022809D16868C00306D52868800374
:101860003AD560680028E7D036E06168012914D0D5
:1018700001208004002901D0052914D02A68012103
:1018800009048A432A602968814329606068002826
:1018900016D0FFF79BFC06460EE0286801210904DC
:1018A00008432860F2E7296801432960F5E7FFF75C
:1018B0008DFC801B64286ED828688003F7D50BE068
:1018C000FFF784FC064604E0FFF780FC801B6428D9
:1018D000F1D828688003F7D42078012680070028F3
:1018E0003CDA68680007800F07D068680007800F3F
:1018F000022809D16868C00306D42868800716D575
:10190000E06801280AD112E0E0680028286816D0B3
:1019100030432860FFF75AFC074605E043E1FFF734
:1019200055FCC01B0228C6D828688007F7D5286850
:10193000F82188432169C900084328600EE0400867
:1019400040002860FFF742FC074604E0FFF73EFC3A
:10195000C01B0228AFD828688007F7D4207800077A
:1019600022D5E0690028686A0ED030436862FFF72C
:101970002DFC074604E0FFF729FCC01B02289AD87B
:10198000686A8007F7D50FE0400840006862FFF7FB
:101990001DFC074605E09DE0FFF718FCC01B022870
:1019A00089D8686A8007F7D4207804274007002880
:1019B00060DA00200190E869C00008D4E969B8063F
:1019C0000143E961E96901400120009101907948F2
:1019D0000168C90511D40168821511430160FFF740
:1019E000F5FB009005E0FFF7F1FB0099401A642831
:1019F00070D870480068C005F5D5A06801280AD0E5
:101A0000002801D0052810D0286A4008400028622C
:101A1000286AB84301E0286A30432862A068002899
:101A200012D0FFF7D3FB00900AE0286A38432862FF
:101A3000F1E7FFF7CBFB0099411A5F48814249D893
:101A4000286A8007F5D50DE0FFF7C0FB009006E09F
:101A5000FFF7BCFB0099411A574881423AD8286ADF
:101A60008007F5D40198002804D0E9690120000717
:101A70008143E9612078C00635D5606901280CD022
:101A8000401D686B23D038436863686B4008400092
:101A90006863FFF79BFB064622E0686B3843686388
:101AA000686B30436863FFF791FB064604E0FFF77D
:101AB0008DFB801B02285BD8686B8007F7D5686BAD
:101AC000F8218843A169C900084368630BE0B84363
:101AD0006863F4E74CE0FFF779FB801B022847D8E6
:101AE000686B8007F7D4206A00285ED06968090710
:101AF000890F022942D0012636060228286805D01F
:101B0000B0432860FFF762FB044633E0B04328602F
:101B1000FFF75CFB074604E0FFF758FBC01B0228F9
:101B200026D828688001F7D4E86AE16A0009000134
:101B30000843E862616AA06A084369683D221204AA
:101B4000914308436860286830432860FFF73EFBF4
:101B5000044604E0FFF73AFB001B022808D8286877
:101B60008001F7D521E0FFF731FB001B022801D9E6
:101B70000320FEBD28688001F5D416E00128F8D0C6
:101B80006868E96A01221204636A02409A420AD133
:101B90000907E26A090F914205D10F218904084023
:101BA000A16A884201D00120FEBD0020FEBD0000D8
:101BB0000010024000700040881300000248416895
:101BC000491C4160704700000000002010B5044629
:101BD00000688168C9040CD5C068C00509D52046D5
:101BE000FFF7ECFF2168C86880221040FF38823878
:101BF000C86001200249400448610120607710BD9F
:101C00000004014070B5040003D0607F002802D0BA
:101C100006E0012070BD00202077204600F04CF83F
:101C2000022060772168CA204862216853204862F8
:101C3000204601F0E2F8FF250426002824D1206880
:101C400081681C4A11408160216888686268636904
:101C5000104322691A43104388602168E0680861D4
:101C60002068016922891204114301612068C1685A
:101C700080229143C16020688068800608D4204695
:101C800000F090F9002803D0206845626677C0E72D
:101C90002068016C01229204914301642068016C68
:101CA000A269114301642068456201206077002029
:101CB00070BD0000BFFF8FFF10B500680849884263
:101CC0000DD10848016A0122D203114301620022AA
:101CD00011460220FFF75AFC0220FFF74BFC10BD13
:101CE0000028004000100240F8B50446007F0B4673
:101CF000012839D0012020770220607720681F4614
:101D0000203700268068002A30D0400600D4DE70DC
:101D100019789D7809040D435978DA78090212047C
:101D200011430D433978D86909060D4305435869B5
:101D3000996905435868084300902168CA204862A1
:101D400021685320486220688168FF220132914354
:101D500081602068C16880221140FF398239C160EA
:101D6000FFF734FA074629E00220F8BD400600D408
:101D7000DE70187801F036F80504587801F032F872
:101D800000020543987801F02DF80543D878000447
:101D90000543387801F026F800060543D869C5E701
:101DA000FFF714FAC11B7D20C000814206D92168CB
:101DB000FF204862032060772677F8BD2068C0685E
:101DC000C007EDD02068C56121680098486420688C
:101DD0008168FF220132114381602068816812010D
:101DE0001143816008480268012149040A430260E6
:101DF00082680A4382602168FF2048620120607780
:101E000026770020F8BD000000040140F8B5044624
:101E1000007F0B4601280FD0012020770220607739
:101E2000002A0BD0D8789D780004054358780978AB
:101E300000024903084317E00220F8BD5878C106A4
:101E400003D5EF2108400A305870D87800F0CAFF57
:101E50000504587800F0C6FF00020543987800F0AA
:101E6000C1FF05431878400305432168CA20486232
:101E7000216853204862204600F0BFFF0026FF275C
:101E8000002811D10F480540206845602068C168CE
:101E900080229143C1602068806880060BD4204670
:101EA00000F080F8002806D02068476204206077A0
:101EB00026770120F8BD20684762012060772677E9
:101EC0000020F8BD3FFFFF00F8B50446007F0D4637
:101ED000012821D001202077022060772068002788
:101EE0008068002A1AD0400600D4EF702878AE78B7
:101EF000000406436878E9780002090408430643B1
:101F00002168CA204862216853204862204600F0B8
:101F100074FF002834D114E00220F8BD400600D43C
:101F2000EF70287800F05EFF0604687800F05AFF32
:101F300000020643A87800F055FF0643E878000445
:101F4000DDE71748064020680660206881680122A6
:101F50009204914381602969E868084321688A688E
:101F6000104388602068C16880229143C160206866
:101F7000806880060CD4204600F014F8002807D0B2
:101F80002168FF2048620420607727770120F8BD90
:101F90002168FF2048620120607727770020F8BD84
:101FA0007F7F7F0070B504460068C168A02291431E
:101FB000C160FFF70BF97D260546F60006E0FFF746
:101FC00005F9401BB04201D9032070BD2068C068EC
:101FD0008006F4D5002070BD094910B5401E884226
:101FE00001D9012010BD074C60610321081F01F0D9
:101FF00023FB0020A06107202061002010BD00000D
:10200000FFFFFF0000E000E030B5034620331A7FF9
:10201000012A26D001221A770325CA682D02AA4375
:102020008D6800242A430125AD02AA434D6800684B
:102030002A430125ED02AA430D682A4301252D03F9
:10204000AA430D692A4301256D03AA434D69C96955
:102050002A430125AD03AA430A4342641C770020AA
:1020600030BD022030BD0000F0B502462032137FA3
:10207000012B1ED00125157702235377066874685B
:10208000B3687027BC430F682743776000680A4C29
:10209000A04205D0094CA04202D0094CA04204D174
:1020A00080244968A3431943816055770020107745
:1020B000F0BD0220F0BD0000002C014000040040F3
:1020C0000040014070B5040005D025462035687FEA
:1020D000002802D006E0012070BD002028772046AD
:1020E00000F00AF802206877211D206800F0F4FE55
:1020F00001206877002070BD08B50B4A01680B48C5
:10210000914205D18269C1140A438261806907E066
:10211000074A914206D1C26902210A43C261C069DD
:102120000840009008BD0000002C01400010024053
:10213000000400400222014620314A77006882688C
:1021400001235207520F062A02D002681A43026086
:102150004B7700207047F8B5054604462035287FA8
:10216000012817D001262E77022068772268906810
:102170007727FF23B8431B02984390600A68502AD0
:1021800031D00EDC202A4BD006DC002A48D0102AA1
:102190003AD145E00220F8BD302A41D0402A33D15F
:1021A00036E0602A27D0702A12D001200003121ACC
:1021B0002AD0824228D1CB684A688968206800F01A
:1021C000DCFE2068816801229203114381601BE0DC
:1021D000CB684A688968206800F0CFFE216888686B
:1021E0003843886010E0CA684968206800F0D4FF6E
:1021F0005021206806E0CA684968206800F0DDFFC9
:102200006021206800F0C4FE6E7700202877F8BDBA
:10221000CA684968206800F0BFFF40212068F1E7E4
:1022200011462068EEE7000010B586B00446142180
:102230006846FDF7C9FF2368154C002215480221A6
:10224000A3420FD144690B041C4344614069184008
:10225000059088026B4607C30491092003926946E2
:10226000C00610E00C4CA3420FD144691B131C4361
:10227000446140691840059001206B4607C30490F3
:10228000694603920548FEF7E3FE06B010BD000064
:10229000002C0140001002400004004000040048EF
:1022A000F8B5064604462036307F0D4601280DD08D
:1022B00001203077022070770427002A08D0042AF2
:1022C00016D0082A2AD00C2A4DD137E00220F8BDBA
:1022D000206800F065FE2068816908221143816151
:1022E00020688169B9438161206881692A6912E0A7
:1022F000206800F099FE206882690121C9020A4322
:102300008261206881690122920291438161206883
:1023100081692A6912021143816124E0206800F07A
:10232000C3FE2068C26908210A43C2612068C169EE
:10233000B943C1612068C1692A6912E0206800F0D0
:10234000F5FE2068C1690122D2021143C1612068F3
:10235000C269012189028A43C2612068C1692A6970
:1023600012021143C1610120707700203077F8BD5F
:1023700070B5040005D025462035687F002802D0BE
:1023800006E0012070BD00202877204600F00AF802
:1023900002206877211D206800F09EFD01206877EB
:1023A000002070BD7047000010B50446006801228F
:1023B00000F0D6FD0E482168814208D00D488142C8
:1023C00005D00D48814202D00C48814204D1486CAE
:1023D0000122D20310434864206881684907490FED
:1023E000062903D00168012211430160002010BDBD
:1023F000002C0140004001400044014000480140E1
:1024000030B504460068002200F0AAFD154A1448C1
:1024100021689310814208D01348814205D01348A7
:10242000814202D0124881420AD1086A104207D183
:10243000086A184204D1486C0125ED03A84348649A
:102440002068016A114206D1016A194203D101686C
:10245000490849000160012020346077002030BD28
:10246000002C0140111100000040014000440140D7
:1024700000480140704710B5040003D0606F002889
:1024800002D007E0012010BD002170200155204638
:1024900000F026F824206067206801684908490098
:1024A0000160204600F092FF0128ECD0606A00280D
:1024B00002D0204600F094FE206841680122D2023A
:1024C00091434160206881680822914381602068BF
:1024D0000168012211430160204600F0E7FE10BDB3
:1024E000F0B587B0064614216846FDF76DFE2A4F09
:1024F0000121346800252948490402230322BC42F3
:1025000019D18669CC1026438661866926400596D6
:1025100044690C43446140696C4608400590500290
:10252000039229C40120049009206946C006FEF7E1
:102530008FFD07B0F0BD1A4FBC42FAD1C4690C43FD
:10254000C461C4690C40059444690C43446140690A
:102550006C46084005900C20039229C40120049089
:1025600009206946C006FEF773FD0E480E4C21C4D3
:102570002560A5608020E5606060202065612061A5
:102580000948083CFEF7C0FC002801D0FEF7FEF920
:10259000F4666662CDE7000000380140001002409A
:1025A000004400405800024044150020F8B504469D
:1025B000806F20284DD100290BD0002A09D001239B
:1025C000A0681B03984206D12069002803D1C807E0
:1025D00001D00120F8BD25466035287C012838D07F
:1025E000012028745820616502530026E6672220E6
:1025F000A067E06E002819D017498162E16E174884
:10260000C862E16E16480863E06E13464663676D64
:1026100021683A462431E06EFEF7A0FC002805D080
:102620001020E0672E7420206067D2E72E742068A7
:102630000168FF2201321143016020688168012294
:10264000114381602068816840221143816000202D
:10265000F8BD0220F8BD0000553300089133000892
:102660000D33000870477047FFB50446406F83B0D4
:1026700017460D4620285CD1002D0AD0002F08D027
:10268000A168C001814207D12069002804D1E80770
:1026900002D0012007B0F0BD204660300290007CDF
:1026A000012846D00298012101740020E067212012
:1026B0006067FEF78BFD26464036019037827782B1
:1026C0000120A1680003814202D12069002802D0C4
:1026D0002F46002511E000270FE000228021204630
:1026E00000F018FF002815D1002F15D02168387888
:1026F00008857F1C708A401E7082708A019B0028AA
:1027000006980090E9D100224021204600F002FF07
:10271000002808D00320BDE728882168C005C00D27
:102720000885AD1CE6E72020606702990020087448
:10273000B0E70220AEE7FEE701688A69D24392075C
:1027400001D400228A6200688169C943C90703D0A5
:10275000816901221143816170470000F7B5044689
:1027600000680E468069C043C0062BD4202725464A
:10277000403520688069C043800612D5701CF8D0AF
:10278000FEF724FD0299401AB04201D8002EF0D184
:10279000606C384360646F700020A870287001205E
:1027A000FEBD21681020C8612068C7612046FFF780
:1027B000C3FF20684168044A11404160606C0421F5
:1027C0000843E7E70020FEBD00E800FEF8B5044638
:1027D000164615481D46DAB20090079F0023204692
:1027E00000F024F83A462046069900F080F80028C8
:1027F00018D12846F5B2012809D02168300A88622C
:102800003A462046069900F072F800280AD120685E
:1028100085620097002240212046069B00F01AF8AE
:10282000002800D00120F8BD00200080F0B5066827
:10283000059C7568064F600D384385438805800DFB
:10284000110408431843204305437560F0BD0000A0
:10285000FF63FF03F8B51D4617460E46044609E020
:10286000681C07D0FEF7B2FC0699401AA8420BD8A4
:10287000002D09D020688169304688430FD00020A0
:10288000B842EDD00020F8BD616C202001436164A6
:10289000403460700020A07020700120F8BD01203D
:1028A000EEE770B516460D4604460FE0324629465F
:1028B0002046FFF753FF002801D0012070BDFEF72E
:1028C00085FC801BA84208D8002D06D020688069AE
:1028D000C0438006EAD4002070BD616C2020014313
:1028E0006164403460700020A0702070E5E770B52E
:1028F00016460D46044611E0324629462046FFF7AB
:102900002DFF002801D0012070BD681C06D0FEF705
:102910005DFC801BA84208D8002D06D02068806985
:10292000C0438007E8D4002070BD616C20200143C3
:102930006164403460700020A0702070E3E7000004
:102940003EB50021174800910191029141608160DC
:102950000124134A04610260C160042242610176CD
:1029600041768176C176C161110201620146203152
:102970000C718462FEF71EF9002801D0FEF706F8FC
:10298000012000030190000402900094694605486C
:10299000FDF7FEFF002801D0FDF7F8FF3EBD000067
:1029A00000240140D412002008B50C4841690122DE
:1029B00011434161406910400022009011460920F6
:1029C000FEF7E4FD0920FEF7D5FD002211460B209D
:1029D000FEF7DCFD0B20FEF7CDFD08BD0010024028
:1029E00030B587B014216846FDF7EEFB33484269E5
:1029F0000121C9040A43426142690A4005924269C1
:102A000089100A43426142690A40059242694900BD
:102A10000A43426142690A400592426909010A4338
:102A200042614069264D08404C1205900022214623
:102A30002846FEF7C5FB0094012000240190029473
:102A4000694628460394FEF703FB40201D4D009085
:102A50006946019502941C48FEF7FAFA0120C0036A
:102A600000900920694601950294C006FEF7F0FA2D
:102A7000FF2001953930154D009069460294284693
:102A8000FEF7E6FA012040020090114801906946E5
:102A900002942846FEF7DCFA002211460620FEF7D3
:102AA00075FD0620FEF766FD002211460720FEF7A1
:102AB0006DFD0720FEF75EFD07B030BD001002403F
:102AC00000080048000011100014004800040048ED
:102AD0000000211010B513481149016012494160EE
:102AE000002181600161416181610122C161C26097
:102AF0000162FEF7BBFB002801D0FDF747FF002174
:102B00000848FEF769FB002801D0FDF73FFF0021D0
:102B10000448FEF786FB002801D0FDF737FF10BD03
:102B200000540040581300200E09002010B590B04A
:102B300014216846FDF748FB0024282106A80594C7
:102B4000FDF742FB2649274812C07F2101608460BF
:102B5000C460FF21046141600838FFF753F8002882
:102B600001D0FDF713FF684604704470847003942D
:102B7000002269461B480494FFF7A6F9002801D0FB
:102B8000FDF704FF01206946087548751720887510
:102B90006220C875002205A91248FFF737F90028FE
:102BA00001D0FDF7F3FE68460476447684760E483D
:102BB0000B90C00107940D9009940A940C94052180
:102BC00008A80176FF2001300F90002206A90548D1
:102BD000FFF78AF8002801D0FDF7D8FE10B010BD2D
:102BE00000280040A41300200000808010B596B09B
:102BF00000240F9410941194129413941C2108A88B
:102C00001494FDF7E1FA20216846FDF7DDFA2C481F
:102C10002A4901602F21846041600461446129498F
:102C20008461C160FFF74EFA002801D0FDF7AEFEC7
:102C3000012000030F900FA92148FFF78CFA00280C
:102C400001D0FDF7A3FE1E48FFF792FB002801D03C
:102C5000FDF79CFE202013A911C119480839FFF780
:102C600003FA002801D0FDF791FE60200890FF20B4
:102C70002D300E9409900A940C940D940C2208A9FE
:102C80000F48FFF70DFB002801D0FDF77FFE012064
:102C900000944003029405900194039404946946BF
:102CA00007940748FFF7B0F9002801D0FDF76EFE42
:102CB0000348FFF7B9FA16B010BD0000002C014020
:102CC000C4130020E703000010B58EB00024079461
:102CD000089409940A940B941C2168460C94FDF7FF
:102CE00073FA21481F4901602F218460416004610B
:102CF0001E498461C160FFF7E5F9002801D0FDF7A6
:102D000045FE01200003079007A91748FFF723FAA3
:102D1000002801D0FDF73AFE1348FFF729FB0028F1
:102D200001D0FDF733FE0B940BA90F480C94FFF76D
:102D30009BF9002801D0FDF729FE60200090FF20BC
:102D4000F530019002940822694604940648FFF782
:102D5000A7FA002801D0FDF719FE0348FFF764FA2F
:102D60000EB010BD0004004004140020E703000072
:102D700010B50C480A4901604B21C901416000218E
:102D80008160C16001618161C1610C2201624261A7
:102D90004162FFF770FB002801D0FDF7F7FD10BD81
:102DA000003801404414002010B50C480A49016065
:102DB0004B21C901416000218160C16001618161D5
:102DC000C1610C22016242614162FFF754FB00289D
:102DD00001D0FDF7DBFD10BD00440040C41400200D
:102DE00070477047002102E00A38C0B2491C0A2827
:102DF000FAD20907090E0843704770B50446006807
:102E0000C168490613D40021C943C160FEF7DEF949
:102E10007D260546F60006E0FEF7D8F9401BB042D5
:102E200001D9032070BD2068C0684006F4D5002099
:102E300070BD000010B50248FEF7C8FE10BD0000CE
:102E4000A4130020704710B5FEF746FB10BD00002C
:102E500030B595B030216846FDF7B6F900240C94E2
:102E60000D940E940F941094119412941394FEF7F1
:102E700091FB1648016A1822114301621620009046
:102E800001200390029005901020049006900520E8
:102E9000C00402250A90089509940B946846FEF731
:102EA000C9FC07200C900E9401210D950F940CA8DD
:102EB000FEF7ECFB06481090001211901294139448
:102EC00010A8FEF76FFB15B030BD000000100240E7
:102ED0002100010070470000F0B502681A4B1B4C3E
:102EE000984201D0A04203D17025AA434D682A43DD
:102EF000174D184E184F98420AD0A04208D0174CD0
:102F0000A04205D0A84203D0B04201D0B84205D1BA
:102F10001446032212029443CA6822438024A24327
:102F20004C69224302608A68C2620A6882629842DF
:102F300005D0A84203D0B04201D0B84201D10969FE
:102F4000016301214161F0BD002C014000040040FB
:102F50000040014000440140004801400020004082
:102F600010B5CB06DB0E0121046A99408C43046244
:102F7000016A9A401143016210BD30B58468FF2593
:102F80002D021B021343AC430B432343836030BD2C
:102F9000826870239A430A4307210A43826070477C
:102FA000F0B5026A520852000262056A43688269FB
:102FB0007024A24392080C689200144302229543A5
:102FC0008A68164E2A43144DA84207D0B04205D055
:102FD000134FB84202D0134FB84206D10827BA4364
:102FE000CF681743042297433A46A84207D0B0421D
:102FF00005D00B4DA84202D00A4DA84206D10325A8
:103000002D02AB434D691D438B692B4343608461A3
:10301000496841630262F0BD002C0140004001405C
:10302000004401400048014070B5026A10239A43F1
:103030000262056A4268836973242402A3430C6810
:1030400024021C4320239D438B681B012B43124DFC
:10305000A84208D11D46CB688026B5431B012B43EF
:103060004025AB4308E00D4DA84205D00C4DA842C9
:1030700002D00C4DA84208D10325AD02AA434D69E8
:10308000AD0015438A6992002A4342608461496811
:103090008163036270BD0000002C014000400140CC
:1030A000004401400048014070B5026AFF2301332B
:1030B0009A430262056A4368C2697024A243920877
:1030C0000C68920014430122520295438A6812024E
:1030D0002A43124DA84208D11546CA68C614B54302
:1030E00012022A430515AA4308E00D4DA84205D057
:1030F0000C4DA84202D00C4DA84208D103252D0347
:10310000AB434D692D011D438B691B012B4343606C
:10311000C4614968C163026270BD0000002C0140B7
:1031200000400140004401400048014030B5026ABF
:1031300001231B039A430262046A4268C369732530
:103140002D02AB430D682D021D4301235B039C43FD
:103150008B681B0323430C4CA04208D00B4CA042AD
:1031600005D00B4CA04202D00A4CA04205D101244C
:10317000A403A2434C69A40122434260C56149688B
:103180000164036230BD0000002C0140004001409A
:10319000004401400048014030B5036A046A6408F5
:1031A000640004628469F025AC43120122430A24BE
:1031B000A3430B438261036230BD30B5036A102420
:1031C000A34303628469036A0F252D031203AC43F2
:1031D0002243A024A343090119438261016230BD47
:1031E00010B5818CC90707D001684A6801235B04C8
:1031F0009A43836A1A434A60818C890707D501681C
:103200004A6801231B049A43C36A1A434A60818CAB
:10321000490707D501684A6801239B049A43036B59
:103220001A434A60818C090707D501684A6801235F
:10323000DB039A43436B1A434A60818CC90607D566
:103240000268916801231B039943836B19439160C2
:10325000818C890607D501688A6801235B039A433C
:10326000C36B1A438A60818C490612D503685A6879
:1032700001210905046C8A4322435A60026C8A4288
:1032800007D10268516803235B059943436C1943D6
:103290005160818C090607D501684A680123DB0467
:1032A000806C9A4302434A6010BD0000F8B50026C6
:1032B0000446C667FDF78AFF054620680068124F7E
:1032C000000709D501212B46002249052046009719
:1032D00000F020F900280DD12068006840070BD5C8
:1032E00001212B46002289052046009700F012F9A3
:1032F000002801D00320F8BD20206067A06760345B
:1033000026740020F8BD0000FFFFFF0170B5446A7D
:10331000606FA56F2168896800260906002906DA12
:10332000212804D152200653204600F046F8206898
:103330008068400606D5222D04D15A200653204627
:1033400000F02BF8E06F10210843E0672046FFF7FC
:1033500091F870BD10B501468969406A202914D0E2
:1033600000225A210A5201680A68FF2301339A4356
:103370000A6001688A68520852008A6001688A6897
:1033800040239A438A6020218167FFF76BF910BDC3
:1033900010B5406AFFF767F910BD01680A68FF239E
:1033A00021339A430A6001688A68520852008A6091
:1033B0002021816700210166704701680A68C023E7
:1033C0009A430A60202141677047000070B50446A7
:1033D00080682169E2690843616900251143226818
:1033E00008431168444B1940014311602168486843
:1033F000032212039043E26810434860A169206AE7
:103400002268084391680B231B0299430143916092
:103410003A492068884210D13948006B8007800FF4
:1034200011D0012805D0022805D003280AD1022096
:1034300009E0042007E0082005E03249884201D174
:10344000002000E010200122E169D2032E4E9142BB
:1034500028D1002806D0022807D0042817D0082831
:1034600044D11AE0FEF796F913E06168274A48084C
:103470008018FCF737FE80B201461039B14235D8CA
:103480002149491C01400007400F084321E0FEF795
:1034900091F9616840004A08EAE76168012248083A
:1034A0001204E5E7002806D0022807D0042813D02C
:1034B00008281BD116E0FEF76DF90FE06168144A89
:1034C000480811E0FCF70EFE80B201461039B14207
:1034D0000CD82168C8600AE0FEF76CF961684A08F8
:1034E0001018EFE7616848088018EBE70125002015
:1034F00020666066284670BDF369FFFF0038014012
:103500000010024000440040EFFF00000024F400DF
:1035100000127A00FFB581B005460F4604466035BB
:103520000A9E38E0701C36D0FDF750FE0499401A10
:10353000B04221D8002E1FD02068016849072AD543
:10354000C069C043000526D401202168C00208627A
:1035500020680168FF22A1329143016020688168E0
:1035600049084900816020206067A067E06700206B
:103570002874032005B0F0BD20680168FF22A13245
:1035800091430160206881684908490081602020DA
:103590006067A067EBE72068C1693846884305D0BB
:1035A000002103988142BDD00020E3E70121F8E724
:1035B0000FB410B504A9074B02AA039800F06EF8E7
:1035C000044602A9002000F011FA204610BC08BCF5
:1035D00004B01847ED3900082021020C01D0102159
:1035E0001046020A01D010460839020901D01046DF
:1035F000091F820801D01046891E420801D0881E8A
:103600007047081A7047F8B5040C8BB2264682B290
:103610005E430D0C1046370C5843360480190021C8
:10362000794116466E43370C360480197941264697
:103630006E438919F8BD00008307FF22DB0E9A4014
:103640008907090E9940002808DB830809489B0078
:103650001B18186890430843186070470007000F54
:103660000838830804489B001B18D8699043084316
:10367000D861704700E400E000ED00E002E008C817
:10368000121F08C1002AFAD170477047002001E0DC
:1036900001C1121F002AFBD170470000FFB58FB097
:1036A0000546002606E025280AD0129A119990476F
:1036B0006D1C761C28780028F5D1304613B0F0BD7B
:1036C000002402940121B54A009400E004436D1CDB
:1036D0002B780846203B98401042F7D128782A28BA
:1036E0000ED00222287801463039092916D80299CD
:1036F0000A2359433039401814436D1C0290F1E7F6
:10370000109802C802911090002904DA01204003A9
:10371000044348420290022004436D1C28782E285E
:1037200017D10420044368786D1C2A280CD1109806
:103730006D1C02C8009110900BE000990A225143C1
:10374000303940186D1C009028780146303909291D
:10375000F3D928786C2810D006DC4C281AD06828B9
:103760000ED06A2817D104E0742813D07A2812D119
:1037700010E00120400504430CE00121090501E0AF
:10378000032109050C436978814203D1012000051A
:1037900024186D1C6D1C2878692874D006DC00285C
:1037A0008BD0632827D0642806D16CE06E2808D01F
:1037B00073282CD0752878D0129A11999047761CCE
:1037C0005FE06002400F022809D003280DD00428D2
:1037D000109801680DD00E60001D109051E01098F7
:1037E000F21701680E604A60F6E7109801680E80D3
:1037F000F2E70E70F0E710986A4601781173001D29
:1038000010900020507303A80190012005E010984B
:1038100002C8019110900020C04361070CD5002719
:1038200000E07F1C00998F420FDA8742F9DB019993
:10383000C95D0029F5D108E0002700E07F1C874220
:10384000FCDB0199C95D0029F8D102982146C01B13
:103850000290129B119A00F0B3F88019C61907E084
:10386000019801990078491C0191129A1199904789
:103870007F1EF5D22146129B119A029800F090F813
:1038800086196D1C16E70A200190109901C9109144
:103890006102490F032900D100B2042900D140B2CE
:1038A000002803DA40422D2103E00DE0210504D574
:1038B0002B216A461173012103E0E10711D0202179
:1038C000F7E70CAF0C9114E00A200190109901C9A0
:1038D00010916102490F032900D180B2042900D15F
:1038E000C0B20021EDE70199FCF7FCFB30317F1EEF
:1038F00039700028F7D104A8C01B20300190600760
:1039000004D5012000048443009801E001200090C8
:103910000199884201DD401A00E000204118009022
:103920000C9809180298401A0290E00306D4214628
:10393000129B119A029800F043F8861900200D900E
:1039400008E003A9085C129A119990470D98401C51
:10395000761C0D900C998842F3DBE0030CD52146D0
:10396000129B119A029800F02BF8861904E0129A23
:10397000302011999047761C0099481E009000292C
:10398000F5DC05E03878129A7F1C11999047761C77
:103990000199481E01900029F4DC6BE70928010019
:1039A000F8B5044600251E461746880404D405E0F1
:1039B00039462020B0476D1C641EF9D52846F8BD55
:1039C000FFB50446002581B01E46C80301D5302747
:1039D00000E02027880404D505E038460399B04765
:1039E0006D1C641EF9D5284605B0F0BD0A68531C4D
:1039F0000B601070704700008AB0FDF775FDFFF78F
:103A000027FAFEF7EDFFFEF7CFFFFFF763F8FFF7AA
:103A10008DF8FFF7EBF8FFF757F9FFF7A9F9FEF775
:103A20008FFFFFF7C1F962206946C8710A2048710B
:103A30001720887105200871002008734873887367
:103A4000024601A91948FEF7E1F9002203A9174827
:103A5000FEF73AFA052216491648FEF7A7FD144864
:103A600015A13238FFF7A4FD1149C2B27D23DB0056
:103A700032391048FEF7F8FD0D4964223231114801
:103A8000FDF7A4F91048FEF755FB104E104F002427
:103A9000A5007D207159C000FCF73AFB014678591A
:103AA00000F096F8641C512CF2D3F0E7A413002028
:103AB000DA020020C4140020537461727465640A31
:103AC00000000000D4120020C41300205401002084
:103AD00010000020FFB581B01F4615460C46184661
:103AE000FCF7FFFC0646281BFCF7F0FC0546019896
:103AF0000A99001BC91B4843FCF7E8FC2946FCF760
:103B0000C7FB3146FCF76BFB05B0F0BDF0B58BB0E1
:103B10000C460646052900D90524204606225043B6
:103B2000192103AD02910190012307220095AF21D5
:103B30001248FDF7F5FB00221BE010460621484322
:103B4000295C4019437809041B02194383781943FF
:103B50008903890BD300F150C178077909043F022A
:103B60004079394301438803800B9919521CD2B222
:103B70004860A242E1D30BB0F0BD00005813002012
:103B800030B585B00021684601730174012403A893
:103B90000A25009023460422AF21029501940B4888
:103BA000FDF7BEFB04A8009001230622AF21029579
:103BB00001940648FDF7B4FB6846017B007C081AB7
:103BC00000D52030C0B205B030BD00005813002031
:103BD000F8B50C4606460C211E48FEF7E5FB1D4DC8
:103BE0001D482968C862E8607D2300901B01FF2101
:103BF000B0B29A100531FFF76DFFFCF79BFC296806
:103C0000086408211548FEF7CFFB31461448FCF73D
:103C10007FFA12490A68D062C860C20F101809689A
:103C20004010C8632046FDF7CFF908210B48FEF786
:103C3000E7FB0C212846FEF7E3FB2046FCF758FC87
:103C4000084A094BFCF762FBFCF78EFCFDF7BCF958
:103C5000F8BD0000C41300208813000004140020E5
:103C600040420F00333333333333D33F000000007F
:103C7000000000000102030406070809000000001C
:103C800001020304A43C000800000020A802000078
:103C90006C0700082C3D0008A8020020E018000076
:103CA0008C36000801102326019AB8042910091245
:103CB0001429081AD2044B0B020C1A4B08290C29A0
:103CC000042918290469301A88045A5D08693029C2
:103CD000445A06085A4A20690829282924694CA907
:103CE000442924693C291469046990E970E93C6914
:103CF00018A94CE9AC6920692409161869406914AF
:103D0000697032045A0804290C6904091A1419EB61
:103D1000790C091604092E30092A500926A80936FB
:0C3D2000BC092EDC1113127A5A01184164
:04000005080000B53A
:00000001FF
