:020000040800F2
:1000000020180020C9000008C53C0008F93200088B
:1000100000000000000000000000000000000000E0
:10002000000000000000000000000000433D000848
:100030000000000000000000C73C0008453D00082B
:10004000DB00000800000000293D0008DB0000087C
:10005000DB000008DB000008290C0008330C000856
:1000600000000000BD0B0008DB000008CD0B0008FD
:10007000550A0008DB000008DB0000080000000053
:10008000DB000008F13D000800000000D13D000841
:10009000DB000008E13D0008DB000008DB00000891
:1000A000DB000008DB000008DB000008DB000008C4
:1000B000DB0000080348854600F08EFC004800473E
:1000C000E5510008201800200448804704480047F4
:1000D000FEE7FEE7FEE7FEE7FEE7FEE7CD3D0008B0
:1000E000B500000830B50B4601460020202201244F
:1000F00009E00D46D5409D4205D31D469540491B5C
:100100002546954040191546521E002DF1DC30BDA4
:1001100070B500242546002801DA01244042002958
:1001200001DA01254942FFF7DDFFAC4200D0404231
:10013000002C00D0494270BDF0B51FB40646002027
:1001400082B005464024019100901BE001992246AF
:100150000F46304600F020F8049A059B801A99411A
:1001600010D310461946224600F03EFB361A8F4146
:100170000197224601200021009F00F035FB38182E
:100180004D4100902046641E0028DFDC019B009852
:100190002946324607B0F0BD10B5202A04DB0846D8
:1001A000203AD040002110BD0B46D340D04020243F
:1001B000A21A91400843194610BD03460B439B0702
:1001C00003D009E008C9121F08C0042AFAD203E0CC
:1001D0000B780370401C491C521EF9D27047D2B2F2
:1001E00001E00270401C491EFBD270470022F6E776
:1001F00010B513460A4604461946FFF7F0FF20469D
:1002000010BDF8B502464A40D40F42004B005208D8
:100210005B089A4202D20246084611464A0023D0A1
:10022000C30D4A00DDB2120EAD1A202D35DA490297
:100230000126490AF6058A19002C00D052422021D5
:100240004F1B1146B9402A411018C20D9A4221D0C5
:10025000002C17D0012D08DCDA05801AD20F801986
:10026000D207DBB200F0EBFAF8BDDA05801A012301
:1002700040001B06C01880185A428018CA0F10434D
:10028000490007E04908C2071143DA05801A8019BE
:100290004008801800F0CBFAF8BD61000122511A25
:1002A000001BF7E70122D2075140AAE70122D2073B
:1002B0005040A6E7024670B54A40D30FDB07400026
:1002C0002DD04A002AD0010E140E00021202091984
:1002D000400A520A8418E50104465443000A120AEF
:1002E0002E045043A4194219200CC543AA18120C1D
:1002F0000125AD03521C521912047F39240400D089
:10030000521C104301D44000491EC2B20C06C00961
:100310002018401C4008802A02D003E0002070BD55
:1003200040084000002900DA0020184370BD70B575
:1003300002464A40D50F40004A00ED0740085208E7
:10034000002814D0002A12D0C40DD30D4102012080
:10035000C0055202490A520AE41A091812187D34DB
:10036000914201D3641C00E04900002C01DA002016
:1003700070BD0023914201D3891A0343400849000C
:100380000028F7D100290AD0914202D10121C907E2
:1003900005E0914201D2012101E00121C943E005BC
:1003A000C018401900F043FA70BD0000F0B50746D0
:1003B0000846584087B0C00F049048000E465900C8
:1003C00040084908BC1A884105D2384631461E46C5
:1003D00017460B4602465800400810434CD0300DDB
:1003E000039040055900400D490D0590401A0290B8
:1003F000402872DA18030121000B09050843019017
:1004000004980092002805D00199524200208841AA
:1004100000920190029840210A1A0199009800F078
:10042000E3F905460C466B4607CB00F0EDF9C01921
:100430007141039A0E0D0023D71756401A467A4091
:10044000164344D0049A002A2DD0029A012A039A16
:1004500015DC1205C01A914101263605001C7141B8
:10046000D20F059ED2070093019202962A46234698
:1004700000F02BFA07B0F0BD38463146FAE7160512
:10048000224A0F46B218C01AB74101210905001CC3
:100490004F4100187F41114618187941E20F10436F
:1004A0006D19644113E0E2076D0815436408C20743
:1004B0001443039A01261205C01A91413605001C07
:1004C0007141CE07400830434908C01851412A46BF
:1004D000234600F0EDF9CDE7FFE704980122400044
:1004E000C117121A00238B4104983146C417381AD9
:1004F000A141EEE730B40124E407634030BC55E786
:1005000030B40124E407614030BC4FE70000E0FF55
:10051000F0B51FB488B00B99099800244840099998
:10052000C00F490049080991C0070B990090490084
:1005300049080B9109990898A64608431CD00B99C5
:100540000A98084318D0099801244000420D480039
:10055000410D099824050003000B204309900B98D6
:100560000003000B20430B9050181C494018002238
:1005700001901446104605E0002001460DB0F0BD84
:10058000032801DA034600E003239C46C11A0AAEA1
:100590000AE05F0008ADED5B4F00F75B7D4300278D
:1005A000AA187C41491C5B1E6145F2DD410004AB89
:1005B0005A522104120C0A43240C401C0828DFDB89
:1005C000019802900099704601910090059B049A51
:1005D0000799069800F079F9D0E700000DFCFFFFBD
:1005E000F0B50C465C4085B0E40FE40703944C0082
:1005F00000266408590094464908024602962243A0
:1006000021D062460A431ED06200570D4A000E03F5
:100610002303550D012402462C492405781B1B0B8E
:10062000360B401823432643614600901C46501A5F
:10063000B44103D30098401C009002E09218009847
:100640005B41002803DA0020014605B0F0BD002020
:10065000012109050746864611E064461D46141B24
:10066000B54106D36546521BB341744607430C435C
:10067000A646CD0740084908284392185B41054625
:100680000D43EAD11046184313D060461946504036
:100690007140084306D06046101AB34106D20122C9
:1006A000002306E000220123DB0702E00122D243FF
:1006B0005310009874460105381C6141029C039D4B
:1006C0000019694100F0F4F8BFE70000FD030000E5
:1006D000C217C10F504010B54018CA079623002119
:1006E00000F0ADF810BD10B500229623114600F0C1
:1006F000A6F810BD0EB5C217C10F5040CA0740186A
:100700000021054B0293019200910A460B4600F02E
:10071000DCF803B000BD000033040000C20F41004C
:1007200040020123400ADB05D207090EC0187F29C9
:1007300001DA00207047962903DC9623591AC84035
:1007400001E096398840002AF4D0404270474100C9
:1007500040020122400AD205090E80187F2901DAE1
:1007600000207047962903DC9622511AC840704732
:10077000963988407047000070B5CD0F4A000903D4
:100780000123090B1B0519430B4BED070024520DE8
:100790009A4201DA002070BD074B34339A4203DCE1
:1007A0009A1AFFF7F9FC02E00449511888402C43DB
:1007B000F1D0404270BD0000FF030000CDFBFFFF01
:1007C000C20FD207400040080BD0C10D0723DB0148
:1007D000C91840020905400A1143C20840071143E5
:1007E000704700200146704710B5202A04DB0146FF
:1007F000203A9140002010BD914020239C1A0346CE
:10080000E3401943904010BD10B5202A06DBCB17FA
:100810000846203A1041C1170B4306E00B4613412E
:10082000D0402024A21A91400843194610BD002947
:1008300004DA401C490001D140084000704770B400
:100840000024050C05D11024000402D1002921D078
:100850001124050E01D100020834050F01D1000159
:10086000241D850F01D18000A41C002801DB40005D
:10087000641C002908D020252E1B0D46F540A14000
:1008800000D001212943084301061B1B000ADB1D80
:1008900002D5002070BC7047DB05181880180029AD
:1008A000F8DA401C4900F5D170BC400840007047A0
:1008B00010B5002B08DA0024401C614192185B41FE
:1008C0001A4301D14008400010BDF0B51FB482B0FA
:1008D00005460C0003D0084603F0EEFE02E003F0EC
:1008E000EBFE20300246009021462846FFF77CFFB1
:1008F000049B059A04460F4618431143084314D03D
:10090000184610431BD0009840210A1A1846059932
:10091000FFF742FC05460E46009A05990498FFF73A
:1009200063FF084305D0012004E02046394607B0A4
:10093000F0BD0020C11705430E432C4337430099F7
:100940000E986305401A7905E40A00220C43FD0A5B
:100950000A3002D500200146E9E701051019694176
:100960000C9C0D9D00196941FFF7A2FFDFE7000015
:100970004A0009030123090B1B0519430A4B10B553
:10098000520D9A4202DA0020014610BD064B343364
:100990009A4203DC9A1AFFF7FFFB10BD034BD218F3
:1009A000FFF722FF10BD0000FF030000CDFBFFFF9B
:1009B00010B5002904DB0124E40740428C412146A4
:1009C000002B04DB1C460123DB075242A341994262
:1009D00000D1904210BD0000064C0125064E05E0F6
:1009E000E36807CC2B430C3C98471034B442F7D350
:1009F000FFF764FBD0810008F081000870B58C1807
:100A00000578401C6B075B0F01D10378401C2A114D
:100A100006D10278401C03E006780E70401C491C89
:100A20005B1EF9D12B0705D40023521E0DD40B7089
:100A3000491CFAE70378401CCB1A921C03E01D788E
:100A40000D70491C5B1C521EF9D5A142D8D3002061
:100A500070BD000010B5024800F0A6F910BD0000FE
:100A6000DC07002010B50146406A826B50231A4211
:100A70000AD1816B01225202114381630168CA6865
:100A80001205920F05D020E0006B026B08469047DC
:100A900010BD827E002A18D10A68120715D58A680F
:100AA00053070122002B09DB4B680C24A3434B6046
:100AB000816B130299431143816306E0816B20230C
:100AC00019438163C16B1143C16300F053F910BD39
:100AD00010B5406A816B402211438163C16B0422CF
:100AE0001143C16300F05FF910BD10B5406A00F01A
:100AF00059F910BDF8B504460020009020688168BF
:100B00008907890F012905D10168C90731D1C16859
:100B100009042ED48168184A1026114001250029A5
:100B20001AD1816829438160154814490068FFF78C
:100B3000D9FA00E0401E00900028FBD100F078FDBB
:100B4000074611E000F074FDC01B02280CD9206894
:100B50000068C043C00707D0A06B3043A063E06BC0
:100B60002843E0630120F8BD20680068C043C00747
:100B7000E8D10020F8BD00001700008040420F00BF
:100B8000AC0200200FB410B58EB011AC3421684611
:100B9000FFF72CFB22466846109903F07BFD82B2DA
:100BA0007D23DB006946044802F03DFB0EB010BC1B
:100BB00008BC04B018470000480B002010B50248DC
:100BC00000F0B6FA10BD00001C08002010B5024865
:100BD00000F0AEFA10BD0000CC0B002010B50446AA
:100BE0000068054940181421FFF77CFA8000206452
:100BF0000248E06310BD0000F8FFFDBF00000240A6
:100C000030B5056C0124AC40C56B6C600468636052
:100C10004368102B036803D099600068C26030BD40
:100C20009A600068C16030BD10B5082000F01CFC5F
:100C300010BD10B5102000F017FC202000F014FCAF
:100C4000402000F011FCFF20013000F00DFC0120DD
:100C5000400200F009FC0120C00300F005FC10BDBB
:100C600070470000F8B50025044620340095227D29
:100C7000012A39D00122227503689E68760767D45D
:100C8000384F4E68BE424DD09E6A0F78BA40164328
:100C90009E620123C26A1B079A421FD0012A1DD0FF
:100CA000022A1BD0032A19D0042A17D0052A15D0EE
:100CB000062A13D0072A11D002688B685669760776
:100CC000760FB3420AD05369DB08DB00536100683A
:100CD00042690B7A5B075B0F1A4342610A68102A6C
:100CE00004D0112A02D038E00220F8BD1E488368E3
:100CF000102A07D001229205134383600868102848
:100D000003D02AE00122D205F6E719481749006806
:100D1000FFF7E8F90A21484300E0401E0090002850
:100D2000FBD11AE0986A0E78B24090439862096845
:100D3000102901D0112910D10B488268102904D044
:100D4000012189058A43826007E00121C905F9E78D
:100D5000816B2022114381630125002020752846E4
:100D6000F8BD0000011000000027014040420F00C4
:100D7000AC02002010B50020084A094B01469060E3
:100D80008C001C59491C20188029F9D3906040021E
:100D90000349000CE039088110BD0000000000206C
:100DA000200400207047704770B504460068016851
:100DB000490702D54168490705D40168090730D5BC
:100DC000416809072DD5A16BC90604D4A16B012286
:100DD00052021143A163C1680C250905890F00293E
:100DE0001AD1A17E002917D10168090714D581689D
:100DF0004A070121002A08DB4268AA434260A06B2F
:100E00000A0290430843A06306E0A06B202210432F
:100E1000A063E06B0843E0632046FFF7ABFF206868
:100E200005602068016809060DD5406800060AD5EE
:100E3000A06B012109040843A063204600F0D8F804
:100E400021688020086020680168C90613D54168C0
:100E5000C90610D5A16A1025012902D0C168C907A9
:100E600007D0E16B02221143E16305602046FFF7E2
:100E70009AFF2068056070BDF8B50026044600287A
:100E800005D0A06B25462035002802D007E00120C0
:100E9000F8BD0020E0632875204600F0ABF8A06B99
:100EA0001022C006002870DB2068816849076CD4D6
:100EB000A16B1301994302231943A1638168890738
:100EC000890F012905D10168C9070FD1C16809043B
:100ED0000CD4C16818239943A3681943C1602068E2
:100EE0000169636889008908194301612068C16844
:100EF0003D4B1940C160207E617E8003C9030843D9
:100F0000A17E4B031843A36A012B02D001231B03CC
:100F100000E000231843E36818432369022B09D03B
:100F2000002318432B79E57E5B0018430123012D34
:100F300002D00AE00423F4E7002927D0A16B202582
:100F40002943A163E16B1943E163E1690D46FF3D6C
:100F5000C23D02D0256A294308432168CD68054374
:100F6000CD600125E16A2D07A94213D0012911D0D6
:100F700002290FD003290DD004290BD0052909D04F
:100F8000062907D0072905D010E028E0012109042F
:100F90000843DAE721684D69ED08ED004D612168ED
:100FA0004D69A78D7F077F0F3D434D612168C9685B
:100FB0000E4D2940814207D10020E063A06B8008DC
:100FC0008000401CA06308E0A06B0221884310430E
:100FD000A063E06B1843E06301263046F8BDA06BC8
:100FE0001043A063F8E700001902FEFFE7FF3F830C
:100FF00070470000F0B587B0054614216846FFF73A
:10100000F5F81F492868884237D11E4988694E156E
:10101000304388618869304005904A693002024354
:101020004A61496900270140059102200090032090
:101030000190092069460297C00600F021FA124883
:10104000124C81C427608020A66060600001E060CF
:101050002020676120610D48083C00F0B7F80028A7
:1010600001D0FFF7FDFD2C63002211460C206562C4
:1010700000F074FE0C2000F065FE07B0F0BD00002B
:101080000024014000100240080002401C0800201B
:10109000F7B5044600680025806840073DD4264621
:1010A0002036307D01280AD001273775607E01285F
:1010B00007D02046FFF71EFD050002D02EE00220DB
:1010C000FEBDA06B16490840FF2101310843A06313
:1010D0000020E0633075216B12488862216B124852
:1010E000C862216B1148086321681C2008602068D1
:1010F00041681022114341602068C1683943C160D2
:101100002168206B4031029B019A00F089F8206829
:10111000816804221143816000E002252846FEBD5B
:10112000FEF1FFFF650A0008EB0A0008D10A00087B
:10113000F0B4C16B0D6801680C680422066C13469C
:10114000B3402B420DD063070BD50B689B0602D42E
:101150000B6893430B60016C8A40C16B4A60C16AA3
:1011600019E00227B74002462F4001232032002F0A
:1011700015D0A70713D50C68A40604D40C680A255B
:10118000AC430C605370036C02219940C36B5960EF
:1011900000211170816A002916D0F0BC0847082789
:1011A000B7402F4210D024070ED50C680E25AC4353
:1011B0000C60046C1946A140C46B6160836353707A
:1011C00000211170016BE6E7F0BC704770B50400B8
:1011D00021D0022120462030054641702268116846
:1011E0000E48A3680140606826691843E3683343EA
:1011F000184363691843A3691843E3691843084314
:1012000010602046FFF7EAFC0021A163012068700E
:101210002970084670BD012070BD00000FC0FFFF9F
:10122000F8B504468C46203001780025012909D004
:101230000126067041780027012905D00770022594
:101240002846F8BD0220F8BD02214170A76320683E
:10125000016849084900016061462046FFF7D0FC5B
:10126000E06A00282068016802D00E22114306E0DF
:101270000A22114301602068016804229143016041
:101280002068016831430160DAE7000070B5044668
:1012900000F0CEF90546601C02D0044800782418FE
:1012A00000F0C6F9401BA042FAD370BD3403002001
:1012B000F8B5C11FFF39FA3924D002250026534F53
:1012C000534C20282CD010284BD0082865D0A903D7
:1012D000884224D14FA0FFF755FC2046C03803F0C8
:1012E000C2FE00281BD07E62FF206421F53004F08E
:1012F000FBFCE07A030003F00EFA0712121212123E
:10130000127F120004F01EF9464908700146464853
:1013100004F0DEF84448416844A0FFF733FCF8BD10
:1013200043A0FFF72FFC3A48C03803F09CFE00288A
:10133000F5D07E62FF206421F53004F0D5FCE07A20
:10134000030003F0E8F907050551064D4F59050064
:10135000E5E7E5727E623A4801F0DCFAF8BDE0723A
:10136000F8BD38A0FFF70EFC2948C038066003F02E
:101370007AFE0028F4D07E62FF206421F53004F06C
:10138000B3FCE07A030003F0C6F90705050605057E
:1013900005370500E4E70620E1E72EA0FFF7F2FBA2
:1013A0001B48C03803F05FFE00280FD07E62FF208C
:1013B0006421F53004F098FCE07A030003F0ABF907
:1013C000070505101214161C0500C9E7E5721C4834
:1013D00001F0A0FA0E480121C03804F03FFCF8BD2E
:1013E0000320BCE70420BAE70520B8E77E62144872
:1013F00001F090FAE572F8BD7E6205480021C03820
:1014000004F021FC174801F085FAF0E700440140A0
:10141000000400204C454654205052455353454447
:10142000200A0000000000202006002025640A0099
:1014300055502050524553534544200A00000000A7
:10144000340A0020524947485420505245535345CE
:1014500044200A00444F574E2050524553534544B0
:10146000200A00005C09002010B504494A690242C4
:1014700002D04861FFF71CFF10BD000000040140CE
:10148000F8B5002303240125BAE02E469E40B44659
:1014900032407CD00E79B607B60F012E01D0022E55
:1014A00017D186682746B6465E00B7400096764656
:1014B000BE43B646CF68009EB74076463743876046
:1014C00046686746BE430F79FF06FF0F9F403743CC
:1014D00047600E79F643B6070ED0C6682746B44675
:1014E0005E00B646B7406646BE43B4468F68764651
:1014F000B74066463743C7600E79B607B60F022E6F
:1015000014D1DE08B60036180096366A5F07B44676
:10151000FE0E0F27B646B7406646BE43B4460F6977
:101520007646B74066463743009E376206682746D0
:10153000B4465E00B646B7406646BE430F79B44631
:10154000BF07BF0F7646B7406646374307604E6811
:10155000B603B60F53D02D4FBE692E43BE61BE6990
:101560009F08F607F60F2A4EBF00BE190096B66810
:101570000F27B4469E07360FB646B7406646BE43B1
:101580000927FF06B446B84202D1002710E036E032
:10159000204FB84201D101270AE01F4FB84201D1C4
:1015A000022705E01D4FB84201D1032700E00527BF
:1015B0007646B74066463743009EB760184E366899
:1015C0004F689643FF0300D51643154F3E607E6873
:1015D0004F689643BF0300D51643114F7E60BE6827
:1015E0004F689643FF0200D516430D4FBE60FE685C
:1015F0004F689643BF0200D51643094AD6605B1C6C
:101600000A681646DE4000D03FE7F8BD00100240F1
:10161000000001400004004800080048000C004899
:1016200000040140002A01D0816170478162704747
:1016300001488068704700003403002070B50246FE
:1016400040325378202B1CD11378012B19D0012361
:10165000137024245470046825689D432560046831
:1016600025681E03B5432560046825680D43256081
:10167000006801681943016020205070002010703C
:1016800070BD022070BD70B5024640325378202BE9
:101690001BD11378012B18D001241470242353700C
:1016A00003681D68A5431D6005682B680F26360278
:1016B000B3430902194329600068016821430160AE
:1016C000202050700020107070BD022070BD0000FE
:1016D00070B5040006D025464035687800260028FD
:1016E00002D005E0012070BD2E70204600F0AAFA5D
:1016F00024206870206801684908490001600F21B2
:101700006068090688432168086121688A680120A9
:10171000C00382438A60E1680129A16808D02122C0
:101720009202114322689160E168022902D005E02B
:101730000143F7E701212268C902516021684A6824
:101740000F4B1A434A602168CA688243CA606169C4
:1017500020690843A169090208432168C860216A19
:10176000E06908432168086020680168012211438C
:1017700001606664202068702663AE70002070BD32
:1017800000800002FFB5054604464035687881B008
:10179000202878D12878012875D001202870FFF7FB
:1017A00047FF0746012200901923D103204601F08C
:1017B00087FE00283CD1222068701020A8700026E7
:1017C000666403986062049860856663618D2F4843
:1017D000FF2903D9FF22228500903BE0618D2185FE
:1017E00000903DE02046029901F056FE16E001F01F
:1017F0008FFE00281CD12068406A616A0870606A08
:10180000401C6062208D401E81B22185608D401E8B
:101810006085608D002801D000290CD0608D0A9968
:1018200000283A462046E2D101F0B2FE00281CD042
:10183000012005B0F0BD00970022802120460A9BC0
:1018400001F03EFE0028F3D1608DFF2805D9FF226C
:101850002285009601231B06C4E7608D2085009633
:10186000208D0123C2B25B06BCE721682020C8613D
:1018700021684A68064B1A404A606870AE702E7044
:101880000020D6E7FFE70220D3E700000024008015
:1018900000E800FEFFB5054604464035687881B093
:1018A000202878D12878012875D001202870FFF7EA
:1018B000BFFE0746012200901923D103204601F004
:1018C000FFFD00283CD1212068701020A870002660
:1018D000666403986062049860856663618D2F4832
:1018E000FF2903D9FF22228500903BE0618D2185ED
:1018F00000903DE02046029901F0CEFD16E001F097
:101900006DFE00281CD1606A216800788862606AD8
:10191000401C6062608D401E6085208D401E80B23C
:101920002085618D002901D000280CD0608D0A9996
:1019300000283A462046E2D101F02AFE00281CD0B9
:10194000012005B0F0BD00970022802120460A9BAF
:1019500001F0B6FD0028F3D1608DFF2805D9FF22E4
:101960002285009601231B06C4E7608D2085009622
:10197000208D0123C2B25B06BCE721682020C8612C
:1019800021684A68064B1A404A606870AE702E7033
:101990000020D6E7FFE70220D3E700000020008008
:1019A00000E800FEFFB5054604464035687883B080
:1019B000202875D10C98002814D00D98002811D03B
:1019C000287801286CD001202870FFF731FE0746E7
:1019D000012200901923D103204601F071FD002857
:1019E00074D103E00120400260646FE0222068703F
:1019F0004020A870002666640C9860620D9860858F
:101A000066630E980090019704A90EC9204601F064
:101A1000E3FC002801D02E7058E0618D3448FF2986
:101A200005D9FF22228501231B06009006E0618D67
:101A300021850090208D0123C2B25B0620460499C7
:101A400001F02AFD00970022042120460E9B01F0A0
:101A500037FD00283AD12068406A616A0870606AE0
:101A6000401C6062208D401E81B22185608D401E29
:101A70006085608D00281FD000291DD100970022AD
:101A8000802120460E9B01F01BFD00281ED1608D99
:101A9000FF2806D9FF22228501231B06009607E0B6
:101AA00024E0608D20850096208D0123C2B25B0664
:101AB0002046049901F0F0FC608D0028C2D13A461E
:101AC00020460E9901F064FD002802D0012007B0E5
:101AD000F0BD20682021C16120684268054B1A4092
:101AE00042606970AE702E700020F0E70220EEE7D1
:101AF0000024008000E800FEFFB50546044640359E
:101B0000687883B0202872D10C98002814D00D98E2
:101B1000002811D02878012869D001202870FFF70B
:101B200087FD0746012200901923D103204601F0CA
:101B3000C7FC002871D103E00120400260646CE022
:101B4000212068704020A870002666640C986062AE
:101B50000D98608566630E980090019704A90EC9E0
:101B6000204601F069FC002801D02E7055E0608D00
:101B7000FF2805D9FF22228501231B06009606E0D7
:101B8000608D20850096208D0123C2B25B06204621
:101B9000049901F081FC3A4620460E9901F01EFDA1
:101BA00000283AD1606A216800788862606A401C27
:101BB0006062608D401E6085208D401E80B2208551
:101BC000618D00291FD000281DD10097002280219F
:101BD00020460E9B01F074FC00281ED1608DFF286A
:101BE00006D9FF22228501231B06009607E024E088
:101BF000608D20850096208D0123C2B25B062046B1
:101C0000049901F049FC608D0028C4D13A46204671
:101C10000E9901F0BDFC002802D0012007B0F0BDF4
:101C200020682021C16120684268054B1A4042604B
:101C30006970AE702E700020F0E70220EEE7000021
:101C400000E800FE10B586B0044614216846FEF791
:101C5000CDFA1249206888421DD1114C61690120DA
:101C6000800401436161616901400591C0200090D9
:101C700012200121019003200291049103906946F2
:101C80000848FFF7FDFBE169012040050143E161E0
:101C9000E1690140059106B010BD0000005400400C
:101CA0000010024000040048024881680278891848
:101CB000816070473403002010B506480168102287
:101CC00011430160002000F007F800F027F8002021
:101CD00010BD00000020024070B504460D4D7D206F
:101CE0002978C000FEF7FEF901460B480068FEF7B0
:101CF000F9F900F0E3FC002809D1042C07D20022F6
:101D00002146401E00F02AF800206C6070BD0120C2
:101D100070BD000034030020AC02002008B5084864
:101D20008169012211438161816911400091C26979
:101D300001040A43C261C0690840009008BD000068
:101D400000100240002805DBC106C90E01208840B2
:101D5000014908607047000000E100E010B502F0A2
:101D6000E7FC10BD0248016882151143016070470D
:101D700000700040F8B505460068354CC00352D5E8
:101D8000E0690026C00007D4E16920040143E16155
:101D9000E1690140012600912E480168C90510D46F
:101DA0000168821511430160FFF742FC074604E019
:101DB000FFF73EFCC01B642824D826480068C005F5
:101DC000F6D5206A03273F02384020D069683940A1
:101DD00081421CD0206A226AB843012109040A43C7
:101DE0002262226A8A4322622062C0070FD0FFF774
:101DF0001FFC009008E0FFF71BFC0099411A1648F1
:101E0000814201D90320F8BD206A8007F3D5206AFA
:101E10006968B84308432062002E04D0E1690120BC
:101E200000078143E1612878C00705D0206BA968CD
:101E300080088000084320632878800605D5206B41
:101E400010218843E968084320630020F8BD0000A2
:101E5000001002400070004088130000F8B50F46E3
:101E6000060059D03A4D2868C007C00FB84209D2C1
:101E7000286840084000384328602868C007C00F21
:101E8000B84249D13068334C81070CD5400704D59E
:101E9000606807210902084360606068F021884398
:101EA000B168084360603078C00726D070680128A8
:101EB0000ED0216802280ED0890700292CDA61682B
:101EC0008908890001436160FFF7B2FB00900DE0D3
:101ED00021688903F1E78901EFE7FFF7A9FB009982
:101EE000411A1D48814201D90320F8BD60680C21C8
:101EF0000840716889008842EFD12868C007C00F88
:101F0000B8420BD928684008400038432860286848
:101F1000C007C00FB84201D00120F8BD307840079B
:101F200006D56068072109028843F16808436060AC
:101F300000F028F86168094A0906090F515CC84099
:101F4000074908600020FFF7C7FE0020F8BD000029
:101F500000200240001002408813000020610008A9
:101F6000AC0200200448054900684968044A490554
:101F7000490F515CC8407047AC020020001002407D
:101F80003061000810B514A30FCB88B06C460FC4A5
:101F900015A30FCB0FC4184A51680C200B46034001
:101FA0001648042B16D0082B14D18B021B0F6C463D
:101FB000E45CD26A04AB1207120F9A5CC90305D520
:101FC00000231946FEF7B8F8214601E020460C49E7
:101FD00002F089FB08B010BD0203040506070809DA
:101FE0000A0B0C0D0E0F1010010203040506070862
:101FF000090A0B0C0D0E0F100010024000127A009F
:1020000000093D00FEB5040070D02078DC4DC0070B
:102010004AD068680007800F012807D06868000769
:10202000800F022809D16868C00306D5286880039C
:102030003AD560680028E7D036E06168012914D0FD
:1020400001208004002901D0052914D02A6801212B
:1020500009048A432A60296881432960606800284E
:1020600016D0FFF7E5FA06460EE0286801210904BC
:1020700008432860F2E7296801432960F5E7FFF784
:10208000D7FA801B64286ED828688003F7D50BE048
:10209000FFF7CEFA064604E0FFF7CAFA801B642871
:1020A000F1D828688003F7D420780126800700281B
:1020B0003CDA68680007800F07D068680007800F67
:1020C000022809D16868C00306D42868800716D59D
:1020D000E06801280AD112E0E0680028286816D0DC
:1020E00030432860FFF7A4FA074605E043E1FFF715
:1020F0009FFAC01B0228C6D828688007F7D5286831
:10210000F82188432169C900084328600EE040088F
:1021100040002860FFF78CFA074604E0FFF788FAD2
:10212000C01B0228AFD828688007F7D420780007A2
:1021300022D5E0690028686A0ED030436862FFF754
:1021400077FA074604E0FFF773FAC01B02289AD813
:10215000686A8007F7D50FE0400840006862FFF723
:1021600067FA074605E09DE0FFF762FAC01B022808
:1021700089D8686A8007F7D42078042740070028A8
:1021800060DA00200190E869C00008D4E969B80667
:102190000143E961E969014001200091019079481A
:1021A0000168C90511D40168821511430160FFF768
:1021B0003FFA009005E0FFF73BFA0099401A6428C7
:1021C00070D870480068C005F5D5A06801280AD00D
:1021D000002801D0052810D0286A40084000286255
:1021E000286AB84301E0286A30432862A0680028C2
:1021F00012D0FFF71DFA00900AE0286A38432862DF
:10220000F1E7FFF715FA0099411A5F48814249D872
:10221000286A8007F5D50DE0FFF70AFA009006E07E
:10222000FFF706FA0099411A574881423AD8286ABE
:102230008007F5D40198002804D0E969012000073F
:102240008143E9612078C00635D5606901280CD04A
:10225000401D686B23D038436863686B40084000BA
:102260006863FFF7E5F9064622E0686B3843686368
:10227000686B30436863FFF7DBF9064604E0FFF75D
:10228000D7F9801B02285BD8686B8007F7D5686B8D
:10229000F8218843A169C900084368630BE0B8438B
:1022A0006863F4E74CE0FFF7C3F9801B022847D8C6
:1022B000686B8007F7D4206A00285ED06968090738
:1022C000890F022942D0012636060228286805D047
:1022D000B0432860FFF7ACF9044633E0B043286010
:1022E000FFF7A6F9074604E0FFF7A2F9C01B022892
:1022F00026D828688001F7D4E86AE16A000900015D
:102300000843E862616AA06A084369683D221204D2
:10231000914308436860286830432860FFF788F9D4
:10232000044604E0FFF784F9001B022808D8286857
:102330008001F7D521E0FFF77BF9001B022801D9C6
:102340000320FEBD28688001F5D416E00128F8D0EE
:102350006868E96A01221204636A02409A420AD15B
:102360000907E26A090F914205D10F21890408404B
:10237000A16A884201D00120FEBD0020FEBD000000
:1023800000100240007000408813000010B508489B
:102390000621C172074800F0E5FA05480121C0385E
:1023A00003F051FC02480121C03803F057FC10BD76
:1023B000000400205C09002010B504460068816814
:1023C000C9040CD5C068C00509D52046FFF7DEFF5B
:1023D0002168C86880221040FF388238C860012018
:1023E0000249400448610120607710BD00040140AB
:1023F00010B500680B464068C021C9430140000287
:10240000000ECC04D870E40E5C708C06A40E090497
:10241000490F9C701970002A0AD101F055FCD87040
:10242000587801F051FC5870987801F04DFC987084
:10243000002010BD30B500680B4604680F482146E7
:10244000014088024D04800E18706D0E49065D70C3
:10245000490E99706102490E40242140D970002A2A
:102460000AD101F031FC1870587801F02DFC587039
:10247000987801F029FC9870002030BD7F7F7F00A4
:1024800070B5040003D0607F002802D006E0012070
:1024900070BD00202077204600F04CF802206077C5
:1024A0002168CA204862216853204862204601F012
:1024B0001EFCFF250426002824D1206881681C4AC0
:1024C00011408160216888686268636910432269ED
:1024D0001A43104388602168E06808612068016938
:1024E00022891204114301612068C168802291434E
:1024F000C16020688068800608D4204600F0C4F8D7
:10250000002803D0206845626677C0E72068016C28
:1025100001229204914301642068016CA269114375
:1025200001642068456201206077002070BD0000D2
:10253000BFFF8FFF10B50068084988420DD10848D9
:10254000016A0122D20311430162002211460220D6
:10255000FFF704FC0220FFF7F5FB10BD0028004048
:1025600000100240F8B50446007F0B46012839D020
:10257000012020770220607720681F462037002640
:102580008068002A30D0400600D4DE7019789D782B
:1025900009040D435978DA780902120411430D43F6
:1025A0003978D86909060D43054358699969054387
:1025B0005868084300902168CA2048622168532067
:1025C000486220688168FF2201329143816020685F
:1025D000C16880221140FF398239C160FFF728F8B5
:1025E000074629E00220F8BD400600D4DE701878C6
:1025F00001F072FB0504587801F06EFB0002054300
:10260000987801F069FB0543D878000405433878D1
:1026100001F062FB00060543D869C5E7FFF708F83B
:10262000C11B7D20C000814206D92168FF2048627D
:10263000032060772677F8BD2068C068C007EDD01A
:102640002068C56121680098486420688168FF227D
:102650000132114381602068816812011143816059
:1026600008480268012149040A43026082680A435B
:1026700082602168FF204862012060772677002071
:10268000F8BD00000004014070B504460068C16850
:10269000A0229143C160FEF7CBFF7D260546F600E0
:1026A00006E0FEF7C5FF401BB04201D9032070BD14
:1026B0002068C0688006F4D5002070BD094910B5B7
:1026C000401E884201D9012010BD074C60610321E2
:1026D000081F02F02DF80020A061072020610020D3
:1026E00010BD0000FFFFFF0000E000E070477047F2
:1026F00030B5034620331A7F012A26D001221A77EB
:102700000325CA682D02AA438D6800242A430125A7
:10271000AD02AA434D6800682A430125ED02AA4391
:102720000D682A4301252D03AA430D692A4301257B
:102730006D03AA434D69C9692A430125AD03AA4324
:102740000A4342641C77002030BD022030BD0000E7
:10275000F0B502462032137F012B1ED001251577DC
:102760000223537706687468B3687027BC430F6808
:102770002743776000680A4CA04205D0094CA0426C
:1027800002D0094CA04204D180244968A3431943D4
:102790008160557700201077F0BD0220F0BD000069
:1027A000002C0140000400400040014070B50400CE
:1027B00005D025462035687F002802D006E001209C
:1027C00070BD00202877204600F014F802206877BA
:1027D000211D206801F014FB01204034A071A8776E
:1027E000E87720706070A070E07020716071687789
:1027F000002070BD08B52D4A01682D48914202D1D4
:102800008269C1144DE02B4A914207D1C26902216D
:102810000A43C261C0690840009008BD264A91423F
:102820000DD1C26910210A43C261C069002208406B
:10283000009011461120FFF791FA11200FE01F4A76
:1028400091420FD1C26989150A43C261C069002251
:102850000840009011461320FFF780FA1320FFF77D
:1028600071FA08BD164A914203D182690121090417
:1028700017E0144A91420ED18269012149040A43AA
:102880008261806900220840009011461520FFF700
:1028900065FA1520E3E70C4A9142E2D182690121F1
:1028A00089040A4382618069B5E70000002C014079
:1028B00000100240000400400010004000200040D2
:1028C00000400140004401400048014001462031E1
:1028D0004A7F012A01D00120704702224A7700680E
:1028E000094A0121904205D0084A904202D0084A84
:1028F000904204D182685207520F062A02D0026821
:102900000A43026000207047002C01400004004090
:1029100000400140014620314A7F012A01D00120B8
:10292000704702224A770268D36801210B43D360C3
:102930000068094A904205D0084A904202D0084AED
:10294000904204D182685207520F062A02D00268D0
:102950000A43026000207047002C01400004004040
:102960000040014001680A6A074B1A4207D10A6A0F
:102970009B101A4203D10A68520852000A600121D2
:10298000203041770020704711110000F8B505464E
:1029900004462035287F0026012817D001202877FB
:1029A00002206877226890687727FF23B8431B02CC
:1029B000984390600868502838D00EDC20284FD00B
:1029C00006DC00284CD010281ED149E00220F8BDBA
:1029D000302845D0402817D13AE060282ED0702802
:1029E00019D001221203801A0FD090420CD1CB686B
:1029F0004A688968206801F054FA206881680122D9
:102A000092031143816000E00126012068770020D5
:102A100028773046F8BDCB684A688968206801F09D
:102A200040FA2168886838438860EEE7CA684968D8
:102A3000206801F045FB5021206806E0CA6849681B
:102A4000206801F04EFB6021206801F035FADCE7D8
:102A5000CA684968206801F033FB40212068F4E728
:102A6000226801461046F0E7704770B504460068DA
:102A700001690025C9438907002915DBC168C943DD
:102A8000890711D4E91E016101202077206880693F
:102A90008007204602D0FFF7E7FF04E000F0D2F8FD
:102AA000204600F05DF9257720680169C943490790
:102AB00017D4C168C943490713D40421C94301612C
:102AC00002202077206880698005800F204602D090
:102AD000FFF7CAFF04E000F0B5F8204600F040F927
:102AE000257720680169C943090716D4C168C9431D
:102AF000090712D40821C943016104202077206806
:102B0000C0698007204602D0FFF7AEFF04E000F066
:102B100099F8204600F024F9257720680169C94317
:102B2000C90617D4C168C943C90613D41021C943C3
:102B30000161082020772068C0698005800F204649
:102B400002D0FFF791FF04E000F07CF8204600F08F
:102B500007F9257720680169C943C90708D1C16809
:102B6000C943C90704D1891E0161204600F098F9C4
:102B700020680169C943090609D4C168C943090627
:102B800005D48021C94301612046FFF7AFFD2068CD
:102B90000169C943490609D4C168C943490605D436
:102BA0004021C9430161204600F05CFA20680169B8
:102BB000C943890609D4C168C943890605D42021BF
:102BC000C94301612046FFF792FD70BD10B586B084
:102BD000044614216846FDF709FB2368154C0022C2
:102BE00015480221A3420FD144690B041C434461E0
:102BF00040691840059088026B4607C3049109207C
:102C000003926946C00610E00C4CA3420FD1446900
:102C10001B131C43446140691840059001206B461A
:102C200007C30490694603920548FEF729FC06B0E5
:102C300010BD0000002C01400010024000040040C4
:102C4000000400487047F8B5064604462036307F39
:102C500000270D4601280ED001203077002A0CD025
:102C6000042A1BD0082A2FD00C2A3ED0012700208E
:102C700030773846F8BD0220F8BD206801F024F90D
:102C800020688169082211438161206882690421DA
:102C90008A438261206881692A6912E0206801F014
:102CA00057F9206882690121C9020A4382612068BC
:102CB00081690122920291438161206881692A69B8
:102CC000120211438161D2E7206801F081F9206886
:102CD000C16908221143C1612068C26904218A4385
:102CE000C2612068C1692A6912E0206801F0B2F966
:102CF0002068C1690122D2021143C1612068C26902
:102D0000012189028A43C2612068C1692A691202CD
:102D10001143C161ABE770B5040005D025462035ED
:102D2000687F002802D006E0012070BD00202877CF
:102D3000204600F014F802206877211D206801F079
:102D40005FF801204034A071A877E87720706070A8
:102D5000A070E070207160716877002070BD7047CE
:102D60007047000030B504460222203000290AD006
:102D700004290DD02046403008290ED04378012B7D
:102D800010D0012030BD837F012BFAD182770AE079
:102D9000C37F012BF5D1C27705E00378012BF0D179
:102DA000027000E042700122206801F06DF81249C3
:102DB0002068124B884207D0984205D0104A9042B2
:102DC00002D0104A904204D1426C0125ED032A43FF
:102DD000426420680122884204D00B49884201D015
:102DE000984204D181684907490F062902D0016839
:102DF00011430160002030BD002C01400040014023
:102E000000440140004801400004004070B5044601
:102E10000D460068002201F037F81D491B4B206861
:102E20008A10984208D01B4B984205D01A4B984202
:102E300002D01A4B98420AD1036A0B4207D1036AA7
:102E4000134204D1436C0126F603B3434364206864
:102E5000036A0B4206D1016A114203D10168490895
:102E600049000160204620300121002D07D0042DAB
:102E700007D04034082D06D06170002070BD8177E6
:102E8000FBE7C177F9E72170F7E70000002C01406C
:102E90001111000000400140004401400048014081
:102EA00070B5674988425BD16649881F00F00EFC07
:102EB0006448654C801F00886080204602F060F9FD
:102EC0006048254640881835A880284602F0DCF87E
:102ED0000020205E7D21C900884204DB5B4802F0AF
:102EE000B8F800282ED00020205E642808DA574861
:102EF00002F0AFF8002803D00021544802F098FEF9
:102F00000020285E7D214901884204DB4F4802F001
:102F1000AFF800281FD00020205EFF2191318842A9
:102F20000FDA4A4802F0A4F800280AD000214748E6
:102F300002F09FFE4648FFF7EDFC0121434802F0F6
:102F40008DFE70BD0121414802F072FE3F480168CC
:102F5000491C0160D4E701213C4802F08AFE70BDA3
:102F60003C4900253C4E88425ED1384802F07BF84F
:102F7000002852D03548C030C17A0B0001F0CBFB9D
:102F800007060D2131383F460500E8E73048FFF7D6
:102F9000E9FC2E4802F04CFB70BD2A4C1E3C6168D7
:102FA0000C2906DA294802F055FC6068401C606074
:102FB00070BD0221C172656075622548FFF7AAFCE9
:102FC00070BD2249002214312448FFF733FA1F490B
:102FD000002210312148FFF70BFA1C4802F072FC66
:102FE00070BD1B48FFF7BEFC184802F09BFB70BD8C
:102FF0001748FFF7B7FC154802F024FD70BD1448D0
:10300000FFF7B0FC114802F0C5FA70BD1048FFF799
:10301000A9FC0E4802F0CEFD70BD002002F0F8FEC3
:103020000F4802F0B1FF70BD09498842FBD1084644
:10303000FFF798FC0021054802F010FE756270BD94
:103040005C0900201E000020B00700204003002083
:10305000340A0020A409002000440140AC080020EC
:103060006008002070477047704710B5040003D017
:10307000A06F002802D007E0012010BD00217420BD
:103080000155204600F026F82420A067206801683A
:10309000490849000160204601F08CF90128ECD074
:1030A000606A002802D0204601F02EF820684168AE
:1030B0000122D20291434160206881680822914335
:1030C000816020680168012211430160204601F0FF
:1030D00081F810BDF0B587B0064614216846FDF7AB
:1030E00085F82A4F01213468002529484904022324
:1030F0000322BC4219D18669CC10264386618669B9
:103100002640059644690C43446140696C4608407A
:1031100005905002039229C40120049009206946B9
:10312000C006FEF7ADF907B0F0BD1A4FBC42FAD1A8
:10313000C4690C43C461C4690C40059444690C43E0
:10314000446140696C46084005900C20039229C4F4
:103150000120049009206946C006FEF791F90E4847
:103160000E4C21C42560A5608020E56060602020B1
:10317000656120610948083CFEF728F8002801D065
:10318000FDF76EFD34676662CDE700000038014050
:10319000001002400044004058000240CC0B0020C8
:1031A00070B5C36F202B2BD100290BD0002A09D07A
:1031B000012483682403A34206D10369002B03D1B1
:1031C000CB0701D0012070BD034660331C7D012C6C
:1031D00016D001241C7500230366046863681B0273
:1031E0000BD5EFF31083012585F3108825680126A0
:1031F000B6063543256083F3108801F075F970BD7C
:10320000022070BD044910B5884203D10349044827
:1032100000F092FD10BD0000480B002011000020BE
:10322000400300207047FFB50446806F83B0174607
:103230000D4620285ED1002D0AD0002F08D0A168AD
:10324000C001814207D12069002804D1E80702D0DB
:10325000012007B0F0BD204660300090007D0128BD
:1032600048D00098012101750020802108512120BB
:10327000A067FEF7DDF92646403601903782778257
:103280000120A1680003814202D12069002805D0F5
:103290002F46002500990020087511E00027F9E766
:1032A00000228021204601F077F9002815D1002F57
:1032B00015D02168387808857F1C708A401E70827E
:1032C000708A019B002806980090E9D100224021D5
:1032D000204601F061F9002808D00320B9E72888CA
:1032E0002168C005C00D0885AD1CE6E72020A06759
:1032F0000020AEE70220ACE7FEE701688A69D2430E
:10330000920701D400228A6200688169C943C90713
:1033100003D081690122114381617047F7B50446EA
:1033200000680F468169C943C90636D441688901DE
:1033300004D44168012292031143416000262546CE
:10334000403520688069C043800612D5781CF8D0CB
:10335000FEF76EF90299401AB84201D8002FF0D159
:10336000616C2020014361646870AE702E70012092
:10337000FEBD21681020C86120682027C761204653
:10338000FFF7BBFF20684168054A11404160606C4F
:103390000421084360646F70E7E70020FEBD000071
:1033A00000E800FEFEB50F46694608710A20094D87
:1033B0001646D0240090012301AA21462868FEF772
:1033C00069FA6420009033463A4621462868FEF7A1
:1033D000D9F9FEBDB0020020F8B5044616461548DE
:1033E0001D46DAB20090079F0023204600F054F8F3
:1033F0003A462046069900F0F1F8002818D12846F0
:10340000F5B2012809D02168300A88623A46204680
:10341000069900F0E3F800280AD120688562009739
:10342000002240212046069B00F04AF8002800D0E8
:103430000120F8BD00200080F8B504461646154866
:103440001D46DAB2C3020090079F204600F024F820
:103450003A462046069900F0C1F8002818D12846BF
:10346000F5B2012809D02168300A88623A46204620
:10347000069900F0B3F800280AD120688562009709
:10348000002280212046069B00F01AF8002800D078
:103490000120F8BD00200080F0B50668059C756825
:1034A000064F600D384385438805800D110408439D
:1034B0001843204305437560F0BD0000FF63FF0320
:1034C000F8B51D4617460E46044609E0681C07D0AD
:1034D000FEF7AEF80699401AA8420BD8002D09D085
:1034E00020688169304688430FD00020B842EDD073
:1034F0000020F8BD616C202001436164403460709D
:103500000020A07020700120F8BD0120EEE700002F
:10351000F7B50027202605460446403528E020461A
:10352000029A0199FFF7FAFE002801D00120FEBDA2
:1035300020688069C043800611D420688169C9432E
:10354000490702D4218D002917D1C661206841683E
:103550000E4A1140416067646E70AF7013E0FEF771
:1035600067F80299411A0198814208D8002806D0CC
:1035700020688069C0434007D1D40020FEBD606C44
:10358000304360646E702F70D0E7000000E800FEEA
:1035900070B516460D4604460FE0324629462046D1
:1035A000FFF7BCFE002801D0012070BDFEF740F8F7
:1035B000801BA84208D8002D06D020688069C0432F
:1035C0008006EAD4002070BD616C20200143616454
:1035D000403460700020A0702070E5E770B516469A
:1035E0000D46044611E0324629462046FFF796FE76
:1035F000002801D0012070BD681C06D0FEF718F825
:10360000801BA84208D8002D06D020688069C043DE
:103610008007E8D4002070BD616C20200143616404
:10362000403460700020A0702070E3E71CB56A464B
:1036300010715171642000900348D021022301AA27
:103640000068FEF727F91CBDB002002070B50446E3
:103650000648FFF73BF9064D686AA042FCD30348D1
:10366000FFF780F90020686270BD00007C0A00202E
:103670000048014010B5044680216B20FFF7D6FFBB
:103680006420FDF703FE207821794007C907400F29
:10369000490E01436B20FFF7C9FF6420FDF7F6FDDB
:1036A000E0784107490F1A20FFF7C0FF60788007D4
:1036B000C10E1B20FFF7BAFFA0788007C10E1C20A7
:1036C000FFF7B4FF042000F041F810BD30B585B01D
:1036D0000C46054600A901223A200131FFF762FE9F
:1036E00068464078002829D0062201A93B20FFF730
:1036F00059FE6A4610795179000240182880907965
:10370000D179000240186880107A517A000240187E
:10371000A880062203A94320FFF744FE6A46107BD7
:10372000517B000240182080907BD17B0002401822
:103730006080107C517C00024018A08005B030BD34
:103740000149086070470000B002002010B5014632
:103750001920FFF76BFF10BD3EB5002118480091FE
:103760000191164A029102608160012452050461B0
:103770004260C16004224261017641768176C17661
:103780009101C16189000162014620310C7184629E
:10379000FDF772FB002801D0FDF762FA012000035B
:1037A000019000040290009469460548FDF75AFA1A
:1037B000002801D0FDF754FA3EBD0000002401406E
:1037C000DC07002008B50C48416901221143416122
:1037D000406910400022009011460920FEF7BEFA11
:1037E0000920FEF7AFFA002211460B20FEF7B6FAC9
:1037F0000B20FEF7A7FA08BD0010024030B587B0D5
:1038000014216846FCF7F2FC344842690121C904DE
:103810000A43426142690A400592426989100A439B
:10382000426142690A400592426949000A43426185
:1038300042690A400592426909010A4342614069AE
:10384000274D08404C120590002221462846FDF7DE
:10385000E9FE009401200024019002946946284664
:103860000394FDF70DFE402011252D0400906946BC
:10387000019502941B48FDF703FE0120C003009050
:103880000920694601950294C006FDF7F9FDFF2065
:1038900001953930144D0090694602942846FDF791
:1038A000EFFD0120400200902120000401906946B4
:1038B00002942846FDF7E4FD002211460620FEF79B
:1038C0004DFA0620FEF73EFA002211460720FEF7C9
:1038D00045FA0720FEF736FA07B030BD0010024067
:1038E00000080048001400480004004810B51348C0
:1038F000114901601249416000218160016141610B
:1039000081610122C161C2600162FDF7E1FE002810
:1039100001D0FDF7A5F900210848FDF78FFE00282A
:1039200001D0FDF79DF900210448FDF7ACFE002809
:1039300001D0FDF795F910BD00540040600800204B
:103940000E09002010B590B014210AA8FCF74EFC17
:10395000002428216846FCF749FC0949094812C09F
:103960007F2101608460C460FF21046141600838E8
:10397000FEF786FD002801D0FDF772F910B010BDEA
:1039800000280040AC08002010B50A480849016032
:10399000094941600021FF228160F4320161C26067
:1039A0008161FEF703FF002801D0FDF759F910BD32
:1039B00000200040A40900207FBB000010B586B0A5
:1039C0000024009417480194029403940494144929
:1039D000059401602F2184604160046144611249B3
:1039E0008461C160FEF7E2FE002801D0FDF738F9DE
:1039F00001200003009069460A48FEF7C7FF00282F
:103A000001D0FDF72DF9202004A911C1054808397E
:103A1000FEF79EFE002801D0FDF722F906B010BD8A
:103A200000400140EC0900200F27000010B50B48B2
:103A3000094901600A494160002181607D220161DC
:103A400052014161C2608161FEF7B0FE002801D0E1
:103A5000FDF706F910BD000000440140340A0020C3
:103A60007FBB000010B50A48084901600949416060
:103A7000002181600161084A4161C2608161FEF7F5
:103A800095FE002801D0FDF7EBF810BD004801407D
:103A90007C0A00207FBB0000FFFF000010B596B03D
:103AA00000240F9410941194129413941C2108A8CC
:103AB0001494FCF79BFB20216846FCF797FB2B48EE
:103AC000294901602F2184604160046144612849D3
:103AD0008461C160FEF76AFE002801D0FDF7C0F8DE
:103AE000012000030F900FA92048FEF74FFF002888
:103AF00001D0FDF7B5F81D48FFF70DF9002801D0FA
:103B0000FDF7AEF8139413A918481494FEF720FE9D
:103B1000002801D0FDF7A4F860200890FF202D3088
:103B20000E9409900A940C940D940C2208A90F4845
:103B3000FFF789F8002801D0FDF792F801200094E2
:103B400040030294059001940394049469460794F9
:103B50000648FEF7CDFD002801D0FDF781F80348A7
:103B6000FFF734F816B010BD002C0140CC0800203F
:103B7000E703000010B58EB0002407940894099460
:103B80000A940B941C2168460C94FCF72FFB2148E7
:103B90001F4901602F218460416004611E498461D6
:103BA000C160FEF703FE002801D0FDF759F801209F
:103BB0000003079007A91748FEF7E8FE002801D088
:103BC000FDF74EF81348FFF7A6F8002801D0FDF7DF
:103BD00047F80B940BA90F480C94FEF7B9FD002889
:103BE00001D0FDF73DF860200090FF20F5300190F6
:103BF00002940822694604940648FFF724F8002836
:103C000001D0FDF72DF80348FEF7E0FF0EB010BD20
:103C10000004004014090020E703000010B5094823
:103C2000074901602F2141600021074A8160C2607D
:103C30008161FEF7BBFD002801D0FDF711F810BD32
:103C4000001000405C090020E703000010B50C489C
:103C50000A490160E1214902416000218160C1609F
:103C600001618161C1610C22016242614162FFF721
:103C7000FCF9002801D0FCF7F3FF10BD003801402B
:103C8000C40A002010B50E480C490160E121490228
:103C9000416000218160C160016181610C22C161CC
:103CA000426101620821416209034163FFF7DDF9C6
:103CB000002801D0FCF7D4FF10BD000000440040F4
:103CC000480B00207047704701090A220007514342
:103CD000000F4018C0B27047002102E00A38C0B29D
:103CE000491C0A28FAD20907090E0843704770B523
:103CF00004460068C168490613D40021C943C16065
:103D0000FDF796FC7D260546F60006E0FDF790FCE3
:103D1000401BB04201D9032070BD2068C068400636
:103D2000F4D5002070BD000010B50248FEF744FB3A
:103D300010BD0000AC08002000B5012101F08EFF8D
:103D400000BD704710B5FDF7AFFF10BD30B595B0A1
:103D500030216846FCF74AFA00240C940D940E9426
:103D60000F941094119412941394FDF7FBFF1548CF
:103D7000016A18221143016206200090012003907D
:103D800002901020099404900520C00402250A9096
:103D900008950B946846FEF735F907200C900E94B1
:103DA00001210D950F940CA8FEF758F806481090C5
:103DB000001211901294139410A8FDF7DBFF15B0B8
:103DC00030BD0000001002402100010070470000DB
:103DD00010B50248FEF749FE10BD0000A4090020FE
:103DE00010B50248FEF741FE10BD0000340A002065
:103DF00010B50248FEF739FE10BD00005C09002036
:103E0000F0B502681A4B1B4C984201D0A04203D176
:103E10007025AA434D682A43174D184E184F9842F3
:103E20000AD0A04208D0174CA04205D0A84203D027
:103E3000B04201D0B84205D1144603221202944385
:103E4000CA6822438024A2434C69224302608A68E4
:103E5000C2620A688262984205D0A84203D0B0428A
:103E600001D0B84201D10969016301214161F0BD6E
:103E7000002C01400004004000400140004401408B
:103E8000004801400020004010B5CB06DB0E0121A8
:103E9000046A99408C430462016A9A4011430162AA
:103EA00010BD30B58468FF252D021B021343AC43BF
:103EB0000B432343836030BD826870239A430A43D7
:103EC00007210A4382607047F0B5026A5208520027
:103ED0000262056A436882697024A24392080C68F2
:103EE00092001443022295438A68164E2A43144DC9
:103EF000A84207D0B04205D0134FB84202D0134FAA
:103F0000B84206D10827BA43CF6817430422974323
:103F10003A46A84207D0B04205D00B4DA84202D085
:103F20000A4DA84206D103252D02AB434D691D431E
:103F30008B692B4343608461496841630262F0BD31
:103F4000002C014000400140004401400048014075
:103F500070B5026A10239A430262056A4268836957
:103F600073242402A3430C6824021C4320239D4392
:103F70008B681B012B43124DA84208D11D46CB680C
:103F80008026B5431B012B434025AB4308E00D4D74
:103F9000A84205D00C4DA84202D00C4DA84208D131
:103FA0000325AD02AA434D69AD0015438A6992000D
:103FB0002A434260846149688163036270BD0000E6
:103FC000002C0140004001400044014000480140F5
:103FD00070B5026AFF2301339A430262056A43689F
:103FE000C2697024A24392080C6892001443012213
:103FF000520295438A6812022A43124DA84208D100
:104000001546CA68C614B54312022A430515AA43C9
:1040100008E00D4DA84205D00C4DA84202D00C4D31
:10402000A84208D103252D03AB434D692D011D4343
:104030008B691B012B434360C4614968C163026201
:1040400070BD0000002C01400040014000440140D0
:104050000048014030B5026A01231B039A43026203
:10406000046A4268C36973252D02AB430D682D02B3
:104070001D4301235B039C438B681B0323430C4CB0
:10408000A04208D00B4CA04205D00B4CA04202D05D
:104090000A4CA04205D10124A403A2434C69A40107
:1040A00022434260C56149680164036230BD00007B
:1040B000002C014000400140004401400048014004
:1040C00030B5036A046A6408640004628469F025F8
:1040D000AC43120122430A24A3430B4382610362CF
:1040E00030BD30B5036A1024A34303628469036AB8
:1040F0000F252D031203AC432243A024A34309013F
:1041000019438261016230BD10B5818CC90707D0A7
:1041100001684A6801235B049A43836A1A434A6030
:10412000818C890707D501684A6801231B049A43DB
:10413000C36A1A434A60818C490707D501684A68F7
:1041400001239B049A43036B1A434A60818C09073D
:1041500007D501684A680123DB039A43436B1A437E
:104160004A60818CC90607D50268916801231B0348
:104170009943836B19439160818C890607D5016847
:104180008A6801235B039A43C36B1A438A60818C5C
:10419000490612D503685A6801210905046C8A434F
:1041A00022435A60026C8A4207D102685168032395
:1041B0005B059943436C19435160818C090607D50F
:1041C00001684A680123DB04806C9A4302434A6019
:1041D00010BD0000F8B50446002680300660FDF7EB
:1041E00027FA054620680068124F000709D501210B
:1041F0002B46002249052046009700F0CDF9002803
:104200000DD12068006840070BD501212B46002204
:1042100089052046009700F0BFF9002801D003204F
:10422000F8BD2020A067E067266660342675002070
:10423000F8BD0000FFFFFF0170B5446AA06FE56F95
:104240002168896800260906002906DA212804D198
:1042500052200653204600F09CF8206880684006F3
:1042600006D5222D04D15A200653204600F062F8CC
:104270002046803001681022114301602046FEF77D
:10428000F3FE70BD10B501468969406A202938D017
:1042900000225A210A52EFF31081012282F3108882
:1042A00002681368FF240134A343136081F310886C
:1042B000EFF31081012282F31088026893685B0893
:1042C0005B00936081F31088EFF31081012282F389
:1042D0001088026893684024A343936081F3108898
:1042E0002021C167016E01290BD1EFF3108101225A
:1042F00082F31088026813681024A343136081F3CB
:104300001088016E012902D0FEF77CFF10BD5821F4
:10431000095AFEF7A8FE10BD10B5406A016E0129CA
:1043200002D0FEF77FFF10BD5821095A4908FEF759
:104330009AFE10BD10B5EFF31081012282F31088B0
:1043400002681368FF242134A343136081F31088AB
:10435000EFF31081012282F31088026893685B08F2
:104360005B00936081F31088016E01290BD1EFF39C
:104370001081012282F31088026813681024A3437D
:10438000136081F310882021C16700210166416616
:1043900010BD10B5EFF31081012282F3108802687E
:1043A0001368C024A343136081F310882021816720
:1043B00010BD000070B5044680682169E2690843B9
:1043C000616900251143226808431168404B194078
:1043D0000143116021684868032212039043E26898
:1043E00010434860A169206A084321688A680B234A
:1043F0001B029A4302438A6036492068884210D1E2
:104400003548006B8007800F0ED0012805D00228A8
:1044100005D003280AD1022109E0042107E0082180
:1044200005E02E49884201D1002100E01021012041
:10443000E369C0032A4A2B4E834223D1002906D0C8
:10444000022907D0042907D0082937D108E0FDF751
:1044500089FD03E0104603E0FDF794FD002831D00C
:10446000616840004A088018FBF73CFE80B20146B4
:104470001039B14222D81B49491C01400007400FA6
:1044800008431DE0002906D0022907D0042907D0DF
:10449000082913D108E0FDF765FD03E0104603E0AD
:1044A000FDF770FD00280DD061684A081018FBF771
:1044B00019FE80B201461039B14201D9012501E04F
:1044C0002168C86000206066A066284670BD0000B4
:1044D000F369FFFF00380140001002400044004033
:1044E00000127A00EFFF0000F8B504464165403045
:1044F00000262746028380373E602220E06725465B
:10450000206F603500281BD020498162216F204830
:10451000C862216F1F480863206F13464663606DB1
:104520002168844662462431206FFCF779FE00281A
:1045300006D0102038602E752020E0670120F8BDDD
:104540002E75EFF31080012181F3108821680A682D
:10455000FF2301331A430A6080F31088EFF31080C1
:10456000012181F31088226893680B43936080F3E4
:104570001088EFF3108081F3108821688A68402347
:104580001A438A6080F310880020F8BD8542000835
:104590001943000839420008FFB581B005461746A7
:1045A000044660350A9E55E0701C53D0FDF740F874
:1045B0000499401AB04230D8002E2ED020680168ED
:1045C000490747D5C069C043000543D4012021688D
:1045D000C0020862EFF31080012181F31088216886
:1045E0000B68FF22A13293430B6080F31088EFF336
:1045F0001080012181F3108821688A6852085200D6
:104600008A6080F310882020A067E06780342060F3
:1046100000202875032005B0F0BDEFF310800121C4
:1046200081F3108821680B68FF22A13293430B604D
:1046300080F31088EFF31080012181F31088216846
:104640008A68520852008A6080F310882020A06790
:10465000E067DDE72068C1690298884304D0002044
:10466000B842A1D00020D6E70120F9E70FB410B579
:1046700004A9074B02AA039800F046F9044602A9D0
:10468000002000F0DDFC204610BC08BC04B0184738
:104690004150000837B514460846064B6A46214685
:1046A00000F032F904466946002000F0C9FC2046BB
:1046B0003EBD0000415000082021020C01D0102115
:1046C0001046020A01D010460839020901D01046EE
:1046D000091F820801D01046891E420801D0881E99
:1046E0007047081A7047F8B5040C8BB2264682B2A0
:1046F0005E430D0C1046370C5843360480190021D8
:10470000794116466E43370C3604801979412646A6
:104710006E438919F8BD30B47446641E2578641C54
:10472000AB4200D21D46635D5B00E31830BC184706
:104730008307FF22DB0E9A408907090E9940002863
:1047400008DB830809489B001B181868904308433E
:10475000186070470007000F0838830804489B0062
:104760001B18D86990430843D861704700E400E003
:1047700000ED00E002E008C8121F08C1002AFAD1CB
:1047800070477047002001E001C1121F002AFBD1D1
:1047900070470000F0B51FB486B00998089A030D61
:1047A0000021024314D05148514A181850430514AF
:1047B0001198012810981AD0281A401C00264D4F35
:1047C0004D49009601910490002812DA444211E00C
:1047D0001198012449A3012801D11098C1430698DA
:1047E000119A84600360C26041600BB0F0BD40422A
:1047F000E4E70446210500203F4A001C5141039193
:10480000029012E0E00707D032463B46019900983B
:10481000FBF77EFE0191009032463B46104619465A
:10482000FBF776FE06460F466410002CEAD104988A
:10483000039B0028029A0999089806DAFBF768FE9C
:10484000019B009AFBF764FE05E0FBF7C9FE019BA4
:10485000009AFBF7C5FE04460E460022284BFCF7E3
:10486000A7F803D80020C043014607E00022254BEB
:1048700020463146FBF79AFDFCF77AF8102409E050
:10488000002C0ADB0A220023FBF756FC079B303280
:104890001A55641E02460A43F2D11122641C079B7A
:1048A000121B1C19119B012B03D0012308430ED1AD
:1048B0000AE0084304D0112010900020119077E7FF
:1048C0001098151A6D1E0BE01098824202DD00232D
:1048D0006D1C03E0824201DA00236D1E002BEED036
:1048E000069811998260C16030C07EE701FCFFFF2D
:1048F000104D0000000014400000F03F30000000A8
:104900000000F0430000E03FFFB597B006460025E9
:1049100018E2252877D100242746FD49049400E0B9
:104920000443761C32780120203A90400842F7D1A7
:1049300030782A280ED002223078014630390929F1
:1049400016D804990A235943303940181443761C69
:104950000490F1E7189802C804911890002904DA2D
:104960000120400304434842049002200443761C83
:1049700030782E2814D1042004437078761C2A281D
:1049800009D11898761C80C8189009E00A214F4375
:10499000303FC719761C3078014630390929F5D9DE
:1049A00030786C2810D006DC4C281AD068280ED03D
:1049B0006A2817D104E0742813D07A2812D110E0A5
:1049C0000120400504430CE00121090501E0032119
:1049D00009050C437178814203D101200005241898
:1049E000761C761C3078119066280BD013DC582882
:1049F0007DD009DC00287BD04528F6D04628F4D0AD
:104A000047281AD1A5E118E0632835D0642870D072
:104A1000652812D19DE170286CD008DC6728F1D0A0
:104A200069287BD06E280DD06F2806D1BAE0732894
:104A30002ED0752871D0782859D01A9A1999904794
:104A40006D1C7EE16002400F022809D003280DD0C2
:104A50000428189801680DD00D60001D189070E1B1
:104A60001898EA1701680D604A60F6E7189801681F
:104A70000D80F2E70D70F0E718986A460178117220
:104A8000001D18900020507202A80090012005E03F
:104A9000189802C8189000200091C04361070DD5F6
:104AA000002101E00199491C0191B94212DA8142C9
:104AB000F8DB009A515C0029F4D10BE0002101E001
:104AC0000199491C01918142FADB019A0099895CA4
:104AD0000029F5D1019904981A9B471A21463846B6
:104AE000199A00F097FA0199401945180BE04FE028
:104AF0002CE113E04EE0009800990078491C0091E9
:104B00001A9A199990470198401E0190401CF2D1C1
:104B1000214638461A9B199A10E137E00A200021F5
:104B2000009001916002410F022907D0189A01CA32
:104B30001892C2179446032908D00AE01898C01D9D
:104B4000C108C90005C91891944607E000B2C21710
:104B50009446042902D140B2C1178C460022614616
:104B6000944506DA0A460021404291418C462D21A7
:104B700002E0210504D52B216A461173012103E0CF
:104B8000E10701D02021F7E7029155E00A200AE071
:104B9000102008E01020009000210420044301911F
:104BA000082703E008200021019100906002410FD6
:104BB000022907D0189A01CA1892002294460329A4
:104BC00008D008E01898C01DC108C90005C918918F
:104BD000944603E080B2042900D1C0B200210291C2
:104BE000210729D51199702906D0009A1021019B1F
:104BF0004A401A4305D00EE040216A461173012154
:104C000008E06146014306D030216A4611731199CC
:104C1000517302210291009A0821019B4A401A43D4
:104C20000AD16146014301D1610705D530216A46A9
:104C3000117301217F1E02911199582904D035A1C9
:104C40000E910DA90D910DE037A1F9E76146019B89
:104C5000009AFBF771FA0E9B8C469B5C0D9A521ED4
:104C60000D92137061460143F0D10D9805A9081A01
:104C700020300190600703D501200004844300E048
:104C800001270198874201DD381A00E000200199D0
:104C900000904118029809180498401A0490E00303
:104CA00006D421461A9B199A049800F0B3F94519C5
:104CB000002706E003A81A9AC05D199990476D1C59
:104CC0007F1C02988742F5DBE0030CD521461A9B36
:104CD000199A049800F09EF9451904E01A9A3020B8
:104CE000199990476D1C0099481E00900029F5DC29
:104CF00008E00D980D990078491C0D911A9A1999A0
:104D000090476D1C0199481E01900029F1DC63E178
:104D10000928010030313233343536373839616291
:104D20006364656600000000303132333435363755
:104D300038394142434445460000000000F05AF92A
:104D40004519761C3078002800D0E2E528461BB0D3
:104D5000F0BD600700D406271898C01DC108C9001F
:104D600048680A680831C30FDB071891190001D0A1
:104D70009CA108E0210501D59BA104E0E10701D039
:104D80009AA100E09AA1430011985B081091652850
:104D90000CD006DC452809D046281DD0472841D133
:104DA00041E0662818D067283CD13CE00021112F53
:104DB00001DB112000E0781C0191009008A911A8E6
:104DC000FFF7E8FC139905910021119A15927F1CB9
:104DD00012980197009150E00120C0070390012034
:104DE000019008A9009711A8FFF7D4FC139A149911
:104DF00005920022119B009212981593059A019238
:104E0000002901D0104602E0791C40180190381AA0
:104E100001D5019804E04042401E0090781C0190AA
:104E2000C01B029043E0012F00DA01270021112F5F
:104E300001DD112000E038460191009008A911A879
:104E4000FFF7A8FC13990591119A00211298159269
:104E50000091019721070CD40599B94201DB019912
:104E600000E00191012904DD159A491E515C3029A9
:104E700006D0B84201DA011D05DA0121029115E0E0
:104E80000199491EEDE7002805DC009941180091C1
:104E90000199091A03E0019A411C914200DD019138
:104EA0000099401A401C02900120C007039020077F
:104EB00006D402990198814202DB0020C04302908F
:104EC00000206946C87707AF012103980337C90757
:104ED000884224D0022011902B20129003980028A1
:104EE0000CDA404203902D20129007E00A2103982B
:104EF000FBF7F8F830317F1E039039701199481E86
:104F000011900029F2DC03980028EFD1791E129845
:104F100008703078202108404530BF1E387006A840
:104F2000C01BC01D039010980078002800D00120FD
:104F3000019941180298C017091803980918049894
:104F4000401A401E0490E00306D421461A9B199A89
:104F5000049800F05FF8451910980078002803D0F5
:104F60001A9A199990476D1CE00324D521461A9B83
:104F7000199A049800F04EF845191CE00098002892
:104F800007DB00990598884203DD1598405C199964
:104F900001E0199930201A9A904700986D1C401C26
:104FA00000900298401E0290002804D11A9A2E20E8
:104FB000199990476D1C0199481E01900029DDDC6C
:104FC00005E038781A9A7F1C199990476D1C03994F
:104FD000481E03900029F4DC21461A9B199A049874
:104FE000ACE600002D0000002B00000020000000B7
:104FF00000000000F8B5044600251E461746880448
:1050000004D405E039462020B0476D1C641EF9D554
:105010002846F8BDFFB50446002581B01E46C803EA
:1050200001D5302700E02027880404D505E0384664
:105030000399B0476D1C641EF9D5284605B0F0BD34
:105040000A68531C0B6010707047A030807FC00945
:105050007047A030807F4007C00F7047A030807F2E
:105060004006C00F7047A030807F0007C00F704718
:10507000A030807FC006C00F7047002101804180B2
:105080008180C18001817047F0B50446324885B007
:10509000C068401CFBF727FB3049FBF748F900903C
:1050A0002F48E0602F4820610420205EFBF710FBB2
:1050B0002B490390FBF7FEF802900220205EFBF7DD
:1050C00007FB05460099FBF7F5F8064624480099CA
:1050D000FBF7F0F82946FBF7EDF807460020205EC5
:1050E000FBF7F6FA1E490190FBF7E4F80146019838
:1050F000FBF7D8F83946FBF7D5F83146FBF781F8CE
:105100000299FBF77EF8FBF709FB06B226801549EA
:105110000398FBF7CFF80746019512480099FBF773
:10512000C9F82946FBF7C6F805463046FBF7D0FA22
:1051300001460D48FBF7BEF82946FBF7B3F8019985
:10514000FBF75FF83946FBF75CF8FBF7E7FA60809E
:10515000E680208105B0F0BD5C0900200024744980
:10516000C572CB3CA4E29F3EA4E29FBE0023038015
:10517000438083808360C3600261416170470000A7
:10518000F8B504460220205EFBF7A2FA00906169A0
:10519000E068FBF736F8266907463146FBF731F839
:1051A000054629463846FBF7C2F80099FBF782F816
:1051B00007460420205EFBF78BFA00902946304614
:1051C000FBF7B5F80099FBF775F83946FBF719F8C6
:1051D000FBF7A4FA2080A0800148A060E060F8BD41
:1051E0006D7CD341C2B0FCF767FDFEF7AFFDFEF763
:1051F00005FBFEF7E7FAFEF779FBFEF7A3FBFEF7E8
:105200004DFCFEF7B7FCFEF721FDFEF7A5FAFEF711
:1052100039FDFEF703FDFEF7D1FBFEF7B5FBFEF708
:1052200005FCFEF71FFC5BA0FBF7ACFC28216846E1
:10523000FAF7DCFF1121684601700B214170002450
:10524000847059480590C001019407900394049418
:105250000694052108A80170FF200130099022461C
:1052600069465248FDF77EF951A0FBF78BFC7D257E
:105270002D012846FCF70AF850A0FBF783FC55489F
:1052800000F0D8FD4AA0FBF77DFC2846FBF7FEFFA7
:1052900051A0FBF777FC0AA800F010FFE0220AA952
:1052A0005348FAF78AFF5348FDF734FB40A0FBF759
:1052B00069FC2846FBF7EAFF4FA0FBF763FC454873
:1052C000FEF73EFA5249012088700C700220C87027
:1052D000032048700C710846FEF7CCF934A0FBF7A8
:1052E00051FC2846FBF7D2FF4AA0FBF74BFC48498C
:1052F0000622491D4E48FDF753FF2DA0FBF742FC47
:105300002846FBF7C3FF4BA0FBF73CFC3849802243
:10531000E0315148FBF7BCFE5048FDF7D7FA24A016
:10532000FBF730FC2846FBF7B1FF4DA0FBF72AFC4A
:10533000534A54495448FFF719FF53487F22D20576
:1053400052491830FFF799FE5148FDF7E3FA18A0CB
:10535000FBF718FC2846FBF799FF2D4F4D4E1837E9
:105360002348FFF77BFE0028FAD00024A5007D200B
:105370007159C000FAF7CCFE0146785900F084FC60
:105380001B48FFF76BFE0028EAD0641C512CEDD3BC
:10539000E6E70000416C61726D2073657474696E9C
:1053A000672E2E2E2020000000008080AC080020F8
:1053B0002020446F6E6521200A0D2000446973701F
:1053C0006C617920696E6974696174696F6E2E2EE3
:1053D0002E2020006008002053797374656D2069C9
:1053E0006E6974696174696F6E2E2E2E2020000024
:1053F00040030020A40900204D50553630353020A0
:10540000696E6974696174696F6E2E2E2E2020009A
:105410000C000020426C7565746F6F746820696EB3
:105420006974696174696F6E2E2E2E202000000051
:10543000480B00204261657474657279206C657652
:10544000656C204144432073657474696E67732EE4
:105450002E2E202000000000DC070020EC09002098
:105460004B616C6D616E2066696C74657220696E4B
:105470006974696174696F6E2E2E2E202000000001
:1054800000006144CDCC4C3FB0070020CDCCCC3DDA
:105490005C09002068010020FFB581B01F46154659
:1054A0000C461846FBF71FF90646281BFBF710F9B8
:1054B000054601980A99001BC91B4843FBF708F9E8
:1054C0002946FAF734FF3146FAF79BFE05B0F0BDE6
:1054D000F0B58BB00C460646052900D905242046B8
:1054E00006225043192103AD0291019001230722A6
:1054F0000095AF211248FCF755FA00221BE0104638
:1055000006214843295C4019437809041B021943CA
:10551000837819438903890BD300F150C178077947
:1055200009043F024079394301438803800B9919EC
:10553000521CD2B24860A242E1D30BB0F0BD0000D1
:105540006008002030B585B0002168460173017401
:10555000012403A80A25009023460422AF210295C6
:1055600001940B48FCF71EFA04A8009001230622C0
:10557000AF21029501940648FCF714FA6846017BB6
:10558000007C081A00D52030C0B205B030BD000044
:105590006008002070B50446002000F039FC254664
:1055A000C0352878A0341030C1B2E07F0E30C0B2D0
:1055B00000F0E4FC1248012306C812A000F067FDC9
:1055C00028782830C1B2E07F0830C0B200F0D6FCA5
:1055D0000F4E012306CE0FA0083E00F058FD28789C
:1055E0003730C1B2E07F3530C0B200F0C7FC06CE24
:1055F00001230DA000F04BFD0C4800F0C5FC70BD70
:10560000BC0200204F70656E576174636800000033
:10561000B4020020532E4D6F746C6171202D205305
:105620004D534D54000000004155540060080020C7
:10563000F8B50446002000F0EBFB2646C036307873
:10564000A0341030C1B2E07F234A3D300CCAC0B252
:1056500000F0BAFB30781630C1B2E07F00F08EFC6B
:105660001E4F012306CF1EA0083F00F010FD0025AD
:105670003078E27F2430C1B228460E301018C0B214
:10568000012200F07FFB6D1C662DF1DB30782A30A3
:10569000C1B2E07F00F072FC06CF012315A0083FE5
:1056A00000F0F5FC30783430C1B2E07F00F066FCE9
:1056B00006CF012314A000F0EAFC3078174A3F30EF
:1056C000C1B2E07F0CCA3D30C0B200F07DFB14488F
:1056D00000F05AFCF8BD00000C030020B4020020CA
:1056E000507265737320555020746F206163636539
:1056F00070740000202020507265737320444F574F
:105700004E20746F2020000072656A65637420204B
:10571000636F6E6E656374696F6E00001403002022
:1057200060080020F0B5044685B0002000F070FB52
:105730002646C036307825461630C1B2A035E87FFF
:10574000374A09300CCAC0B200F03EFB1F20A17AD4
:105750002856642901D31D2100E02021401831780A
:10576000C0B21431C9B200F009FCA27A2DA168467A
:10577000FEF77CFF2C4F012306CF6846083F00F060
:1057800086FC30782030C1B2E87F2030C0B200F013
:10579000F5FB06CF012325A0083F00F078FC307808
:1057A000234A1630C1B2E87F0CCA4330C0B200F0C1
:1057B0000BFB30781430C1B2E87F5530C0B200F036
:1057C000DDFBE068FAF7FCFF02460B4619A16846CC
:1057D000FEF74CFF06CF01236846083F00F057FC58
:1057E00030782030C1B2E87F5830C0B200F0C6FB3C
:1057F00006CF012311A0083F00F049FC3078373074
:10580000C1B2E87F1A30C0B200F0B8FB06CF012366
:105810000CA000F03CFC0E4800F0B6FB05B0F0BD5B
:10582000D402002025640000B40200204852000089
:10583000E4020020252E31662525000053704F32EA
:10584000000000004845414C544820434152450067
:105850006008002070B50446002000F0D9FA254603
:10586000C035287826461630C1B2A036F07F0E30FB
:10587000C0B200F083FB0D48012306C80CA000F065
:1058800006FCF07FA97F40182978C0B22B31C9B23D
:1058900000F074FB0948012306C82046CC3000F014
:1058A000F6FB074800F070FB70BD0000BC02002052
:1058B0004772656574696E6773000000B40200206A
:1058C00060080020F0B5044685B0002000F0A0FA82
:1058D0002546C035287826461030C1B2A036F07F64
:1058E0001830C0B200F04AFB637D227D41A101A8BF
:1058F000FEF7BCFE4248012306C801A800F0C7FB22
:1059000028781D30C1B2F07F6830C0B200F036FB9D
:10591000A27D39A101A8FEF7A9FE3A4F012306CFC7
:1059200001A8083F00F0B3FB28782A30C1B2F07F0D
:105930001E30C0B200F022FBA07C0090637CE27CB1
:1059400031A101A8FEF792FE06CF012301A800F0C5
:105950009EFB6420009020890023304A3049FFF7E5
:105960009BFD074628782F4A3630C1B20CCAF07F1B
:1059700000F02AFA28783730C1B2F07F0F30C0B279
:1059800000F0FCFA28498F4201DB084600E0384667
:10599000FAF7DDFEC2B225A101A8FEF767FE19489D
:1059A000012306C801A800F072FB2878214A303094
:1059B000C1B2F07F0CCA7730C0B200F005FA2046C1
:1059C000FFF743FB0028287806D03130C1B2F07FC2
:1059D000194A6A30C0B205E03130C1B2F07F174ACF
:1059E0006830C0B20CCA00F0EFF9154800F0CCFAEC
:1059F00005B0F0BD253032643A2530326400000035
:105A0000C4020020B40200203230253032642D253B
:105A10003032642D2530326400000000430F000056
:105A2000B80B0000CC0200200000C84225642525E8
:105A300000000000EC020020FC020020F402002024
:105A400060080020F0B5044685B0002000F0E0F9C1
:105A50002646C036307825461630C1B2A035E87FDC
:105A6000454A42300CCAC0B200F0AEF920680A289C
:105A700001D263200FE0642801D25F200BE07D217A
:105A8000C900884201D25C2005E03C49884201D22D
:105A9000582000E055203178EA7F14311018C9B23F
:105AA000C0B200F06BFA36A168462268FEF7DEFD50
:105AB000344F012306CF6846083F00F0E8FA3078FB
:105AC0002030C1B2E87F5530C0B200F057FA06CF9F
:105AD00001232DA0083F00F0DAFA30782C4A163066
