:020000040800F2
:10000000B80E0020C90000081D3200085D29000854
:1000100000000000000000000000000000000000E0
:100020000000000000000000000000008132000815
:1000300000000000000000001F32000883320008AA
:10004000DB0000080000000071320008DB0000083F
:10005000DB000008DB000008410800084B0800082E
:1000600000000000FD070008DB0000080D08000884
:10007000E9070008DB000008DB00000800000000C2
:10008000DB000008213300080000000011330008E5
:10009000DB000008DB000008DB000008DB000008D4
:1000A000DB000008DB000008DB000008DB000008C4
:1000B000DB0000080348854600F084FB0048004749
:1000C000993B0008B80E00200448804704480047C8
:1000D000FEE7FEE7FEE7FEE7FEE7FEE70D3300087A
:1000E000B500000830B50B4601460020202201244F
:1000F00009E00D46D5409D4205D31D469540491B5C
:100100002546954040191546521E002DF1DC30BDA4
:1001100070B500242546002801DA01244042002958
:1001200001DA01254942FFF7DDFFAC4200D0404231
:10013000002C00D0494270BDF0B51FB40646002027
:1001400082B005464024019100901BE001992246AF
:100150000F46304600F020F8049A059B801A99411A
:1001600010D310461946224600F07CFA361A8F4109
:100170000197224601200021009F00F073FA3818F1
:100180004D4100902046641E0028DFDC019B009852
:100190002946324607B0F0BD10B5202A04DB0846D8
:1001A000203AD040002110BD0B46D340D04020243F
:1001B000A21A91400843194610BDD2B201E0027064
:1001C000401C491EFBD270470022F6E710B51346CB
:1001D0000A4604461946FFF7F0FF204610BDF8B561
:1001E00002464A40D40F42004B0052085B089A4234
:1001F00002D20246084611464A0023D0C30D4A00E7
:10020000DDB2120EAD1A202D35DA49020126490A57
:10021000F6058A19002C00D0524220214F1B1146AE
:10022000B9402A411018C20D9A4221D0002C17D093
:10023000012D08DCDA05801AD20F8019D207DBB253
:1002400000F028FAF8BDDA05801A012340001B06E9
:10025000C01880185A428018CA0F1043490007E09E
:100260004908C2071143DA05801A8019400880182E
:1002700000F008FAF8BD61000122511A001BF7E7EF
:100280000122D2075140AAE70122D2075040A6E737
:10029000024670B54A40D30FDB0740002DD04A001C
:1002A0002AD0010E140E000212020919400A520A45
:1002B0008418E50104465443000A120A2E045043F0
:1002C000A4194219200CC543AA18120C0125AD032C
:1002D000521C521912047F39240400D0521C1043BE
:1002E00001D44000491EC2B20C06C0092018401CAF
:1002F0004008802A02D003E0002070BD4008400082
:10030000002900DA0020184370BD70B502464A404B
:10031000D50F40004A00ED0740085208002814D0CD
:10032000002A12D0C40DD30D41020120C005520293
:10033000490A520AE41A091812187D34914201D36D
:10034000641C00E04900002C01DA002070BD00238D
:10035000914201D3891A0343400849000028F7D18C
:1003600000290AD0914202D10121C90705E091423A
:1003700001D2012101E00121C943E005C018401963
:1003800000F080F970BD0000F0B51FB488B00B9983
:100390000998002448400999C00F4900490809916B
:1003A000C0070B990090490049080B9109990898DA
:1003B000A64608431CD00B990A98084318D0099800
:1003C00001244000420D4800410D09982405000316
:1003D000000B204309900B980003000B20430B9067
:1003E00050181C494018002201901446104605E0A0
:1003F000002001460DB0F0BD032801DA034600E0FD
:1004000003239C46C11A0AAE0AE05F0008ADED5B0B
:100410004F00F75B7D430027AA187C41491C5B1EF7
:100420006145F2DD410004AB5A522104120C0A432B
:10043000240C401C0828DFDB0198029000997046CC
:1004400001910090059B049A0799069800F068F9BD
:10045000D0E700000DFCFFFFF0B50C465C4085B016
:10046000E40FE40703944C00002664085900944606
:10047000490802460296224321D062460A431ED012
:100480006200570D4A000E032303550D0124024656
:100490002C492405781B1B0B360B4018234326439D
:1004A000614600901C46501AB44103D30098401C8A
:1004B000009002E0921800985B41002803DA0020C7
:1004C000014605B0F0BD002001210905074686461A
:1004D00011E064461D46141BB54106D36546521B08
:1004E000B341744607430C43A646CD07400849086C
:1004F000284392185B4105460D43EAD11046184344
:1005000013D06046194650407140084306D06046FB
:10051000101AB34106D20122002306E00022012373
:10052000DB0702E00122D243531000987446010514
:10053000381C6141029C039D0019694100F0E3F8F9
:10054000BFE70000FD030000C217C10F504010B507
:100550004018CA079623002100F09CF810BD10B582
:1005600000229623114600F095F810BD0EB5C21773
:10057000C10F5040CA0740180021054B0293019259
:1005800000910A460B4600F0CBF803B000BD000016
:10059000330400000EB505490291002100910A467E
:1005A0000B46019100F0BCF803B000BD330400001D
:1005B000C20F410040020123400ADB05D207090EA9
:1005C000C0187F2901DA00207047962903DC9623A2
:1005D000591AC84001E096398840002AF4D04042B8
:1005E0007047000070B5CD0F4A0009030123090BC5
:1005F0001B0519430B4BED070024520D9A4201DAFB
:10060000002070BD074B34339A4203DC9A1AFFF77F
:10061000C3FD02E00449511888402C43F1D0404208
:1006200070BD0000FF030000CDFBFFFFCB0FDB0719
:10063000490010B5490802460A4307D00A0D0724AD
:100640000903E401090B121B002A01DC002010BD84
:10065000C900440F0C43C100E018D205801800F017
:1006600011F810BD10B5202A04DB0146203A914054
:10067000002010BD914020239C1A0346E3401943FB
:10068000904010BD002904DA401C490001D1400807
:100690004000704770B40024050C05D110240004FC
:1006A00002D1002921D01124050E01D10002083405
:1006B000050F01D10001241D850F01D18000A41C6C
:1006C000002801DB4000641C002908D020252E1BD7
:1006D0000D46F540A14000D0012129430843010601
:1006E0001B1B000ADB1D02D5002070BC7047DB0518
:1006F000181880180029F8DA401C4900F5D170BCA0
:1007000040084000704710B5002B08DA0024401C58
:10071000614192185B411A4301D14008400010BD6D
:10072000F0B51FB482B005460C0003D0084603F0B4
:100730001FF902E003F01CF9203002460090214628
:100740002846FFF78FFF049B059A04460F4618437F
:100750001143084314D0184610431BD00098402181
:100760000A1A18460599FFF717FD05460E46009A26
:1007700005990498FFF776FF084305D0012004E0AF
:100780002046394607B0F0BD0020C11705430E438F
:100790002C43374300990E986305401A7905E40A03
:1007A00000220C43FD0A0A3002D500200146E9E789
:1007B0000105101969410C9C0D9D00196941FFF755
:1007C000A2FFDFE7064C0125064E05E0E36807CCF3
:1007D0002B430C3C98471034B442F7D3FFF76EFC20
:1007E0005C3D00087C3D000810B5024800F0EDF8C3
:1007F00010BD0000140400207047000010B502482E
:1008000000F058FA10BD00005404002010B5024852
:1008100000F050FA10BD00007407002010B5044627
:100820000068054940181421FFF75CFC8000206433
:100830000248E06310BD0000F8FFFDBF0000024069
:1008400010B5082000F012FB10BD10B5102000F00C
:100850000DFB202000F00AFB402000F007FBFF20EA
:10086000013000F003FB0120400200F0FFFA0120FC
:10087000C00300F0FBFA10BD70470000F8B500257A
:10088000044620340095227D012A39D001222275A8
:1008900003689E68760767D4384F4E68BE424DD0D5
:1008A0009E6A0F78BA4016439E620123C26A1B07F4
:1008B0009A421FD0012A1DD0022A1BD0032A19D028
:1008C000042A17D0052A15D0062A13D0072A11D0DA
:1008D00002688B6856697607760FB3420AD053696F
:1008E000DB08DB005361006842690B7A5B075B0F32
:1008F0001A4342610A68102A04D0112A02D038E053
:100900000220F8BD1E488368102A07D001229205F4
:10091000134383600868102803D02AE00122D2051F
:10092000F6E7194817490068FFF7DCFB0A2148433E
:1009300000E0401E00900028FBD11AE0986A0E7873
:10094000B240904398620968102901D0112910D152
:100950000B488268102904D0012189058A438260EE
:1009600007E00121C905F9E7816B2022114381636A
:100970000125002020752846F8BD00000110000068
:100980000027014040420F002800002010B5002041
:100990000A4C0B4A014620618B00D358491C181899
:1009A0006429F9D32061FFF7F5FD0022054BFFF71D
:1009B00053FDFFF73BFEE06010BD0000000000208B
:1009C000C800002000005940704770B50446006818
:1009D0000168490702D54168490705D4016809073C
:1009E00030D5416809072DD5A16BC90604D4A16B88
:1009F000012252021143A163C1680C250905890F28
:100A000000291AD1A17E002917D10168090714D540
:100A100081684A070121002A08DB4268AA43426034
:100A2000A06B0A0290430843A06306E0A06B20225B
:100A30001043A063E06B0843E0632046FFF7A6FF86
:100A4000206805602068016809060DD54068000629
:100A50000AD5A06B012109040843A063204600F0D9
:100A6000D9F821688020086020680168C90613D57C
:100A70004168C90610D5A16A1025012902D0C168B4
:100A8000C90707D0E16B02221143E16305602046EC
:100A9000FFF79AFF2068056070BD0000F8B50026DA
:100AA0000446002805D0A06B25462035002802D03A
:100AB00007E00120F8BD0020E0632875204600F023
:100AC000ABF8A06B1022C006002870DB206881689C
:100AD00049076CD4A16B1301994302231943A16305
:100AE00081688907890F012905D10168C9070FD1DC
:100AF000C16809040CD4C16818239943A368194339
:100B0000C16020680169636889008908194301612F
:100B10002068C1683D4B1940C160207E617E800322
:100B2000C9030843A17E4B031843A36A012B02D0DB
:100B300001231B0300E000231843E36818432369E3
:100B4000022B09D0002318432B79E57E5B00184364
:100B50000123012D02D00AE00423F4E7002927D065
:100B6000A16B20252943A163E16B1943E163E1698E
:100B70000D46FF3DC23D02D0256A29430843216846
:100B8000CD680543CD600125E16A2D07A94213D048
:100B9000012911D002290FD003290DD004290BD02F
:100BA000052909D0062907D0072905D010E028E03B
:100BB000012109040843DAE721684D69ED08ED00D9
:100BC0004D6121684D69A78D7F077F0F3D434D61C2
:100BD0002168C9680E4D2940814207D10020E06399
:100BE000A06B80088000401CA06308E0A06B02217D
:100BF00088431043A063E06B1843E063012630464E
:100C0000F8BDA06B1043A063F8E700001902FEFFD7
:100C1000E7FF3F8370470000F0B587B00546142119
:100C20006846FFF7D1FA1F492868884237D11E4924
:100C300088694E15304388618869304005904A695B
:100C4000300202434A6149690027014005910220B0
:100C5000009003200190092069460297C00600F029
:100C600011F91248124C81C427608020A660606090
:100C70000001E0602020676120610D48083C00F021
:100C800067F8002801D0FFF7F7FD2C63002211461A
:100C90000C20656200F0BEFC0C2000F0AFFC07B039
:100CA000F0BD000000240140001002400800024096
:100CB00054040020F0B4C16B0D6801680C68042274
:100CC000066C1346B3402B420DD063070BD50B685F
:100CD0009B0602D40B6893430B60016C8A40C16B86
:100CE0004A60C16A19E00227B74002462F4001233B
:100CF0002032002F15D0A70713D50C68A40604D402
:100D00000C680A25AC430C605370036C02219940B7
:100D1000C36B596000211170816A002916D0F0BCA4
:100D200008470827B7402F4210D024070ED50C687B
:100D30000E25AC430C60046C1946A140C46B616085
:100D40008363537000211170016BE6E7F0BC7047BC
:100D500070B5040021D002212046203005464170A4
:100D6000226811680E48A36801406068266918432C
:100D7000E3683343184363691843A3691843E3697D
:100D80001843084310602046FFF748FD0021A16387
:100D9000012068702970084670BD012070BD0000F8
:100DA0000FC0FFFF70B5044600F044F90546601C13
:100DB00002D004480078241800F03CF9401BA042FF
:100DC000FAD370BD3000002010B5C11F214CFF398F
:100DD000FA390FD021468A88202818D0097810289F
:100DE0001ED0082821D00122D203904201D1891EB1
:100DF000217010BD02F036FFA0700146164802F0C7
:100E0000F7FE1548416815A0FFF7F6FC10BD6432E7
:100E100091B2A18012A0FFF7EFFC6078801E11E074
:100E20000020114A891C1060E2E7643A91B2A18067
:100E30000BA0FFF7E1FC0C4802F000FE002803D0F5
:100E40006078801C607010BD0121074802F03AFFF5
:100E500010BD0000000000205802002025640A0098
:100E600025640A0D000000003C00002010B5044974
:100E70004A69024202D04861FFF7A6FF10BD000098
:100E800000040140F8B5002303240125BAE02E46F2
:100E90009E40B44632407CD00E79B607B60F012E84
:100EA00001D0022E17D186682746B6465E00B740AD
:100EB00000967646BE43B646CF68009EB74076465B
:100EC0003743876046686746BE430F79FF06FF0FCA
:100ED0009F40374347600E79F643B6070ED0C66889
:100EE0002746B4465E00B646B7406646BE43B446A3
:100EF0008F687646B74066463743C7600E79B607B7
:100F0000B60F022E14D1DE08B60036180096366AE7
:100F10005F07B446FE0E0F27B646B7406646BE438F
:100F2000B4460F697646B74066463743009E37623F
:100F300006682746B4465E00B646B7406646BE43DE
:100F40000F79B446BF07BF0F7646B74066463743B2
:100F500007604E68B603B60F53D02D4FBE692E43BF
:100F6000BE61BE699F08F607F60F2A4EBF00BE1984
:100F70000096B6680F27B4469E07360FB646B740B0
:100F80006646BE430927FF06B446B84202D1002791
:100F900010E036E0204FB84201D101270AE01F4F90
:100FA000B84201D1022705E01D4FB84201D1032705
:100FB00000E005277646B74066463743009EB76097
:100FC000184E36684F689643FF0300D51643154FF9
:100FD0003E607E684F689643BF0300D51643114FAD
:100FE0007E60BE684F689643FF0200D516430D4FE2
:100FF000BE60FE684F689643BF0200D51643094A9B
:10100000D6605B1C0A681646DE4000D03FE7F8BD9C
:1010100000100240000001400004004800080048A1
:10102000000C004800040140002A01D08161704793
:1010300081627047014880687047000030000020DE
:1010400070B5024640325378202B1CD11378012B07
:1010500019D00123137024245470046825689D431B
:101060002560046825681E03B5432560046825686B
:101070000D4325600068016819430160202050700D
:101080000020107070BD022070BD70B50246403265
:101090005378202B1BD11378012B18D00124147006
:1010A0002423537003681D68A5431D6005682B68E1
:1010B0000F263602B343090219432960006801680C
:1010C00021430160202050700020107070BD02206C
:1010D00070BD000070B5040006D025464035687824
:1010E0000026002802D005E0012070BD2E702046A9
:1010F00000F004FA2420687020680168490849005B
:1011000001600F2160680906884321680861216831
:101110008A680120C00382438A60E1680129A168CE
:1011200008D021229202114322689160E1680229CD
:1011300002D005E00143F7E701212268C9025160AE
:1011400021684A680F4B1A434A602168CA68824383
:10115000CA60616920690843A169090208432168DE
:10116000C860216AE0690843216808602068016856
:101170000122114301606664202068702663AE700E
:10118000002070BD00800002FFB5054604464035D2
:10119000687881B0202878D12878012875D001207E
:1011A0002870FFF747FF0746012200901923D1035B
:1011B000204601F087FC00283CD1222068701020D6
:1011C000A870002666640398606204986085666370
:1011D000618D2F48FF2903D9FF22228500903BE033
:1011E000618D218500903DE02046029901F056FC7A
:1011F00016E001F08FFC00281CD12068406A616A6B
:101200000870606A401C6062208D401E81B221859A
:10121000608D401E6085608D002801D000290CD0B3
:10122000608D0A9900283A462046E2D101F0B2FCCE
:1012300000281CD0012005B0F0BD009700228021BD
:1012400020460A9B01F03EFC0028F3D1608DFF2868
:1012500005D9FF222285009601231B06C4E7608D75
:1012600020850096208D0123C2B25B06BCE7216871
:101270002020C86121684A68064B1A404A6068709D
:10128000AE702E700020D6E7FFE70220D3E7000003
:101290000024008000E800FEFFB505460446403506
:1012A000687881B0202878D12878012875D001206D
:1012B0002870FFF7BFFE0746012200901923D103D3
:1012C000204601F0FFFB00283CD12120687010204F
:1012D000A87000266664039860620498608566635F
:1012E000618D2F48FF2903D9FF22228500903BE022
:1012F000618D218500903DE02046029901F0CEFBF2
:1013000016E001F06DFC00281CD1606A21680078AD
:101310008862606A401C6062608D401E6085208D1E
:10132000401E80B22085618D002901D000280CD09C
:10133000608D0A9900283A462046E2D101F02AFC45
:1013400000281CD0012005B0F0BD009700228021AC
:1013500020460A9B01F0B6FB0028F3D1608DFF28E0
:1013600005D9FF222285009601231B06C4E7608D64
:1013700020850096208D0123C2B25B06BCE7216860
:101380002020C86121684A68064B1A404A6068708C
:10139000AE702E700020D6E7FFE70220D3E70000F2
:1013A0000020008000E800FEFFB5054604464035F9
:1013B000687883B0202875D10C98002814D00D9837
:1013C000002811D0287801286CD001202870FFF760
:1013D00031FE0746012200901923D103204601F077
:1013E00071FB002874D103E00120400260646FE0CB
:1013F000222068704020A870002666640C98606205
:101400000D98608566630E980090019704A90EC937
:10141000204601F013FB002801D02E7058E0618DAA
:101420003448FF2905D9FF22228501231B0600909D
:1014300006E0618D21850090208D0123C2B25B06FC
:101440002046049901F02AFB00970022042120463F
:101450000E9B01F037FB00283AD12068406A616A90
:101460000870606A401C6062208D401E81B2218538
:10147000608D401E6085608D00281FD000291DD121
:1014800000970022802120460E9B01F01BFB0028C4
:101490001ED1608DFF2806D9FF22228501231B065D
:1014A000009607E024E0608D20850096208D0123C2
:1014B000C2B25B062046049901F0F0FA608D002864
:1014C000C2D13A4620460E9901F064FB002802D0B2
:1014D000012007B0F0BD20682021C161206842686A
:1014E000054B1A4042606970AE702E700020F0E724
:1014F0000220EEE70024008000E800FE10B586B070
:10150000044614216846FEF75FFE124920688842AF
:101510001DD1114C61690120800401436161616941
:1015200001400591C020009012200121019003206C
:1015300002910491039069460848FFF7A3FCE16912
:10154000012040050143E161E1690140059106B0D8
:1015500010BD00000054004000100240000400488C
:101560000248816802788918816070473000002045
:1015700010B506480168102211430160002000F0F8
:1015800007F800F027F8002010BD000000200240FE
:1015900070B504460D4D7D202978C000FEF7A2FDF0
:1015A00001460B480068FEF79DFD00F059FD00283C
:1015B00009D1042C07D200222146401E00F02AF84F
:1015C00000206C6070BD012070BD00003000002064
:1015D0002800002008B50848816901221143816173
:1015E000816911400091C26901040A43C261C06966
:1015F0000840009008BD000000100240002805DBF4
:10160000C106C90E012088400149086070470000EA
:1016100000E100E010B502F0DBF910BD02480168FE
:10162000821511430160704700700040F8B505460F
:101630000068354CC00352D5E0690026C00007D4CD
:10164000E16920040143E161E16901400126009163
:101650002E480168C90510D4016882151143016044
:10166000FFF7E8FC074604E0FFF7E4FCC01B642832
:1016700024D826480068C005F6D5206A03273F0213
:10168000384020D06968394081421CD0206A226AE3
:10169000B843012109040A432262226A8A43226272
:1016A0002062C0070FD0FFF7C5FC009008E0FFF7ED
:1016B000C1FC0099411A1648814201D90320F8BDA6
:1016C000206A8007F3D5206A6968B843084320621E
:1016D000002E04D0E169012000078143E1612878F0
:1016E000C00705D0206BA9688008800008432063EC
:1016F0002878800605D5206B10218843E9680843C7
:1017000020630020F8BD000000100240007000407F
:1017100088130000F8B50F46060059D03A4D2868E6
:10172000C007C00FB84209D22868400840003843BB
:1017300028602868C007C00FB84249D13068334CD0
:1017400081070CD5400704D56068072109020843CA
:1017500060606068F0218843B16808436060307859
:10176000C00726D0706801280ED0216802280ED04C
:10177000890700292CDA61688908890001436160C2
:10178000FFF758FC00900DE021688903F1E789011B
:10179000EFE7FFF74FFC0099411A1D48814201D93C
:1017A0000320F8BD60680C210840716889008842F8
:1017B000EFD12868C007C00FB8420BD9286840088D
:1017C0004000384328602868C007C00FB84201D0E5
:1017D0000120F8BD3078400706D56068072109026E
:1017E0008843F1680843606000F028F86168094A9E
:1017F0000906090F515CC840074908600020FFF73F
:10180000C7FE0020F8BD000000200240001002408A
:1018100088130000443D00082800002004480549C2
:1018200000684968044A4905490F515CC84070473F
:101830002800002000100240543D000810B514A3F9
:101840000FCB88B06C460FC415A30FCB0FC4184A3A
:1018500051680C200B4603401648042B16D0082B69
:1018600014D18B021B0F6C46E45CD26A04AB1207E6
:10187000120F9A5CC90305D500231946FEF75CFCDC
:10188000214601E020460C4902F089F808B010BD5D
:1018900002030405060708090A0B0C0D0E0F1010B1
:1018A0000102030405060708090A0B0C0D0E0F10B0
:1018B0000010024000127A0000093D00FEB504004D
:1018C00070D02078DC4DC0074AD068680007800FD0
:1018D000012807D068680007800F022809D16868CE
:1018E000C00306D5286880033AD560680028E7D091
:1018F00036E06168012914D001208004002901D05C
:10190000052914D02A68012109048A432A6029681C
:10191000814329606068002816D0FFF78BFB0646DC
:101920000EE028680121090408432860F2E72968CD
:1019300001432960F5E7FFF77DFB801B64286ED823
:1019400028688003F7D50BE0FFF774FB064604E038
:10195000FFF770FB801B6428F1D828688003F7D458
:1019600020780126800700283CDA68680007800F8D
:1019700007D068680007800F022809D16868C00393
:1019800006D42868800716D5E06801280AD112E03D
:10199000E0680028286816D030432860FFF74AFB2B
:1019A000074605E043E1FFF745FBC01B0228C6D808
:1019B00028688007F7D52868F82188432169C9007D
:1019C000084328600EE0400840002860FFF732FB23
:1019D000074604E0FFF72EFBC01B0228AFD828689B
:1019E0008007F7D42078000722D5E0690028686ACC
:1019F0000ED030436862FFF71DFB074604E0FFF797
:101A000019FBC01B02289AD8686A8007F7D50FE037
:101A1000400840006862FFF70DFB074605E09DE0C7
:101A2000FFF708FBC01B022889D8686A8007F7D433
:101A3000207804274007002860DA00200190E86938
:101A4000C00008D4E969B8060143E961E9690140C9
:101A500001200091019079480168C90511D40168FD
:101A6000821511430160FFF7E5FA009005E0FFF7EA
:101A7000E1FA0099401A642870D870480068C005DF
:101A8000F5D5A06801280AD0002801D0052810D07B
:101A9000286A400840002862286AB84301E0286AA2
:101AA00030432862A068002812D0FFF7C3FA0090E4
:101AB0000AE0286A38432862F1E7FFF7BBFA009989
:101AC000411A5F48814249D8286A8007F5D50DE060
:101AD000FFF7B0FA009006E0FFF7ACFA0099411A60
:101AE000574881423AD8286A8007F5D401980028DF
:101AF00004D0E969012000078143E9612078C0062C
:101B000035D5606901280CD0401D686B23D038435F
:101B10006863686B400840006863FFF78BFA06460D
:101B200022E0686B38436863686B30436863FFF793
:101B300081FA064604E0FFF77DFA801B02285BD895
:101B4000686B8007F7D5686BF8218843A169C900E5
:101B5000084368630BE0B8436863F4E74CE0FFF7C1
:101B600069FA801B022847D8686B8007F7D4206A7F
:101B700000285ED069680907890F022942D0012632
:101B800036060228286805D0B0432860FFF752FACD
:101B9000044633E0B0432860FFF74CFA074604E000
:101BA000FFF748FAC01B022826D828688001F7D41E
:101BB000E86AE16A000900010843E862616AA06A14
:101BC000084369683D22120491430843686028680D
:101BD00030432860FFF72EFA044604E0FFF72AFAA4
:101BE000001B022808D828688001F7D521E0FFF7FC
:101BF00021FA001B022801D90320FEBD28688001BC
:101C0000F5D416E00128F8D06868E96A01221204C8
:101C1000636A02409A420AD10907E26A090F9142B7
:101C200005D10F2189040840A16A884201D0012012
:101C3000FEBD0020FEBD000000100240007000400C
:101C40008813000002488168491C816070470000C9
:101C50000000002010B5044600688168C9040CD556
:101C6000C068C00509D52046FFF7ECFF2168C868A9
:101C700080221040FF388238C860012002494004A9
:101C800048610120607710BD0004014070B5040078
:101C900003D0607F002802D006E0012070BD002044
:101CA0002077204600F04CF8022060772168CA2097
:101CB0004862216853204862204601F0BCFAFF25A3
:101CC0000426002824D1206881681C4A11408160C4
:101CD0002168886862686369104322691A43104367
:101CE00088602168E068086120680169228912041F
:101CF000114301612068C16880229143C16020685E
:101D00008068800608D4204600F090F9002803D0AF
:101D1000206845626677C0E72068016C0122920462
:101D2000914301642068016CA26911430164206839
:101D3000456201206077002070BD0000BFFF8FFF6B
:101D400010B50068084988420DD10848016A01228F
:101D5000D20311430162002211460220FFF75AFC10
:101D60000220FFF74BFC10BD00280040001002408D
:101D7000F8B50446007F0B46012839D001202077B2
:101D80000220607720681F46203700268068002ADE
:101D900030D0400600D4DE7019789D7809040D43D8
:101DA0005978DA780902120411430D433978D86959
:101DB00009060D4305435869996905435868084366
:101DC00000902168CA204862216853204862206838
:101DD0008168FF220132914381602068C1688022BE
:101DE0001140FF398239C160FFF724F9074629E025
:101DF0000220F8BD400600D4DE70187801F010FA19
:101E00000504587801F00CFA00020543987801F0B7
:101E100007FA0543D87800040543387801F000FA42
:101E200000060543D869C5E7FFF704F9C11B7D200B
:101E3000C000814206D92168FF20486203206077F4
:101E40002677F8BD2068C068C007EDD02068C5615E
:101E500021680098486420688168FF22013211439C
:101E6000816020688168120111438160084802681E
:101E7000012149040A43026082680A4382602168A2
:101E8000FF2048620120607726770020F8BD00001F
:101E900000040140F8B50446007F0B4601280FD02E
:101EA0000120207702206077002A0BD0D8789D7817
:101EB000000405435878097800024903084317E0F5
:101EC0000220F8BD5878C10603D5EF2108400A303A
:101ED0005870D87801F0A4F90504587801F0A0F9F9
:101EE00000020543987801F09BF9054318784003F8
:101EF00005432168CA204862216853204862204671
:101F000001F099F90026FF27002811D10F4805405C
:101F1000206845602068C16880229143C1602068C4
:101F2000806880060BD4204600F080F8002806D098
:101F3000206847620420607726770120F8BD20687A
:101F400047620120607726770020F8BD3FFFFF0041
:101F5000F8B50446007F0D46012821D001202077E6
:101F600002206077206800278068002A1AD0400687
:101F700000D4EF702878AE78000406436878E978DA
:101F800000020904084306432168CA204862216808
:101F900053204862204601F04EF9002834D114E065
:101FA0000220F8BD400600D4EF70287801F038F91F
:101FB0000604687801F034F900020643A87801F0BD
:101FC0002FF90643E8780004DDE71748064020684B
:101FD000066020688168012292049143816029692A
:101FE000E868084321688A68104388602068C168EF
:101FF00080229143C1602068806880060CD420460E
:1020000000F014F8002807D02168FF20486204205F
:10201000607727770120F8BD2168FF204862012002
:10202000607727770020F8BD7F7F7F0070B504467A
:102030000068C168A0229143C160FEF7FBFF7D26C6
:102040000546F60006E0FEF7F5FF401BB04201D959
:10205000032070BD2068C0688006F4D5002070BDE4
:10206000094910B5401E884201D9012010BD074C16
:1020700060610321081F01F0ABFC0020A061072074
:102080002061002010BD0000FFFFFF0000E000E025
:102090007047704730B5034620331A7F012A26D097
:1020A00001221A770325CA682D02AA438D680024ED
:1020B0002A430125AD02AA434D6800682A43012541
:1020C000ED02AA430D682A4301252D03AA430D6999
:1020D0002A4301256D03AA434D69C9692A43012595
:1020E000AD03AA430A4342641C77002030BD02209E
:1020F00030BD0000F0B502462032137F012B1ED008
:10210000012515770223537706687468B368702732
:10211000BC430F682743776000680A4CA04205D093
:10212000094CA04202D0094CA04204D18024496845
:10213000A34319438160557700201077F0BD02203A
:10214000F0BD0000002C01400004004000400140B0
:1021500070B5040005D025462035687F002802D0E0
:1021600006E0012070BD00202877204600F014F81A
:1021700002206877211D206801F0DAF80120403440
:10218000A071A877E87720706070A070E07020716F
:1021900060716877002070BD08B5204A016820484A
:1021A000914202D18269C11434E01E4A914207D1A2
:1021B000C26902210A43C261C0690840009008BD9B
:1021C000194A91420DD1C26910210A43C261C06906
:1021D00000220840009011461120FFF71BFA112041
:1021E0000FE0124A91420FD1C26989150A43C261B8
:1021F000C06900220840009011461320FFF70AFA38
:102200001320FFF7FBF908BD094A9142FBD182690F
:10221000012109040A4382618069CEE7002C014054
:102220000010024000040040001000400020004068
:1022300000400140F8B5054604462035287F0026B9
:10224000012817D00120287702206877226890683B
:102250007727FF23B8431B029843906008685028F3
:1022600038D00EDC20284FD006DC00284CD01028B7
:102270001ED149E00220F8BD302845D0402817D1B2
:102280003AE060282ED0702819D001221203801A5B
:102290000FD090420CD1CB684A688968206801F061
:1022A00098F820688168012292031143816000E060
:1022B000012601206877002028773046F8BDCB68DA
:1022C0004A688968206801F084F821688868384382
:1022D0008860EEE7CA684968206801F089F95021F2
:1022E000206806E0CA684968206801F092F9602118
:1022F000206801F079F8DCE7CA684968206801F0D5
:1023000077F940212068F4E7226801461046F0E79B
:10231000704770B50446006801690025C943890704
:10232000002915DBC168C943890711D4E91E016181
:1023300001202077206880698007204602D0FFF7BF
:10234000E7FF04E000F0D2F8204600F05DF92577C1
:1023500020680169C943490717D4C168C9434907BF
:1023600013D40421C94301610220207720688069C9
:102370008005800F204602D0FFF7CAFF04E000F07E
:10238000B5F8204600F040F9257720680169C94377
:10239000090716D4C168C943090712D40821C943E3
:1023A0000161042020772068C0698007204602D0A0
:1023B000FFF7AEFF04E000F099F8204600F024F9A2
:1023C000257720680169C943C90617D4C168C94384
:1023D000C90613D41021C943016108202077206861
:1023E000C0698005800F204602D0FFF791FF04E00E
:1023F00000F07CF8204600F007F925772068016995
:10240000C943C90708D1C168C943C90704D1891E96
:102410000161204600F098F920680169C943090666
:1024200009D4C168C943090605D48021C9430161A3
:102430002046FFF72DFE20680169C943490609D4EB
:10244000C168C943490605D44021C94301612046FA
:1024500000F0E8F920680169C943890609D4C16818
:10246000C943890605D42021C94301612046FFF7ED
:1024700010FE70BD10B586B0044614216846FDF705
:10248000A3FE2368154C002215480221A3420FD158
:1024900044690B041C43446140691840059088025C
:1024A0006B4607C30491092003926946C00610E0F9
:1024B0000C4CA3420FD144691B131C434461406977
:1024C0001840059001206B4607C3049069460392AB
:1024D0000548FEF7D7FC06B010BD0000002C0140F7
:1024E0000010024000040040000400487047F8B5A6
:1024F000064604462036307F00270D4601280ED0C0
:1025000001203077002A0CD0042A1BD0082A2FD0B3
:102510000C2A3ED00127002030773846F8BD022033
:10252000F8BD206800F068FF206881690822114327
:1025300081612068826904218A43826120688169FF
:102540002A6912E0206800F09BFF2068826901215F
:10255000C9020A4382612068816901229202914383
:102560008161206881692A69120211438161D2E781
:10257000206800F0C5FF2068C16908221143C161CD
:102580002068C26904218A43C2612068C1692A693E
:1025900012E0206800F0F6FF2068C1690122D20233
:1025A0001143C1612068C269012189028A43C26165
:1025B0002068C1692A6912021143C161ABE770B595
:1025C000040005D025462035687F002802D006E0AB
:1025D000012070BD00202877204600F014F802206A
:1025E0006877211D206800F0A3FE01204034A0710F
:1025F000A877E87720706070A070E070207160713B
:102600006877002070BD70477047000030B5044601
:102610000222203000290AD004290DD02046403063
:1026200008290ED04378012B10D0012030BD837FC4
:10263000012BFAD182770AE0C37F012BF5D1C27753
:1026400005E00378012BF0D1027000E04270012216
:10265000206800F0B1FE12492068124B884207D072
:10266000984205D0104A904202D0104A904204D1BC
:10267000426C0125ED032A4342642068012288420E
:1026800004D00B49884201D0984204D1816849079F
:10269000490F062902D0016811430160002030BDB6
:1026A000002C01400040014000440140004801402E
:1026B0000004004070B504460D460068002200F09A
:1026C0007BFE1D491B4B20688A10984208D01B4B8B
:1026D000984205D01A4B984202D01A4B98420AD120
:1026E000036A0B4207D1036A134204D1436C0126EB
:1026F000F603B34343642068036A0B4206D1016AC0
:10270000114203D101684908490001602046203088
:102710000121002D07D0042D07D04034082D06D00C
:102720006170002070BD8177FBE7C177F9E7217008
:10273000F7E70000002C01401111000000400140AB
:10274000004401400048014070B52F49884249D1FA
:102750002E49881F00F06CFA2C482D4C801F0088F1
:102760006080204601F0E6F9284825464088183563
:10277000A880284601F06CF9244900202039205E09
:102780008988884204DB234801F053F900282AD0C5
:102790000020205E642808DA1E4801F04AF900286B
:1027A00003D000211B4801F085FA0020285E1A4959
:1027B000884204DB174801F046F900281FD00020AA
:1027C000205E7D21C90088420CDA124801F03BF9F5
:1027D000002807D000210F4801F07CFA01210D48A4
:1027E00001F070FA70BD01210A4801F063FA09484E
:1027F0000168491C016009A0FDF7FEFFD5E7012132
:10280000044801F067FA70BD940500202000002004
:10281000E80300203C000020B80B000025640A0DEE
:1028200000000000704710B5040003D0A06F00281E
:1028300002D007E0012010BD002174200155204680
:1028400000F026F82420A0672068016849084900A4
:102850000160204600F088FF0128ECD0606A002863
:1028600002D0204600F0E8FE206841680122D20232
:10287000914341602068816808229143816020680B
:102880000168012211430160204600F03BFF10BDAA
:10289000F0B587B0064614216846FDF795FC2A4F2F
:1028A0000121346800252948490402230322BC423F
:1028B00019D18669CC102643866186692640059623
:1028C00044690C43446140696C46084005905002DD
:1028D000039229C40120049009206946C006FEF72E
:1028E000D1FA07B0F0BD1A4FBC42FAD1C4690C430B
:1028F000C461C4690C40059444690C434461406957
:102900006C46084005900C20039229C401200490D5
:1029100009206946C006FEF7B5FA0E480E4C21C4E0
:102920002560A5608020E5606060202065612061F1
:102930000948083CFEF70CFA002801D0FDF79CFF7F
:1029400034676662CDE700000038014000100240A5
:10295000004400405800024074070020FEE7016870
:102960008A69D243920701D400228A620068816991
:10297000C943C90703D081690122114381617047AE
:10298000F7B5044600680F468169C943C90636D4C5
:102990004168890104D441680122920311434160D6
:1029A00000262546403520688069C043800612D540
:1029B000781CF8D0FEF73EFB0299401AB84201D8C5
:1029C000002FF0D1616C2020014361646870AE700B
:1029D0002E700120FEBD21681020C86120682027CC
:1029E000C7612046FFF7BBFF20684168054A1140D8
:1029F0004160606C0421084360646F70E7E7002069
:102A0000FEBD000000E800FEFEB50F4669460871F5
:102A10000A20094D1646D0240090012301AA214620
:102A20002868FEF739FC6420009033463A46214678
:102A30002868FEF7A9FBFEBD2C000020F8B504466F
:102A4000164615481D46DAB20090079F002320461F
:102A500000F024F83A462046069900F0C1F8002814
:102A600018D12846F5B2012809D02168300A8862B9
:102A70003A462046069900F0B3F800280AD12068AB
:102A800085620097002240212046069B00F01AF83C
:102A9000002800D00120F8BD00200080F0B50668B5
:102AA000059C7568064F600D384385438805800D89
:102AB000110408431843204305437560F0BD00002E
:102AC000FF63FF03F8B51D4617460E46044609E0AE
:102AD000681C07D0FEF7AEFA0699401AA8420BD838
:102AE000002D09D020688169304688430FD000202E
:102AF000B842EDD00020F8BD616C20200143616434
:102B0000403460700020A07020700120F8BD0120CA
:102B1000EEE70000F7B500272026054604464035BD
:102B200028E02046029A0199FFF72AFF002801D0E9
:102B30000120FEBD20688069C043800611D4206852
:102B40008169C943490702D4218D002917D1C66183
:102B5000206841680E4A1140416067646E70AF7032
:102B600013E0FEF767FA0299411A0198814208D8EA
:102B7000002806D020688069C0434007D1D40020D7
:102B8000FEBD606C304360646E702F70D0E7000053
:102B900000E800FE70B516460D4604460FE03246CA
:102BA00029462046FFF7ECFE002801D0012070BD29
:102BB000FEF740FA801BA84208D8002D06D02068F6
:102BC0008069C0438006EAD4002070BD616C20207B
:102BD00001436164403460700020A0702070E5E71C
:102BE00070B516460D46044611E032462946204689
:102BF000FFF7C6FE002801D0012070BD681C06D07A
:102C0000FEF718FA801BA84208D8002D06D02068CD
:102C10008069C0438007E8D4002070BD616C20202B
:102C200001436164403460700020A0702070E3E7CD
:102C300030B585B00C46054600A901223A20013185
:102C4000FFF7E2FE68464078002829D0062201A955
:102C50003B20FFF7D9FE6A461079517900024018EF
:102C600028809079D179000240186880107A517AD2
:102C700000024018A880062203A94320FFF7C4FEE3
:102C80006A46107B517B000240182080907BD17BEC
:102C9000000240186080107C517C00024018A08027
:102CA00005B030BD3EB50021184800910191164A8B
:102CB0000291026081600124520504614260C1609A
:102CC00004224261017641768176C1769101C1612B
:102CD00089000162014620310C718462FDF7DEFE3D
:102CE000002801D0FDF7C8FD012000030190000479
:102CF0000290009469460548FDF7C0FD002801D008
:102D0000FDF7BAFD3EBD0000002401401404002080
:102D100008B50C48416901221143416140691040E6
:102D20000022009011460920FEF774FC0920FEF7EE
:102D300065FC002211460B20FEF76CFC0B20FEF711
:102D40005DFC08BD0010024030B587B01421684614
:102D5000FDF73AFA344842690121C9040A43426145
:102D600042690A400592426989100A4342614269F8
:102D70000A400592426949000A43426142690A4099
:102D80000592426909010A4342614069274D0840A2
:102D90004C120590002221462846FEF745F9009482
:102DA0000120002401900294694628460394FEF70E
:102DB00069F8402011252D04009069460195029480
:102DC0001B48FEF75FF80120C00300900920694608
:102DD00001950294C006FEF755F8FF2001953930A1
:102DE000144D0090694602942846FEF74BF80120E6
:102DF0004002009021200004019069460294284678
:102E0000FEF740F8002211460620FEF703FC0620DC
:102E1000FEF7F4FB002211460720FEF7FBFB07201C
:102E2000FEF7ECFB07B030BD001002400008004880
:102E3000001400480004004810B51348114901600F
:102E4000124941600021816001614161816101227B
:102E5000C161C2600162FEF73DF9002801D0FDF7B3
:102E60000BFD00210848FEF7EBF8002801D0FDF724
:102E700003FD00210448FEF708F9002801D0FDF702
:102E8000FBFC10BD00540040980400200E090020F7
:102E900010B590B014216846FDF796F9002428215A
:102EA00006A80594FDF790F92649274812C07F210E
:102EB00001608460C460FF21046141600838FEF74E
:102EC000E5FE002801D0FDF7D7FC68460470447089
:102ED00084700394002269461B480494FFF738F875
:102EE000002801D0FDF7C8FC012069460875487527
:102EF000172088756220C875002205A91248FEF7C0
:102F0000C9FF002801D0FDF7B7FC68460476447677
:102F100084760E480B90C00107940D9009940A9492
:102F20000C94052108A80176FF2001300F900022A3
:102F300006A90548FEF71CFF002801D0FDF79CFC00
:102F400010B010BD00280040E40400200000808084
:102F500010B50A4808490160094941600021FF2273
:102F60008160F4320161C2608161FFF7F1F80028ED
:102F700001D0FDF781FC10BD00200040DC050020E1
:102F80007FBB000010B586B0002400941748019460
:102F90000294039404941449059401602F218460E1
:102FA00041600461446112498461C160FFF7D0F857
:102FB000002801D0FDF760FC012000030090694665
:102FC0000A48FFF737F9002801D0FDF755FC20200B
:102FD00004A911C105480839FFF78CF8002801D071
:102FE000FDF74AFC06B010BD004001402406002059
:102FF0000F27000010B596B000240F941094119480
:10300000129413941C2108A81494FDF7DDF82021D4
:103010006846FDF7D9F82B48294901602F218460C3
:1030200041600461446128498461C160FFF790F800
:10303000002801D0FDF720FC012000030F900FA90C
:103040002048FFF7F7F8002801D0FDF715FC1D48D0
:10305000FFF7B5FA002801D0FDF70EFC139413A971
:1030600018481494FFF746F8002801D0FDF704FC37
:1030700060200890FF202D300E9409900A940C9443
:103080000D940C2208A90F48FFF731FA002801D04F
:10309000FDF7F2FB01200094400302940590019497
:1030A00003940494694607940648FEF7F3FF00284A
:1030B00001D0FDF7E1FB0348FFF7DCF916B010BDC6
:1030C000002C014004050020E703000010B58EB07D
:1030D00000240794089409940A940B941C216846D0
:1030E0000C94FDF771F821481F4901602F2184607D
:1030F000416004611E498461C160FFF729F800281E
:1031000001D0FDF7B9FB01200003079007A917487C
:10311000FFF790F8002801D0FDF7AEFB1348FFF74A
:103120004EFA002801D0FDF7A7FB0B940BA90F481E
:103130000C94FEF7DFFF002801D0FDF79DFB602017
:103140000090FF20F5300190029408226946049413
:103150000648FFF7CCF9002801D0FDF78DFB0348A6
:10316000FFF788F90EB010BD000400404C050020A8
:10317000E703000010B50948074901602F214160AD
:103180000021074A8160C2608161FEF7E1FF0028EB
:1031900001D0FDF771FB10BD001000409405002028
:1031A000E703000010B50C480A490160E12149021B
:1031B000416000218160C16001618161C1610C22B7
:1031C000016242614162FFF72EFB002801D0FDF74A
:1031D00053FB10BD003801406C06002010B50E48AE
:1031E0000C490160E1214902416000218160C16018
:1031F000016181610C22C161426101620821416269
:1032000009034163FFF70FFB002801D0FDF734FBF2
:1032100010BD000000440040F006002070477047D9
:10322000002102E00A38C0B2491C0A28FAD2090774
:10323000090E0843704770B504460068C168490626
:1032400013D40021C943C160FDF7F4FE7D26054675
:10325000F60006E0FDF7EEFE401BB04201D9032068
:1032600070BD2068C0684006F4D5002070BD000025
:1032700010B50248FEF7EEFC10BD0000E40400208B
:10328000704710B5FEF76CF910BD000030B595B071
:1032900030216846FCF798FF00240C940D940E949E
:1032A0000F941094119412941394FEF7B7F91548E3
:1032B000016A182211430162062000900120039048
:1032C00002901020099404900520C00402250A9061
:1032D00008950B946846FEF7F1FA07200C900E94BF
:1032E00001210D950F940CA8FEF714FA06481090D2
:1032F000001211901294139410A8FEF797F915B0CC
:1033000030BD0000001002402100010070470000A5
:1033100010B50248FEF7FDFF10BD0000DC050020DF
:1033200010B50248FEF7F5FF10BD0000940500201F
:10333000F0B502681A4B1B4C984201D0A04203D151
:103340007025AA434D682A43174D184E184F9842CE
:103350000AD0A04208D0174CA04205D0A84203D002
:10336000B04201D0B84205D1144603221202944360
:10337000CA6822438024A2434C69224302608A68BF
:10338000C2620A688262984205D0A84203D0B04265
:1033900001D0B84201D10969016301214161F0BD49
:1033A000002C014000040040004001400044014066
:1033B000004801400020004010B5CB06DB0E012183
:1033C000046A99408C430462016A9A401143016285
:1033D00010BD30B58468FF252D021B021343AC439A
:1033E0000B432343836030BD826870239A430A43B2
:1033F00007210A4382607047F0B5026A5208520002
:103400000262056A436882697024A24392080C68CC
:1034100092001443022295438A68164E2A43144DA3
:10342000A84207D0B04205D0134FB84202D0134F84
:10343000B84206D10827BA43CF68174304229743FE
:103440003A46A84207D0B04205D00B4DA84202D060
:103450000A4DA84206D103252D02AB434D691D43F9
:103460008B692B4343608461496841630262F0BD0C
:10347000002C014000400140004401400048014050
:1034800070B5026A10239A430262056A4268836932
:1034900073242402A3430C6824021C4320239D436D
:1034A0008B681B012B43124DA84208D11D46CB68E7
:1034B0008026B5431B012B434025AB4308E00D4D4F
:1034C000A84205D00C4DA84202D00C4DA84208D10C
:1034D0000325AD02AA434D69AD0015438A699200E8
:1034E0002A434260846149688163036270BD0000C1
:1034F000002C0140004001400044014000480140D0
:1035000070B5026AFF2301339A430262056A436879
:10351000C2697024A24392080C68920014430122ED
:10352000520295438A6812022A43124DA84208D1DA
:103530001546CA68C614B54312022A430515AA43A4
:1035400008E00D4DA84205D00C4DA84202D00C4D0C
:10355000A84208D103252D03AB434D692D011D431E
:103560008B691B012B434360C4614968C1630262DC
:1035700070BD0000002C01400040014000440140AB
:103580000048014030B5026A01231B039A430262DE
:10359000046A4268C36973252D02AB430D682D028E
:1035A0001D4301235B039C438B681B0323430C4C8B
:1035B000A04208D00B4CA04205D00B4CA04202D038
:1035C0000A4CA04205D10124A403A2434C69A401E2
:1035D00022434260C56149680164036230BD000056
:1035E000002C0140004001400044014000480140DF
:1035F00030B5036A046A6408640004628469F025D3
:10360000AC43120122430A24A3430B4382610362A9
:1036100030BD30B5036A1024A34303628469036A92
:103620000F252D031203AC432243A024A343090119
:1036300019438261016230BD10B5818CC90707D082
:1036400001684A6801235B049A43836A1A434A600B
:10365000818C890707D501684A6801231B049A43B6
:10366000C36A1A434A60818C490707D501684A68D2
:1036700001239B049A43036B1A434A60818C090718
:1036800007D501684A680123DB039A43436B1A4359
:103690004A60818CC90607D50268916801231B0323
:1036A0009943836B19439160818C890607D5016822
:1036B0008A6801235B039A43C36B1A438A60818C37
:1036C000490612D503685A6801210905046C8A432A
:1036D00022435A60026C8A4207D102685168032370
:1036E0005B059943436C19435160818C090607D5EA
:1036F00001684A680123DB04806C9A4302434A60F4
:1037000010BD0000F8B50446002680300660FDF7C5
:1037100091FC054620680068124F000709D5012179
:103720002B46002249052046009700F0B7F80028F4
:103730000DD12068006840070BD501212B460022DF
:1037400089052046009700F0A9F8002801D0032041
:10375000F8BD2020A067E06726666034267500204B
:10376000F8BD0000FFFFFF0170B5044680682169C5
:10377000E269084361690025114322680843116822
:10378000404B19400143116021684868032212032D
:103790009043E26810434860A169206A08432168A9
:1037A0008A680B231B029A4302438A6036492068C9
:1037B000884210D13548006B8007800F0ED0012859
:1037C00005D0022805D003280AD1022109E00421EE
:1037D00007E0082105E02E49884201D1002100E0E0
:1037E00010210120E369C0032A4A2B4E834223D1D2
:1037F000002906D0022907D0042907D0082937D18B
:1038000008E0FEF70BF803E0104603E0FEF716F8B9
:10381000002831D0616840004A088018FCF762FC3B
:1038200080B201461039B14222D81B49491C0140DF
:103830000007400F08431DE0002906D0022907D0E9
:10384000042907D0082913D108E0FDF7E7FF03E0BA
:10385000104603E0FDF7F2FF00280DD061684A082A
:103860001018FCF73FFC80B201461039B14201D973
:10387000012501E02168C86000206066A066284636
:1038800070BD0000F369FFFF0038014000100240E6
:103890000044004000127A00EFFF0000FFB581B045
:1038A00005461746044660350A9E55E0701C53D005
:1038B000FDF7C0FB0499401AB04230D8002E2ED03C
:1038C00020680168490747D5C069C043000543D453
:1038D00001202168C0020862EFF31080012181F30A
:1038E000108821680B68FF22A13293430B6080F39C
:1038F0001088EFF31080012181F3108821688A6815
:10390000520852008A6080F310882020A067E06788
:103910008034206000202875032005B0F0BDEFF34F
:103920001080012181F3108821680B68FF22A132E9
:1039300093430B6080F31088EFF31080012181F333
:10394000108821688A68520852008A6080F31088C3
:103950002020A067E067DDE72068C16902988843FE
:1039600004D00020B842A1D00020D6E70120F9E71A
:103970002021020C01D010211046020A01D010466D
:103980000839020901D01046091F820801D01046EB
:10399000891E420801D0881E7047081A7047F8B582
:1039A000040C8BB2264682B25E430D0C1046370CD7
:1039B0005843360480190021794116466E43370C6E
:1039C00036048019794126466E438919F8BD0000F6
:1039D0008307FF22DB0E9A408907090E99400028D1
:1039E00008DB830809489B001B18186890430843AC
:1039F000186070470007000F0838830804489B00D0
:103A00001B18D86990430843D861704700E400E070
:103A100000ED00E002E008C8121F08C1002AFAD138
:103A200070477047002001E001C1121F002AFBD13E
:103A30007047203000794007C00F70472030007970
:103A40000007C00F704720300079C006C00F7047D4
:103A5000F0B50446324885B0C068401CFCF77FFDD5
:103A60003049FCF752FC00902F48E0602F4820615D
:103A70000420205EFCF768FD2B490390FCF708FC4E
:103A800002900220205EFCF75FFD05460099FCF7DE
:103A9000FFFB064624480099FCF7FAFB2946FCF791
:103AA000F7FB07460020205EFCF74EFD1E49019003
:103AB000FCF7EEFB01460198FCF7E2FB3946FCF708
:103AC000DFFB3146FCF78BFB0299FCF788FBFCF728
:103AD0006FFD06B2268015490398FCF7D9FB07460F
:103AE000019512480099FCF7D3FB2946FCF7D0FB5F
:103AF00005463046FCF728FD01460D48FCF7C8FB9B
:103B00002946FCF7BDFB0199FCF769FB3946FCF738
:103B100066FBFCF74DFD6080E680208105B0F0BDBE
:103B20009405002000247449C572CB3CA4E29F3E5A
:103B3000A4E29FBEF8B504460220205EFCF704FD17
:103B400000906169E068FCF74AFB26690746314648
:103B5000FCF745FB054629463846FCF7D6FB00999D
:103B6000FCF796FB07460420205EFCF7EDFC009076
:103B700029463046FCF7C9FB0099FCF789FB39461A
:103B8000FCF72DFBFCF714FD2080A0800148A0600D
:103B9000E060F8BD6D7CD341FDF7EAFCFFF776FBF2
:103BA000FFF7D2F8FFF7B4F8FFF746F9FFF770F91F
:103BB000FFF720FAFFF78AFAFFF7F4FAFFF772F837
:103BC000FFF70CFBFFF7D6FAFFF7DCF9FFF7C0F9B8
:103BD0007D24E4002046FDF7E5F82146084600F084
:103BE00081F86000FDF7DEF82046FDF7DBF8FEE720
:103BF000F0B58BB00C460646052900D905242046B1
:103C000006225043192103AD02910190012307229E
:103C10000095AF211248FDF7C7FB00221BE01046BC
:103C200006214843295C4019437809041B021943C3
:103C3000837819438903890BD300F150C178077940
:103C400009043F024079394301438803800B9919E5
:103C5000521CD2B24860A242E1D30BB0F0BD0000CA
:103C60009804002030B585B00021684601730174C6
:103C7000012403A80A25009023460422AF210295BF
:103C800001940B48FDF790FB04A800900123062245
:103C9000AF21029501940648FDF786FB6846017B3B
:103CA000007C081A00D52030C0B205B030BD00003D
:103CB000980400202030002902D001790422114309
:103CC000017170472030002902D001790822114388
:103CD000017170472030002902D001791022114370
:103CE0000171704770B50C46054608211148FEF772
:103CF0008DFC29461048FCF70BFA0E490A68D06281
:103D0000C860C20F101809684010C8632046FDF74C
:103D100049F808210748FEF7CDFC2046FCF726FCB1
:103D2000064A074BFCF730FBFCF75CFCFDF73AF862
:103D300070BD00004C05002040420F003333333388
:103D40003333D33F000000000000000001020304F1
:103D50000607080900000000010203047C3D00087A
:103D6000000000203C000000143A0008B83D0008A4
:103D70003C0000207C0E0000243A000816160000CB
:103D8000DC05000000000000000000000000000052
:103D90000000000000000000000000000000000023
:103DA0000000000000127A00000000000100000086
:083DB000040000000000000007
:04000005080000B53A
:00000001FF
